:1000000027C036C035C034C033C032C031C030C064
:100010002FC02EC02DC099C02BC02AC029C028C017
:1000200027C000003A00370000003B003800010103
:100030000101010101010202020102040810204035
:10004000800402010000000000040302010000001F
:1000500011241FBECFE5D2E0DEBFCDBF20E0A0E679
:10006000B0E001C01D92A936B207E1F7B8D0FCC0DC
:10007000C7CF90E0FC01EC5BFF4F3491FC01E75CE3
:10008000FF4F2491FC01E25DFF4FE491EE23B9F0B4
:10009000332329F0323019F198F43130E1F0F0E0F7
:1000A000EE0FFF1FE85DFF4FA591B4918FB7F89455
:1000B000EC91611117C020952E232C938FBF0895CA
:1000C000333029F0343059F78FB58F7D02C08FB5AA
:1000D0008F778FBDE4CF80B78F7780BFE0CF80B7B9
:1000E0008F7DFBCF2E2BE9CFCF93DF9390E0FC01E8
:1000F000E75CFF4F2491825D9F4FFC018491882330
:10010000D1F090E0880F991FFC01EE5DFF4FA591A3
:10011000B491FC01E85DFF4FC591D49161110EC00F
:100120009FB7F8948C91E22FE0958E238C932881D1
:10013000E223E8839FBFDF91CF9108958FB7F894B2
:10014000EC91E22BEC938FBFF6CF1F920F920FB67C
:100150000F9211242F933F938F939F93AF93BF934D
:100160008091650090916600A0916700B091680051
:100170003091640020E3230F2D3758F54096A11DE0
:10018000B11D209364008093650090936600A09356
:100190006700B09368008091600090916100A09129
:1001A0006200B09163000196A11DB11D80936000B3
:1001B00090936100A0936200B0936300BF91AF91F0
:1001C0009F918F913F912F910F900FBE0F901F9095
:1001D000189523EB230F4196A11DB11DD2CF789422
:1001E00080B7826080BF80B7816080BF83B7826044
:1001F00083BF83B7816083BF89B7816089BF1EBC1D
:100200008EB582608EBD8FB581608FBD3298319A78
:10021000309A379A60E08AE067DF61E08AE029DFA0
:1002200061E080E061DF61E081E05EDF61E083E06A
:100230005BDF61E082E058DF61E088E055DF60E08D
:1002400080E017DF60E081E014DF60E083E011DF31
:1002500060E082E00EDF60E088E00BDFC0E0D0E02D
:0C0260002097F1F3CDDEFCCFF894FFCF27
:00000001FF
