:020000040800F2
:10800000009F002079830008458100087D820008D8
:108010005581000865810008758100080000000096
:10802000000000000000000000000000298300089C
:108030002983000800000000298300089D830008B0
:108040002B8300082B8300082B8300082B83000858
:108050002B8300082B8300082B8300082B83000848
:108060002B8300082B8300082B8300082B83000838
:108070002B8300082B8300082B8300082B83000828
:108080002B8300082B8300082B830008298300081A
:108090006D84000829830008298300082B830008C9
:1080A0002B8300082B8300082B8300082B830008F8
:1080B0002B8300082B8300082B8300082B830008E8
:1080C0002B8300082B8300082B8300082B830008D8
:1080D0002B8300082B8300082B8300084D840008A5
:1080E0002B8300082B8300082B8300082B830008B8
:1080F0002B8300082B8300082B8300082B830008A8
:108100002B8300082B8300082B8300082B83000897
:108110002B8300082B8300082B8300082B83000887
:108120002B8300082B8300082B8300082B83000877
:1081300008B513460A460146014802F07BFEFEE7F9
:108140007836010808B5024802F074FEFEE700BF69
:108150009936010808B5024802F06CFEFEE700BF40
:10816000A636010808B5024802F064FEFEE700BF2B
:10817000B936010808B5024802F05CFEFEE700BF10
:10818000CB360108024BEFF308801860704700BF40
:108190009003002037B5044601462D482D4D02F0CE
:1081A00049FEE368216800932846D4E9012302F0E0
:1081B00041FEE369216900932846D4E9052302F0D2
:1081C00039FEE36A216A00932846D4E9092302F0C4
:1081D00031FEE36B216B00932846D4E90D2302F0B6
:1081E00029FEE36C216C00932846D4E9112302F0A8
:1081F00021FEE36D216D00932846D4E9152302F09A
:1082000019FEE36E216E00932846D4E9192302F08B
:1082100011FEE36F216F00932846D4E91D2302F07D
:1082200009FED4F88C30D4F8801000932846D4E9A5
:10823000212302F0FFFDD4F89C30D4F89010009375
:108240002846D4E9252302F0F5FD03B030BD00BF78
:10825000DF360108F4360108684620F007018D4634
:10826000044808B502F0E6FD034B1868FFF792FFDB
:10827000FEE700BF1C37010890030020084BEFF316
:1082800008825C601A609D60DE601F61C3F8148024
:10829000C3F81890C3F81CA0C3F820B0FFF7DCFFA8
:1082A0009003002010B5A0B000F0EAF802F0FEFB49
:1082B00002F0D0FE02F0D4FE194802F019FE194C6B
:1082C00001A804F05FFF0122002101A804F040FF93
:1082D00001A800F08DF9002344F64542194601A893
:1082E00005F0BAFC0022012101A800F0FBFA02F01F
:1082F000AFFC024618B1022101A800F0F3FA01A870
:108300000022032100F0EEFA01A805F054FC002839
:10831000EDD000F0C9F80146204602F08BFDCFE712
:108320000A3701080B370108704708B5014802F009
:10833000BDFDFEE7303701080A4A0B4B9A4203D0D5
:108340000A49043A8B4205D30021094B094A93425A
:1083500005D3704752F8040F43F8040BF2E743F8D3
:10836000041BF4E7385601080000002088030020B1
:10837000900300206C4B0020684620F007018D46DA
:1083800008B5FFF7D9FFFFF78DFFFEE70022024B8C
:1083900018781A70704700BFB4030020F8B5284C55
:1083A000636801336360A36813B1A368013BA360F2
:1083B000E3682BB1E0680138E06008B903F07EFFA4
:1083C00003F0E4FF1F4B82B21978C2F30135C0B24B
:1083D000A9424FEA923200F00F0608D01A4F45EA40
:1083E00081017956002924DD2B2121701D705978D7
:1083F0008A4208D0144D42EA8101695600291BDDEA
:108400003E2121705A709A78B24211D0C70744BFFA
:1084100031222270850744BF32222270410744BFB7
:1084200033222270020748BF34229E7048BF227058
:10843000F8BDDBD02D21D8E7E4D03C21E1E700BF37
:10844000B4030020300100203A370108064808B57F
:1084500003889B0606D509F04DF9BDE80840C0B277
:1084600008F060BE08BD00BF0048004002F0BEBD7D
:10847000024B18601A68002AFCD17047BC03002028
:1084800003F048BF0823C0EB801090FBF3F010F11D
:10849000FF3000D3FBE77047FFF7EABF014B1868D6
:1084A000704700BFB803002040F00100004770474C
:1084B000704770470E4B03600E4B9A8901329A81C8
:1084C0000022C2601A698AB903F11C0159614FF494
:1084D0000021996103F18401D9674FF4802118616B
:1084E000C3F880109A80DA801A815A81704700BFE1
:1084F00054370108C4030020C0687047014B186856
:10850000704700BFC4030020006908B1436903B984
:1085100070471846F9E7C36870B5064613B90024DA
:10852000204670BD1B6923B90D4A30210D48FFF765
:10853000FFFDF3681C69B442F1D024B90A4A342122
:108540000848FFF7F5FD65691DB1B542E8D02C4636
:10855000F9E7064A3B210348FFF7EAFD2C46DFE72F
:108560008D370108AE370108CA3701089354010856
:1085700038B50446056925B12846FFF7F9FF6D694E
:10858000F9E7E3681A69A24205D162691A6100231A
:10859000E360238338BD2046FFF7BDFF6369436175
:1085A000F5E72DE9F0411E46C368044688461746A4
:1085B000069D23B10C4A56210C48FFF7B9FD002354
:1085C00030687168221DC4F81C8003C2E560C4E9EC
:1085D0000433278325B12846FFF796FF10B92C6195
:1085E000BDE8F0814461FBE7CF370108AE370108F1
:1085F00003694BB11A8B02F00302012A02D1044A2B
:10860000136070475B69F4E7014B1860704700BF67
:10861000C4030020024B1B681B1A58425841704784
:10862000C4030020014B1868704700BFC40300203A
:10863000028BD20704D503680022DB6801211847AA
:10864000704730B40C4609688D680146AC46204638
:1086500030BC604738B5038B044603F001050A4679
:1086600021B115B943F00103238338BD1DB103685F
:108670002021DB689847238B23F00103F4E743694B
:1086800033B11A8B02F00302012A06D05B69F7E7C7
:10869000C06810B1028B1207F1D51846704710B5AB
:1086A00004462046FFF737FF28B1038B03F003038E
:1086B000012BF7D110BDE468002CFBD0238B1B07E6
:1086C000EFD5F7E7012970B504461CD1274B1B688D
:1086D000834204D0264A77212648FFF729FD204609
:1086E000FFF7CDFF054668B30369002B18BF1D4691
:1086F0002846FFF77DFF2046FFF79AFF2846BDE892
:108700007040FFF795BF02291DD1184B1B688342AB
:1087100004D0174A8C211748FFF70AFD2046FFF7BF
:10872000BEFF064670B1FFF7EFFE054638B1038B7A
:1087300003F00303012B03D0FFF7EDFEF5E7354609
:10874000A542D5D170BD0629FCD1C368002BF9D054
:10875000DB68002BF6D01D69002DF3D02846FFF70B
:10876000D3FE002818BF0546C2E700BFC40300209F
:10877000E3370108AE37010810B50146002408466A
:108780000134FFF77CFF0E2C01D1084610BD08B163
:108790000146F4E7022CF8D10B69002B08BF002139
:1087A000F3E738B504460E252046FFF778FF013D74
:1087B00001D1204638BD0028FBD00446F4E7F8B5C7
:1087C0000D460646FFF76AFE0A4C2F18228B638B74
:1087D0009A4204D3084A9E210848FFF7A9FC228B3D
:1087E0006169531C23830C235343CA18CE50C2E93A
:1087F0000157F8BDC4030020F43701080B38010805
:10880000C068003018BF01207047038B13F00103CC
:1088100004D0C0680028F8D101207047184670477E
:1088200000487047C803002010B50D4CB4F9B420BF
:10883000B4F9B8309A4205DA0A4A4FF4E0710A48AE
:10884000FFF776FC09490A4652F8B03DC4F8B43047
:1088500053684B600023A380E3802381638110BDB4
:10886000C40300203E380108AE3701087804002018
:10887000084B194651F8B42F5A604A689A60002292
:10888000A3F8B420A3F8B620A3F8B820A3F8BA2020
:10889000704700BFC40300202DE9F041FFF7FEFD43
:1088A000002407460E4E06F11408338B9C4215DA5D
:1088B0002146404600F080F983680546BB420BD252
:1088C0000068038BDB0707D503681B699847FFF730
:1088D000E5FD6B681844A8600134E6E7BDE8F08167
:1088E000C4030020013970B50446154603294FD84A
:1088F000DFE801F002131D3803681B6898472469FC
:10890000002C45D0238BDD0705D523680022DB68CA
:108910000121204698476469F2E71E4B1868002839
:1089200036D0BDE87040036891B25B681847C368F1
:108930000BB9FFF7B1FF238BD80606D5002347F20A
:10894000694221462046FFF77CFE246904B3238B4D
:10895000D90705D523680022DB6803212046984704
:108960006469F3E7038B9A0605D5036804229E68C1
:1089700000212B46B047246954B1238BDB0705D572
:1089800023682A46DB680421204698476469F3E798
:1089900070BD00BFC40300202DE9F0411C4E074606
:1089A0000024354606F11408338B9C422DDA21460B
:1089B000404600F001F90368BB4224D1338B9C424E
:1089C00004DB144ACE211448FFF7B2FB0C236343A7
:1089D0002A8B03F10C06013AA24208DD6A690134D0
:1089E0001344324407CA83E807003346F0E793B2E2
:1089F0006A8B2B839A4208D2BDE8F041074AB22124
:108A00000548FFF795BB0134CEE7BDE8F08100BF14
:108A1000C40300207F3701080B3801085A380108C9
:108A2000F0B587B06C46054620460F4600F0B4F816
:108A300094E807002D4C03AE86E80700B4F88230B6
:108A4000B4F880209A4204D3294A9E212948FFF78E
:108A50006FFBB4F88030E26F591CA4F880100C2131
:108A600001FB032396E8070083E80700F7B13846C7
:108A7000FFF7BEFD204800F0B7F80068FFF7D8FD0B
:108A8000B4F90430B4F908108B4211DB2A4652F8CD
:108A9000043F63605368194A536001212846FFF779
:108AA000D9FD2846FFF7C4FD07B0F0BD2846DFE733
:108AB000B5F904209A42A8BF1A46B4F90630A2803C
:108AC000B5F906209A42A8BF1A46B5F90830E280E7
:108AD0008B42B8BF0B46B5F90A202381B4F90A309E
:108AE0009342B8BF13466381D7E700BFC403002099
:108AF000F43701080B38010840040020C8030020A7
:108B000008B5024800F070F808BD00BF400400201E
:108B100010B504461A4800F067F80368A34205D16F
:108B2000184A4FF4D5711848FFF702FB2046FFF7AB
:108B30001FFD0023154C04F17C00A380E3802381FA
:108B4000638100F051F80068FFF752FD2069FFF7DC
:108B50006FFD04F17C0000F047F8031D03CBB4F86F
:108B600080306060A16023B9094AAA210948FFF753
:108B7000DFFAB4F88030013BA4F8803010BD00BFAC
:108B80004004002083380108AE370108C4030020E8
:108B9000683701080B380108034610B50446054A3A
:108BA000116852F8040F43F8041B516803C32046B0
:108BB00010BD00BFC403002038B50C1E05468388D5
:108BC00001DAE41801D4A34204DC054AC8210548AF
:108BD000FFF7AEFA0C202B6800FB043038BD00BF55
:108BE000753701080B380108838810B5044623B98E
:108BF000054AA4210548FFF79BFA0C23A0884343AC
:108C000020680C3B184410BD683701080B38010878
:108C100010B5094C04F18400FFF7BEFF04F1900089
:108C2000FFF7BAFF04F19C00FFF7B6FF04F1A800BC
:108C3000FFF7B2FF10BD00BFC40300200E22024B9D
:108C400002FB0030704700BFAE3801080048704793
:108C5000AE380108002138B50546084603F0FEFA93
:108C60004FF49634284603F005FB013CFAD138BD99
:108C70002DE9F0411D4680460C461646C1F1F00331
:108C8000C5F1F001BDF8187003F007FBA6EB08066C
:108C90002C1B744314F1FF3403D3384603F0EAFA73
:108CA000F8E7BDE8F08113B5B0F90240B0F906303D
:108CB000B0F90420B0F9000000912146FFF7D8FF79
:108CC00002B010BD37B50D460446B0F90210B0F938
:108CD00004204B1CB0F900000095FFF7C9FFB4F960
:108CE0000630B4F90420B4F90000591E0095FFF7CE
:108CF000BFFFB4F90000B4F90630B4F90210421C09
:108D00000095FFF7B5FFB4F90420B4F90630B4F9C3
:108D100002100095501EFFF7ABFF03B030BD10B539
:108D20001446C1F1EF0103F099FA2046BDE8104066
:108D300003F0A0BA10B50C46B0F90210B0F900006B
:108D4000C1F1EF0103F08AFA2046BDE8104003F0BC
:108D500091BA08B5C1F1EF0103F080FABDE808400F
:108D600003F08CBA2DE9F74F90460E2299469DF8F4
:108D70003040314B074602FB04344FF61E03994541
:108D80001DD104F1FF3904F10D0A0C1B19F8016F14
:108D90000025F64304EB090BF6B2320604D5424631
:108DA00059467819FFF7BBFF01357600082DF6B25A
:108DB000F3D1CA45EAD1082003B0BDE8F08F984549
:108DC0001CD104F1FF3804F10D0B0C1B4FF0000A0D
:108DD00018F8016F04EB0805330605D54A46294605
:108DE00007EB0A00FFF79BFF0AF1010A7600BAF1D0
:108DF000080FF6B2F0D1D845E8D1DCE70D4604F112
:108E00000E03019300F1080B3E4614F801AB1AF073
:108E1000800F14BF4A464246304629460136FFF7C6
:108E20007EFF4FEA4A03B3455FFA83FAEFD1019B15
:108E300001359C42E8D1BEE7AE3801082DE9F74381
:108E40000A9D06460F4690469946BDB1287890B1D6
:108E5000013D344615F8013F63B10A2B01D11037AB
:108E6000F7E7009320464B4642463946FFF77AFF24
:108E70000444EFE7A01B03B0BDE8F0832846FAE7FF
:108E8000FFF7DCBF41EA000333F0030301BF40EA10
:108E900081000349401890F8000E18BF0020704769
:108EA000AE3801082DE9F04F984605460E461746A4
:108EB0000C4687B0BDF8403001F1030A0293531EFF
:108EC000A8F1030B059344452EDAA24508D1029B75
:108ED0003A46009351465B462846FFF7C9FE5C467A
:108EE000A946A8EB0402531E0393A31B0493B945A0
:108EF00018DA059BA9EB0502A3EB0900039B1946B1
:108F0000049B9942A8BF19469042A8BF1046FFF79C
:108F1000B9FF20B9029A21464846FFF700FF09F140
:108F20000109E4E70134CEE707B0BDE8F08F13B5DF
:108F3000B0F90240B0F90630B0F90420B0F90000F1
:108F400000912146FFF7AEFF02B010BDB0F902302C
:108F5000B0F90610B0F90420C3F1F003C1F1F0013B
:108F6000B0F9000003F099B903F084B970472DE916
:108F7000F74F064600254FF61E0917460C9A9846ED
:108F8000137802F1010B00934B1E01935C46019B89
:108F9000A3EB0B0A009BA4EB0B02934213DD14F826
:108FA000012BB2B153070AD54F45F3D03A4604EB33
:108FB0000A013046FFF7B3FEECE7A346E6E7C845F3
:108FC000E8D04246F3E70135502D06F10106F4D111
:108FD0000825284603B0BDE8F08F2DE9F84F0A9F19
:108FE00080463C460D4691469A4692B29BB289B263
:108FF00080B203F075F90B9B07EB430655450EDA7B
:10900000C346CB4509DA34F8020B03F033F9A64224
:1090100008BF3C460BF1010BF3E70135EEE7BDE875
:10902000F88F024AD7210248FFF782B8935401080B
:10903000BE46010800F58033DB0200F108208342C0
:1090400004D21A68013203D10433F8E701207047D3
:109050000020704708B51D4B0344DB02B3F56C3F9D
:1090600002D34FF0FF3008BD194A1169090623D415
:10907000174AD168C907FCD4116903F1006303F5ED
:10908000A04341F0020111615361136943F04003B1
:1090900013610F4BDA6812F00102FBD119691A61F2
:1090A0001A6942F080021A61FFF7C4FF00280CBF62
:1090B0006FF00A000120D6E70649516001F18831BE
:1090C000516012691206D3D5CBE700BFF6FF1F002F
:1090D000002002402301674508B50B4600F58031AA
:1090E0004FF40062C902184609F07AFF012008BD5A
:1090F00000F58033012030B5C1EBC32301F50064D6
:109100005A5851F8045BAA4202D0013205D100201E
:10911000A142F5D180F0010030BD0220FCE700F54E
:109120008030C00200F17843A3F5A043B3F56C3F53
:10913000F0B502D34FF0FF30F0BD1A4B1A69140698
:1091400024D4184AD368DB07FCD4164E01F5006717
:109150003546431A32695C1842F00102326131F837
:10916000022B2280E86810F00100FBD12A6922F06E
:1091700001022A61228831F8024C94420FD1B9428F
:10918000E8D12B6943F080032B61D5E7064A5A608A
:1091900002F188325A601B691A06D2D5CAE76FF00D
:1091A0000A00C9E7002002402301674538B50E4B8D
:1091B0000E4A0344B2EBC32F04460D4610D3FFF70B
:1091C00097FF00280EDD022802D12046FFF742FF5C
:1091D000012807D129462046BDE83840FFF79FBF48
:1091E0004FF0FF3038BD00BFF6FF1F00FFAF030098
:1091F000002380F80038C0F804387047014690F822
:10920000000818B1D1F80408FFF7D0BF70472DE966
:10921000F74F044691464FF0000A4FF0010B01F161
:109220007845ED0A1E4605F58033A1EBC321C1F553
:10923000006821F0010143180093002E27DDD4F8C7
:109240000438C4F804589D4205D021462846FFF74B
:1092500043FF84F800A84645ABBF47463746012385
:1092600000233A4649460098019309F0B9FE019B54
:1092700084F800B8F61B002BDFD02146D4F8040890
:10928000FFF794FF0028D8D003B0BDE8F08F00208E
:10929000FAE70148704700BF8004002040F608024A
:1092A0000021014809F012BF8004002038B5074CA6
:1092B0002046FFF7A3FF054640F60802002120469E
:1092C00009F004FF281C18BF012038BD80040020CD
:1092D00008B513460A4601460248FFF798FF0120E9
:1092E00008BD00BF8004002001380A44914204D028
:1092F00011F8013B00F8013FF8E77047026930B50B
:1093000001F109036AB3426901F11105541E14F811
:10931000010F202806D0052808BFE52003F8010B1F
:10932000AB42F4D1107A20280DD018462E24D51D3A
:1093300000F8044B013315F8014F202C03D003F83B
:10934000014B9842F7D1D07A0872D0690860547EF8
:10935000107E40EA04208880D07D927D42EA00227F
:10936000CA8000221A7030BD03685BB11A784AB116
:10937000D9888288914205D15B78002B14BF0320E5
:109380000020704709207047CA7E8B7E032843EA7D
:10939000022301BF487D0A7D42EA002243EA0243DC
:1093A0001846704783690239023B8B4283BF83783A
:1093B000806A01FB03000020704748B9054B1A681A
:1093C00002B1107009B100220A70196000207047C4
:1093D0000B207047000D0020003018BF012070479F
:1093E000003018BF0120704738B50D4604461146BD
:1093F00048B943B11B03284603F47042090306F041
:10940000D2F9204638BD0420FCE710B50A460446D0
:1094100000F1300101234078FFF7E6FFC0B994F86E
:109420002F2294F82E3243EA02234AF65522934221
:1094300010D1D4F86630084A23F07F43934206D017
:10944000D4F8820020F07F40801A18BF012010BDA0
:109450000320FCE70220FAE7464154002DE9F843D7
:1094600003681A78303A092A1ED900230B607D4E12
:109470003468002C00F0F1800C6023780BB1607828
:1094800080B1002323804FF480530021C4F80A30B8
:109490002046FFF7BAFF012840F0CC8094F8F23163
:1094A0006BB90D20BDE8F8835C783A2CDDD102332E
:1094B000036000230B60002AD9D00B20F2E7D4F818
:1094C000F67120463946FFF7A0FF032800F0C78059
:1094D0000028E6D194F83C3094F83B0040EA0320A1
:1094E00063898342DDD194F8473094F8462094F89C
:1094F00040C052EA032208BF626D0CF1FF33012B1A
:10950000E26184F803C0CCD894F83D9084F80290CE
:10951000B9F1000FC5D009F1FF3313EA090FC0D12B
:1095200094F8423094F84180450948EA0328B8FB92
:10953000F5F105FB1185ADB2A4F80880002DB0D17E
:1095400094F8445094F8433094F83EE053EA0523ED
:1095500094F83F5008BF236D5EEA052EA1D002FBB0
:109560000CFC7144614499429BD85B1AB3FBF9F33C
:10957000002B96D040F6F5754FF6F579AB428CBFCF
:10958000022501254B4588BF032539440233A162DA
:10959000032D0EEB0701A36121624DD1B8F1000F3D
:1095A0007FF47FAFE16D9B006162411E0B44B3FB12
:1095B000F0F08242FFF475AF00234FF0FF32032D2D
:1095C000C4E903322CD1637194F8602094F86130BF
:1095D00004F1300142EA03223A44626101236078D7
:1095E000FFF702FFE0B994F82F2294F82E3243EAF5
:1095F00002234AF65522934212D1226B1A4B9A4209
:109600000ED103F1FF53D4F8142203F50053203395
:109610009A4201BFD4F81C32E360D4F818322361B7
:109620000020B388257001339BB2B380E380E062F1
:10963000207137E7002748E7B8F1000F3FF431AF5A
:109640006144022D61624FEA43011BBFC91803F058
:1096500001030B4603EB5103A7E70C2022E701208F
:1096600020E700BF000D00205252614138B50C4682
:10967000154668B963B1012B04D0064A212106487A
:10968000FEF756FD2046290306F078F8002038BD85
:109690000420FCE7DB460108E64601082DE9F0411D
:1096A000C56A04468D420F4602D10020BDE8F08114
:1096B0000379EBB146780EB10120F7E700F13008ED
:1096C0002903404606F05AF8D4E907231344AB4275
:1096D00026710DD9E678012E0AD9E36941461D4469
:1096E0002A4601236078013EFFF7C0FFF6B2F2E799
:1096F000002FDAD001233A4604F130016078FFF7F9
:1097000073FE0028D8D1E762D0E70129F8B50546F5
:109710000E4672D983698B426FD90378022B32D0FF
:10972000032B48D0012B09D1438901EB5107B7FB2B
:10973000F3F3016A1944FFF7B1FF10B14FF0FF30A6
:1097400020E069892846B7FBF1F301FB1373013769
:10975000B7FBF1F12B4493F830402B6A1944FFF723
:109760009DFF0028EAD16A89B7FBF2F302FB137769
:109770003D4495F83000F30744EA00204CBF00094F
:10978000C0F30B00F8BD43895B08B1FBF3F3016A3A
:109790001944FFF783FF0028D0D172006E89B2FB15
:1097A000F6F306FB1326354495F8313095F8300072
:1097B00040EA0320E6E743899B08B1FBF3F3016A23
:1097C0001944FFF76BFF0028B8D16A89B600B6FBD1
:1097D000F2F302FB136606F130032B449878DA7833
:1097E0000004354440EA026095F830205B7810436D
:1097F00040EA032020F07040C4E70120C2E770B5C2
:1098000004460D46E1808168012901D1022070BD26
:1098100003689A698A42F9D9F9B91A78032A01D1F9
:10982000596AD1B90022E2601A89AA42EED95A894E
:109830005B6A5209B5FBF2F21344236123680020EE
:109840005A8903F130015209B5FBF2F302FB1355BB
:10985000ADB201EB45156561D9E75E8972099E7865
:109860005643B6B2B54222680ED31046FFF74DFFFD
:10987000431C014613D00128C8D923689B69834241
:10988000C4D9AD1BADB2EDE7E1601046FFF78AFD2C
:1098900053895B09B5FBF3F318442061CEE701203F
:1098A000B5E701292DE9F04104460D46164640F280
:1098B000898083698B4240F285800378022B45D0F2
:1098C000032B5AD0012B7BD1438901EB5108B8FB04
:1098D000F3F3016A1944FFF7E1FE58BB618915F003
:1098E0000105B8FBF1F301FB1383234417BF93F881
:1098F0003020F2B202F00F0032011CBF02F0F00281
:10990000024383F83020012308F10108B8FBF1F18C
:109910002371236A20461944FFF7C0FE50B96389BA
:10992000B8FBF3F703FB178727443DB1C6F30712D3
:1099300087F8302001232371BDE8F08197F83020AB
:10994000C6F3032622F00F023243F1E743895B0896
:10995000B1FBF3F3016A1944FFF7A0FE0028E9D137
:1099600063896A00B2FBF3F503FB15253212254427
:1099700085F8306085F83120DCE743899B08B1FB2E
:10998000F3F3016A1944FFF789FE0028D2D16289F6
:10999000AD00B5FBF2F302FB135505F13001214494
:1099A000CB7825441B0603F0704343EA06021312EA
:1099B00085F830204B70130C120E8B70CA70B9E70B
:1099C0000220B7E70220B7E7F8B505460F4679B998
:1099D000C668BEB183699E4228BF01263446AB6982
:1099E0000134A34211D8012E0ED800242046F8BD20
:1099F000FFF78BFE0128044630D9AB698342F5D8C6
:109A00003E46EBE70126E9E7022421462846FFF718
:109A10007CFE48B1411C02D14FF0FF34E6E701283B
:109A20001CD0B442DBD1E0E76FF0704221462846FB
:109A3000FFF737FF80B947B92B69EC605A1CD5D0C6
:109A4000013B2B6101236B71D0E722463946284642
:109A5000FFF727FF0028EFD00128DDD00124C5E75C
:109A6000F8B504460D46FFF77FFC0746002868D18D
:109A7000A27916065CD4E3689D4203D912F0020F66
:109A800008BF1D460022A368A260BDB9E368AB42CF
:109A900057D2A379E56043F02003A37151E0002081
:109AA0002368A5685A89B5FBF2F302FB1353002B18
:109AB000ECD0A369834218BFA061E7E720688278F1
:109AC000468956434BB3013B6A1EB2FBF6F2B3FB29
:109AD000F6F18A4221D3724213406169A360ED1A04
:109AE0000029DCD0AE42206807D2A3799A072DD591
:109AF000FFF76AFF014660BB3546A36820682B4428
:109B0000A3604389B5FBF3F203FB1255002DC6D0C9
:109B1000FFF748FC40B11044C2E72169A1B9FFF743
:109B200053FF0128014605D1A37963F07F03A37198
:109B3000022706E0013006D10127A37963F07F03F5
:109B4000A3713846F8BD21616161C9E7FFF7DDFD0A
:109B500001464B1CF0D00129E6D923689B69994244
:109B6000E2D2A36861613344A360AD1BBAE7012967
:109B7000F8B504460D4622D983698B421FD90127C7
:109B8000A369AB4201D80020F8BD29462046FFF763
:109B9000BCFD06460028F6D0012810D0411C10D08C
:109BA000002229462046FFF77CFE0028ECD12369DD
:109BB0005A1C02D00133236167713546E0E7022069
:109BC000E2E70120E0E770B5044640B3FFF7CCFBC5
:109BD000054698B9A379190623D49A0723D5D4E961
:109BE000022191420AD943F02003E260A371206868
:109BF00032B92169FFF7BBFF256140B9284670BD26
:109C00006169FFF782FD431C06460ED10120A3794E
:109C1000054663F07F03A371F0E70220F7E709250B
:109C2000ECE70225EAE70725E8E70128F5D02068F8
:109C300083699E42E2D26FF070426169FFF731FEA4
:109C40000028E4D131462068FFF791FFD5E72DE9E0
:109C5000F041C58804460135ADB20F4615B9042060
:109C6000BDE8F0810269002AF9D0006843895909EA
:109C7000B5FBF1F301FB13539BB233B9E168013239
:109C8000226191B90389AB42E9D92368E5805A89F9
:109C900003F130015209B5FBF2F302FB1355ADB2EB
:109CA00001EB451565610020DAE7438982785B099D
:109CB000B5FBF3F3013A1342E7D1FFF726FD012884
:109CC000064601D80220CBE7421C01D10120C7E79C
:109CD00020688369B3423AD8002FC0D0E168FFF70B
:109CE00073FE0646002839D00128EBD0431CEDD086
:109CF00000212068FFF7D2FC0028E7D1236803F198
:109D000030025B8913F1FF3302D302F8010BF9E74C
:109D1000226831461046FFF745FB00274FF0010847
:109D2000D0622368F9B29A788A420DD983F8048008
:109D300000212068FFF7B2FC01370028C6D1226855
:109D4000D36A0133D362ECE7DA6A521ADA62E66068
:109D500031462068FFF726FB206196E707207FE762
:109D60002DE9F8430B7804462F2B0D4601D05C2BD0
:109D700000D101350026A6602B781F2B2ED9202676
:109D80002B78AE462F2B05F10105F9D05C2BF7D0CF
:109D9000A7693B4607F10B02934226D14FF000081A
:109DA0004FF0080C454643460EF1FF3919F8012FD4
:109DB0000135202A23D92F2A21D05C2A1FD02E2A10
:109DC00075D0C44508D9100606D4444810F8011FC0
:109DD000002975D08A42F9D1062004E03146204698
:109DE000FFF70DFD6661BDE8F88303F8016BD3E76B
:109DF00043F0020307F8082008F10108D6E7212AFA
:109E0000754434BF04220022B8F1000FE4D0397841
:109E10002046E52904BF05213970BCF1080F04BFB5
:109E20009B00DBB203F00301012903F00C0308BF20
:109E300042F01002042B08BF42F00802FA7200211F
:109E4000FFF7DDFCD8B921692068FFF727FCB0B91E
:109E50006269137893B1D37A19070AD4A36903F11D
:109E60000B0C63450BD012F8017B13F8011B8F42DA
:109E7000F7D000212046FFF7EAFEE3E70420A369BC
:109E8000DB7A30B10428AED113F0040F08BF0520EF
:109E9000A9E75A07A7D46169CB7ADB0605D5236801
:109EA0001878FFF771FAA0606AE705209BE7BCF11C
:109EB000080F91D19B00E046DBB24FF00B0C75E729
:109EC000A2F14101192993D9A2F1610119299EBF7B
:109ED000203A43F00103D2B28CE700BFFC460108F0
:109EE00030B587B00191044628B3014601A8FFF7B9
:109EF000B5FA68B903ABA361019920462568FFF75D
:109F00002FFFD0B9616951B1CB7ADB0603D40520AC
:109F1000002323600DE02878FFF736FAA060EB8875
:109F20000021A3802046FFF76AFC0428EFD0002818
:109F3000EED107B030BD0920FBE70428E7D0E7E702
:109F400030B58DB001900D4601A805A9FFF786FA3E
:109F5000044668B902AB019905A80B93FFF700FF0F
:109F6000044628B90A9B33B1294605A8FFF7C6F96C
:109F700020460DB030BD0624FAE738B5002105466D
:109F8000FFF73DFC0446B0B929692868FFF786FB56
:109F9000044680B96B691B78E52B0ED06BB10121AB
:109FA0002846FFF754FEEDE70B22A969FFF79CF95D
:109FB00001222B681A71204638BD29692868FFF7ED
:109FC0006DFB04460028F6D168692246034600F17D
:109FD00020019942E8D003F8012BFAE72DE9F84F68
:109FE00099460023C9F80030044688461546FFF715
:109FF000BBF9002832D1A379190622D4DA0740F13F
:10A000008A80D4E90220801A854228BF0546002DA7
:10A0100000F083802068A2684389B2FBF3F103FB60
:10A020001123002B59D18778013F0F4017F0FF070C
:10A0300017D142B92069012809D8A37963F07F03B9
:10A04000A37102200AE06169FFF75FFBF3E7431C9D
:10A0500006D10120A37963F07F03A371BDE8F88FD7
:10A060006061D4F800B061695846FFF79BF9002899
:10A07000E3D0BBF80A6000EB070AB5FBF6F656B36F
:10A080009BF80230BA199A4288BFDE1BF3B25246DF
:10A0900041469BF80100FFF7A7F90028D9D12168B4
:10A0A0000B7953B1C86AA0EB0A00864205D94A89E8
:10A0B000303102FB0080FFF717F923685B895E43AC
:10A0C000A368B0443344A360D9F80030AD1B3344D7
:10A0D000C9F800309BE7C4F818A02068A268468938
:10A0E000A169B2FBF6F306FB1323F61AAE4228BFB2
:10A0F0002E46FFF7D3FA0028ABD12168A0684A8921
:10A10000B0FBF2F302FB13033033324619444046EE
:10A11000FFF7EAF8D4E70720A0E728469EE710B546
:10A12000044604202169C1B12068FFF7B7FA88B955
:10A1300062691378A3B1E52B06D02E2B04D0D37A15
:10A140001B0701D4002010BD00212046FFF77FFD32
:10A150000028E7D000232361F5E70028F2D0F9E7D3
:10A160000420F7E77FB504460D46FFF7FDF80646E5
:10A1700020B92DB901462046FFF741FB04B070BD60
:10A1800001ABA3612046FFF7CAFF04280DD1266169
:10A1900029462046FFF7B2F800212046FFF757FD79
:10A1A000042804BF00202061E8E70028F0D0E5E79C
:10A1B00010B5C1880446FFF722FB50B92169206819
:10A1C000FFF76CFA28B9E52263691A700122236847
:10A1D0001A7110BD2DE9F34702AB43F8040D884610
:10A1E000184611461446FFF739F9054638B9246870
:10A1F000A7692369BA1E934205D8C8F800302846DB
:10A2000002B0BDE8F08794F80090B9F1010F19D1C0
:10A210000227064639462046FFF777FA431C39D015
:10A22000012839D000B90136A3690137BB42F1D802
:10A23000B9F1030F08BF0123266108BF6371C8F895
:10A240000060DCE7034602460646216A4AB920461A
:10A2500001F1010AFFF722FA00BB5146628904F1BD
:10A2600030035878B9F1020F4FEA002093F800C08C
:10A2700008D150EA0C0008BF01360233023A013F10
:10A28000E4D1D5E71868043A30F0704008BF0136D1
:10A290000433F4E70125CBE70225C9E70546C7E704
:10A2A0002DE9F0478CB0019117460646002800F0D2
:10A2B0008180002305A9036001A8FFF7CFF80546B8
:10A2C000002873D102AB019905A80B93FFF748FD55
:10A2D0000A9C10B9002C08BF062017F01C0F07F0CD
:10A2E0001F0842D0C8B3042802D105A8FFF745FED5
:10A2F00048F0080878BB0A9C18F0080F3ED0A0234D
:10A30000A3736C23E3732123002723742823DDF830
:10A3100014906374E77227776777A777E77799F8E0
:10A3200000002146FFF730F80123A776E77627756E
:10A33000677589F80430074600B301464846D9F8E6
:10A340002CA0FFF714FC30B90598013FC7605146B7
:10A35000FFF7A4F990B1054628E0E37A13F0110F56
:10A360002CD17807C8D5082520E00028F3D1E37A5E
:10A37000D90621D4BA0701D5DB071FD4059F18F0F1
:10A38000080FFB6A18BF48F02008C6E9073486F8B2
:10A39000068038782146FEF7F7FF3061E3693760C1
:10A3A000F3600023B360B361FB88B38028460CB030
:10A3B000BDE8F0870925F9E70425F7E70725F5E764
:10A3C0002DE9F84F9B460023CBF800300446894620
:10A3D0001746FEF7C9FF002839D1A379190628D4FA
:10A3E0009A0740F1B880E368DF4280F0A980A26854
:10A3F000002F00F0A58020684389B2FBF3F103FB36
:10A400001123002B7AD18578013D0D4015F0FF0511
:10A4100020D182B9216931B9FFF7D6FA014620610E
:10A42000002900F08D8001290AD1A37963F07F0310
:10A43000A37102200BE06169FFF7C6FA0146EFE75E
:10A440004B1C06D10120A37963F07F03A371BDE803
:10A45000F88F61612068A369C26A9A4204D1002121
:10A46000FFF71CF90028EDD1D4F800A0616950462F
:10A47000FEF798FF0028D8D0BAF80A6000EB05086C
:10A48000B7FBF6F65EB39AF80230AA199A4288BF73
:10A490005E1BF3B2424649469AF80100FFF7E6F820
:10A4A00005460028CED12068C16AA1EB08018E4282
:10A4B00007D94289303002FB0191FEF715FF23686E
:10A4C0001D7123685B895E43A368B1443344A36074
:10A4D000DBF80030BF1B3344CBF8003087E7D4E90A
:10A4E00002239A4208D331465046FFF7D7F8002896
:10A4F000A8D12368C3F82C80C4F818802068A2680B
:10A500004689A169B2FBF6F306FB1323F61ABE4295
:10A5100028BF3E46FFF7C2F8002893D12068A16803
:10A520004289B1FBF2F302FB131330333246184475
:10A530004946FEF7D9FE4FF0010223681A71C3E7BE
:10A54000D4E90232934288BFE360A379002043F04C
:10A550002003A3717BE7072079E710B500210446AB
:10A56000FFF79CF8034600283FD12378032B38D10E
:10A570006379B3B304F130010B46E06204F50C7269
:10A58000934202D003F8010BFAE74AF65523A4F8E8
:10A590002E32174B6078236303F1FF5303F500530A
:10A5A0002033C4F8143223691A1284F8183284F85C
:10A5B00019221A0C1B0E84F81B32E36884F81A2245
:10A5C0001A1284F81C3284F81D221A0C1B0E84F80F
:10A5D0001E2284F81F3262690123FFF747F8002327
:10A5E00063716378003318BF0123184610BD00BFA4
:10A5F0005252614110B50446FFF7AFFF2046BDE857
:10A6000010400121FFF74AB870B594B0019006A937
:10A6100001A8FEF723FF0446E8B903AB019906A899
:10A620000C93FFF79DFB0446A8B90B9EB6B1F37AD5
:10A6300013F0010F18BF0724069B31461878FEF768
:10A64000A3FE05463CB9F37ADB0609D406A8FFF75A
:10A65000AFFD0446D8B1204614B070BD0624EBE728
:10A66000012822D91C2206A90DA8FEF73DFE0221D1
:10A670000DA80F95FFF7C3F804460028EBD10DA8ED
:10A68000FFF74DFD044690B10428E4D1DEE725B97B
:10A690000698FFF762FF0446DDE729460698FFF7B4
:10A6A00066FA04460028D6D1F2E70224D3E707244D
:10A6B000D1E730B58DB001900D4601A805A914462B
:10A6C000FEF7CCFEA0B902AB019905A80B93FFF7EA
:10A6D00047FB68B90A9A6AB1D37A05985D402C4065
:10A6E00004F027045C400123D4720371FFF735FFA7
:10A6F0000DB030BD0620FBE710B58CB001900C46C4
:10A7000001A805A9FEF7AAFEB8B902AB019905A8F0
:10A710000B93FFF725FB80B90A9B83B1E28805986C
:10A720009A75E2881212DA75A2881A76A288121235
:10A730005A7601230371FFF710FF0CB010BD0620FD
:10A74000FBE730B59BB001900C4601A80CA9FEF7C1
:10A7500085FE002869D10C9B019913930CA803ABCB
:10A760001293FFF7FDFA00285FD1119900295ED0FE
:10A7700015220B3106A8FEF7B7FD0CA913A81C2261
:10A78000FEF7B2FD214613A8FFF7EAFA002850D0E1
:10A7900004284AD113A8FFF7F0FB002845D1189DE3
:10A7A00013220DF11A0105F10D00FEF79DFD9DF834
:10A7B00018300C9C43F02003EB72012323710E9A96
:10A7C000159B9A422AD0EB7ADB0627D529462078BA
:10A7D000FEF7DAFD01462046FEF7E4FD014650B3E0
:10A7E0002046FEF75BFF00BB0C9A92F851302E2BEF
:10A7F00014D11178159B032903D1516A994208BFDE
:10A800000023191282F86A301B0C82F864301B1284
:10A8100082F86530012382F86B1013710CA8FFF7E2
:10A82000C7FC10B90C98FFF798FE1BB030BD042090
:10A83000FBE70820F9E70220F7E710B50446FEF72A
:10A8400093FD002833D1A3799B0630D5E1692068B8
:10A85000FEF724FF014650BB236ADA7A42F0200259
:10A86000DA72E2681A77E26812125A77E2899A7706
:10A87000E27BDA77226999749A761012120C1A75B3
:10A8800012125A75A0229A756C22DA7521221A7654
:10A8900028225A760122D876D974A37923F020038E
:10A8A000A37123681A712068BDE8104055E610BDF9
:10A8B00010B50446FFF7C1FF00B9206010BD2DE9B7
:10A8C000F04F8FB0039007A903A8FEF7C7FD044619
:10A8D0000646002840F09E8004AB039907A80D931C
:10A8E000FFF73EFA0446002800F09C80042840F060
:10A8F000918031460798FFF767F80546002800F079
:10A900008480012800F08A80431C00F08980314651
:10A910000798FEF7C3FE0446002877D1079F294613
:10A920003846FEF73FFD07F13008034641467A8975
:10A9300012F1FF3208D24246202107F13B00824249
:10A9400005D002F8011BFAE701F8014BF0E71022ED
:10A9500087F83B20A02287F846206C2287F8472002
:10A9600021222E2487F8482028222E0C5FFA86FB0D
:10A970005FFA85F9C5F3072A360A87F84920414668
:10A98000202207F1500087F8304087F84A9087F876
:10A990004BA087F844B087F845600193FEF7A4FC0C
:10A9A000079987F851400878099A0328019B03D139
:10A9B000486A904208BF002287F86A201012120CE1
:10A9C00087F86420121287F86520002287F86B0050
:10A9D0008F78029247B307985A1CC3624FF0010365
:10A9E000002103710192FEF759FE044670B94146F9
:10A9F000079B029A5B8913F1FF3302D301F8012B05
:10AA0000F9E7013FFFB2019BE3E7072429460798D6
:10AA1000FFF7ADF820460FB0BDE8F08F0224F5E750
:10AA20000124F3E70824F5E707A8FFF7A6FA044690
:10AA30000028EBD110220C9B0798DA72A0229A759D
:10AA40006C22DA7521221A76282283F81A905A7617
:10AA500083F81BA083F814B05E7501230371FFF720
:10AA60007CFD0446D6E770B959B1012903D14FF4F2
:10AA70000063136070478B1E012B04D84FF4805382
:10AA8000F7E708467047042070470148704700BF49
:10AA9000A06C212805289ABF014B185C0220704742
:10AAA000D546010800487047781D0020044B00215E
:10AAB0001A6802B11170034A002011701A607047C1
:10AAC000000D0020480D0020022910B50A460BD1C8
:10AAD00001460A220D48FFF7E3FB052801D90220B1
:10AAE00010BD0B4B185CFBE70129F8D10146074864
:10AAF000FFF7D6FB044610B9054B185DF0E7014699
:10AB0000044800F097F9052CE9D8F5E7080D002076
:10AB1000D54601080C47010813B54FF48052014691
:10AB200001AB0848FFF75AFA044618B9064B185DFE
:10AB300002B010BD0146054800F07CF9052CF5D99E
:10AB40000220F5E7080D0020D5460108204701083E
:10AB500007B5014601AB4FF480520948FFF730FCBE
:10AB6000019BB3F5805F06D1052806D8054B185C1C
:10AB700003B05DF804FB0520FAE70220F8E700BF08
:10AB8000080D0020D546010808B5431C01460AD02F
:10AB90000848FEF765FF18B1052808D9022008BD4E
:10ABA0000448FFF710F80348FFF782FEF4E7024B72
:10ABB000185CF4E7080D0020D546010808B50448E4
:10ABC000FFF776FE052896BF024B0220185C08BDF1
:10ABD000080D0020D546010808B501460448FFF7D6
:10ABE0007FF9052896BF034B0220185C08BD00BF03
:10ABF0002C0D0020D546010810B504460146074833
:10AC0000FFF7B0FA637A23B1052804D8044B185C27
:10AC100010BD0320FCE70220FAE700BF2C0D002046
:10AC2000D5460108014B5869704700BF000D002050
:10AC300008B501460448FEF713FF052896BF034BED
:10AC40000220185C08BD00BF080D0020D546010891
:10AC500008B500F0EEF8FDF799FB30B12B38C0B223
:10AC600013288EBF0020014B185C08BD3447010833
:10AC7000421E0A21002010B512F8013F303BDCB221
:10AC8000092C02D801FB0030F6E710BDA0F130031B
:10AC9000DAB2092A01D818467047A0F14103052B02
:10ACA00001D837387047A0F16103052B94BF57389E
:10ACB0004FF0FF30704710B50021044614F8010B27
:10ACC000FFF7E4FF431C02D040EA0111F6E7084613
:10ACD00010BD70B50023802130243125064A41FA89
:10ACE00003F6064214BFD554D4540133082BF6D1D1
:10ACF00000231372004870BD782D0020002830B565
:10AD0000164910DA0124404200B200220A25002828
:10AD100013461BDD90FBF5F305FB13003030885420
:10AD200018B20132F3E70FD130230B700123002258
:10AD30005D10CA540B4495420ED0885C13F8014D47
:10AD40008C5418700132F6E70024DEE7002CEED0B8
:10AD50002D22CA540133EAE7004830BD782D002087
:10AD60000F2810B5044604D9034A60210348FDF7B3
:10AD7000DFF9034B185D10BD58470108694701080A
:10AD80004847010838B50546C0F34300FFF7E8FF20
:10AD9000074C2070C5F3C310FFF7E2FF6070280B6B
:10ADA000FFF7DEFF0023A070E370204638BD00BF30
:10ADB000782D0020F0B54FF48075CC0AE4005443A0
:10ADC000C30AC2F1FF06DB0006FB034393FBF5F366
:10ADD000CF00FFB2C908574301F0FC014A43DC1021
:10ADE000C300DBB2C00806FB037300F0FC0006FBE7
:10ADF000002093FBF5F390FBF5F0DB1043EAC4234E
:10AE0000801043EA401080B2F0BDC1431E220020F2
:10AE100040004300013393405B18A2F1020244BF9B
:10AE200001301946931CF3D1704700BF0FB404B032
:10AE3000704770470FB430B5A5B0289900250B783E
:10AE400004AC242B01BF0022174B0131C3E90022BF
:10AE500002A829AA0294039200F035FA0294124C37
:10AE6000029B1B78DBB10A2B616803D02068B0F528
:10AE70009C7F09DD0E31E029C8BF2946256061604D
:10AE8000029B01330293EBE700934FF6FF724FF4FE
:10AE90003043FDF767FF236818442060F0E725B0D2
:10AEA000BDE8304004B07047882D00200FB410B5C5
:10AEB00092B014AA52F8041B02AC6846CDE90042D5
:10AEC00000F001FA204608F01BFB372804D9064A97
:10AED00015210648FDF72CF92046FFF7ABFF12B00D
:10AEE000BDE8104004B0704787470108A347010838
:10AEF00010B5044608F004FB1E2804D9054A0D21AC
:10AF00000548FDF715F92146BDE81040034808F053
:10AF100099BA00BFBA470108E9470108902E0020FE
:10AF200000487047902E002008B50A490A4B08686F
:10AF30001A6890420CD018464FF4987208F050F8F6
:10AF4000BDE8084000F100414FF0005006F09CBC05
:10AF500008BD00BF008000080000002010B50446B6
:10AF6000FFF7E2FF014B53F8240010BD0000002062
:10AF700038B504460D46FFF7D7FF024B43F824507F
:10AF800038BD00BF0000002080F310887047EFF349
:10AF9000108070474FF48010114A1249536843F4EF
:10AFA0003B2343F488635360536823F4892323F4D9
:10AFB0006C735360C1F8800002F58432D36943F4A6
:10AFC0000003D3610122084B1B681A6400221A6532
:10AFD000DA645A644FF480621A640860704700BFF4
:10AFE0000008014000E100E03401002007F0E0BB70
:10AFF0002DE9F0470546DDE9089810460F460A9905
:10B0000014461E4607F092FC00210E4A02F11C0075
:10B0100059F8213042F8213058F8213040F82130D9
:10B0200001310729F4D13B881387074B074A1D607C
:10B0300002232B72064B16601C602368BDE8F047A4
:10B04000184700BFB02E002000370020F436002043
:10B05000FC360020012001F054B9002001F051B964
:10B060001FB5FFF7FAFF084B084A0293084B09493E
:10B070000193094B09480093094BFFF7B9FF05B04D
:10B080005DF804EB06F008BE1C4B0020A80200206F
:10B0900050030020340300206C030020004B0020EC
:10B0A000100300201FB5FFF7D8FF074B074A029394
:10B0B000074B08490193084B08480093084BFFF7DA
:10B0C00097FF05B05DF804FB0C0200206C01002026
:10B0D0002C020020F001002048020020A0370020B0
:10B0E000CC01002010B5044607F074FAA0B2BDE808
:10B0F000104004F0AFB900BF20B1036819700368B5
:10B10000013303607047002A2DE9F04106460C46E2
:10B110001FDD0D1B11F8010B0028FAD1AA42CCBF8C
:10B12000521B024613F0020F0CBF20273027DB070B
:10B1300017D41546002D0EDC22EAE273D21A1D1B2D
:10B1400005EB040814F8011B69B13046FFF7D4FF82
:10B15000F6E72027EBE739463046FFF7CDFF013D04
:10B16000E8E70023EBE71446002C05DD39463046BE
:10B17000FFF7C2FF013CF7E7002AACBF08EB020073
:10B1800008F10000BDE8F0812DE9F0430C4685B0E0
:10B19000804600212046154607F0D4FE00B32D233B
:10B1A00004F100448DF804300DF10507204607F046
:10B1B000F1FE01230A2101FB03F2824212DD0A2182
:10B1C000002B07F101060FDD90FBF3F202F13007CF
:10B1D00006F8017C03FB1200374693FBF1F3EFE71F
:10B1E00001AFE3E71346E6E72E23002D3B7008BFCF
:10B1F00003253746DFF84490BB1B9D4212DD2046F5
:10B2000007F0C8FE07F0ACFC0146204607F0F2FB51
:10B21000494607F0F9FC044607F0BCFE303007F859
:10B22000010BE9E7002225EAE5757255202301A903
:10B230004046FFF768FF05B0BDE8F08300002041FD
:10B24000F0B585B09446DDE90A2706461C4641B9AB
:10B25000302304A921F80C3D3B46FFF754FF05B00D
:10B26000F0BD33B1BCF10A0F16D1002914DA012464
:10B270004942002304AD05F8013D0C9B3A3B69B1FE
:10B28000B1FBFCF00CFB10110929C8BFC918303103
:10B2900005F8011D0146F2E70024EAE73CB16AB176
:10B2A000BB070BD52D213046FFF726FF013A3B4661
:10B2B00029463046FFF727FF2044D0E72D23013DE4
:10B2C0002B700024F3E72DE9F04307460E461446A1
:10B2D00000254FF00A08DFF8149189B03378002B6D
:10B2E0007CD0252B74D17378002B77D0252B06F1D9
:10B2F00001026CD02D2B0ABF01230023B21C16467D
:10B3000031780132302902D143F00203F7E70022FD
:10B31000304610F8011BA1F1300C5FFA8CFEBEF133
:10B32000090F03D808FB02C20646F1E7732908D1CA
:10B3300021680434002908BF49463846FFF7E3FE78
:10B340000DE064290ED161202146CDE901300123B1
:10B3500000920A22096838460434FFF771FF054459
:10B360000136BBE766290FD1073424F00703D3E980
:10B370000001059203F1080407F0E8FA059A014676
:10B380003846FFF701FFEAE7782907D12146612017
:10B39000CDE90130009200231022DBE7582902D1C9
:10B3A00021464120F4E7752906D161202146CDE9E7
:10B3B000013000920023CCE76329D1D12168043405
:10B3C0008DF81C1000218DF81D1007A9B5E7164651
:10B3D00031783846FFF790FE0135C1E717B10022FA
:10B3E0003B681A70284609B0BDE8F083FF470108A2
:10B3F0000EB40FB505AA52F8041B019001A80392E0
:10B40000FFF761FF04B05DF804EB03B0704700BFC5
:10B4100010B508228B49044608F0A0F870B908342A
:10B4200023461C4622780133303A092AF9D9864945
:10B43000204607F029FFD8B9844810BD0722844967
:10B44000204608F08BF808B90734E9E70B22814958
:10B45000204608F083F808B90B34E1E702227E4960
:10B46000204608F07BF8002840F05E820234D7E7DF
:10B470007A49204607F008FF08B97948DDE779499D
:10B48000204607F001FF08B97748D6E777492046FC
:10B4900007F0FAFE08B97648CFE77649204607F06C
:10B4A000F3FE08B97448C8E77449204607F0ECFE7B
:10B4B00008B97348C1E77349204607F0E5FE08B9AB
:10B4C0007148BAE77149204607F0DEFE08B97048B6
:10B4D000B3E77049204607F0D7FE08B96E48ACE7DD
:10B4E0006E49204607F0D0FE08B96D48A5E76D49C2
:10B4F000204607F0C9FE08B96B489EE76B49204615
:10B5000007F0C2FE08B96A4897E76A49204607F083
:10B51000BBFE08B9684890E76849204607F0B4FECA
:10B5200008B9674889E76749204607F0ADFE08B9C2
:10B53000654882E76549204607F0A6FE08B96448D9
:10B540007BE76449204607F09FFE08B9624874E72C
:10B550006249204607F098FE08B961486DE76149E5
:10B56000204607F091FE08B95F4866E75F4920462C
:10B5700007F08AFE08B95E485FE75E49204607F09B
:10B5800083FE08B95C4858E75C49204607F07CFE1A
:10B5900008B95B4851E75B49204607F075FE08B9DA
:10B5A00059484AE75949204607F06EFE08B95848FD
:10B5B00043E75849204607F067FE08B956483CE77C
:10B5C0005649204607F060FE08B9554835E7554909
:10B5D000204607F059FE08B953482EE75349204644
:10B5E00007F052FE08B9524827E75249204607F0B3
:10B5F0004BFE08B9504820E75049204607F044FE6A
:10B6000008B94F4819E74F49204607F03DFE08B9F1
:10B610004D4812E74D49204607F036FE08B94C4820
:10B620000BE74C49204607F02FFE08B94A4804E7CB
:10B630004A49204607F028FE002840F093804848F9
:10B64000FBE600BFDB480108FB480108F1B3000836
:10B65000E4480108EC480108F848010809490108D4
:10B66000F1F700081F490108A1F900083049010855
:10B6700021AF000842490108F1AE00085549010810
:10B680005DAF00088449010871AF0008B84901089E
:10B69000F1AF0008E049010861B00008F64901086F
:10B6A000A5B000080E4A010855B000081B4A010861
:10B6B0005BB00008294A0108E5B00008414A0108CA
:10B6C00035AE0008504A010825AC0008634A01085D
:10B6D000A5AA00087A4A0108ADAA0008854A01080F
:10B6E000C9AA0008934A010819AB00089F4A01083B
:10B6F00031AC0008AA4A010889AB0008B64A010823
:10B70000BDAB0008C24A010851AB0008CF4A01088E
:10B71000D9AB0008DE4A0108F9AB0008FC4A010871
:10B7200051AC0008094B0108698F00081B4B010848
:10B730004D8F0008364B0108A78C0008484B0108C4
:10B74000718C0008564B01086F8F0008674B010889
:10B75000558C0008734B01083D8E0008854B01088D
:10B76000818E00087149204607F08EFD08B97048A7
:10B7700063E67049204607F087FD08B96E485CE62D
:10B780006E49204607F080FD08B96D4855E66D49C1
:10B79000204607F079FD08B96B484EE66B49204614
:10B7A00007F072FD08B96A4847E66A49204607F083
:10B7B0006BFD08B9684840E66849204607F064FD1B
:10B7C00008B9674839E66749204607F05DFD08B9C2
:10B7D000654832E66549204607F056FD08B96448D9
:10B7E0002BE66449204607F04FFD08B9624824E67D
:10B7F0006249204607F048FD08B961481DE66149E5
:10B80000204607F041FD08B95F4816E65F4920462B
:10B8100007F03AFD08B95E480FE65E49204607F09A
:10B8200033FD08B95C4808E65C49204607F02CFD6A
:10B8300008B95B4801E65B49204607F025FD08B9D9
:10B840005948FAE55949204607F01EFD08B95848FD
:10B85000F3E55849204607F017FD08B95648ECE5CE
:10B860005649204607F010FD08B95548E5E5554909
:10B87000204607F009FD08B95348DEE55349204644
:10B8800007F002FD08B95248D7E55249204607F0B3
:10B89000FBFC08B95048D0E55049204607F0F4FCBD
:10B8A00008B94F48C9E54F49204607F0EDFC08B9F3
:10B8B0004D48C2E54D49204607F0E6FC08B94C4822
:10B8C000BBE54C49204607F0DFFC08B94A48B4E51F
:10B8D0004A49204607F0D8FC08B94948ADE549492E
:10B8E000204607F0D1FC08B94748A6E5474920465D
:10B8F00007F0CAFC08B946489FE54649204607F0CC
:10B90000C3FC08B9444898E54449204607F0BCFC0C
:10B9100008B9434891E54349204607F0B5FC0028A3
:10B92000414818BF002088E5002086E5964B0108B5
:10B9300023900008A74B0108DB8F0008BC4B0108CF
:10B94000358D0008D44B01081F8D0008E54B010818
:10B95000538D0008F54B01086D8F0008054C010858
:10B96000C58C00081D4C01082F8F0008354C0108BC
:10B97000A58E0008494C0108AF840008544C01080A
:10B9800099840008624C0108A9840008704C0108E1
:10B990009D8400087E4C0108210F01089A4C010883
:10B9A000E10E0108B84C0108CD0E0108D54C010884
:10B9B000B90E0108F44C0108311001080D4D0108C1
:10B9C000A5100108294D010821100108474D010863
:10B9D00085100108574D010855100108684D0108F0
:10B9E000E5100108794D0108AF100108984D0108D4
:10B9F00021110108AA4D0108D5100108C04D010808
:10BA0000250F0108E34D01089D920008F94D01083A
:10BA1000AD920008104E0108D19200082B4E01088B
:10BA200093920008454E01084D8C00082DE9F0471F
:10BA30002D4B9CB01CAC44F86C3D2046174600F0E2
:10BA4000B5FB0646002844D00FAB079334220023F1
:10BA50000DF11C0841462046CDE9083200F06CFB90
:10BA6000BDF86630202B04D0204A25212048FCF761
:10BA70005FFB00251699204600F0BCFB4FF0200923
:10BA8000AA46BDF86830AB4229DD04A92046CDF8AE
:10BA90001080CDE905A900F04FFB079B032B1CD1BB
:10BAA0000899204600F0A6FB0B9B1E2B04D9114AD7
:10BAB0002E210F48FCF73CFB00250B9B04A92046D8
:10BAC00006930497059500F037FB0B9BFD54FFF799
:10BAD00075F830461CB0BDE8F0870135D1E7FFF7B7
:10BAE0006DF80026F5E700BF104801085B4E01081D
:10BAF000854E01089B4E0108F7B50D4600240969E3
:10BB0000074600F077FBEE686B69A3420EDD0DF18E
:10BB10000701384600F060FBA25D9DF807309A42AD
:10BB200002D0002003B0F0BD0134EDE70120F9E7B9
:10BB30000023CA684969994203DD985C18B901334A
:10BB4000F9E70120704700207047F7B50D46002443
:10BB50000969074600F04EFBEE686B69A34209DDF8
:10BB60000DF10701384600F037FB9DF80730A3556B
:10BB70000134F2E703B0F0BD0023184610B5CA68DF
:10BB80004C699C4202DD98540133F9E710BD2DE960
:10BB9000F04F95B04F69CE6809698046002500F0E6
:10BBA00029FBFDF77BFBDFF854A0DFF854B00DF163
:10BBB0001009BD421CDA7C1B402CA8BF4024002287
:10BBC000D8F8003002929B6801A9CDF80490039444
:10BBD00040469847224649463046FDF779FB20B952
:10BBE000524677215846FCF7A3FA25442644E0E75D
:10BBF000FDF75CFB15B0BDE8F08F00BFB24E010849
:10BC0000854E01082DE9F04391B04F69CE6840227E
:10BC10000021684607F05AFA0025FDF73FFBDFF8E0
:10BC20003880DFF83890BD4211DA7C1B402CA8BF69
:10BC30004024694622463046FDF74AFB20B9424679
:10BC40008E214846FCF774FA25442644EBE7FDF7BD
:10BC50002DFB11B0BDE8F083B24E0108854E0108FE
:10BC600038B50C460546FFF747FFE268616920B129
:10BC7000BDE838400F48FFF7DDB80F48FFF7DAF8A6
:10BC8000E3681B0E202B05D121462846BDE838402D
:10BC9000FFF75BBF082B05D121462846BDE8384099
:10BCA000FFF775BF054AA921BDE838400448FCF7F5
:10BCB0003FBA00BFCC4E0108E74E0108024F010811
:10BCC000854E010838B50C460546FFF731FF61691E
:10BCD000E26820B1BDE838400F48FFF7ABB80F4825
:10BCE000FFF7A8F8E3681B0E202B05D12146284654
:10BCF000BDE83840FFF740BF082B05D12146284654
:10BD0000BDE83840FFF77EBF054ABF21BDE8384097
:10BD10000448FCF70DBA00BFCC4E0108244F0108BF
:10BD2000024F0108854E01082DE9F04FF9B00C468D
:10BD3000FFF72DF903904FF43040FCF78BFF92484A
:10BD4000FFF778F8914B214607A8079300F02EFAE9
:10BD5000002800F0D98134230026282558AF0DF1A2
:10BD60006C0B394607A85A93CDF860B1599600F08C
:10BD7000E3F9DBF82030BBF8321007A805FB0131EE
:10BD800000F038FA11AC394607A858945A955996DC
:10BD900000F0D2F923697E4D0193636928AC0293C8
:10BDA0000FCD0FC40FCD0FC40FCD0FC495E80F00FA
:10BDB00084E80F0033464FF0FF3238A848A940F816
:10BDC000232041F823200133102BF8D10025DFF880
:10BDD000E891DFF8E8A1BBF83030AB427CDD2824E5
:10BDE000DBF8201007A804FB051100F003FA5A94B1
:10BDF000002411AE394607A85896599400F09CF9D2
:10BE00003168029B07A8A3EB0108019B8DF86E41E6
:10BE1000194400F0EFF943460E2BA8BF0E230DA9DD
:10BE200007A80D97CDE90E4300F086F90522494693
:10BE3000384607F093FB60B939465648FEF7FAFFDB
:10BE4000314607A8FFF70CFF5348FEF7F3FF013513
:10BE5000C1E705225146384607F080FB0028EBD0A9
:10BE600007224E49384607F079FB0028E4D0042227
:10BE70004B49384607F072FB40B939464548FEF752
:10BE8000D9FF314607A8FFF71DFFDDE70DF1A00838
:10BE900058F82410384607F0F7F978B994B93946BC
:10BEA0004048FEF7C7FF404A40F24B113F48FCF7BD
:10BEB0003FF94FF47A60FCF7EFFAC8E70134102C31
:10BEC000E6D1ECE738AB43F8245078AB03EB8404BD
:10BED000336944F8C03CBAE74FF0FF3300250193C3
:10BEE00038AB53F82530591C2ED02826DBF820100B
:10BEF00007A806FB031100F07DF90023394611ACB9
:10BF000007A8599358945A9600F016F928AB53F89D
:10BF100025102048FEF78EFF6B1E0B2B11D8DFE893
:10BF200003F00606240C0C0C2F104F1010C8204AEA
:10BF300040F263111D48FCF7FBF8214607A8FFF704
:10BF40008FFE1548FEF776FF0135102DC8D1DBF8BE
:10BF500018101848FEF76EFFDBF818400398FFF73B
:10BF600013F8204679B0BDE8F08F114A4FF4B8714C
:10BF70000E48FCF7DDF8214607A8FFF7A3FEE0E72F
:10BF800023690193DDE700BF3E4F01081048010817
:10BF90001C4801085A4F010809370108644F01087D
:10BFA0006C4F0108714F01088D4F0108854E010843
:10BFB0009354010859500108544F01085E4F01087D
:10BFC0005248FEF737FFDDF840A1BAF1FF3F05D137
:10BFD0004F4A40F27F114F48FCF7AAF84F9B0133BC
:10BFE00005D14D4A4FF4C0714A48FCF7A1F800262C
:10BFF0006369DFF82081DB080293029B9E42A0DA8E
:10C00000216907A801EBC60100F0F4F808235A9350
:10C0100000230DF11409394607A85993CDF8609112
:10C0200000F08AF899F80430162B05D03B4A40F20C
:10C030008B114046FCF77CF8D9F8041007A8090AD0
:10C040000AEB011100F0D6F810235A9300230DF1EA
:10C050003409394607A85993CDF8609100F06CF87F
:10C06000019B002B05DA2E4A40F291114046FCF765
:10C070005FF8D9F80010019B07A8194400F0BAF83E
:10C08000002380220AA907A8CDE90B320A9700F005
:10C0900053F83846FFF7BCF9814628B9214A4FF4D6
:10C0A000D2714046FCF744F8059B0136C3F8009076
:10C0B000A3E71D48FEF7BEFE216907A866694FF099
:10C0C000000A00F097F8DFF86890DFF86880B6089B
:10C0D0000DACB24514DA002359930423394607A85E
:10C0E0005A93589400F028F821684846FEF7A2FEBB
:10C0F000236898474046FEF79DFE0AF1010AE8E7EB
:10C100000A48FEF797FE1CE7044627E79D4F010803
:10C11000B14F0108854E0108D34F0108F54F0108C2
:10C120001B500108335001083E50010853500108CC
:10C1300049500108505001082DE9F84F04460E46B9
:10C140000025DFF85C80DFF85C90DFF85CA0B36866
:10C15000AB4220DDD4E901B77B1CA360B3689D42EC
:10C1600004DB424659214846FBF7E2FF33681BF8DF
:10C1700007205A55A368B3F5805F0AD10023606891
:10C18000A360FEF7C9FC20B1524653210348FBF7D8
:10C19000CFFF0135DBE72046BDE8F88FBA4801083C
:10C1A0005C48010880480108A048010870B50546B0
:10C1B0000E460024FEF776FCAC6068600121304634
:10C1C000FEF782FC30B96868FEF7A6FCB0FA80F092
:10C1D000400970BD2046FCE71FB500220123CDE9D0
:10C1E0000223036801919B6801A9984705B05DF897
:10C1F00004FB000010B50446C1F30B00A060081A50
:10C20000FEF716FD6068FEF787FC30B1BDE8104010
:10C21000024A60210248FBF78BBF10BDA04801080D
:10C22000BA48010810B50446034A05210348FBF744
:10C230007FFF204610BD00BF93540108E450010861
:10C2400010B50446034A0C210348FBF771FF204652
:10C2500010BD00BF93540108E450010810B50C460E
:10C2600001460B20F3F74CFF2146BDE810400C209F
:10C27000F3F746BF01460D20F3F742BF08B5002192
:10C280000E20F3F73DFF80B208BD00211520F3F723
:10C2900037BF01211520F3F733BF38B51C460D46D3
:10C2A000013A42EA00410920F3F72AFF611E41EA00
:10C2B00005410A20BDE83840F3F722BF08B5014622
:10C2C00048B101210520F3F71BFFBDE808406421B8
:10C2D0000520F3F715BF0520BDE80840F3F710BFB0
:10C2E00038B51C460D46013A42EA00410920F3F7F1
:10C2F00007FF611E41EA05410A20BDE83840F3F717
:10C30000FFBE18B102491220F3F7FABE704700BF12
:10C310000000FFFF10B5184C04202146F3F7F0FE93
:10C3200021460620F3F7ECFE14494FF0006005F0BB
:10C33000ABFA4FF47A72124BF0211B680520B3FB65
:10C34000F2F3104A013B53600F4B83F82310002394
:10C350009360072321461360F3F7D2FE32210520B4
:10C36000F3F7CEFE21461520F3F7CAFE2146BDE8BD
:10C3700010401120F3F7C4BE0000FFFF0080000052
:10C380004C01002010E000E000ED00E008B503499A
:10C390000620F3F7B5FEC04308BD00BF0000FCFF58
:10C3A000034A136803F0380318431060704700BF56
:10C3B00000200240044B1A6822F008021A601A6832
:10C3C00010431860704700BF00200240044B1A68F9
:10C3D00022F010021A601A6810431860704700BFFC
:10C3E00000200240034B044A5A6002F188325A602E
:10C3F000704700BF0020024023016745FFF7F2BFEE
:10C40000024A136943F08003136170470020024021
:10C41000FFF7F6BF014BD869800870470020024043
:10C42000014B186A704700BF00200240024BD869D8
:10C43000C0F34000704700BF00200240024B186864
:10C44000C0F34010704700BF00200240044B1A693F
:10C4500011B110431861704722EA0000FAE700BFEB
:10C46000002002400128064B03D1D86900F00100EA
:10C470007047DB68034214BF01200020704700BFF3
:10C4800000200240014BD860704700BF00200240EE
:10C49000084BDA68D10709D4DA68520708D4DB6898
:10C4A00013F0100F14BF03200420704701207047C1
:10C4B0000220704700200240084BDA68D10709D4F7
:10C4C000DA68520708D4DB6813F0100F14BF03209A
:10C4D000042070470120704702207047002002406E
:10C4E00010B50446FFF7E8FF012806D10CB9052076
:10C4F00010BDFFF7E1FF013CF6E7002C08BF052067
:10C50000F6E738B505464FF43020FFF7E9FF042879
:10C5100013D10A4C4FF43020236943F00203236106
:10C520006561236943F040032361FFF7D9FF236965
:10C5300023F00203DB04DB0C236138BD0020024042
:10C5400010B54FF43020FFF7CBFF042812D10A4C6E
:10C550004FF43020236943F004032361236943F03F
:10C5600040032361FFF7BCFF236923F00403DB04CE
:10C57000DB0C236110BD00BF00200240FFF7E0BFCD
:10C5800038B5FFF753FF00284FF430200CBFA52526
:10C590000025FFF7A5FF04282BD1164C164B4FF4AE
:10C5A0003020A36003F18833A360236943F02003A4
:10C5B0002361236943F040032361FFF791FF0428BF
:10C5C0000FD123694FF4005023F02003DB04DB0C70
:10C5D0002361236943F010032361084B1D80FFF79B
:10C5E0007FFF052805D0236923F01003DB04DB0C53
:10C5F000236138BD002002402301674500F8FF1F7A
:10C60000002373B506464FF400500D460193FFF723
:10C6100067FF04281BD10F4C4FF40050236943F0EF
:10C6200001032361ABB23380FFF75AFF042808D11E
:10C6300002360196019B2D0C1D804FF40050FFF730
:10C640004FFF236923F00103DB04DB0C236102B0FD
:10C6500070BD00BF0020024070B505464FF4005089
:10C660000E46FFF73DFF04280FD1084C4FF4005051
:10C67000236943F0010323612E80FFF731FF236913
:10C6800023F00103DB04DB0C236170BD00200240BA
:10C6900070B506464FF400500D46FFF721FF042801
:10C6A00017D10C4C0C4BADB2A36003F18833A360DF
:10C6B00023694FF4005043F0100323613580FFF7E6
:10C6C0000FFF052805D0236923F01003DB04DB0CE2
:10C6D000236170BD002002402301674510B5044668
:10C6E0004FF40050FFF7FCFE04283BD1E443224BFB
:10C6F000224AE1B29A6002F188329A601A69FF29EF
:10C7000042F010021A6123D1C4F30723FF2B07D094
:10C710001B4A4FF400505381FFF7E2FE04281FD15B
:10C72000C4F30743FF2B07D0154A4FF40050938101
:10C73000FFF7D6FE042813D1240EFF2C13D10420BA
:10C740000D4A136923F01003DB04DB0C136109E0CD
:10C750000B4B4FF400501981FFF7C2FE0428D3D0D1
:10C760000528EDD110BD064BA4B2DC814FF400507A
:10C77000FFF7B6FEF4E700BF002002402301674543
:10C7800000F8FF1F38B505464FF43020FFF7A8FE2C
:10C7900004282ED11D4C1E4B4FF43020A36003F112
:10C7A0008833A360236943F020032361236943F0A6
:10C7B00040032361FFF794FE04281DD1236923F071
:10C7C0002003DB04DB0C2361236943F010032361A6
:10C7D000104B7DB100221A804FF43020FFF780FE0D
:10C7E000052806D0094A136923F01003DB04DB0C8B
:10C7F000136138BDA522EEE70528FAD0236923F09E
:10C800002003DB04DB0C2361F3E700BF00200240C0
:10C810002301674500F8FF1FF8B5134C134B07467B
:10C82000A36003F18833A3604FF400500E46154611
:10C83000FFF756FE042815D1236947F0F80743F0A7
:10C84000100323613E430A4B35435D804FF4005093
:10C85000FFF746FE052805D0236923F01003DB040B
:10C86000DB0C2361F8BD00BF0020024023016745B7
:10C8700000F8FF1FFFF734BE08B5154B98420BD1E7
:10C8800001214FF4805000F06FFABDE8084000210C
:10C890004FF4805000F068BA0E4B98420BD1012142
:10C8A0004FF4804000F06CFA00214FF48040BDE866
:10C8B000084000F065BA084B984208D101214FF4B6
:10C8C000004000F05DFA00214FF40040EFE708BDA2
:10C8D0000030014000380040003C0040038810B5A3
:10C8E00003F441524C880B8823438C882343CC8823
:10C8F00023430C8923434C8923438C892343CC89CC
:10C90000234313430380838B23F400631B041B0C1A
:10C9100083830B8A038210BD838BF0B523F47B6382
:10C9200023F00F038383022303848B68868B022BFF
:10C9300087B005460C46B6B239D08B8801A8002BCB
:10C9400014BF0227012700F0ABF9E3880199B3F582
:10C95000007F18BF7B014FF00A0214BFB1FBF3F355
:10C960000B0A5343A0680A22B3FBF0F305339BB2D2
:10C97000B3FBF2F303F001021202C3F34F03991E5B
:10C9800089B2FE2924BF002202231343E288134305
:10C990009BB262882B8423881343A28843F40063EC
:10C9A0001343A28913431E43AE8307B0F0BD002298
:10C9B000E5E70023038043808380C38003814381B4
:10C9C0008381C38107230382704700230222C0E9C9
:10C9D0000033826083817047038819B143F04003BC
:10C9E0000380704723F040031B041B0CF8E7838B84
:10C9F00019B143F480638383704723F480631B047D
:10CA00001B0CF8E70B090121994089B2838812B108
:10CA100019438180704723EA0101FAE7838812B144
:10CA200019438180704723EA0101FAE78181704749
:10CA3000808970474FF6FF639942038805BF23F44E
:10CA400080731B0443F480731B0C0380704783883E
:10CA500019B143F004038380704723F004031B04DF
:10CA60001B0CF8E7038823F400631B041B0C0380F2
:10CA70000388194301807047038843F4805303807F
:10CA80007047038819B143F400530380704723F4BF
:10CA900000531B041B0CF8E7012914BF008B808A8C
:10CAA00080B27047008A70470388B1F5804F1BBF82
:10CAB00023F480431B0443F480431B0C0380704722
:10CAC0000389194214BF012000207047C94389B26D
:10CAD000018170470123828810B5048901F00F009D
:10CAE00003FA00F0204092B205D009098B401A42A7
:10CAF00014BF0120002010BD01F00F030121994057
:10CB0000C94389B2018170470D4B1A6842F0010296
:10CB10001A6059680B4A0A405A601A6822F08472F7
:10CB200022F480321A601A6822F480221A605A684D
:10CB300022F4FE025A604FF41F029A60704700BF51
:10CB4000001002400000FFF80C4BB0F5803F1A685F
:10CB500022F480321A601A6822F480221A6003D00C
:10CB6000B0F5802F05D070471A6842F480321A6001
:10CB700070471A6842F4A022F9E700BF0010024093
:10CB8000034A136823F0F80343EAC00010607047BB
:10CB900000100240014B1860704700BF0000424285
:10CBA000034A536823F47C131943014351607047CF
:10CBB00000100240014B1860704700BF6000424205
:10CBC000034A536823F0030318435060704700BFC3
:10CBD00000100240024B586800F00C00704700BF84
:10CBE00000100240034A536823F0F00318435060DA
:10CBF000704700BF00100240034A536823F4E0630B
:10CC000018435060704700BF00100240034A536849
:10CC100023F4605343EAC0005060704700100240A4
:10CC2000044B1A7811B110431870704722EA0000C3
:10CC3000FAE700BF09100240014B1860704700BFBF
:10CC4000D8004242034A536823F4404318435060DB
:10CC5000704700BF001002400022064B01281A70E6
:10CC60001A7002D0042802D070471870704705224D
:10CC70001A70704720100240014B1860704700BFC7
:10CC800080044242024A136A18431062704700BF90
:10CC900000100240014B1860704700BF3C04424244
:10CCA0001B4A10B5536803F00C03082B1FD0194B17
:10CCB000036053681849C3F30313CC5C0368E34073
:10CCC00043605468C4F302240C5D23FA04F48460C6
:10CCD0005468C4F3C2240C5DE340C3605268C2F3DD
:10CCE000813211440A7CB3FBF2F3036110BD536837
:10CCF0005168C3F38343CC0303F1020302D4074911
:10CD00004B43D5E751688903F9D40249F8E700BFDE
:10CD10000010024000127A003801002000093D0096
:10CD2000044B5A6911B110435861704722EA000060
:10CD3000FAE700BF00100240044B9A6911B110439A
:10CD40009861704722EA0000FAE700BF0010024035
:10CD5000044BDA6911B11043D861704722EA000030
:10CD6000FAE700BF00100240044BDA6811B110432B
:10CD7000D860704722EA0000FAE700BF00100240C6
:10CD8000044B1A6911B110431861704722EA000080
:10CD9000FAE700BF00100240014B1860704700BF67
:10CDA00040044242014B1860704700BF4C004242B1
:10CDB000014B1870704700BF071002404209012A5A
:10CDC000074B07D11B6800F01F0023FA00F000F0AA
:10CDD00001007047022A0CBF1B6A5B6AF3E700BFC1
:10CDE00000100240002307B501933120FFF7E6FF52
:10CDF000019B01330193019BB3F5A06F01D0002883
:10CE0000F3D03120FFF7DAFF003018BF012003B064
:10CE10005DF804FB024A536A43F080735362704723
:10CE200000100240034B9B68184214BF01200020F1
:10CE3000704700BF00100240014B1870704700BFE0
:10CE40000A10024010B50446FBF7F2FB2046BDE88D
:10CE50001040FBF7A1BD70B50446037A087A03F0D1
:10CE6000100300F01000181A0D461BD109341449A4
:10CE7000204606F009FA00B309351149284606F0A4
:10CE800003FAB8B12E21204606F08AF92E21064673
:10CE9000284606F085F901462EB128B1304606F045
:10CEA000F3F908B170BD40B929462046BDE870408D
:10CEB00006F0EAB94FF0FF30F4E70120F2E700BFD7
:10CEC000AE4F0108002310B510F8012BA2B1A2F15A
:10CED0003001CCB21B01092C98BF0B43A2F16101B8
:10CEE00005299CBFA2F157010B43A2F1410105297D
:10CEF000EAD8373A1343E7E7184610BD10B5D0F823
:10CF00000411D0F8083130F8022B0B44134403EB22
:10CF10001223002203F0FF03914205DD10F8014BBC
:10CF200001322344DBB2F7E75842C0B210BD70B5FE
:10CF3000B3F5807F0E461D461146049C11D884B17E
:10CF4000C4F8080120461A4620F8026B06F048F89B
:10CF5000C4F804512046FFF7D1FF84F80C010020EB
:10CF600070BD6FF00300FBE72DE9F0470E4692B06D
:10CF70000546002800F0A3800024DFF8549102AF9A
:10CF8000D6E90102531CB36010F80280B3F5805F4C
:10CF900004F8078009D10023B360FDF7BDFD20B17F
:10CFA0004A4624214948FBF7C3F8B8F10A0F02D0DA
:10CFB00001343F2CE4D112AB234413F8403C0D2B39
:10CFC00008BF04F1FF3412AB2344002403F8404CA3
:10CFD0009DF80860002E75D0384606F091FA0828B2
:10CFE00004D86FF0020012B0BDE8F0873A2EF8D1F5
:10CFF00002220DF10901684606F0FAFA10222146D4
:10D0000068468DF80240FFF75DFF042280460DF16F
:10D010000B01684606F0ECFA1022214668468DF8AE
:10D020000440FFF74FFF022228800DF10F016846F0
:10D0300006F0DEFA1022214668468DF80240FFF71E
:10D0400041FFC5F80801384606F05AFA4FEA48068B
:10D0500006F10B039842C4D3A24605F102094445E8
:10D0600012DA0DF1110303EB44010222684606F0C7
:10D07000BFFA1022002168468DF802A0FFF722FFB8
:10D08000013409F8010BEAE7002406F10901022244
:10D090003944C5F80481684606F0AAFA10222146F0
:10D0A00068468DF80240FFF70DFFC6B285F80C61A7
:10D0B0002846FFF723FF864293D1204693E76FF07F
:10D0C000030090E76FF004008DE700BFBA48010845
:10D0D000A0480108A0F14103192B9CBF2030C0B229
:10D0E000704738B50C46054620B90F4A2A210F482B
:10D0F000FBF71EF824B90E4A2B210C48FBF718F851
:10D10000013D013C15F8012F1046FFF7E3FF0146F2
:10D1100014F8010FFFF7DEFF814203D1002AF1D19D
:10D12000104600E0081A38BD28520108355201089F
:10D130004B520108054B4FF42812036403F580633A
:10D1400083644FF400134264C3647047EC2E0020E4
:10D150004FF4801C1FB50446074B0091CDE902C374
:10D16000064902ABFBF71DFA2046FFF7E3FF002359
:10D17000A36704B010BD00BF4001F0005852010881
:10D180007047704710B50446FBF794F92046074BEB
:10D1900040F8503BFBF78EF9054B0649236504F137
:10D1A000200006F04FF9204610BD00BF2C510108A9
:10D1B000105101080A3701086F2313B5ADF800308C
:10D1C00071230C46ADF802000E30ADF8060068463B
:10D1D000ADF80430FBF767FDBDF800302146403361
:10D1E000ADF80030BDF8043068464033ADF8043087
:10D1F000FBF759FDBDF8003021465033ADF8003043
:10D20000BDF8043068465033ADF80430FBF74BFDF1
:10D2100002B010BD4FF49C7230B585B0ADF800205F
:10D220004FF4A0720446B0F90630ADF80420ADF812
:10D23000023044F20822D23341F282016846ADF84E
:10D24000063002F0D5FAB4F844200E2A2EDD1A4B2F
:10D250004FF6FF71D3F800389B0293FBF2F003F511
:10D26000605393FBF2F3BDF80020BDF90250023287
:10D27000ADF80820BDF80420ACB2023AADF80C209D
:10D28000BDF90620521B4FF480655043534390FB79
:10D29000F5F093FBF5F32044ADF80A00234402A80F
:10D2A000ADF80E30FBF7FFFC05B030BD48F2104181
:10D2B0004FF480630020D6E7EC2E0020094AD2F814
:10D2C0000438D2F80018591A0D2904DD0D3BC2F8B4
:10D2D000003801207047581C01D00029F7DB0020DE
:10D2E000704700BFEC2E00202DE9F04F01F109043A
:10D2F00091B0884620462E211646039305F050FF34
:10D3000072490546204605F0BFFF98F808B00DF1B8
:10D310002009CBF3001A05AF2146002840F0A48075
:10D32000484606F08FF86A49384606F08BF8012522
:10D33000039B4FF6E074002B18BF00244FF6FF73D9
:10D34000BAF1000F18BF1C464BF280531BF0020FBE
:10D3500018BF1C460023ADF818304FF49C73ADF88D
:10D360001C3006F10E03ADF81E30039BADF81A60B9
:10D37000002B00F094804FF4E7424FF4844106A85C
:10D3800002F036FA53493846FFF7ABFE70B1524906
:10D390003846FFF7A6FE48B150493846FFF7A1FED0
:10D3A00020B14F493846FFF79CFE08B94FF4FC64A2
:10D3B0004FF6FF73BAF1000F18BF1C46CDF800906E
:10D3C0004FF61E03224631460420FBF759FD9DF817
:10D3D00014303BB100974FF61E03224631465020D1
:10D3E000FBF74EFD0CAF002D5ED03E49384606F0EF
:10D3F00029F8224600974FF61E0331467820FBF7A6
:10D400003FFDB8F8042042B342F621039A4224D0EB
:10D410005312143B0093344902F01F033846C2F301
:10D420004312FDF7E5FF4FF61E03224631460097F3
:10D43000B820FBF725FDB8F806202C49C2F34513A8
:10D440003846D20AFDF7D4FF00974FF61E03224656
:10D4500031464FF48470FBF713FD21463046FFF749
:10D46000ABFE11B0BDE8F08F48468DB105F0EAFF84
:10D470002C1B10AB1C44002335F8011F04F8203C82
:10D48000AA78ADF814101D46BA708DF817304FE722
:10D4900005F0D8FF0E49384605F0D4FF48E744F2BE
:10D4A000082241F282016AE7BAF1000F01D0104967
:10D4B0009CE7D8F800200F4B38469A4292BF0E499D
:10D4C000920A0E49FDF794FF93E700BFAE4F0108A3
:10D4D0000A37010864520108685201081153010813
:10D4E0006C520108705201088552010894520108DB
:10D4F000755201083F420F007C520108805201081A
:10D5000010B50A44401A914201EB000303D011F810
:10D51000014B1C70F7E710BDFBF7DABE08B5030E30
:10D52000202B03D1FFF7ECFF012008BD082B02D10F
:10D53000FBF7CEFEF8E7034A40F2D1210248FAF7A2
:10D54000F7FDF1E7024F01083552010870B51B4B9A
:10D55000C8B001A80193FEF729FE0546E0B1FBF72C
:10D560009DFE002401A904A8FFF7FEFC08BB469B12
:10D57000042B1BD8DFE803F0031A0D0D1300BDF8D0
:10D580001000459A0DF1120100EB0440FFF7C6FFB1
:10D5900060B9FDF713FB0025284648B070BD9DF823
:10D5A00012309DF8134004EB0324A4B2469B012BD8
:10D5B000D8D1FBF77BFEFDF701FBEDE71048010832
:10D5C0002DE9F0439846C9B0224B01A817460193B4
:10D5D000FEF7ECFD814690B9484649B0BDE8F083BE
:10D5E0001D461C4601A904A8FFF7BEFC60B1FDF76B
:10D5F000E5FA509B3C60C8F800401D60ECE74FF036
:10D60000FF3500262C46EDE7469B042B1ED8DFE8AD
:10D6100003F0031D18181000BDF81030621C03EB56
:10D620000643DDD09C4228BF1C469D4238BF1D46A4
:10D63000D8E79DF812309DF8136006EB0326B6B2CA
:10D64000D0E7FDF7BBFA4FF00009C5E7012BC9D1C0
:10D65000CDE700BF104801082DE9F04F564BBFB091
:10D660000DF1F80848F8EC3D4046FEF79FFD824674
:10D6700000287BD011AB1E93342200231EA9404604
:10D68000CDE91F32FEF758FDBDF86E30202B05D0D6
:10D690004A4A40F24F314A48FAF74AFDBDF8703025
:10D6A000042B05D9474A4FF454714548FAF740FD19
:10D6B000002420272646BDF87050A5420BDD1EAB86
:10D6C00003EB441309A940460993CDE90A670134E5
:10D6D000FEF732FDEFE74FF0000B6D0134351EAC65
:10D6E000BDF870305B4563DD6368002B5CD0FBF7F1
:10D6F000D5FD4FF0000909AF6668AE420CDD761B20
:10D70000202EA8BF202606A940460697CDE90796F9
:10D710003544FEF711FDEFE705D02B4A4FF45A715F
:10D720002748FAF705FD0026D4F80C902369B34288
:10D7300022DD06F120029342ACBF20239B1B0893FD
:10D740000193002306A9404607930697FEF7F4FCD1
:10D75000019B39461A4648461D441E44FBF7B8FD56
:10D76000019B38B9FDF72AFA4FF0000A50463FB046
:10D77000BDE8F08F9944D9E720220021384605F012
:10D78000A5FC6269B2420DDD06F120039A42ACBFEE
:10D790002022921B394648461644FBF799FD002883
:10D7A000EFD1DFE7FBF782FD0BF1010B203497E7A8
:10D7B000FDF704FADAE700BF104801085B4E0108E4
:10D7C000355201089E520108E75201082DE9F04F39
:10D7D0000D46A1B02E21284605F03CFF20B90027B8
:10D7E000384621B0BDE8F08F304905F02BFE304BB4
:10D7F00020AE46F8783D29463046FEF7D7FC002893
:10D80000EDD008AB109300240A230DF140094946DE
:10D810003046CDE91143FEF78FFCFDF7CFF99DF8B7
:10D8200020308DF82A40302BD9D19DF82130782B2B
:10D83000D5D10DF12200FDF73EFA2E218046284673
:10D8400005F008FF0028CAD01A4905F0FBFD29465B
:10D850003046FEF7ABFC07460028C0D0FDF7E2F9E2
:10D86000A3468246FBF71AFD544519DAAAEB0405D4
:10D87000402DA8BF402505A93046CDF81490CDE92C
:10D8800006B5FEF759FC2A4649464046FBF720FDFF
:10D8900018B90190FDF792F9A1E72C44A844E3E7F9
:10D8A000FBF704FDFDF78AF99AE700BF1053010862
:10D8B00010480108155301082DE9F0410D468EB0BE
:10D8C0002E2128461646984605F0C4FE20B90024AD
:10D8D00020460EB0BDE8F081224905F0B3FD224B91
:10D8E0000EAC44F8383D29462046FEF75FFC20B9CF
:10D8F00029461E48FDF79EFAE9E706AB0393002789
:10D900000A2303A92046CDE90473FEF715FCFDF7B1
:10D9100055F99DF818308DF82270302BD7D19DF82D
:10D920001930782BD3D10DF11A00FDF7C4F92E214F
:10D930003060284605F08EFE0028C8D00C4905F05E
:10D9400081FD20462946FEF731FC04460028CFD051
:10D95000FDF768F90546FDF731F930682844C8F845
:10D960000000B5E710530108104801081A530108D8
:10D970001553010830B50B7897B004461546B3B976
:10D98000474906A805F05EFD294606A805F0E8FB14
:10D990002E21284605F05EFE88B91F230093414BD7
:10D9A0002146414A04F1500000F038FC39E006A855
:10D9B00005F048FD3D4906A805F0D2FBE4E7451C0B
:10D9C0003B492846FFF78DFB002848D039492846B7
:10D9D000FFF787FB00B338492846FFF782FB00B307
:10D9E00036492846FFF77DFBD8B135492846FFF771
:10D9F00078FB002841D033492846FFF772FB80B1FD
:10DA000028463149FFF76DFB04F150050028C4D1C9
:10DA10001F2300932D4B1EE006A92046FEF784F934
:10DA2000A06717B030BD06A92046FFF78FFD18B9D3
:10DA30001F230093264BB3E703992648FDF7FAF915
:10DA40000398FAF731FD2046FAF7F2FDE9E740F2D4
:10DA5000FF730093204B144A21462846A4E705ABE8
:10DA6000009303AA04AB06A92046FFF7A9FD0028EE
:10DA7000D9D11F230093194B92E705AB04AA06A93D
:10DA80002046FFF719FF06A92046FFF79FFE04F185
:10DA900050050028DBD11F230093114BDBE700BFAB
:10DAA0000A3701082F530108C75301082D530108F5
:10DAB00064520108685201084353010847530108A2
:10DAC000115301084B5301086C520108A853010877
:10DAD0005F530108725301087E5301084F53010838
