:020000040800F2
:10800000009F0020618300084581000881820008EC
:108010005581000865810008758100080000000096
:108020000000000000000000000000001D830008A8
:108030001D830008000000001D830008198400084B
:108040001F8300081F8300081F8300081F83000888
:108050001F8300081F8300081F8300081F83000878
:108060001F8300081F8300081F8300081F83000868
:108070001F8300081F8300081F8300081F83000858
:108080001F8300081F8300081F8300081D8300084A
:10809000758300081D8300081D8300081F830008E6
:1080A0001F8300081F8300081F8300081F83000828
:1080B0001F8300081F8300081F8300081F83000818
:1080C0001F8300081F8300081F8300081F83000808
:1080D0001F8300081F8300081F830008D184000845
:1080E0001F8300081F8300081F8300081F830008E8
:1080F0001F8300081F8300081F8300081F830008D8
:108100001F8300081F8300081F8300081F830008C7
:108110001F8300081F8300081F8300081F830008B7
:108120001F8300081F8300081F8300081F830008A7
:1081300008B513460A460146014802F005FEFEE76F
:10814000C02B010808B5024802F0FEFDFEE700BFA3
:10815000E12B010808B5024802F0F6FDFEE700BF7A
:10816000EE2B010808B5024802F0EEFDFEE700BF65
:10817000012C010808B5024802F0E6FDFEE700BF49
:10818000132C010870B5044688B00021142203A8FE
:108190000AF040FA002320460F49104C104D884247
:1081A0000DD250F8042BA24207D3AA429FBF08AEBB
:1081B00006EB830646F8142C0133052BEFD1079B01
:1081C00003990193069B07480093DDE9042302F01D
:1081D000BBFD08B070BD00BF009F002030810008CB
:1081E0002C490108272C0108684620F007018D461C
:1081F00000B51A4C83B01A4802F0A6FD2168194850
:10820000D1E9053202F0A0FD174B1848D96A9A6AE5
:108210009B6B02F099FD25681548D5E90123296873
:10822000ED68009502F090FDD4E90132D4E9031025
:108230000090104802F088FDD4E905210E4802F0B4
:1082400083FD23680D48E2691B69216A02F07CFD09
:1082500020681C30FFF796FFFEE700BF48010020B2
:108260005C2C0108702C010800ED00E08C2C01084A
:10827000B02C0108D42C0108F82C01080C2D0108A1
:10828000084BEFF30882DC601A609D605E601F613E
:10829000C3F81880C3F81490C3F820A0C3F81CB02A
:1082A000FFF7A2FF4801002010B5A0B000F06BF866
:1082B00002F096FB184C01A804F0F4FC0122002106
:1082C00001A804F0D5FC01A800F0DEF9002344F673
:1082D0004542194601A805F04FFA0022012101A8E4
:1082E00000F046FB02F044FC024618B1022101A84E
:1082F00000F03EFB01A80022032100F039FB01A899
:1083000005F0E9F90028EDD000F00CF9014620460F
:1083100002F01AFDCFE700BF4A2C01087047FEE7C4
:108320000A4A0B4B9A4203D00A49043A8B4205D3BE
:108330000021094B094A934205D3704752F8040FB4
:1083400043F8040BF2E743F8041BF4E72C49010857
:10835000000000203D0100204801002014450020BD
:10836000684620F007018D4608B5FFF7D9FFFFF7F3
:108370009BFFFEE707F08ABB08B505F06FFDBDE87F
:10838000084005F0C9BE10B51B4C04202146F7F784
:10839000B7FE21460620F7F7B3FE4FF40041012057
:1083A000F7F7AEFE4FF47A72144BF0211B680520EC
:1083B000B3FBF2F3124A013B5360124B83F82310D4
:1083C00000239360072321461360F7F799FE3221BB
:1083D0000520F7F795FE21461520F7F791FE214677
:1083E0001220F7F78DFEFFF7C7FF2146BDE81040CA
:1083F0001120F7F785BE00BF0000FFFF44000020FA
:1084000010E000E000ED00E00022024B18781A7046
:10841000704700BF6C010020F8B5294C6368013338
:108420006360A36813B1A368013BA360E3682BB149
:10843000E0680138E06008B903F024FD2149062016
:10844000F7F75EFEC043204B80B21A78C0F30135C7
:10845000810BAA42C0B200F00F0608D01B4F45EABC
:108460008202BA56002A24DD2B2222701D705A780F
:10847000914208D0154D41EA8202AA56002A1BDD1E
:108480003E22227059709A78B24211D0C70744BF79
:1084900031222270850744BF32222270410744BF37
:1084A00033222270020748BF34229E7048BF2270D8
:1084B000F8BDDBD02D22D8E7E4D03C22E1E700BFB5
:1084C0006C0100200000FCFF00000020282D0108A6
:1084D000064808B503889B0606D509F0EFFBBDE802
:1084E0000840C0B209F002B908BD00BF0048004012
:1084F000024B18601A68002AFCD1704774010020F2
:108500000823C0EB801090FBF3F010F1FF3000D394
:10851000FBE77047FFF7ECBF014B1868704700BFDF
:108520007001002040F0010000477047704770471D
:10853000028B10B512F00102044603D1036810212A
:10854000DB689847238B43F00103238310BD0E4B58
:1085500003600E4B9A8901329A810022C2601A6927
:108560008AB903F11C0159614FF40021996103F1AB
:108570008401D9674FF480211861C3F880109A8074
:10858000DA801A815A817047402D01087C01002051
:10859000C0687047014B1868704700BF7C0100201D
:1085A000006908B1436903B970471846F9E7C36821
:1085B00070B5064613B90024204670BD1B6923B967
:1085C0000D4A30210D48FFF7B3FDF3681C69B44232
:1085D000F1D024B90A4A34210848FFF7A9FD65699A
:1085E0001DB1B542E8D02C46F9E7064A3B210348C5
:1085F000FFF79EFD2C46DFE7792D01089A2D010833
:10860000B62D01081349010838B50446056925B19E
:108610002846FFF7F9FF6D69F9E7E3681A69A24296
:1086200005D162691A610023E360238338BD2046C7
:10863000FFF7BDFF63694361F5E72DE9F0411E4691
:10864000C368044688461746069D23B10C4A562146
:108650000C48FFF76DFD002330687168221DC4F8D7
:108660001C8003C2E560C4E90433278325B1284692
:10867000FFF796FF10B92C61BDE8F0814461FBE77C
:10868000BB2D01089A2D010803694BB11A8B02F02A
:108690000302012A02D1044A136070475B69F4E7C0
:1086A000014B1860704700BF7C010020024B1B6823
:1086B0001B1A5842584170477C010020014B186832
:1086C000704700BF7C010020028BD20704D50368ED
:1086D0000022DB6801211847704730B40C46096856
:1086E0008D680146AC46204630BC604710B50A464E
:1086F000044611B1BDE810401AE7038BDB0703D530
:1087000003681021DB689847238B23F00103238340
:1087100010BD436933B11A8B02F00302012A06D05F
:108720005B69F7E7C06810B1028B1207F1D51846F4
:10873000704710B504462046FFF739FF28B1038B78
:1087400003F00303012BF7D110BDE468002CFBD02C
:10875000238B1B07EFD5F7E7012970B504461DD120
:10876000254B1B68834204D0244A77212448FFF715
:10877000DFFC2046FFF7CDFF054600283BD003690C
:10878000002B18BF1D462846FFF77EFF2046FFF747
:108790009BFF2846BDE87040FFF796BF02291BD11A
:1087A000154B1B68834204D0144A8C211448FFF7F0
:1087B000BFFC2046FFF7BDFF0646E0B1FFF7F0FE25
:1087C000054638B1038B03F00303012BDBD0FFF721
:1087D000EEFEF5E73546D6E706290CD1C36853B15E
:1087E000DB6843B11D6935B12846FFF7D9FE002883
:1087F00018BF0546C7E770BD7C010020CF2D0108DA
:108800009A2D010810B50146002408460134FFF7EF
:1088100080FF0E2C01D1084610BD08B10146F4E7D7
:10882000022CF8D10B69002B08BF0021F3E738B503
:1088300004460E252046FFF77CFF013D01D120466E
:1088400038BD0028FBD00446F4E7F8B50D460646CF
:10885000FFF762FE0A4C2F18228B638B9A4204D3D7
:10886000084A9E210848FFF763FC228B6169531C6C
:1088700023830C235343CA18CE50C2E90157F8BDD5
:108880007C010020E02D0108F72D0108C0680030B0
:1088900018BF01207047038B13F0010304D0C06898
:1088A0000028F8D1012070471846704700487047EB
:1088B0008001002010B50D4CB4F9B420B4F9B830E3
:1088C0009A4205DA0A4A40F2BD110A48FFF730FC25
:1088D00009490A4652F8B03DC4F8B43053684B60B9
:1088E0000023A380E3802381638110BD7C010020ED
:1088F0002A2E01089A2D010830020020084B194643
:1089000051F8B42F5A604A689A600022A3F8B42044
:10891000A3F8B620A3F8B820A3F8BA20704700BF88
:108920007C0100202DE9F041FFF7F6FD0024074609
:108930000E4E06F11408338B9C4215DA2146404650
:1089400000F07EF983680546BB420BD20068038BBA
:10895000DB0707D503681B699847FFF7DDFD6B68E8
:108960001844A8600134E6E7BDE8F0817C010020EE
:10897000013970B50446154603294FD8DFE801F0E8
:1089800002131D3803681B6898472469002C45D0E2
:10899000238BDD0705D523680022DB6801212046F3
:1089A00098476469F2E71E4B1868002836D0BDE886
:1089B0007040036891B25B681847C3680BB9FFF752
:1089C000B1FF238BD80606D5002347F26942214622
:1089D0002046FFF782FE246904B3238BD90705D50F
:1089E00023680022DB680321204698476469F3E787
:1089F000038B9A0605D5036804229E6800212B4646
:108A0000B047246954B1238BDB0705D523682A4678
:108A1000DB680421204698476469F3E770BD00BF16
:108A20007C0100202DE9F0411C4E0746002435460C
:108A300006F11408338B9C422DDA2146404600F0A3
:108A4000FFF80368BB4224D1338B9C4204DB144AF9
:108A5000CE211448FFF76CFB0C2363432A8B03F1F0
:108A60000C06013AA24208DD6A690134134432441B
:108A700007CA83E807003346F0E793B26A8B2B837B
:108A80009A4208D2BDE8F041074AB2210548FFF7F3
:108A90004FBB0134CEE7BDE8F08100BF7C01002070
:108AA0006B2D0108F72D0108462E0108F0B587B09F
:108AB0006C46054620460F4600F0B2F894E80700E1
:108AC0002C4C03AE86E80700B4F88230B4F880205E
:108AD0009A4204D3284A9E212848FFF729FBB4F87C
:108AE0008030E26F591CA4F880100C2101FB032395
:108AF00096E8070083E80700EFB13846FFF7C4FDAA
:108B00001F4800F0B5F80068FFF7DEFDB4F9043047
:108B1000B4F908108B4210DB2A4652F8043F636018
:108B20005368184A53602846FFF702FD2846FFF7AE
:108B3000CBFD07B0F0BD2846E0E7B5F904209A4226
:108B4000A8BF1A46B4F90630A280B5F906209A42A9
:108B5000A8BF1A46B5F90830E2808B42B8BF0B4671
:108B6000B5F90A202381B4F90A309342B8BF1346FD
:108B70006381D8E77C010020E02D0108F72D010872
:108B8000F80100208001002008B5024800F070F8CC
:108B900008BD00BFF801002010B504461A4800F0D7
:108BA00067F80368A34205D1184A40F2A711184894
:108BB000FFF7BEFA2046FFF727FD0023154C04F10E
:108BC0007C00A380E3802381638100F051F800687A
:108BD000FFF75AFD2069FFF777FD04F17C0000F0F4
:108BE00047F8031D03CBB4F880306060A16023B95F
:108BF000094AAA210948FFF79BFAB4F88030013BE3
:108C0000A4F8803010BD00BFF80100206F2E0108CD
:108C10009A2D01087C010020542D0108F72D010830
:108C2000034610B50446054A116852F8040F43F88C
:108C3000041B516803C3204610BD00BF7C01002007
:108C400038B50C1E0546838801DAE41801D4A34226
:108C500004DC054AC8210548FFF76AFA0C202B6896
:108C600000FB043038BD00BF612D0108F72D01085D
:108C7000838810B5044623B9054AA4210548FFF7A7
:108C800057FA0C23A088434320680C3B184410BDBE
:108C9000542D0108F72D010810B5094C04F184008A
:108CA000FFF7BEFF04F19000FFF7BAFF04F19C004C
:108CB000FFF7B6FF04F1A800FFF7B2FF10BD00BF39
:108CC0007C0100200E22024B02FB0030704700BFE7
:108CD0009A2E0108002138B50546084603F0A2F88F
:108CE0004FF49634284603F0A9F8013CFAD138BD78
:108CF0002DE9F04704469046BDF82090C1F1F007F9
:108D0000C3F1F00644450FDA35461FFA84FABD4236
:108D100008DAA9B2504603F085F8484603F08EF809
:108D20000135F4E70134EDE7BDE8F08713B5B0F99C
:108D30000240B0F90630B0F90420B0F9000000910B
:108D40002146FFF7D5FF02B010BD10B51446C1F1A2
:108D5000EF0180B289B203F065F82046BDE810400B
:108D600003F06CB810B50C4641880088C1F1EF01E2
:108D700089B203F057F82046BDE8104003F05EB812
:108D80002DE9F74F90460E2299469DF83040314B21
:108D9000074602FB04344FF61E0399451DD104F12A
:108DA000FF3904F10D0A0C1B19F8016F0025F64379
:108DB00004EB090BF6B2320604D54246594678193F
:108DC000FFF7C3FF01357600082DF6B2F3D1CA458F
:108DD000EAD1082003B0BDE8F08F98451CD104F11A
:108DE000FF3804F10D0B0C1B4FF0000A18F8016F4F
:108DF00004EB0805330605D54A46294607EB0A0069
:108E0000FFF7A3FF0AF1010A7600BAF1080FF6B2E4
:108E1000F0D1D845E8D1DCE70D4604F10E0301930B
:108E200000F1080B3E4614F801AB1AF0800F14BF96
:108E30004A464246304629460136FFF786FF4FEA4A
:108E40004A03B3455FFA83FAEFD1019B01359C4297
:108E5000E8D1BEE79A2E01082DE9F7430A9D0646A0
:108E60000F4690469946BDB1287890B1013D3446F1
:108E700015F8013F63B10A2B01D11037F7E70093D2
:108E800020464B4642463946FFF77AFF0444EFE757
:108E9000A01B03B0BDE8F0832846FAE7FFF7DCBF6C
:108EA00041EA000333F0030301BF40EA81000349B4
:108EB000401890F8000E18BF002070479A2E010845
:108EC0002DE9F04F984605460E4617460C4687B0EA
:108ED000BDF8403001F1030A0293531EA8F1030BC1
:108EE000059344452EDAA24508D1029B3A460093E9
:108EF00051465B462846FFF7FBFE5C46A946A8EBB9
:108F00000402531E0393A31B0493B94518DA059B6F
:108F1000A9EB0502A3EB0900039B1946049B9942A8
:108F2000A8BF19469042A8BF1046FFF7B9FF20B965
:108F3000029A21464846FFF708FF09F10109E4E7D4
:108F40000134CEE707B0BDE8F08F13B5B0F90240A9
:108F5000B0F90630B0F90420B0F9000000912146C4
:108F6000FFF7AEFF02B010BDB0F90230B0F9061045
:108F7000B0F90420C3F1F003C1F1F001B0F9000031
:108F800002F068BF02F05ABF70472DE9F74F06465E
:108F900000254FF61E0917460C9A9846137802F1E1
:108FA000010B00934B1E01935C46019BA3EB0B0A44
:108FB000009BA4EB0B02934213DD14F8012BB2B11A
:108FC00053070AD54F45F3D03A4604EB0A01304621
:108FD000FFF7BBFEECE7A346E6E7C845E8D042460C
:108FE000F3E70135502D06F10106F4D10825284696
:108FF00003B0BDE8F08F2DE9F84F0A9F80463C464C
:109000000D4691469A4692B29BB289B280B202F066
:1090100046FF0B9B07EB430655450EDAC346CB458F
:1090200009DA34F8020B02F009FFA64208BF3C46F9
:109030000BF1010BF3E70135EEE7BDE8F88F024ACB
:10904000CD210248FFF774B813490108AA3C010872
:1090500000F58033DB0200F10820834204D21A6855
:10906000013203D10433F8E7012070470020704734
:1090700008B51D4B0344DB02B3F56C3F02D34FF040
:10908000FF3008BD194A1169090623D4174AD1686F
:10909000C907FCD4116903F1006303F5A04341F053
:1090A000020111615361136943F0400313610F4BD7
:1090B000DA6812F00102FBD119691A611A6942F0EB
:1090C00080021A61FFF7C4FF00280CBF6FF00A008E
:1090D0000120D6E70649516001F1883151601269DB
:1090E0001206D3D5CBE700BFF6FF1F0000200240D9
:1090F0002301674508B50B4600F580314FF4006247
:10910000C902184609F010FA012008BD00F58033A5
:10911000012030B5C1EBC32301F500645A5851F862
:10912000045BAA4202D0013205D10020A142F5D150
:1091300080F0010030BD0220FCE700F58030C00265
:1091400000F17843A3F5A043B3F56C3FF0B502D32B
:109150004FF0FF30F0BD1A4B1A69140624D4184A98
:10916000D368DB07FCD4164E01F500673546431A79
:1091700032695C1842F00102326131F8022B228020
:10918000E86810F00100FBD12A6922F001022A618F
:10919000228831F8024C94420FD1B942E8D12B69B0
:1091A00043F080032B61D5E7064A5A6002F188320A
:1091B0005A601B691A06D2D5CAE76FF00A00C9E7E0
:1091C000002002402301674538B50E4B0E4A034488
:1091D000B2EBC32F04460D4610D3FFF797FF0028CC
:1091E0000EDD022802D12046FFF742FF012807D1F9
:1091F00029462046BDE83840FFF79FBF4FF0FF30BB
:1092000038BD00BFF6FF1F00FFAF0300002380F84A
:109210000038C0F804387047014690F8000818B1CB
:10922000D1F80408FFF7D0BF70472DE9F74F044687
:1092300091464FF0000A4FF0010B01F17845ED0A1D
:109240001E4605F58033A1EBC321C1F5006821F06E
:10925000010143180093002E27DDD4F80438C4F828
:1092600004589D4205D021462846FFF743FF84F865
:1092700000A84645ABBF47463746012300233A4680
:1092800049460098019309F04FF9019B84F800B812
:10929000F61B002BDFD02146D4F80408FFF794FF1B
:1092A0000028D8D003B0BDE8F08F0020FAE70148CD
:1092B000704700BF3802002040F608020021014834
:1092C00009F0A8B93802002038B5074C2046FFF74E
:1092D000A3FF054640F608020021204609F09AF94E
:1092E000281C18BF012038BD3802002008B51346DD
:1092F0000A4601460248FFF798FF012008BD00BF5B
:109300003802002001380A44914204D011F8013B90
:1093100000F8013FF8E77047026930B501F1090331
:109320006AB3426901F11105541E14F8010F202897
:1093300006D0052808BFE52003F8010BAB42F4D1A5
:10934000107A20280DD018462E24D51D00F8044B85
:10935000013315F8014F202C03D003F8014B98423C
:10936000F7D1D07A0872D0690860547E107E40EA46
:1093700004208880D07D927D42EA0022CA800022AB
:109380001A7030BD03685BB11A784AB1D9888288F7
:10939000914205D15B78002B14BF03200020704759
:1093A00009207047CA7E8B7E032843EA022301BF4F
:1093B000487D0A7D42EA002243EA0243184670478C
:1093C00083690239023B8B4283BF8378806A01FB49
:1093D00003000020704748B9054B1A6802B11070AD
:1093E00009B100220A701960002070470B207047F5
:1093F000B80A0020003018BF01207047003018BFA5
:109400000120704738B50D460446114648B943B1AE
:109410001B03284603F47042090306F0A8FC20460B
:1094200038BD0420FCE710B50A46044600F13001BF
:1094300001234078FFF7E6FFC0B994F82F2294F893
:109440002E3243EA02234AF65522934210D1D4F831
:109450006630084A23F07F43934206D0D4F8820056
:1094600020F07F40801A18BF012010BD0320FCE7C8
:109470000220FAE74641540038B5C36A05468B42DC
:109480000C460FD003790BB1012038BD61B10A46FB
:10949000012300F130014078FFF7B4FF0028F3D139
:1094A000EC62F2E70020F0E70846EEE70129F8B5A4
:1094B00005460E4672D983698B426FD90378022B19
:1094C00032D0032B48D0012B09D1438901EB51073E
:1094D000B7FBF3F3016A1944FFF7CEFF10B14FF069
:1094E000FF3020E069892846B7FBF1F301FB1373D5
:1094F0000137B7FBF1F12B4493F830402B6A194444
:10950000FFF7BAFF0028EAD16A89B7FBF2F302FB42
:1095100013773D4495F83000F30744EA00204CBF30
:109520000009C0F30B00F8BD43895B08B1FBF3F3FE
:10953000016A1944FFF7A0FF0028D0D172006E899C
:10954000B2FBF6F306FB1326354495F8313095F857
:10955000300040EA0320E6E743899B08B1FBF3F3C0
:10956000016A1944FFF788FF0028B8D16A89B6005C
:10957000B6FBF2F302FB136606F130032B44987836
:10958000DA780004354440EA026095F830205B78D0
:10959000104340EA032020F07040C4E70120C2E7F6
:1095A00070B504460D46E1808168012901D1022091
:1095B00070BD03689A698A42F9D9F9B91A78032A01
:1095C00001D1596AD1B90022E2601A89AA42EED9C2
:1095D0005A895B6A5209B5FBF2F21344236123688E
:1095E00000205A8903F130015209B5FBF2F302FB66
:1095F0001355ADB201EB45156561D9E75E89720976
:109600009E785643B6B2B54222680ED31046FFF795
:109610004DFF431C014613D00128C8D923689B691C
:109620008342C4D9AD1BADB2EDE7E1601046FFF750
:10963000C7FE53895B09B5FBF3F318442061CEE7FD
:109640000120B5E70129F8B504460D46164640F25B
:109650008A8083698B4240F286800378022B44D053
:10966000032B59D0012B7AD1438901EB5107B7FB6A
:10967000F3F3016A1944FFF7FFFE58BBB4F80AC0C0
:1096800015F00105B7FBFCF20CFB1272224418BF67
:1096900092F8301007F101071FBF01F00F033101ED
:1096A00001F0F0011943B7FBFCF34FF0010E08BFC6
:1096B000F1B282F83010226AE16A1A448A4284F8D0
:1096C00004E04ED10CFB1373234435B1C6F30712EB
:1096D00083F8302001232371F8BD93F83020C6F3BE
:1096E000032622F00F023243F2E743895B08B1FB05
:1096F000F3F3016A1944FFF7BFFE0028EAD163893A
:109700006A00B2FBF3F503FB15253212254485F8F8
:10971000306085F83120DDE743899B08B1FBF3F326
:10972000016A1944FFF7A8FE0028D3D16289AD0071
:10973000B5FBF2F302FB135505F130012144CB7860
:1097400025441B0603F0704343EA0602131285F812
:1097500030204B70130C120E8B70CA70BAE70220C7
:10976000B8E77046B6E70220B6E7F8B505460F46FB
:1097700079B9C668BEB183699E4228BF01263446C6
:10978000AB690134A34211D8012E0ED80024204623
:10979000F8BDFFF78BFE0128044630D9AB69834240
:1097A000F5D83E46EBE70126E9E7022421462846A4
:1097B000FFF77CFE48B1411C02D14FF0FF34E6E7D1
:1097C00001281CD0B442DBD1E0E76FF070422146A3
:1097D0002846FFF737FF80B947B92B69EC605A1C60
:1097E000D5D0013B2B6101236B71D0E7224639466E
:1097F0002846FFF727FF0028EFD00128DDD00124FD
:10980000C5E7F8B504460D46FFF7BCFD074600283E
:1098100068D1A27916065CD4E3689D4203D912F0A0
:10982000020F08BF1D460022A368A260BDB9E3680D
:10983000AB4257D2A379E56043F02003A37151E016
:1098400000202368A5685A89B5FBF2F302FB135385
:10985000002BECD0A369834218BFA061E7E7206822
:109860008278468956434BB3013B6A1EB2FBF6F23F
:10987000B3FBF6F18A4221D3724213406169A360BF
:10988000ED1A0029DCD0AE42206807D2A3799A07EE
:109890002DD5FFF76AFF014660BB3546A3682068F7
:1098A0002B44A3604389B5FBF3F203FB1255002D53
:1098B000C6D0FFF785FD40B11044C2E72169A1B9C8
:1098C000FFF753FF0128014605D1A37963F07F0319
:1098D000A371022706E0013006D10127A37963F0C6
:1098E0007F03A3713846F8BD21616161C9E7FFF7C5
:1098F000DDFD01464B1CF0D00129E6D923689B69A8
:109900009942E2D2A36861613344A360AD1BBAE718
:109910000129F8B504460D4622D983698B421FD927
:109920000127A369AB4201D80020F8BD2946204693
:10993000FFF7BCFD06460028F6D0012810D0411CD8
:1099400010D0002229462046FFF77CFE0028ECD1EB
:1099500023695A1C02D00133236167713546E0E761
:109960000220E2E70120E0E770B5044640B3FFF7CC
:1099700009FD054698B9A379190623D49A0723D57A
:10998000D4E9022191420AD943F02003E260A37195
:10999000206832B92169FFF7BBFF256140B928462D
:1099A00070BD6169FFF782FD431C06460ED10120A0
:1099B000A379054663F07F03A371F0E70220F7E780
:1099C0000925ECE70225EAE70725E8E70128F5D0B5
:1099D000206883699E42E2D26FF070426169FFF7AE
:1099E00031FE0028E4D131462068FFF791FFD5E72A
:1099F0002DE9F041C58804460135ADB20F4615B9D1
:109A00000420BDE8F0810269002AF9D0006843898A
:109A10005909B5FBF1F301FB13539BB233B9E1686C
:109A20000132226191B90389AB42E9D92368E5800B
:109A30005A8903F130015209B5FBF2F302FB1355C9
:109A4000ADB201EB451565610020DAE74389827804
:109A50005B09B5FBF3F3013A1342E7D1FFF726FDAB
:109A60000128064601D80220CBE7421C01D1012083
:109A7000C7E720688369B3423AD8002FC0D0E168B5
:109A8000FFF773FE0646002839D00128EBD0431CAF
:109A9000EDD000212068FFF7EFFC0028E7D1236814
:109AA00003F130025B8913F1FF3302D302F8010B9B
:109AB000F9E7226831461046FFF782FC00274FF095
:109AC0000108D0622368F9B29A788A420DD983F8E6
:109AD000048000212068FFF7CFFC01370028C6D1A1
:109AE0002268D36A0133D362ECE7DA6A521ADA6287
:109AF000E66031462068FFF763FC206196E70720A7
:109B00007FE72DE9F8430B7804462F2B0D4601D053
:109B10005C2B00D101350026A6602B781F2B2ED997
:109B200020262B78AE462F2B05F10105F9D05C2BB2
:109B3000F7D0A7693B4607F10B02934226D14FF0BD
:109B400000084FF0080C454643460EF1FF3919F85E
:109B5000012F0135202A23D92F2A21D05C2A1FD09A
:109B60002E2A75D0C44508D9100606D4434810F8EB
:109B7000011F002975D08A42F9D1062004E0314640
:109B80002046FFF70DFD6661BDE8F88303F8016B21
:109B9000D3E743F0020307F8082008F10108D6E7ED
:109BA000212A754434BF04220022B8F1000FE4D00A
:109BB00039782046E52904BF05213970BCF1080F2A
:109BC00004BF9B00DBB203F00301012903F00C0387
:109BD00008BF42F01002042B08BF42F00802FA72DC
:109BE0000021FFF7DDFCD8B921692068FFF744FCAC
:109BF000B0B96269137893B1D37A19070AD4A3690B
:109C000003F10B0C63450BD012F8017B13F8011B19
:109C10008F42F7D000212046FFF7EAFEE3E7042059
:109C2000A369DB7A30B10428AED113F0040F08BF6A
:109C30000520A9E75A07A7D46169CB7ADB0605D5C9
:109C400023681878FFF7AEFBA0606AE705209BE762
:109C5000BCF1080F91D19B00E046DBB24FF00B0C3A
:109C600075E7A2F14101192993D9A2F161011929DE
:109C70009EBF203A43F00103D2B28CE7C63C0108F4
:109C800038B500210546FFF78BFC0446B0B92969B9
:109C90002868FFF7F1FB044680B96B691B78E52B58
:109CA0000ED06BB101212846FFF7A2FEEDE70B2293
:109CB000A969FFF727FB01222B681A71204638BDDE
:109CC00029692868FFF7D8FB04460028F6D168699F
:109CD0002246034600F120019942E8D003F8012B07
:109CE000FAE710B5044604202169C1B12068FFF7E6
:109CF000C3FB88B962691378A3B1E52B06D02E2B7C
:109D000004D0D37A1B0701D4002010BD00212046C7
:109D1000FFF76EFE0028E7D000232361F5E7002857
:109D2000F2D0F9E70420F7E77FB504460D46FFF7C8
:109D300029FB064620B92DB901462046FFF730FC25
:109D400004B070BD01ABA3612046FFF7CAFF042831
:109D50000DD1266129462046FFF7DEFA0021204674
:109D6000FFF746FE042804BF00202061E8E7002832
:109D7000F0D0E5E710B5C1880446FFF711FC50B9F3
:109D800021692068FFF778FB28B9E52263691A701A
:109D9000012223681A7110BD2DE9F8431F460023E4
:109DA0003B60044688461646FFF7ECFA002838D197
:109DB000A379190627D49A0740F18D80E368DE4223
:109DC0007ED24FF00109A168002E79D02068428927
:109DD000B1FBF2F502FB1512002A48D18378013B52
:109DE0002B4013F0FF051FD179B9216929B9FFF77D
:109DF000BCFC01462061002962D001290AD1A37967
:109E000063F07F03A37102200BE06169FFF7ADFCF3
:109E10000146F0E74B1C06D10120A37963F07F03D4
:109E2000A371BDE8F88361612068A369C26A9A42A0
:109E300004D10021FFF720FB0028EDD122686169E1
:109E40001046FFF7BDFA0028D9D051890544B6FB6A
:109E5000F1F10029E0D1D4E90203984206D310467B
:109E6000FFF70AFB0028D7D12368DD62A5612068CF
:109E7000A2684589A169B2FBF5F305FB1323ED1A2E
:109E8000B54228BF3546FFF7F7FA0028C4D120684D
:109E9000A1684289761BB1FBF2F302FB1313303346
:109EA000414618442A46FFF72DFA2368A84483F850
:109EB0000490A3682B44A3603B682B443B6082E77B
:109EC000D4E90232934288BFE360A379002043F0D3
:109ED0002003A371A5E70720A3E710B500210446DE
:109EE000FFF7CAFA0346002839D12378032B32D171
:109EF000637983B3E06204F1300304F50C7293429A
:109F000002D003F8010BFAE74AF65523A4F82E32E3
:109F1000144B236303F1FF5303F500532033C4F8BC
:109F2000143223691A1284F8183284F819221A0C90
:109F30001B0E84F81B32E36884F81A221A1284F884
:109F40001C3284F81D221A0C1B0E84F81F320023C9
:109F500084F81E2263716378003318BF012318460A
:109F600010BD00BF5252614110B50446FFF7B5FF66
:109F70002046BDE810400121FFF77EBA10B5044627
:109F8000FFF700FA002833D1A3799B0630D5E169A9
:109F90002068FFF771FA014650BB236ADA7A42F073
:109FA0002002DA72E2681A77E26812125A77E289BE
:109FB0009A77E27BDA77226999749A761012120CFA
:109FC0001A7512125A75A0229A756C22DA7521221E
:109FD0001A7628225A760122D876D974A37923F0EA
:109FE0002003A37123681A712068BDE8104074E74C
:109FF00010BD10B50446FFF7C1FF00B9206010BDC9
:10A000002DE9F84F99460023C9F8003004468846E8
:10A010001546FFF7B7F9002832D1A379190622D4E3
:10A02000DA0740F18A80D4E90220801A854228BFED
:10A030000546002D00F083802068A2684389B2FBAA
:10A04000F3F103FB1123002B59D18778013F0F4017
:10A0500017F0FF0717D142B92069012809D8A37961
:10A0600063F07F03A37102200AE06169FFF71EFA23
:10A07000F3E7431C06D10120A37963F07F03A371AA
:10A08000BDE8F88F6061D4F800B061695846FFF709
:10A0900097F90028E3D0BBF80A6000EB070AB5FB8C
:10A0A000F6F656B39BF80230BA199A4288BFDE1B07
:10A0B000F3B2524641469BF80100FFF7A3F900288E
:10A0C000D9D121680B7953B1C86AA0EB0A00864246
:10A0D00005D94A89303102FB0080FFF713F9236864
:10A0E0005B895E43A368B0443344A360D9F8003071
:10A0F000AD1B3344C9F800309BE7C4F818A02068B2
:10A10000A2684689A169B2FBF6F306FB1323F61A8F
:10A11000AE4228BF2E46FFF7AFF90028ABD1216829
:10A12000A0684A89B0FBF2F302FB130330333246D6
:10A1300019444046FFF7E6F8D4E70720A0E7284691
:10A140009EE72DE9F84303681A78303A092A1ED9A8
:10A1500000230B607C4E3468002C00F0F1800C6012
:10A1600023780BB1607880B1002323804FF48053B3
:10A170000021C4F80A302046FFF755F9012840F0C5
:10A18000CC8094F8F2316BB90D20BDE8F8835C788F
:10A190003A2CDDD10233036000230B60002AD9D0B2
:10A1A0000B20F2E7D4F8F67120463946FFF73BF969
:10A1B000032800F0C7800028E6D194F83C3094F8DA
:10A1C0003B0040EA032063898342DDD194F84730A5
:10A1D00094F8462094F840C052EA032208BF626D0A
:10A1E0000CF1FF33012BE26184F803C0CCD894F862
:10A1F0003D9084F80290B9F1000FC5D009F1FF330A
:10A2000013EA090FC0D194F8423094F8418045090F
:10A2100048EA0328B8FBF5F105FB1185ADB2A4F8B7
:10A220000880002DB0D194F8445094F8433094F84D
:10A230003EE053EA052394F83F5008BF236D5EEAE1
:10A24000052EA1D002FB0CFC7144614499429BD8BD
:10A250005B1AB3FBF9F3002B96D040F6F5754FF679
:10A26000F579AB428CBF022501254B4588BF0325FC
:10A2700039440233A162032D0EEB0701A361216271
:10A280004DD1B8F1000F7FF47FAFE16D9B006162AB
:10A29000411E0B44B3FBF0F08242FFF475AF002384
:10A2A0004FF0FF32032DC4E903322CD1637194F8CF
:10A2B000602094F8613004F1300142EA03223A440C
:10A2C000626101236078FFF79DF8E0B994F82F22CE
:10A2D00094F82E3243EA02234AF65522934212D1D1
:10A2E000226B1A4B9A420ED103F1FF53D4F8142279
:10A2F00003F5005320339A4201BFD4F81C32E360C7
:10A30000D4F8183223610020B388257001339BB242
:10A31000B380E380E062207137E7002748E7B8F1B7
:10A32000000F3FF431AF6144022D61624FEA4301F7
:10A330001BBFC91803F001030B4603EB5103A7E74A
:10A340000C2022E7012020E7B80A00205252614188
:10A3500030B587B00191044628B3014601A8FFF744
:10A36000F0FE68B903ABA361019920462568FFF7A9
:10A37000C8FBD0B9616951B1CB7ADB0603D40520A3
:10A38000002323600DE02878FFF70CF8A060EB882D
:10A390000021A3802046FFF703F90428EFD000280E
:10A3A000EED107B030BD0920FBE70428E7D0E7E78E
:10A3B00030B58DB001900D4601A805A9FFF7C1FE8B
:10A3C000044668B902AB019905A80B93FFF799FB06
:10A3D000044628B90A9B33B1294605A8FEF79CFF1D
:10A3E00020460DB030BD0624FAE72DE9F34702AB55
:10A3F00043F8040D8846184611461446FFF7A1FE9F
:10A40000054638B92468A7692369BA1E934205D85E
:10A41000C8F80030284602B0BDE8F08794F80090F4
:10A42000B9F1010F19D10227064639462046FFF738
:10A430003DF8431C39D0012839D000B90136A36951
:10A440000137BB42F1D8B9F1030F08BF01232661E0
:10A4500008BF6371C8F80060DCE7034602460646A1
:10A46000216A4AB9204601F1010AFFF705F800BB4D
:10A470005146628904F130035878B9F1020F4FEA6E
:10A48000002093F800C008D150EA0C0008BF013644
:10A490000233023A013FE4D1D5E71868043A30F0BC
:10A4A000704008BF01360433F4E70125CBE70225ED
:10A4B000C9E70546C7E770B594B0019006A901A8A1
:10A4C000FFF73FFE0446E8B903AB019906A80C93D9
:10A4D000FFF717FB0446A8B90B9EB6B1F37A13F049
:10A4E000010F18BF0724069B31461878FEF75AFF64
:10A4F00005463CB9F37ADB0609D406A8FFF73AFC17
:10A500000446D8B1204614B070BD0624EBE70128FC
:10A5100022D91C2206A90DA8FEF7F4FE02210DA8DF
:10A520000F95FFF73DF804460028EBD10DA8FFF783
:10A53000D8FB044690B10428E4D1DEE725B906989B
:10A54000FFF7CBFC0446DDE729460698FFF7E0F964
:10A5500004460028D6D1F2E70224D3E70724D1E746
:10A5600030B58DB001900D4601A805A91446FFF73E
:10A57000E8FDA0B902AB019905A80B93FFF7C1FA5A
:10A5800068B90A9A6AB1D37A05985D402C4004F004
:10A5900027045C400123D4720371FFF79EFC0DB0C9
:10A5A00030BD0620FBE710B58CB001900C4601A829
:10A5B00005A9FFF7C6FDB8B902AB019905A80B9331
:10A5C000FFF79FFA80B90A9B83B1E28805989A75D4
:10A5D000E2881212DA75A2881A76A28812125A76C6
:10A5E00001230371FFF779FC0CB010BD0620FBE7D7
:10A5F00030B59BB001900C4601A80CA9FFF7A1FD56
:10A60000002869D10C9B019913930CA803AB1293FA
:10A61000FFF777FA00285FD1119900295ED0152243
:10A620000B3106A8FEF76EFE0CA913A81C22FEF73C
:10A6300069FE214613A8FFF764FA002850D00428C9
:10A640004AD113A8FFF71CFB002845D1189D1322FF
:10A650000DF11A0105F10D00FEF754FE9DF81830BA
:10A660000C9C43F02003EB72012323710E9A159B7F
:10A670009A422AD0EB7ADB0627D529462078FEF7C6
:10A6800091FE01462046FEF79BFE014650B3204650
:10A69000FEF7F2FE00BB0C9A92F851302E2B14D12B
:10A6A0001178159B032903D1516A994208BF0023F1
:10A6B000191282F86A301B0C82F864301B1282F87F
:10A6C0006530012382F86B1013710CA8FFF752FB61
:10A6D00010B90C98FFF701FC1BB030BD0420FBE75C
:10A6E0000820F9E70220F7E72DE9F0478CB0019147
:10A6F00017460646002800F08180002305A9036064
:10A7000001A8FFF71EFD0546002873D102AB019991
:10A7100005A80B93FFF7F5F90A9C10B9002C08BFA8
:10A72000062017F01C0F07F01F0842D0C8B30428FA
:10A7300002D105A8FFF7A4FA48F0080878BB0A9CE4
:10A7400018F0080F3ED0A023A3736C23E3732123DA
:10A75000002723742823DDF814906374E7722777A9
:10A760006777A777E77799F800002146FEF71AFE8A
:10A770000123A776E7762775677589F804300746C1
:10A7800000B301464846D9F82CA0FFF7C1F830B90C
:10A790000598013FC7605146FEF76EFE90B1054631
:10A7A00028E0E37A13F0110F2CD17807C8D50825DB
:10A7B00020E00028F3D1E37AD90621D4BA0701D5E5
:10A7C000DB071FD4059F18F0080FFB6A18BF48F07D
:10A7D0002008C6E9073486F8068038782146FEF757
:10A7E000E1FD3061E3693760F3600023B360B3617A
:10A7F000FB88B38028460CB0BDE8F0870925F9E74F
:10A800000425F7E70725F5E72DE9F04F8DB0019016
:10A8100005A901A8FFF795FC05460446002840F06D
:10A82000868002AB019905A80B93FFF76AF90546EC
:10A83000002800F09080042879D121460598FEF781
:10A8400094FF0646002800F08280012800F08180F5
:10A85000431C67D021460598FEF70EFE05460028EA
:10A8600061D1059C31462046FEF7AAFD04F130086F
:10A8700003464146628912F1FF3208D24246202146
:10A8800004F13B00824205D002F8011BFAE701F80F
:10A89000015BF0E7102284F83B20A02284F84620D8
:10A8A0006C2284F8472021222E2584F84820282273
:10A8B000370C5FFA87FB5FFA86F9C6F3072A3F0A6F
:10A8C00084F849204146202204F1500084F8305099
:10A8D00084F84A9084F84BA084F844B084F845701A
:10A8E0000093FEF70FFD059984F851500878079AF8
:10A8F0000328009B03D1486A904208BF002284F8D5
:10A900006A201012120C84F86420121284F86B0072
:10A9100084F86520012000248A78F2B10599CB6281
:10A92000087143B1012531460598FEF7F1FF28462D
:10A930000DB0BDE8F08F4B89414613F1FF3302D3D0
:10A9400001F8014BF9E7013AD2B20123E5E7072507
:10A95000E9E70225E7E70825E9E705A8FFF790F909
:10A9600005460028DFD110220A9B0598DA72A02242
:10A970009A756C22DA7521221A76282283F81A90A9
:10A980005A7683F81BA083F814B05F750123037116
:10A99000FFF7A3FA0546CAE70420704770B959B11A
:10A9A000012903D14FF40063136070478B1E012B04
:10A9B00004D84FF48053F7E70846704704207047E7
:10A9C00000487047A06C212805289ABF014B185CED
:10A9D00002207047C13C010800487047301B00202E
:10A9E000044B00211A6802B11170034A0020117053
:10A9F0001A607047B80A0020000B0020022910B529
:10AA00000A460BD101460A220C48FFF76DFE0528C5
:10AA100001D9022010BD0A4B185CFBE70129F8D1CF
:10AA200001460648FFF760FE04460146054800F06F
:10AA30008BF9052CEDD8024B185DEBE7C00A00201E
:10AA4000C13C0108D63C010807B5014601AB4FF4F3
:10AA500080520548FFF7D4FA05288EBF0220034B29
:10AA6000185C03B05DF804FBC00A0020C13C01087B
:10AA700007B5014601AB4FF480520948FFF78CF946
:10AA8000019BB3F5805F06D1052806D8054B185CFD
:10AA900003B05DF804FB0520FAE70220F8E700BFE9
:10AAA000C00A0020C13C010808B5431C01460AD079
:10AAB0000848FEF7A6FE18B1052808D9022008BDEF
:10AAC0000448FEF751FF0348FFF793FAF4E7024BFF
:10AAD000185CF4E7C00A0020C13C010808B504482E
:10AAE000FFF787FA052896BF024B0220185C08BDC5
:10AAF000C00A0020C13C010808B501460448FFF720
:10AB000027FC052896BF034B0220185C08BD00BF38
:10AB1000E40A0020C13C010810B50446014607487C
:10AB2000FFF702F9637A23B1052804D8044B185CB7
:10AB300010BD0320FCE70220FAE700BFE40A002072
:10AB4000C13C0108014B5869704700BFB80A00209A
:10AB500008B501460448FEF754FE052896BF034B8E
:10AB60000220185C08BD00BFC00A0020C13C0108DB
:10AB700008B5FDF749FC30B12B38C0B213288EBFA1
:10AB80000020014B185C08BDE63C0108421E0A216A
:10AB9000002010B512F8013F303BDCB2092C02D87E
:10ABA00001FB0030F6E710BDA0F13003DAB2092A4C
:10ABB00001D818467047A0F14103052B01D837385A
:10ABC0007047A0F16103052B94BF57384FF0FF3059
:10ABD000704710B50021044614F8010BFFF7E4FF9D
:10ABE000431C02D040EA0111F6E7084610BD70B5DB
:10ABF0000023802130243125064A41FA03F606421B
:10AC000014BFD554D4540133082BF6D1002313724A
:10AC1000004870BD302B0020002830B5164910DAEE
:10AC20000124404200B200220A25002813461BDD01
:10AC300090FBF5F305FB13003030885418B2013255
:10AC4000F3E70FD130230B70012300225D10CA54AB
:10AC50000B4495420ED0885C13F8014D8C5418704B
:10AC60000132F6E70024DEE7002CEED02D22CA5494
:10AC70000133EAE7004830BD302B00200F2810B523
:10AC8000044604D9034A60210348FDF751FA034BF7
:10AC9000185D10BD0A3D01081B3D0108FA3C010882
:10ACA00038B50546C0F34300FFF7E8FF074C2070B6
:10ACB000C5F3C310FFF7E2FF6070280BFFF7DEFF5C
:10ACC0000023A070E370204638BD00BF302B002069
:10ACD000F0B54FF48075CC0AE4005443C30AC2F1C6
:10ACE000FF06DB0006FB034393FBF5F3CF00FFB247
:10ACF000C908574301F0FC014A43DC10C300DBB232
:10AD0000C00806FB037300F0FC0006FB002093FB69
:10AD1000F5F390FBF5F0DB1043EAC423801043EA1F
:10AD2000401080B2F0BDC1431E220020400043000D
:10AD3000013393405B18A2F1020244BF013019466F
:10AD4000931CF3D1704700BF0FB430B50025A5B0F8
:10AD500028AA52F8041B04AC02A8CDE9024200F074
:10AD600024F90294124C029B1B78DBB10A2B216858
:10AD700003D06068B0F59C7F09DD0E31E029C8BFC3
:10AD8000294665602160029B01330293EBE7009343
:10AD90004FF6FF724FF43043FDF7F2FF636818443B
:10ADA0006060F0E725B0BDE8304004B0704700BFF8
:10ADB000402B00200FB410B5A2B024AA52F8041BF7
:10ADC00002AC6846CDE9004200F0EFF82046FFF7FC
:10ADD000BBFF22B0BDE8104004B0704720B103684B
:10ADE00019700368013303607047002A2DE9F041B0
:10ADF00006460C461FDD0D1B11F8010B0028FAD189
:10AE0000AA42CCBF521B024613F0020F0CBF2027F0
:10AE10003027DB0717D41546002D0EDC22EAE2733B
:10AE2000D21A1D1B05EB040814F8011B69B130464A
:10AE3000FFF7D4FFF6E72027EBE739463046FFF768
:10AE4000CDFF013DE8E70023EBE71446002C05DDCC
:10AE500039463046FFF7C2FF013CF7E7002AACBF96
:10AE600008EB020008F10000BDE8F0812DE9F04395
:10AE70000C4685B0804600212046154607F006FBAB
:10AE800000B32D2304F100448DF804300DF10507C3
:10AE9000204607F023FB01230A2101FB03F2824233
:10AEA00012DD0A21002B07F101060FDD90FBF3F202
:10AEB00002F1300706F8017C03FB1200374693FBD2
:10AEC000F1F3EFE701AFE3E71346E6E72E23002DAA
:10AED0003B7008BF03253746DFF84490BB1B9D42FB
:10AEE00012DD204607F0FAFA07F0DEF801462046A8
:10AEF00007F024F8494607F02BF9044607F0EEFA6C
:10AF0000303007F8010BE9E7002225EAE5757255B4
:10AF1000202301A94046FFF768FF05B0BDE8F08394
:10AF200000002041F0B585B09446DDE90A270646C9
:10AF30001C4641B9302304A921F80C3D3B46FFF7DC
:10AF400054FF05B0F0BD33B1BCF10A0F16D1002992
:10AF500014DA01244942002304AD05F8013D0C9B9D
:10AF60003A3B69B1B1FBFCF00CFB10110929C8BFD9
:10AF7000C918303105F8011D0146F2E70024EAE75F
:10AF80003CB16AB1BB070BD52D213046FFF726FF38
:10AF9000013A3B4629463046FFF727FF2044D0E7D9
:10AFA0002D23013D2B700024F3E72DE9F0430746E4
:10AFB0000E46144600254FF00A08DFF8149189B0B8
:10AFC0003378002B7CD0252B74D17378002B77D06D
:10AFD000252B06F101026CD02D2B0ABF0123002383
:10AFE000B21C164631780132302902D143F00203F7
:10AFF000F7E70022304610F8011BA1F1300C5FFA90
:10B000008CFEBEF1090F03D808FB02C20646F1E729
:10B01000732908D121680434002908BF49463846FD
:10B02000FFF7E3FE0DE064290ED161202146CDE952
:10B030000130012300920A22096838460434FFF7E0
:10B0400071FF05440136BBE766290FD1073424F0B0
:10B050000703D3E90001059203F1080406F01AFF83
:10B06000059A01463846FFF701FFEAE7782907D13C
:10B0700021466120CDE90130009200231022DBE758
:10B08000582902D121464120F4E7752906D16120D3
:10B090002146CDE9013000920023CCE76329D1D1CC
:10B0A000216804348DF81C1000218DF81D1007A9AB
:10B0B000B5E7164631783846FFF790FE0135C1E70F
:10B0C00017B100223B681A70284609B0BDE8F0832A
:10B0D000393D01080EB40FB505AA52F8041B0190C2
:10B0E00001A80392FFF761FF04B05DF804EB03B021
:10B0F000704700BF10B508228A49044607F0D2FC09
:10B1000070B904F108031C4622780133303A092A49
:10B11000F9D98549204607F05BFB98B9834810BDF3
:10B1200007228349204607F0BDFC08B9E31DEAE782
:10B1300002228049204607F0B5FC002840F0048236
:10B14000A31CE0E77C49204607F042FB08B97B4896
:10B15000E5E77B49204607F03BFB08B97948DEE785
:10B160007949204607F034FB08B97848D7E7784991
:10B17000204607F02DFB08B97648D0E776492046EF
:10B1800007F026FB08B97548C9E77549204607F05E
:10B190001FFB08B97348C2E77349204607F018FB44
:10B1A00008B97248BBE77249204607F011FB08B99D
:10B1B0007048B4E77049204607F00AFB08B96F48A9
:10B1C000ADE76F49204607F003FB08B96D48A6E7D5
:10B1D0006D49204607F0FCFA08B96C489FE76C49B6
:10B1E000204607F0F5FA08B96A4898E76A49204608
:10B1F00007F0EEFA08B9694891E76949204607F077
:10B20000E7FA08B967488AE76749204607F0E0FA95
:10B2100008B9664883E76649204607F0D9FA08B9B5
:10B2200064487CE76449204607F0D2FA08B96348CD
:10B2300075E76349204607F0CBFA08B961486EE725
:10B240006149204607F0C4FA08B9604867E76049D9
:10B25000204607F0BDFA08B95E4860E75E4920461F
:10B2600007F0B6FA08B95D4859E75D49204607F08E
:10B27000AFFA08B95B4852E75B49204607F0A8FAE5
:10B2800008B95A484BE75A49204607F0A1FA08B9CD
:10B29000584844E75849204607F09AFA08B95748F1
:10B2A0003DE75749204607F093FA08B9554836E775
:10B2B0005549204607F08CFA08B954482FE75449FD
:10B2C000204607F085FA08B9524828E75249204637
:10B2D00007F07EFA08B9514821E75149204607F0A6
:10B2E00077FA08B94F481AE74F49204607F070FA35
:10B2F00008B94E4813E74E49204607F069FA08B9E5
:10B300004C480CE74C49204607F062FA08B94B4814
:10B3100005E74B49204607F05BFA002840F094808F
:10B320004848FCE61F3E0108333E0108D5B000083E
:10B33000283E0108303E0108413E0108B9FD0008E1
:10B34000563E010869FF0008673E010849AD000844
:10B35000763E010845AB0008893E0108D9A90008DE
:10B36000A03E0108E1A90008AB3E0108FDA90008C4
:10B37000B93E010849AA0008C53E010851AB0008C2
:10B38000D03E0108A9AA0008DC3E0108DDAA000899
:10B39000E83E010871AA0008F53E0108F9AA000874
:10B3A000043F010819AB0008223F010871AB0008F7
:10B3B0002F3F0108858F0008413F0108698F000871
:10B3C0005C3F01082D8D00086E3F0108F18C0008DC
:10B3D0007C3F01088B8F00088D3F0108D58C000849
:10B3E000993F0108598E0008AB3F01089D8E000867
:10B3F000BC3F01083F900008CD3F0108F78F0008CF
:10B40000E23F0108658D0008FA3F01084B8D0008F6
:10B410000B400108898F00081B4001084B8F000872
:10B4200033400108C18E0008474001082B85000801
:10B430005240010815850008604001082585000874
:10B440006E400108198500084049204607F0C0F900
:10B4500008B93F4863E63F49204607F0B9F908B903
:10B460003D485CE63D49204607F0B2F908B93C4842
:10B4700055E63C49204607F0ABF908B93A484EE694
:10B480003A49204607F0A4F908B9394847E639494E
:10B49000204607F09DF908B9374840E6374920466D
:10B4A00007F096F908B9364839E63649204607F0DC
:10B4B0008FF908B9344832E63449204607F088F954
:10B4C00008B933482BE63349204607F081F908B91B
:10B4D000314824E63149204607F07AF908B9304866
:10B4E0001DE63049204607F073F908B92E4816E6E4
:10B4F0002E49204607F06CF908B92D480FE62D4972
:10B50000204607F065F908B92B4808E62B49204684
:10B5100007F05EF908B92A4801E62A49204607F0F3
:10B5200057F908B92848FAE52849204607F050F9A4
:10B5300008B92748F3E52749204607F049F90028CC
:10B54000254818BF0020EAE50020E8E57C40010816
:10B55000E914010898400108A9140108B64001083F
:10B5600095140108D340010881140108F240010834
:10B57000F91501080B4101086D1601082741010862
:10B58000E9150108454101084D160108554101081A
:10B590001D16010866410108AD1601087741010832
:10B5A0007716010896410108E9160108A84101082B
:10B5B0009D160108BE410108ED140108E141010892
:10B5C000B9920008F7410108C99200080E4201082B
:10B5D000ED92000829420108AF9200082DE9F047DA
:10B5E0002D4B9CB01CAC44F86C3D2046174600F037
:10B5F000BBFB0646002844D00FAB07933422002340
:10B600000DF11C0841462046CDE9083200F072FBDE
:10B61000BDF86630202B04D0204A12212048FCF7C8
:10B6200087FD00251699204600F0C8FB4FF0200941
:10B63000AA46BDF86830AB4229DD04A92046CDF802
:10B640001080CDE905A900F055FB079B032B1CD109
:10B650000899204600F0B2FB0B9B1E2B04D9114A1F
:10B660001B210F48FCF764FD00250B9B04A9204615
:10B6700006930497059500F03DFB0B9BFD54FFF7E7
:10B680002DFA30461CB0BDE8F0870135D1E7FFF751
:10B6900025FA0026F5E700BF483D010843420108AE
:10B6A0006D42010883420108F7B50D46002409697F
:10B6B000074600F083FBEE686B69A3420EDD0DF1D7
:10B6C0000701384600F06CFBA25D9DF807309A42F6
:10B6D00002D0002003B0F0BD0134EDE70120F9E70E
:10B6E0000023CA684969994203DD985C18B901339F
:10B6F000F9E70120704700207047F7B50D46002498
:10B700000969074600F05AFBEE686B69A34209DD40
:10B710000DF10701384600F043FB9DF80730A355B3
:10B720000134F2E703B0F0BD0023184610B5CA6833
:10B730004C699C4202DD98540133F9E710BD2DE9B4
:10B74000F04F95B04F69CE6809698046002500F03A
:10B7500035FBFDF7B1FDDFF854A0DFF854B00DF173
:10B760001009BD421CDA7C1B402CA8BF40240022DB
:10B77000D8F8003002929B6801A9CDF80490039498
:10B7800040469847224649463046FDF7AFFD20B96E
:10B79000524664215846FCF7CBFC25442644E0E79A
:10B7A000FDF792FD15B0BDE8F08F00BF9A42010889
:10B7B0006D4201082DE9F04391B04F69CE684022F7
:10B7C0000021684606F026FF0025FDF775FDDFF82D
:10B7D0003880DFF83890BD4211DA7C1B402CA8BFBE
:10B7E0004024694622463046FDF780FD20B9424696
:10B7F0007B214846FCF79CFC25442644EBE7FDF7FB
:10B8000063FD11B0BDE8F0839A4201086D42010862
:10B8100038B50C460546FFF747FFE268616920B17D
:10B82000BDE838400F48FFF78FBA0F48FFF78CFA92
:10B83000E3681B0E202B05D121462846BDE8384081
:10B84000FFF75BBF082B05D121462846BDE83840ED
:10B85000FFF775BF054A9621BDE838400448FCF75C
:10B8600067BC00BFB4420108CF420108EA420108A8
:10B870006D42010838B50C460546FFF731FF616996
:10B88000E26820B1BDE838400F48FFF75DBA0F48C5
:10B89000FFF75AFAE3681B0E202B05D121462846F4
:10B8A000BDE83840FFF740BF082B05D121462846A8
:10B8B000BDE83840FFF77EBF054AAC21BDE83840FF
:10B8C0000448FCF735BC00BFB44201080C43010832
:10B8D000EA4201086D4201082DE9F04F0C46F7B02D
:10B8E0000020FDF7F7F98F48FFF72EFA8E4B21461F
:10B8F00005A8059300F038FA002800F001813423F0
:10B900004FF00009282556AF0DF1640B394605A804
:10B910005893CDF858B1CDF85C9100F0EBF9DBF815
:10B920002030BBF8321005A805FB013100F046FAC3
:10B930000FAC394605A858955694CDF85C9100F0A7
:10B94000D9F92369794E0093636926AD01930FCE2F
:10B950000FC50FCE0FC50FCE0FC596E80F0085E8B7
:10B960000F004B464FF0FF3236A846A940F823207F
:10B9700041F823200133102BF8D10026DFF8D491B1
:10B98000DFF8D4A1BBF83030B34273DD2825DBF8F3
:10B99000201005A805FB061100F010FA58950025A7
:10B9A000394605A85694579500F0A4F92168019BE3
:10B9B00005A8A3EB0108009B8DF86651194400F01F
:10B9C000FDF943460E2BA8BF0E230BA905A80B9724
:10B9D000CDE90C5300F08EF905224946384607F0B0
:10B9E00061F860B939465248FFF7AEF9214605A81B
:10B9F000FFF70EFF4F48FFF7A7F90136C2E7052210
:10BA00005146384607F04EF80028EBD007224A4945
:10BA1000384607F047F80028E4D004224749384662
:10BA200007F040F840B939464148FFF78DF9214603
:10BA300005A8FFF71FFFDDE70DF1980858F825105E
:10BA4000384606F0C5FE88B9002D40F030813C4AEA
:10BA500040F22D113B48FCF76BFB39463A48FFF7A3
:10BA600073F94FF47A60FCF755FDC6E70135102DE8
:10BA7000E4D1ECE700254FF0FF3A36AB53F8253020
:10BA8000591C33D02826DBF8201005A806FB03112B
:10BA900000F094F90023394605A857935694589618
:10BAA00000F028F926AB53F825102148FFF74CF990
:10BAB0006B1E0B2B17D8DFE813F00C000C002600D0
:10BAC000120012001200310016005100160016007C
:10BAD000D5001E4A4FF4A6711A48FCF729FB2146EF
:10BAE00005A8FFF795FE1348FFF72EF90135102D35
:10BAF000C3D11748DBF81810FFF726F9DBF8180058
:10BB000077B0BDE8F08F114A40F259110D48FCF7AB
:10BB10000FFB214605A8FFF7ADFEE4E7D4F810A01F
:10BB2000E1E700BF26430108483D0108543D0108F4
:10BB300041430108574401084B430108534301089E
:10BB4000584301086D420108684301081349010880
:10BB5000384401083B430108454301085948FFF7B1
:10BB6000F3F84E9B0093013305D1574A4FF4B4715B
:10BB70005648FCF7DDFA4D9B013305D1544A40F29B
:10BB800069115248FCF7D4FA00266369DB08019377
:10BB9000019B9E42A7DA216905A801EBC60100F0CE
:10BBA0000DF90823589300230DF10C08394605A818
:10BBB0005793CDF8588100F09DF898F80430162B73
:10BBC00005D0444A4FF4BA714048FCF7B1FAD8F8AE
:10BBD0000410009B090A03EB011105A800F0EEF820
:10BBE0001023589300230DF12C09394605A8CDF8F0
:10BBF0005891579300F07EF8BAF1000F05DA364AF3
:10BC00004FF4BD713148FCF793FAD9F8001005A83C
:10BC1000514400F0D3F80023802208A905A8CDE9FB
:10BC20000932089700F066F83846FFF763FA39469C
:10BC300081462A48FFF788F8019B013BB34202D1B5
:10BC40002748FFF781F8B9F1000F05D1254A4FF4D5
:10BC5000C3711E48FCF76CFAD8F800300136C3F8FF
:10BC6000009095E76369216905A84FEA93084FF0B2
:10BC7000000900F0A3F80BAEC14514DA0023579376
:10BC80000423394605A85893569600F033F83168D6
:10BC90001548FFF759F8336898471448FFF754F8E8
:10BCA00009F10109E8E71248FFF74EF81BE736AB48
:10BCB00043F8256076AB03EB8505236945F8C03C66
:10BCC0009BE600BF84430108994301086D420108C7
:10BCD000BB430108DD430108034401081B4401087C
:10BCE00057440108204401082B4401081D44010861
:10BCF000324401082DE9F84F04460E460025DFF8CE
:10BD00005C80DFF85C90DFF85CA0B368AB4220DDBC
:10BD1000D4E901B77B1CA360B3689D4204DB4246B3
:10BD200059214846FCF704FA33681BF807205A5596
:10BD3000A368B3F5805F0AD100236068A360FEF7B3
:10BD400083FE20B1524655210348FCF7F1F9013535
:10BD5000DBE72046BDE8F88FFE3D0108A03D010865
:10BD6000C43D0108E43D010870B505460E460024B7
:10BD7000FEF732FEAC60686001213046FEF73EFE01
:10BD800048B90648FEF7E0FF6868FEF75DFEB0FAC6
:10BD900080F0400970BD2046FCE700BF943D0108DB
:10BDA0001FB500220123CDE90223036801919B689E
:10BDB00001A9984705B05DF804FB000010B50446E2
:10BDC000C1F30B00A060081AFEF7C2FE6068FEF720
:10BDD0003BFE30B1BDE81040024A61210248FCF749
:10BDE000A7B910BDE43D0108FE3D010810B50446A9
:10BDF000034A05210348FCF79BF9204610BD00BF0C
:10BE000013490108C444010810B50446034A0C2133
:10BE10000348FCF78DF9204610BD00BF1349010807
:10BE2000C444010810B50C4601460B20F4F768F92C
:10BE30002146BDE810400C20F4F762B901460D2000
:10BE4000F4F75EB900211520F4F75AB90121152045
:10BE5000F4F756B938B51C460D46013A42EA00419E
:10BE60000920F4F74DF9611E41EA05410A20BDE8B9
:10BE70003840F4F745B902490620F4F741B900BF4C
:10BE80000000FCFF08B5014620B101210520F4F7B0
:10BE900037F96421BDE808400520F4F731B938B519
:10BEA0001C460D46013A42EA00410920F4F728F900
:10BEB000611E41EA05410A20BDE83840F4F720B987
:10BEC000034A136803F0380318431060704700BF3B
:10BED00000200240044B1A6822F008021A601A6817
:10BEE00010431860704700BF00200240044B1A68DE
:10BEF00022F010021A601A6810431860704700BFE1
:10BF000000200240034B044A5A6002F188325A6012
:10BF1000704700BF0020024023016745FFF7F2BFD2
:10BF2000024A136943F08003136170470020024006
:10BF3000FFF7F6BF014BD869800870470020024028
:10BF4000014B186A704700BF00200240024BD869BD
:10BF5000C0F34000704700BF00200240024B186849
:10BF6000C0F34010704700BF00200240044B1A6924
:10BF700011B110431861704722EA0000FAE700BFD0
:10BF8000002002400128064B03D1D86900F00100CF
:10BF90007047DB68034214BF01200020704700BFD8
:10BFA00000200240014BD860704700BF00200240D3
:10BFB000084BDA68D10709D4DA68520708D4DB687D
:10BFC00013F0100F14BF03200420704701207047A6
:10BFD0000220704700200240084BDA68D10709D4DC
:10BFE000DA68520708D4DB6813F0100F14BF03207F
:10BFF0000420704701207047022070470020024053
:10C0000010B50446FFF7E8FF012806D10CB905205A
:10C0100010BDFFF7E1FF013CF6E7002C08BF05204B
:10C02000F6E738B505464FF43020FFF7E9FF04285E
:10C0300013D10A4C4FF43020236943F002032361EB
:10C040006561236943F040032361FFF7D9FF23694A
:10C0500023F00203DB04DB0C236138BD0020024027
:10C0600010B54FF43020FFF7CBFF042812D10A4C53
:10C070004FF43020236943F004032361236943F024
:10C0800040032361FFF7BCFF236923F00403DB04B3
:10C09000DB0C236110BD00BF00200240FFF7E0BFB2
:10C0A00038B5FFF753FF00284FF430200CBFA5250B
:10C0B0000025FFF7A5FF04282BD1164C164B4FF493
:10C0C0003020A36003F18833A360236943F0200389
:10C0D0002361236943F040032361FFF791FF0428A4
:10C0E0000FD123694FF4005023F02003DB04DB0C55
:10C0F0002361236943F010032361084B1D80FFF780
:10C100007FFF052805D0236923F01003DB04DB0C37
:10C11000236138BD002002402301674500F8FF1F5E
:10C12000002373B506464FF400500D460193FFF708
:10C1300067FF04281BD10F4C4FF40050236943F0D4
:10C1400001032361ABB23380FFF75AFF042808D103
:10C1500002360196019B2D0C1D804FF40050FFF715
:10C160004FFF236923F00103DB04DB0C236102B0E2
:10C1700070BD00BF0020024070B505464FF400506E
:10C180000E46FFF73DFF04280FD1084C4FF4005036
:10C19000236943F0010323612E80FFF731FF2369F8
:10C1A00023F00103DB04DB0C236170BD002002409F
:10C1B00070B506464FF400500D46FFF721FF0428E6
:10C1C00017D10C4C0C4BADB2A36003F18833A360C4
:10C1D00023694FF4005043F0100323613580FFF7CB
:10C1E0000FFF052805D0236923F01003DB04DB0CC7
:10C1F000236170BD002002402301674510B504464D
:10C200004FF40050FFF7FCFE04283BD1E443224BDF
:10C21000224AE1B29A6002F188329A601A69FF29D3
:10C2200042F010021A6123D1C4F30723FF2B07D079
:10C230001B4A4FF400505381FFF7E2FE04281FD140
:10C24000C4F30743FF2B07D0154A4FF400509381E6
:10C25000FFF7D6FE042813D1240EFF2C13D104209F
:10C260000D4A136923F01003DB04DB0C136109E0B2
:10C270000B4B4FF400501981FFF7C2FE0428D3D0B6
:10C280000528EDD110BD064BA4B2DC814FF400505F
:10C29000FFF7B6FEF4E700BF002002402301674528
:10C2A00000F8FF1F38B505464FF43020FFF7A8FE11
:10C2B00004282ED11D4C1E4B4FF43020A36003F1F7
:10C2C0008833A360236943F020032361236943F08B
:10C2D00040032361FFF794FE04281DD1236923F056
:10C2E0002003DB04DB0C2361236943F0100323618B
:10C2F000104B7DB100221A804FF43020FFF780FEF2
:10C30000052806D0094A136923F01003DB04DB0C6F
:10C31000136138BDA522EEE70528FAD0236923F082
:10C320002003DB04DB0C2361F3E700BF00200240A5
:10C330002301674500F8FF1FF8B5134C134B074660
:10C34000A36003F18833A3604FF400500E461546F6
:10C35000FFF756FE042815D1236947F0F80743F08C
:10C36000100323613E430A4B35435D804FF4005078
:10C37000FFF746FE052805D0236923F01003DB04F0
:10C38000DB0C2361F8BD00BF00200240230167459C
:10C3900000F8FF1FFFF734BE08B5154B98420BD1CC
:10C3A00001214FF4805000F06FFABDE808400021F1
:10C3B0004FF4805000F068BA0E4B98420BD1012127
:10C3C0004FF4804000F06CFA00214FF48040BDE84B
:10C3D000084000F065BA084B984208D101214FF49B
:10C3E000004000F05DFA00214FF40040EFE708BD87
:10C3F0000030014000380040003C0040038810B588
:10C4000003F441524C880B8823438C882343CC8807
:10C4100023430C8923434C8923438C892343CC89B0
:10C42000234313430380838B23F400631B041B0CFF
:10C4300083830B8A038210BD838BF0B523F47B6367
:10C4400023F00F038383022303848B68868B022BE4
:10C4500087B005460C46B6B239D08B8801A8002BB0
:10C4600014BF0227012700F0ABF9E3880199B3F567
:10C47000007F18BF7B014FF00A0214BFB1FBF3F33A
:10C480000B0A5343A0680A22B3FBF0F305339BB2B7
:10C49000B3FBF2F303F001021202C3F34F03991E40
:10C4A00089B2FE2924BF002202231343E2881343EA
:10C4B0009BB262882B8423881343A28843F40063D1
:10C4C0001343A28913431E43AE8307B0F0BD00227D
:10C4D000E5E70023038043808380C3800381438199
:10C4E0008381C38107230382704700230222C0E9AE
:10C4F0000033826083817047038819B143F04003A1
:10C500000380704723F040031B041B0CF8E7838B68
:10C5100019B143F480638383704723F480631B0461
:10C520001B0CF8E70B090121994089B2838812B1ED
:10C5300019438180704723EA0101FAE7838812B129
:10C5400019438180704723EA0101FAE7818170472E
:10C55000808970474FF6FF639942038805BF23F433
:10C5600080731B0443F480731B0C03807047838823
:10C5700019B143F004038380704723F004031B04C4
:10C580001B0CF8E7038823F400631B041B0C0380D7
:10C590000388194301807047038843F48053038064
:10C5A0007047038819B143F400530380704723F4A4
:10C5B00000531B041B0CF8E7012914BF008B808A71
:10C5C00080B27047008A70470388B1F5804F1BBF67
:10C5D00023F480431B0443F480431B0C0380704707
:10C5E0000389194214BF012000207047C94389B252
:10C5F000018170470123828810B5048901F00F0082
:10C6000003FA00F0204092B205D009098B401A428B
:10C6100014BF0120002010BD01F00F03012199403B
:10C62000C94389B2018170470D4B1A6842F001027B
:10C630001A6059680B4A0A405A601A6822F08472DC
:10C6400022F480321A601A6822F480221A605A6832
:10C6500022F4FE025A604FF41F029A60704700BF36
:10C66000001002400000FFF80C4BB0F5803F1A6844
:10C6700022F480321A601A6822F480221A6003D0F1
:10C68000B0F5802F05D070471A6842F480321A60E6
:10C6900070471A6842F4A022F9E700BF0010024078
:10C6A000034A136823F0F80343EAC00010607047A0
:10C6B00000100240014B1860704700BF000042426A
:10C6C000034A536823F47C131943014351607047B4
:10C6D00000100240014B1860704700BF60004242EA
:10C6E000034A536823F0030318435060704700BFA8
:10C6F00000100240024B586800F00C00704700BF69
:10C7000000100240034A536823F0F00318435060BE
:10C71000704700BF00100240034A536823F4E063EF
:10C7200018435060704700BF00100240034A53682E
:10C7300023F4605343EAC000506070470010024089
:10C74000044B1A7811B110431870704722EA0000A8
:10C75000FAE700BF09100240014B1860704700BFA4
:10C76000D8004242034A536823F4404318435060C0
:10C77000704700BF001002400022064B01281A70CB
:10C780001A7002D0042802D0704718707047052232
:10C790001A70704720100240014B1860704700BFAC
:10C7A00080044242024A136A18431062704700BF75
:10C7B00000100240014B1860704700BF3C04424229
:10C7C0001B4A10B5536803F00C03082B1FD0194BFC
:10C7D000036053681849C3F30313CC5C0368E34058
:10C7E00043605468C4F302240C5D23FA04F48460AB
:10C7F0005468C4F3C2240C5DE340C3605268C2F3C2
:10C80000813211440A7CB3FBF2F3036110BD53681B
:10C810005168C3F38343CC0303F1020302D40749F5
:10C820004B43D5E751688903F9D40249F8E700BFC3
:10C830000010024000127A000300002000093D00B1
:10C84000044B5A6911B110435861704722EA000045
:10C85000FAE700BF00100240044B9A6911B110437F
:10C860009861704722EA0000FAE700BF001002401A
:10C87000044BDA6911B11043D861704722EA000015
:10C88000FAE700BF00100240044BDA6811B1104310
:10C89000D860704722EA0000FAE700BF00100240AB
:10C8A000044B1A6911B110431861704722EA000065
:10C8B000FAE700BF00100240014B1860704700BF4C
:10C8C00040044242014B1860704700BF4C00424296
:10C8D000014B1870704700BF071002404209012A3F
:10C8E000074B07D11B6800F01F0023FA00F000F08F
:10C8F00001007047022A0CBF1B6A5B6AF3E700BFA6
:10C9000000100240002307B501933120FFF7E6FF36
:10C91000019B01330193019BB3F5A06F01D0002867
:10C92000F3D03120FFF7DAFF003018BF012003B049
:10C930005DF804FB024A536A43F080735362704708
:10C9400000100240034B9B68184214BF01200020D6
:10C95000704700BF00100240014B1870704700BFC5
:10C960000A10024010B50446FBF7AEFE2046BDE8B3
:10C970001040FCF757B870B50446037A087A03F004
:10C98000100300F01000181A0D461BD10934144989
:10C99000204605F01DFF00B309351149284605F072
:10C9A00017FFB8B12E21204605F09EFE2E21064627
:10C9B000284605F099FE01462EB128B1304605F013
:10C9C00007FF08B170BD40B929462046BDE8704058
:10C9D00005F0FEBE4FF0FF30F4E70120F2E700BFA4
:10C9E00008460108002310B510F8012BA2B1A2F1EE
:10C9F0003001CCB21B01092C98BF0B43A2F161019D
:10CA000005299CBFA2F157010B43A2F14101052961
:10CA1000EAD8373A1343E7E7184610BD10B5D0F807
:10CA20000411D0F8083130F8022B0B44134403EB07
:10CA30001223002203F0FF03914205DD10F8014BA1
:10CA400001322344DBB2F7E75842C0B210BD70B5E3
:10CA5000B3F5807F0E461D461146049C11D884B163
:10CA6000C4F8080120461A4620F8026B05F05CFD68
:10CA7000C4F804512046FFF7D1FF84F80C010020D0
:10CA800070BD6FF00300FBE72DE9F0470E4692B052
:10CA90000546002800F0A3800024DFF8549102AF7F
:10CAA000D6E90102531CB36010F80280B3F5805F31
:10CAB00004F8078009D10023B360FDF7C5FF20B15A
:10CAC0004A4626214948FBF733FBB8F10A0F02D04A
:10CAD00001343F2CE4D112AB234413F8403C0D2B1E
:10CAE00008BF04F1FF3412AB2344002403F8404C88
:10CAF0009DF80860002E75D0384605F0A5FF08287F
:10CB000004D86FF0020012B0BDE8F0873A2EF8D1D9
:10CB100002220DF10901684606F00EF810222146A6
:10CB200068468DF80240FFF75DFF042280460DF154
:10CB30000B01684606F000F81022214668468DF881
:10CB40000440FFF74FFF022228800DF10F016846D5
:10CB500005F0F2FF1022214668468DF80240FFF7EB
:10CB600041FFC5F80801384605F06EFF4FEA480658
:10CB700006F10B039842C4D3A24605F102094445CD
:10CB800012DA0DF1110303EB44010222684605F0AD
:10CB9000D3FF1022002168468DF802A0FFF722FF84
:10CBA000013409F8010BEAE7002406F10901022229
:10CBB0003944C5F80481684605F0BEFF10222146BD
:10CBC00068468DF80240FFF70DFFC6B285F80C618C
:10CBD0002846FFF723FF864293D1204693E76FF064
:10CBE000030090E76FF004008DE700BFFE3D0108F1
:10CBF000E43D0108A0F14103192B9CBF2030C0B2D5
:10CC0000704738B50C46054620B90F4A2A210F480F
:10CC1000FBF78EFA24B90E4A2B210C48FBF788FA51
:10CC2000013D013C15F8012F1046FFF7E3FF0146D7
:10CC300014F8010FFFF7DEFF814203D1002AF1D182
:10CC4000104600E0081A38BD0B46010818460108D6
:10CC50002E460108054B4FF42812036403F5806348
:10CC600083644FF400134264C3647047482B002070
:10CC70004FF4801C1FB50446074B0091CDE902C359
:10CC8000064902ABFBF7D9FC2046FFF7E3FF002380
:10CC9000A36704B010BD00BF4001F0003B4601088F
:10CCA0007047704710B50446FBF751FC2046074B10
:10CCB00040F8503BFBF74BFC054B0649236504F15C
:10CCC000200005F063FE204610BD00BF0C450108A2
:10CCD000F0440108584401086F2313B5ADF8003043
:10CCE00071230C46ADF802000E30ADF80600684620
:10CCF000ADF80430FCF71AF8BDF800302146403397
:10CD0000ADF80030BDF8043068464033ADF804306B
:10CD1000FCF70CF8BDF8003021465033ADF8003078
:10CD2000BDF8043068465033ADF80430FBF7FEFF21
:10CD300002B010BD4FF49C7230B585B0ADF8002044
:10CD40004FF4A0720446B0F90630ADF80420ADF8F7
:10CD5000023044F20822D23341F282016846ADF833
:10CD6000063003F029F8B4F844200E2A2EDD1A4BC1
:10CD70004FF6FF71D3F800389B0293FBF2F003F5F6
:10CD8000605393FBF2F3BDF80020BDF9025002326C
:10CD9000ADF80820BDF80420ACB2023AADF80C2082
:10CDA000BDF90620521B4FF480655043534390FB5E
:10CDB000F5F093FBF5F32044ADF80A00234402A8F4
:10CDC000ADF80E30FBF7B2FF05B030BD48F21041B0
:10CDD0004FF480630020D6E7482B0020094AD2F8A0
:10CDE0000438D2F80018591A0D2904DD0D3BC2F899
:10CDF000003801207047581C01D00029F7DB0020C3
:10CE0000704700BF482B00202DE9F04F01F10904C5
:10CE100091B0884620462E211646039305F064FC07
:10CE200072490546204605F0D3FC98F808B00DF18C
:10CE30002009CBF3001A05AF2146002840F0A4805A
:10CE4000484605F0A3FD6A49384605F09FFD0125D7
:10CE5000039B4FF6E074002B18BF00244FF6FF73BE
:10CE6000BAF1000F18BF1C464BF280531BF0020FA3
:10CE700018BF1C460023ADF818304FF49C73ADF872
:10CE80001C3006F10E03ADF81E30039BADF81A609E
:10CE9000002B00F094804FF4E7424FF4844106A841
:10CEA00002F08AFF53493846FFF7ABFE70B1524992
:10CEB0003846FFF7A6FE48B150493846FFF7A1FEB5
:10CEC00020B14F493846FFF79CFE08B94FF4FC6487
:10CED0004FF6FF73BAF1000F18BF1C46CDF8009053
:10CEE0004FF61E03224631460420FBF7D7FF9DF87C
:10CEF00014303BB100974FF61E03224631465020B6
:10CF0000FBF7CCFF0CAF002D5ED03E49384605F054
:10CF10003DFD224600974FF61E0331467820FBF771
:10CF2000BDFFB8F8042042B342F621039A4224D050
:10CF30005312143B0093344902F01F033846C2F3E6
:10CF40004312FEF7C7F84FF61E03224631460097FC
:10CF5000B820FBF7A3FFB8F806202C49C2F345130D
:10CF60003846D20AFEF7B6F800974FF61E0322465F
:10CF700031464FF48470FBF791FF21463046FFF7AE
:10CF8000ABFE11B0BDE8F08F48468DB105F0FEFC58
:10CF90002C1B10AB1C44002335F8011F04F8203C67
:10CFA000AA78ADF814101D46BA708DF817304FE707
:10CFB00005F0ECFC0E49384605F0E8FC48E744F281
:10CFC000082241F282016AE7BAF1000F01D010494C
:10CFD0009CE7D8F800200F4B38469A4292BF0E4982
:10CFE000920A0E49FEF776F893E700BF084601085B
:10CFF00058440108474601084B460108F446010819
:10D000004F46010853460108684601087746010863
:10D01000584601083F420F005F4601086346010879
:10D0200010B50A44401A914201EB000303D011F8F5
:10D03000014B1C70F7E710BDFCF758B908B5030E9B
:10D04000202B03D1FFF7ECFF012008BD082B02D1F4
:10D05000FCF74CF9F8E7034A40F2CA210248FBF713
:10D0600067F8F1E7EA4201081846010870B51B4B62
:10D07000C8B001A80193FEF777FE0546E0B1FCF7C2
:10D080001BF9002401A904A8FFF7FEFC08BB469B7E
:10D09000042B1BD8DFE803F0031A0D0D1300BDF8B5
:10D0A0001000459A0DF1120100EB0440FFF7C6FF96
:10D0B00060B9FDF713FD0025284648B070BD9DF806
:10D0C00012309DF8134004EB0324A4B2469B012BBD
:10D0D000D8D1FCF7F9F8FDF701FDEDE7483D01086F
:10D0E0002DE9F0439846C9B0224B01A81746019399
:10D0F000FEF73AFE814690B9484649B0BDE8F08354
:10D100001D461C4601A904A8FFF7BEFC60B1FDF74F
:10D11000E5FC509B3C60C8F800401D60ECE74FF018
:10D12000FF3500262C46EDE7469B042B1ED8DFE892
:10D1300003F0031D18181000BDF81030621C03EB3B
:10D140000643DDD09C4228BF1C469D4238BF1D4689
:10D15000D8E79DF812309DF8136006EB0326B6B2AF
:10D16000D0E7FDF7BBFC4FF00009C5E7012BC9D1A3
:10D17000CDE700BF483D01082DE9F04F564BBFB049
:10D180000DF1F80848F8EC3D4046FEF7EDFD82460B
:10D1900000287BD011AB1E93342200231EA94046E9
:10D1A000CDE91F32FEF7A6FDBDF86E30202B05D06D
:10D1B0004A4A4FF452714A48FAF7BAFFBDF8703044
:10D1C000042B05D9474A40F249314548FAF7B0FFE8
:10D1D000002420272646BDF87050A5420BDD1EAB6B
:10D1E00003EB441309A940460993CDE90A670134CA
:10D1F000FEF780FDEFE74FF0000B6D0134351EACFC
:10D20000BDF870305B4563DD6368002B5CD0FCF7D4
:10D2100053F84FF0000909AF6668AE420CDD761B8B
:10D22000202EA8BF202606A940460697CDE90796DE
:10D230003544FEF75FFDEFE705D02B4A40F2613140
:10D240002748FAF775FF0026D4F80C902369B342FB
:10D2500022DD06F120029342ACBF20239B1B0893E2
:10D260000193002306A9404607930697FEF742FD67
:10D27000019B39461A4648461D441E44FCF736F8C1
:10D28000019B38B9FDF72AFC4FF0000A50463FB029
:10D29000BDE8F08F9944D9E720220021384605F0F7
:10D2A000B9F96269B2420DDD06F120039A42ACBFC2
:10D2B0002022921B394648461644FCF717F80028EE
:10D2C000EFD1DFE7FCF700F80BF1010B203497E713
:10D2D000FDF704FCDAE700BF483D010843420108BE
:10D2E0001846010881460108CA4601082DE9F04F99
:10D2F0000D46A1B02E21284605F050FC20B900278C
:10D30000384621B0BDE8F08F304905F03FFB304B87
:10D3100020AE46F8783D29463046FEF725FD002828
:10D32000EDD008AB109300240A230DF140094946C3
:10D330003046CDE91143FEF7DDFCFDF7CFFB9DF84C
:10D3400020308DF82A40302BD9D19DF82130782B10
:10D35000D5D10DF12200FDF73CFC2E218046284658
:10D3600005F01CFC0028CAD01A4905F00FFB29461D
:10D370003046FEF7F9FC07460028C0D0FDF7E2FB77
:10D38000A3468246FBF798FF544519DAAAEB040539
:10D39000402DA8BF402505A93046CDF81490CDE911
:10D3A00006B5FEF7A7FC2A4649464046FBF79EFF16
:10D3B00018B90190FDF792FBA1E72C44A844E3E7DC
:10D3C000FBF782FFFDF78AFB9AE700BFF3460108EF
:10D3D000483D0108F84601082DE9F0410D468EB0A0
:10D3E0002E2128461646984605F0D8FB20B9002481
:10D3F00020460EB0BDE8F081224905F0C7FA224B65
:10D400000EAC44F8383D29462046FEF7ADFC20B965
:10D4100029461E48FDF798FCE9E706AB0393002771
:10D420000A2303A92046CDE90473FEF763FCFDF748
:10D4300055FB9DF818308DF82270302BD7D19DF810
:10D440001930782BD3D10DF11A00FDF7C2FB2E2134
:10D450003060284605F0A2FB0028C8D00C4905F032
:10D4600095FA20462946FEF77FFC04460028CFD0D7
:10D47000FDF768FB0546FDF731FB30682844C8F826
:10D480000000B5E7F3460108483D0108FD460108E4
:10D49000F846010830B50B7897B004461546B3B985
:10D4A000474906A805F072FA294606A805F0FCF8D7
:10D4B0002E21284605F072FB88B91F230093414BAB
:10D4C0002146414A04F1500000F01AFC39E006A858
:10D4D00005F05CFA3D4906A805F0E6F8E4E7451CCE
:10D4E0003B492846FFF78DFB002848D0394928469C
:10D4F000FFF787FB00B338492846FFF782FB00B3EC
:10D5000036492846FFF77DFBD8B135492846FFF755
:10D5100078FB002841D033492846FFF772FB80B1E1
:10D5200028463149FFF76DFB04F150050028C4D1AE
:10D530001F2300932D4B1EE006A92046FEF7CCF9D1
:10D54000A06717B030BD06A92046FFF78FFD18B9B8
:10D550001F230093264BB3E703992648FDF7F4FBFE
:10D560000398FAF7DFFF2046FBF7AEF8E9E740F251
:10D57000FF730093204B144A21462846A4E705ABCD
:10D58000009303AA04AB06A92046FFF7A9FD0028D3
:10D59000D9D11F230093194B92E705AB04AA06A922
:10D5A0002046FFF719FF06A92046FFF79FFE04F16A
:10D5B00050050028DBD11F230093114BDBE700BF90
:10D5C0005844010812470108AA47010810470108FA
:10D5D000474601084B460108264701082A4701082B
:10D5E000F44601082E4701084F4601088B47010801
:10D5F00042470108554701086147010832470108C1
:10D600007C4701082DE9F04F1C469FB02B4B1EAD07
:10D6100045F86C3D28469146289FFEF7A5FB8046BD
:10D62000002846D011AB0993342200230DF1240ABF
:10D6300051462846CDE90A32FEF75CFBBDF86E3054
:10D64000202B05D01E4A40F2EE311E48FAF770FD3D
:10D650000026179B4FF0200BC9F800304FF0FF3326
:10D6600032462360BDF87030B3421DDD06A928465E
:10D67000CDE9072B0192CDF818A0FEF73BFB0A9BE2
:10D68000019A7BB120680C990E9BB0F1FF3F0B44CF
:10D6900002D121603B6005E0884288BF2160396883
:10D6A0009942F7D30136DDE72368C9F80030FDF76A
:10D6B00015FA40461FB0BDE8F08F00BF483D010895
:10D6C00043420108184601080020704770470020B7
:10D6D00070470120704703460022806F9A677047A9
:10D6E000F0B505468BB008460C46FDF705FA064630
:10D6F000B0BBA5F84400237804ACA3B119490DF1DF
:10D70000190005F043F910238DF818300AAB13E91E
:10D7100007008DE80700CDE9046605F1400094E8B4
:10D720000E0000F01BFB05F1400707AE2046FDF799
:10D73000F3F990B99DF819302E2BF7D096E8070031
:10D740008DE80700384694E80E0000F007FBB5F8B6
:10D750004420B5F846309A42E8D301200BB0F0BD22
:10D760000020FBE70846010808B50249403000F0F8
:10D7700019FB08BD77C9000844F645439A4210B525
:10D78000044608D100F12001FFF7AAFF2046BDE8BA
:10D790001040FFF7E9BF10BD2DE9F04F89B00746F3
:10D7A000FAF784FF7A4E30B1D6F80438013304BF5B
:10D7B0000023C6F804380025764B44F2082241F2D3
:10D7C000820102A8CDE9025302F0F6FA724B2A4612
:10D7D000009329464BF296532846FBF73DFBDFF8B2
:10D7E000CC814FF61E034BF296522946CDF80080AD
:10D7F0000446FBF7CAFB0444083408F172030093A3
:10D800004BF296524FF61E0329462046FBF7BDFB0E
:10D81000624B044400932A464BF296532946204615
:10D82000FBF71AFB07F12003044400932A464BF24E
:10D83000965329462046FBF731FB4FF61E034BF269
:10D8400096522946CDF800802044FBF79EFB42F219
:10D8500004124FF48010524B1146CDE9040304A882
:10D8600002F0AAFA4F4B40F2FF72009310214FF6DC
:10D870001E030420FBF7F0FA4FF6E1711020FFF7CA
:10D880002BFAD6F80438D6F800289A1A0D2AC4BF05
:10D89000A3F10D02C6F80028591C06D0D6F80028BE
:10D8A0009A1A002AB8BFC6F800384FF000081E24A4
:10D8B00007F14009D6F80018B7F8443041449942BE
:10D8C00004F10E0515DB0E2325464FF0000B4FF437
:10D8D0009C7A04F1D20903FB189904F10E06B145B4
:10D8E00022B233B23DD16FF00D03C43503FB0855AE
:10D8F00014E0484600F09AFAD6F80038D6F8042822
:10D9000043449A1A53425341014622463846FFF790
:10D910007BFAE22D08F101082C46CBD13846FFF7FF
:10D9200009FA002344F20822ADF818304FF4A0732E
:10D930001146ADF81C3006A805F10E03ADF81E30F7
:10D94000ADF81A5002F038FA174B48F21042009323
:10D9500029464FF61E030420FBF77EFA09B0BDE806
:10D96000F08FADF81A2041F2820144F2082206A895
:10D97000ADF81E30ADF818B0ADF81CA002F01CFADE
:10D9800020464FF6E171FFF7A7F93446A5E700BF3F
:10D99000482B002040011000A4470108104701084F
:10D9A00038012000B2470108D84701082445010882
:10D9B00070B50C4605464030164600F037FA074B66
:10D9C000D3F800183346641A0E21614301F11E0298
:10D9D00001462846BDE87040FFF716BA482B0020E4
:10D9E000F8B505460E46002400F14007B5F844306E
:10D9F0009C4213DA2146384600F018FA00F109017A
:10DA0000304604F0E5FE38B9084B2846C3F8044810
:10DA1000BDE8F840FFF7E2B90134E7E7044A4FF404
:10DA2000FF71BDE8F8400348FAF782BB482B00209D
:10DA3000134901081846010801292DE9FF41044650
:10DA40000D462DD1624EB0F84420D6F8043801338B
:10DA5000934215DAC6F80438FFF7C0F9024690B1D0
:10DA60002046FAF7DFFF96212046FAF7EEFE2A4617
:10DA7000D6F804182046FFF79BFF2046FFF75AF917
:10DA800004B0BDE8F081D6F8041820460139FFF74C
:10DA90008FFF2A46D6F804182046FFF789FFEFE7E4
:10DAA000022920D14A4DD5F80438002BE8DD013B8E
:10DAB000C5F80438FFF792F9024650B12046FAF74C
:10DAC000B1FF96212046FAF7C0FE0122D5F80418CE
:10DAD000D0E7D5F8041820460131FFF769FF01228D
