:020000042000DA
:1070000073B50A240025104E01220A21104600F013
:107010005BF80095009BB3420DD900220A210120A4
:1070200000F052F80195019BB34208D9013CEBD125
:10703000204602B070BD009B01330093EAE7019B3C
:1070400001330193EFE700BF3F420F00024B53F8BB
:10705000200040EA81007047E87000200B4B0729B0
:1070600053F820004FF00F03C8BF01F0070110B51F
:10707000C8BF0430890003FA01F4036802FA01F181
:1070800023EA04031943016010BD00BFE87000202B
:10709000054B53F82000012303FA01F10AB1016105
:1070A00070474161704700BFE8700020054B53F8FE
:1070B0002020012303FA01F19368194214BF012033
:1070C00000207047E870002070B5164604460D4653
:1070D0000222FFF7C3FF321C29462046BDE870405C
:1070E00018BF0122FFF7D4BF00080140000C014087
:1070F000001001400014014000180140001C014034
:04710000002001402A
:040000052000700067
:00000001FF
