:020000042000DA
:107000002DE9F34700F05FF800F092F840F2E73026
:1070100000F06CF84FF00A0800F0A8F84FF0000AF2
:10702000DFF89C90002425462646274621460AE0A4
:10703000B4F57A7F3ADBB4F5FA6F28DA00252E46EC
:10704000A4F57A77294689B24FF0804000F05BFFC3
:10705000B9B24FF0804000F058FFB1B2484600F09E
:1070600052FFA9B2484600F050FF42F20F72CDF82D
:1070700004A0019B93421ED90134B4F57A6FD7D195
:10708000B8F10108CED1404602B0BDE8F08740F625
:10709000B7339C4204DC0025A4F5FA662F46D1E7FD
:1070A0000026A4F6B83537463146CCE70025214600
:1070B0002E462F46C7E7019B01330193D9E700BF56
:1070C00000080040FEE708B50121082000F0A6F9FD
:1070D0000121084600F0AEF90121084600F09EF9B2
:1070E000BDE808400121042000F0A4B91FB54823E1
:1070F00001930023ADF8080001A90C4C4FF080402B
:10710000ADF80A308DF80C3000F064FB01214FF02F
:10711000804000F0D1FC01A9204600F05BFB01217A
:10712000204600F0C9FC04B010BD00BF00080040BC
:107130004FF4406337B50325ADF8043018230A4CEB
:1071400001A920468DF807308DF8065001F069F846
:107150004FF4407301A92046ADF804308DF8065075
:1071600001F05FF803B030BD000C01401FB51B4BB0
:1071700001240093002369464FF08040ADF80830A9
:10718000ADF8064000F0F2FB08214FF0804000F01F
:1071900095FD69464FF0804000F026FC08214FF035
:1071A000804000F093FD21460D4801F0CDF82146C6
:1071B0000C4C0D4801F0C8F86946204600F0D6FB9B
:1071C0002046082100F07AFD6946204600F00CFCBC
:1071D0000821204600F07AFD04B010BD60000100D7
:1071E0000002300000080040000318000D4B1A6830
:1071F00042F001021A6059680B4A0A405A601A6844
:1072000022F0847222F480321A601A6822F48022FA
:107210001A605A6822F4FE025A604FF41F029A6004
:10722000704700BF001002400000FFF80C4BB0F5A3
:10723000803F1A6822F480321A601A6822F4802291
:107240001A6003D0B0F5802F05D070471A6842F459
:1072500080321A6070471A6842F4A022F9E700BF32
:1072600000100240034A136823F0F80343EAC00009
:107270001060704700100240014B1860704700BF5B
:1072800000004242034A536823F47C13194301432C
:107290005160704700100240014B1860704700BFFA
:1072A00060004242034A536823F0030318435060CE
:1072B000704700BF00100240024B586800F00C00FD
:1072C000704700BF00100240034A536823F0F003E8
:1072D00018435060704700BF00100240034A5368D3
:1072E00023F4E06318435060704700BF0010024071
:1072F000034A536823F4605343EAC0005060704768
:1073000000100240044B1A7811B1104318707047F6
:1073100022EA0000FAE700BF09100240014B1860A2
:10732000704700BFD8004242034A536823F44043E9
:1073300018435060704700BF001002400022064B07
:1073400001281A701A7002D0042802D070471870F1
:10735000704705221A70704720100240014B1860D8
:10736000704700BF80044242024A136A1843106209
:10737000704700BF00100240014B1860704700BF0B
:107380003C0442421B4A10B5536803F00C03082B1F
:107390001FD0194B036053681849C3F30313CC5C27
:1073A0000368E34043605468C4F302240C5D23FA8D
:1073B00004F484605468C4F3C2240C5DE340C360E9
:1073C0005268C2F3813211440A7CB3FBF2F30361C9
:1073D00010BD53685168C3F38343CC0303F1020328
:1073E00002D407494B43D5E751688903F9D40249D0
:1073F000F8E700BF0010024000127A00DC83002092
:1074000000093D00044B5A6911B11043586170479F
:1074100022EA0000FAE700BF00100240044B9A691C
:1074200011B110439861704722EA0000FAE700BFEB
:1074300000100240044BDA6911B11043D861704763
:1074400022EA0000FAE700BF00100240044BDA68AD
:1074500011B11043D860704722EA0000FAE700BF7C
:1074600000100240044B1A6911B1104318617047B3
:1074700022EA0000FAE700BF00100240014B18604A
:10748000704700BF40044242014B1860704700BF84
:107490004C004242014B1870704700BF0710024079
:1074A0004209012A074B07D11B6800F01F0023FA8D
:1074B00000F000F001007047022A0CBF1B6A5B6AF3
:1074C000F3E700BF00100240002307B5019331200D
:1074D000FFF7E6FF019B01330193019BB3F5A06F1A
:1074E00001D00028F3D03120FFF7DAFF003018BFB9
:1074F000012003B05DF804FB024A536A43F0807335
:107500005362704700100240034B9B68184214BF3F
:1075100001200020704700BF00100240014B18708E
:10752000704700BF0A10024030B5048C42EA0313D2
:1075300024F001042404240C0484048B058C24F01E
:10754000F3042404240C1C43114BADB29842A4B2A2
:1075500041F0010112D003F5006398420ED0B0F162
:10756000804F0BD0A3F59833984207D003F5806382
:10757000984203D003F58063984205D125F00205B7
:1075800029430483018430BD25F00A05F8E700BFD4
:10759000002C014070B5058C120225F010052D0459
:1075A0002D0C0584058B42EA033325F440752D0527
:1075B0002D0D1D43144B048C0E019842A4B2B6B29B
:1075C000ADB212D003F5006398420ED0B0F1804FF7
:1075D0000BD0A3F59833984207D003F58063984207
:1075E00003D003F58063984207D124F0200446F0CD
:1075F000100634430583048470BD24F0A00441F0D8
:1076000010010C43F6E700BF002C014008B5614BA8
:1076100098420BD101214FF40060FFF717FF0021C2
:107620004FF40060BDE80840FFF710BFB0F1804F95
:1076300009D101210846FFF715FF00210120BDE80F
:107640000840FFF70FBF544B984206D1012102209A
:10765000FFF708FF00210220F1E7504B984206D1C6
:1076600001210420FFF7FEFE00210420E7E74C4B38
:10767000984206D101210820FFF7F4FE00210820DE
:10768000DDE7484B984206D101211020FFF7EAFEC2
:1076900000211020D3E7444B984206D1012120203D
:1076A000FFF7E0FE00212020C9E7404B984208D1B7
:1076B00001214FF40050FFF7C9FE00214FF40050A4
:1076C000B0E73B4B984208D101214FF40020FFF76F
:1076D000BDFE00214FF40020A4E7364B984208D1AC
:1076E00001214FF48010FFF7B1FE00214FF480100C
:1076F00098E7314B984208D101214FF40010FFF771
:10770000A5FE00214FF400108CE72C4B984206D1C7
:1077100001214020FFF7A6FE002140208FE7284BE3
:10772000984206D101218020FFF79CFE0021802095
:1077300085E7244B984208D101214FF48070FFF770
:1077400091FE00214FF4807079E71F4B984208D1D9
:1077500001214FF48030FFF779FE00214FF4803093
:1077600060E71A4B984208D101214FF40030FFF72F
:107770006DFE00214FF4003054E7154B984208D1BC
:1077800001214FF48020FFF761FE00214FF480209B
:1077900048E708BD002C01400004004000080040FC
:1077A000000C004000100040001400400034014074
:1077B000004C0140005001400054014000180040BE
:1077C000001C0040002000400040014000440140F7
:1077D00000480140224A038890429BB212D002F531
:1077E000006290420ED0B0F1804F0BD0A2F59832DB
:1077F000904207D002F58062904203D002F5806289
:10780000904203D14A8823F070031343154A9042F3
:1078100008D002F5806290421FBF23F44073CA88EB
:107820009BB2134303808B8883850B8803850C4BA5
:1078300098420FD003F5006398420BD003F54063E4
:10784000984207D003F58063984203D003F5806324
:10785000984201D10B7A038601238382704700BFCF
:10786000002C014000100040038C70B523F0010390
:107870001B041B0C0384038C8488028B0D8822F06C
:1078800073021204120C2A4323F002030D894E885E
:107890001B0435431B0C2B43134DA4B2A8420FD03D
:1078A00005F50065A8420BD005F54065A84207D054
:1078B00005F58065A84203D005F58065A8420DD185
:1078C0004D8923F008032B438D8823F004032B43B9
:1078D000CE898D8924F4407435432C4384800283FF
:1078E000CA888286038470BD002C0140038C70B569
:1078F00023F010031B041B0C0384038C8488028B6D
:107900000D8822F4E6421204120C42EA052223F00A
:1079100020030D894E881B0435431B0C43EA0513D5
:10792000114DA4B2A84292B29BB203D005F50065F6
:10793000A84213D14D8923F0800343EA05134FF683
:10794000BF751D408B88CE8945EA03138D8924F4C9
:107950004064354344EA85049BB2A4B28480028328
:10796000CA880287038470BD002C0140038C70B567
:1079700023F480731B041B0C0384038C8288848B88
:107980000D8824F073042404240C2C4323F4007386
:107990000D894E881B0435431B0C43EA0523114D0A
:1079A00092B2A8429BB203D005F50065A84213D15C
:1079B0004D8923F4006343EA05234FF6FF351D404C
:1079C0008B88CE8945EA03238D8922F440523543C2
:1079D00042EA05129BB292B28280CA88848382876F
:1079E000038470BD002C0140038C70B523F48053D8
:1079F0001B041B0C0384038C8488828B0D8822F467
:107A0000E6421204120C42EA052223F400530D89C7
:107A10004E881B0435431B0C43EA05330B4DA4B2BF
:107A2000A84292B29BB203D005F50065A84205D1E9
:107A30008D8924F4804444EA8514A4B2848082832E
:107A4000CA88A0F84020038470BD00BF002C01400C
:107A50004A880B8813438A881343CA8813430A89C8
:107A600013434A8913438A891343A0F8443070476B
:107A70004FF6FF73838000230380C380438003722B
:107A800070470023038043808380C3800381438148
:107A90008381C38170470023012203804380828059
:107AA000C380038170470023038043808380C380A9
:107AB0000381438183817047038819B143F0010337
:107AC0000380704723F001031B041B0CF8E7B0F898
:107AD000443021B143F40043A0F844307047C3F36D
:107AE0000E03F9E7838912B119438181704723EAB4
:107AF0000101FAE7818270470A43A0F848207047E5
:107B0000FFF7F0BF038923F007031B041B0C03815D
:107B10007047038923F070031B041B0C1943018178
:107B2000038943F007030381704738B50D46602D84
:107B3000114604464FF001020DD1FFF72BFD2189BC
:107B400021F070010904090C29432181238943F0A4
:107B50000703238138BDFFF7E7FCF0E710B5048980
:107B60000A43E4B242EA03231C43A4B2048110BDD9
:107B700010B5FFF7F3FF038923F077031B041B0CF9
:107B800043F07703038110BD10B5FFF7E7FF0389CA
:107B900043F48043038110BD0185828270470388CE
:107BA00023F070031B041B0C1943018070470389E9
:107BB00023F070031B041B0C19430181704770B53F
:107BC0000589068B25F00705048C2D042D0C24F067
:107BD00022042943240426F4407525F00305240CCF
:107BE00042EA031345F480751C4345F00105A4B235
:107BF00001810583048470BD038B23F070031B0493
:107C00001B0C194301837047038B23F4E0431B04CF
:107C10001B0C43EA012189B201837047838B23F057
:107C200070031B041B0C194381837047838B23F45F
:107C3000E0431B041B0C43EA012189B28183704796
:107C4000038819B143F080030380704723F0800359
:107C50001B041B0CF8E7838819B143F004038380ED
:107C6000704723F004031B041B0CF8E7838819B149
:107C700043F008038380704723F008031B041B0CA8
:107C8000F8E7838819B143F001038380704723F03C
:107C900001031B041B0CF8E7038B23F008031B04F0
:107CA0001B0C194301837047038B23F400631B04EF
:107CB0001B0C43EA012189B201837047838B23F0B7
:107CC00008031B041B0C194381837047838B23F427
:107CD00000631B041B0C43EA012189B281837047B6
:107CE000038B23F004031B041B0C1943018370470F
:107CF000038B23F480631B041B0C43EA012189B22C
:107D000001837047838B23F004031B041B0C19436E
:107D100081837047838B23F480631B041B0C43EA2D
:107D2000012189B281837047038B23F080031B04F8
:107D30001B0C194301837047038BC3F30E0343EA03
:107D4000012189B201837047838B23F080031B04D8
:107D50001B0C194381837047838BC3F30E0343EAE3
:107D6000012189B281837047038C23F002031B0435
:107D70001B0C194301847047038C23F008031B0478
:107D80001B0C194301847047038C23F020031B0450
:107D90001B0C43EA011189B201847047038C23F064
:107DA00080031B041B0C43EA011189B20184704754
:107DB000038C23F400731B041B0C43EA012189B2DA
:107DC00001847047038C23F400631B041B0C43EAFB
:107DD000012189B201847047038C23F400531B04F2
:107DE0001B0C43EA013189B20184704710B50124AC
:107DF000038C8C4023EA04030384038C02FA01F110
:107E0000194389B2018410BD10B50424038C8C4041
:107E100023EA04030384038C02FA01F1194389B2B3
:107E2000018410BD30B50125048C8D4024EA050481
:107E300000F11803048421F0080040B94908C8582B
:107E400020F07000C850C8580243CA5030BD0439F1
:107E5000C1F34E01C858120220F4E040C850C8587F
:107E600092B2F1E7038819B143F00203038070472F
:107E700023F002031B041B0CF8E7038819B143F03D
:107E800004030380704723F004031B041B0CF8E772
:107E9000838819B143F080038380704723F0800307
:107EA0001B041B0CF8E7038823F008031B041B0CBE
:107EB00003800388194301807047838823F070038F
:107EC0001B041B0C838083881943818070470389BE
:107ED00023F007031B041B0C038103891943018151
:107EE0007047038923F080031B041B0C0381038963
:107EF000194301817047818470478185704781866D
:107F000070470187704781877047A0F8401070471D
:107F1000038B23F00C031B041B0C0383038B1943FB
:107F200001837047038B23F440631B041B0C038302
:107F3000038B43EA012189B201837047F8B50C46EF
:107F40004988A2880029B4F800C014BF0026022680
:107F5000012A14BF012702272389BCF1000F0ED18B
:107F6000FFF7E2FAE188FFF7D3FF314623893A466B
:107F7000FFF710FBE188BDE8F840FFF7D3BFFFF73C
:107F800009FBE188FFF7CEFF314623893A46FFF728
:107F9000CBFAE188BDE8F840FFF7BABF838B23F046
:107FA0000C031B041B0C8383838B19438183704751
:107FB000838B23F440631B041B0C8383838B43EA72
:107FC000012189B281837047F8B50E4609880446BD
:107FD0007588B288338939B92946FFF7A5FAF1883F
:107FE000BDE8F840FFF794BF042907D12946FFF701
:107FF000D1FAF188BDE8F840FFF794BF0829008C5A
:10800000F18838D120F480700004000C2084A68B05
:10801000208CB6B226F0F306324342EA0313344A08
:108020002F02944280B2BFB29BB212D002F500621E
:1080300094420ED0B4F1804F0BD0A2F59832944206
:1080400007D002F58062944203D002F58062944228
:108050000BD120F4007545F480753D43A383204681
:108060002584BDE8F840FFF799BF20F42060054360
:1080700045F48075F2E720F480500004000C208461
:10808000A08B1B0320F4407043EA02230005184A2A
:10809000278C000D2E0303439442BFB2B6B29BB2AD
:1080A00012D002F5006294420ED0B4F1804F0BD092
:1080B000A2F59832944207D002F58062944203D030
:1080C00002F5806294420BD127F4005545F48055A7
:1080D0003543A38320462584BDE8F840FFF768BFF9
:1080E00027F400777F047F0C3D4345F48055F0E78B
:1080F000002C0140038823F440731B041B0C0380F5
:108100000388194301807047808E7047008F704745
:10811000808F7047B0F840007047808C7047008DAA
:108120007047038A194214BF012000207047C943D9
:1081300089B201827047038A828911EA030092B2F0
:1081400003D00A4214BF012000207047C94389B2FE
:108150000182704708B5264B984209D101210420BD
:10816000FFF774F900210420BDE80840FFF76EB95D
:10817000204B984206D101210820FFF767F9002122
:108180000820F1E71C4B984206D101211020FFF78F
:108190005DF900211020E7E7184B984206D1012134
:1081A0002020FFF753F900212020DDE7144B9842EF
:1081B00006D101214020FFF749F900214020D3E7F3
:1081C000104B984206D101218020FFF73FF9002192
:1081D0008020C9E70C4B984208D101214FF48070F0
:1081E000FFF734F900214FF48070BDE708BD00BFF0
:1081F00000080140000C0140001001400014014043
:1082000000180140001C014000200140012108B578
:108210000846FFF71BF9BDE8084000210120FFF7E1
:1082200015B9CA782DE9F041D30648BF8B780E887E
:1082300002F00F0548BF1D4316F0FF0F1AD00021B2
:108240004FF0010C4FF00F0E03680CFA01F737EAFC
:1082500006040BD18C000EFA04F823EA080305FA91
:1082600004F4282A43EA040326D14761013108298E
:10827000EBD10360FF2E1DD908244FF0010C4FF005
:108280000F0E41680CFA04F737EA06030ED104F129
:108290008043083B9B000EFA03F821EA080105FA27
:1082A00003F3282A41EA03010AD147610134102C63
:1082B000E8D14160BDE8F081482A08BF0761D5E7F1
:1082C000482A08BF0761F1E74FF6FF7303800223D6
:1082D00083700423C37070478368194214BF012060
:1082E00000207047806880B27047C368194214BF8D
:1082F000012000207047C06880B27047016170475C
:10830000416170470AB10161704741617047C160C6
:10831000704741F48033836181618361836983693C
:108320007047054A136823F07F031B041B0C194395
:1083300041EA00111160704700000140014B1860D4
:10834000704700BF1C0020420028164A30B500F4D8
:108350004015B4BFD3695368B5F5401F84B210D13E
:10836000556823F0706325F07065556019B1420DB2
:108370001201944023430B4A0028B4BFD3615360D9
:1083800030BDC2024DBF0322420D1201C0F30345AE
:108390004CBFAA4004FA02F223EA020343F07063DE
:1083A000E4E700BF0000014010B50F2401F0030313
:1083B00001F0FC0101F1804101F580318A689B00E8
:1083C0009C4022EA04028A608A68984010438860D0
:0C83D00010BD014B18607047DC0020421B
:1083DC00000000000102030401020304060708095F
:0483EC000204060879
:040000052000700067
:00000001FF
