:020000040800F2
:10C0000000B70020B5C40008C9C100080DC300086E
:10C01000D9C10008E9C10008F9C10008000000000A
:10C0200000000000000000000000000071C40008D3
:10C0300071C400080000000071C40008E5C40008D5
:10C0400073C4000873C4000873C4000873C40008F4
:10C0500073C4000873C4000873C4000873C40008E4
:10C0600073C4000873C4000873C4000873C40008D4
:10C0700073C4000873C4000873C4000873C40008C4
:10C0800073C4000873C4000873C4000871C50008B5
:10C0900075C5000871C4000871C4000873C40008A5
:10C0A00073C4000873C4000873C4000873C4000894
:10C0B00073C400085DC5000873C4000873C4000899
:10C0C00073C4000873C4000873C4000873C4000874
:10C0D00073C4000873C4000873C400086FC5000867
:10C0E00073C4000873C4000873C4000873C4000854
:10C0F00073C4000873C4000873C4000873C4000844
:10C1000073C4000873C4000873C4000873C4000833
:10C1100073C4000873C4000873C4000873C4000823
:10C1200073C4000873C4000873C4000873C4000813
:10C1300010B50E4886B002F0C1FA20B10C4802F0EA
:10C140001FFB06B010BD0B4802F01AFB0A4C6846F4
:10C1500002F03AFA28B90DF10901204602F010FB6D
:10C16000F5E7064802F00CFBEBE700BF7D10010885
:10C170006C1001087E100108861001088D1001085E
:10C1800008B5024802F0FCFAFEE700BF1F110108E3
:10C1900006460D46144608B5084802F0F1FA304646
:10C1A00002F0EEFA2946064802F0EAFA204602F0CA
:10C1B000E7FA044802F0E4FAFFF7E2FF321101085F
:10C1C000491101087C10010808B5024802F0D8FAAC
:10C1D000FFF7D6FF5111010808B5024802F0D0FA66
:10C1E000FFF7CEFF5E11010808B5024802F0C8FA59
:10C1F000FFF7C6FF7211010808B5024802F0C0FA45
:10C20000FFF7BEFF85110108024BEFF308801860AD
:10C21000704700BF6C31002010B58CB0044600217F
:10C220001C2205A804F004FD0023114904F11800A4
:10C2300088420CD250F8042B140E082C01BF0CAC11
:10C2400004EB8304013344F81C2C072BF0D10B9B27
:10C25000059903930A9B07480293099B0193089B46
:10C260000093DDE9062302F08BFA0CB010BD00BF8D
:10C2700000B700209A110108684620F007018D469A
:10C2800000B5194C83B0194802F07AFA21681848B1
:10C29000D1E9053202F074FA164B1748D96A9A6A46
:10C2A0009B6B02F06DFA25681448D5E901232968D3
:10C2B000ED68009502F064FAD4E90132D4E9031084
:10C2C00000900F4802F05CFAD4E905210D4802F015
:10C2D00057FA23680C48E2691B69216A02F050FA98
:10C2E0002068FFF799FFFEE76C310020C8110108B4
:10C2F000DC11010800ED00E0F81101081C12010832
:10C30000401201086412010878120108084BEFF38B
:10C310000882DC601A609D605E601F61C3F818804F
:10C32000C3F81490C3F820A0C3F81CB0FFF7A4FF13
:10C330006C3100202DE9F0410020ADF6083D00F001
:10C3400030F900F021F902F0EDF8424802F050FA1D
:10C35000414B4FF6FF72009300231946184600F038
:10C36000A1FA3E4B4FF6FF720093002310211846AE
:10C3700000F098FA3A4B4FF6FF7200930023202109
:10C38000184600F08FFA374A02AB106851681289DC
:10C3900003C300211A800DF11200362204F048FC7C
:10C3A000314C02F0A5F9082835D00025294E2F4F31
:10C3B00002F038FA037813B902A802F019FA02F071
:10C3C00031FA12AA1446431E3E3013F8011F944658
:10C3D00002F8011B197819B1202924D18CF80050DA
:10C3E000A2A800F033FC22A802F08AF8204603F04D
:10C3F00067F88046002000F029FC002002F080F859
:10C40000B8F1000F14D1384602F0BAF902F070F911
:10C410000528FBD1CCE7204602F0B2F902F068F91A
:10C420000528FBD1BDE78342CFD184F83F50D7E741
:10C4300002F0FCF9404600F0B1F802F0F7F920B143
:10C44000214602A804F01CFDB2E7304602F0D0F904
:10C45000AEE700BF7D10010890100108A51001088B
:10C46000C61001082C100108E91001080B11010881
:10C470007047FEE70A4A0B4B9A4203D00A49043A36
:10C480008B4205D30021094B094A934205D37047DB
:10C4900052F8040F43F8040BF2E743F8041BF4E7E7
:10C4A0005C26010800300020683100206C3100203B
:10C4B000CC420020684620F007018D4608B5FFF702
:10C4C000D9FFFFF737FFFEE70022024B18781A70FA
:10C4D000704700BF90310020014B1878704700BFB3
:10C4E0009031002010B51C4C636801336360A36871
:10C4F00013B1A368013BA360E3682BB1E068013886
:10C50000E06008B903F0C0FA03F0F4FA236983424B
:10C5100021D0C20544BF3E232370830544BF3C2382
:10C520002370410544BF2B232370020544BF2D23F4
:10C530002370C30744BF31232370810744BF3223D4
:10C540002370420744BF33232370030748BF3423BB
:10C55000206148BF237010BD9031002008B5002134
:10C560001320F7F773FEBDE80840FFF7BBBF704725
:10C57000F7F746BEF7F746BE024B18601A68002A66
:10C58000FCD170479831002003F0A8BAFFF7F4BF40
:10C59000014B1868704700BF9431002040F0010043
:10C5A000004710B5044618B9BDE8104003F06CBA56
:10C5B000012003F069FA014B1C6010BD9C31002082
:10C5C000002070470E22024B02FB0030704700BF74
:10C5D00094120108002138B50546084603F05EFABA
:10C5E000034C284603F014FA013CFAD138BD00BFD1
:10C5F000007701002DE9F0411D4680460C461646A5
:10C60000C1F1F003C5F1F001BDF8187003F017FA9D
:10C61000A6EB08062C1B744314F1FF3403D33846F1
:10C6200003F0F6F9F8E7BDE8F08107B50091D0E92D
:10C63000022303C8FFF7DEFF03B05DF804FB37B544
:10C640000D460446416800954B1C82680068FFF760
:10C65000D1FFD4E902232068591E0095FFF7CAFFD5
:10C660002068E368421C61680095FFF7C3FFD4E9C6
:10C67000022300956168501EFFF7BCFF03B030BD78
:10C6800010B51446C1F1EF0103F008FA2046BDE8E9
:10C69000104003F0BDB910B50C4641680068C1F107
:10C6A000EF0103F0FBF92046BDE8104003F0B0B9FC
:10C6B00010B5C1F1EF0103F0F1F903F0AEF903F0A9
:10C6C000AEF9044603F0AAF9A0B210BD41EA000396
:10C6D00033F0030301BF40EA81000349401890F89A
:10C6E000000E18BF00207047941201082DE9F04F8A
:10C6F000984605460E4617460C4687B0BDF84030B2
:10C7000001F1030A0293531EA8F1030B059344455C
:10C710002EDAA24508D1029B3A46009351465B4669
:10C720002846FFF767FF5C46A946A8EB0402531EA4
:10C730000393A31B0493B94518DA059BA9EB0502E3
:10C74000A3EB0900039B1946049B9942A8BF194615
:10C750009042A8BF1046FFF7B9FF20B9029A2146C0
:10C760004846FFF78DFF09F10109E4E70134CEE700
:10C7700007B0BDE8F08F07B50091D0E9022303C8E8
:10C78000FFF7B4FF03B05DF804FB4368C16882683B
:10C79000C3F1F003C1F1F001006803F050B903F0F8
:10C7A00037B938B5044600EB4105AC4204D034F843
:10C7B000020B03F02DF9F8E738BD2DE9F04F1746CD
:10C7C0000E228DB098469DF85840354B064602FB28
:10C7D00004344FF61E0398451FD104F1FF3804F1CD
:10C7E0000D0A0C1B4FF0000918F8015F04EB080B51
:10C7F0002A0605D53A46594606EB0900FFF740FFE1
:10C8000009F101096D00B9F1080FEDB2F0D1D04581
:10C81000E8D108200DB0BDE8F08F9F421DD1671E02
:10C8200004F10D090C1B17F8015F4FF0000AED43EE
:10C8300004EB070BEDB22B0605D54246594606EB35
:10C840000A00FFF71DFF0AF1010A6D00BAF1080F97
:10C85000EDB2F0D1B945E6D1DBE7CDE9010108360B
:10C860000E3101A8039604910025FFF78EFF802664
:10C8700046FA05F004F10E030DF1120213F8011D42
:10C88000014214BF39464146A34222F8021FF5D1A6
:10C890000E2105A80135FFF784FF082DE8D1B8E780
:10C8A000941201082DE9F7430A9D06460F4690466B
:10C8B0009946BDB1287890B1013D344615F8013F45
:10C8C00063B10A2B01D11037F7E7009320464B469E
:10C8D00042463946FFF771FF0444EFE7A01B03B05F
:10C8E000BDE8F0832846FAE7FFF7DCBF2DE9F04109
:10C8F00005460E461746984694B01AAA52F8041BED
:10C9000004AC2046039202F00DF9009443463A46E7
:10C9100031462846FFF7C6FF14B0BDE8F08110B4D9
:10C920009DF80440019410BCFFF747BF10B503F019
:10C9300074F803F074F8044603F070F8A0B210BD68
:10C9400038B504460D4603F068F804EB4505AC42E3
:10C9500004D003F064F824F8020BF8E7BDE838408F
:10C9600003F05CB870472DE9F74F064600254FF6F7
:10C970001E0917460C9A9846137802F1010B009392
:10C980004B1E01935C46019BA3EB0B0A009BA4EB9F
:10C990000B02934213DD14F8012BB2B153070AD5F1
:10C9A0004F45F3D03A4604EB0A013046FFF768FEE4
:10C9B000ECE7A346E6E7C845E8D04246F3E7013591
:10C9C000502D06F10106F4D10825284603B0BDE834
:10C9D000F08F2DE9F84F0A9F9A463C4680460D4657
:10C9E000914603F02CF80B9B07EB430655450EDAF6
:10C9F000C346CB4509DA34F8020B03F009F8A64226
:10CA000008BF3C460BF1010BF3E70135EEE7BDE84B
:10CA1000F88F034A4FF482710248FFF7B9BB00BF99
:10CA2000A3230108A420010800F58033DB0200F1F4
:10CA30000820834204D21A68013203D10433F8E794
:10CA4000012070470020704708B5194B1A6912067B
:10CA500022D4174BDA68D207FCD41A6942F00202DA
:10CA60001A6100F58032D2025A611A6942F040021E
:10CA70001A610F4BDA6812F00102FBD119691A61D1
:10CA80001A6942F080021A61FFF7CEFF00280CBF3E
:10CA90006FF00A00012008BD064A5A6002F1883290
:10CAA0005A601B691906D4D54FF0FF30F3E700BF79
:10CAB000002002402301674508B50B4600F5803190
:10CAC0004FF40062C902184604F03CF8012008BD8A
:10CAD00000F58033012030B5C1EBC32301F50064BC
:10CAE0005A5851F8045BAA4202D0013205D1002005
:10CAF000A142F5D180F0010030BD0220FCE71E4AC2
:10CB000000F580331069F0B504064FEAC32324D43E
:10CB10001948C268D207FCD4174E01F500673546A4
:10CB20005B1A32695C1842F00102326131F8022B63
:10CB30002280E86810F00100FBD12A6922F001028E
:10CB40002A61228831F8024C944211D18F42E8D1F7
:10CB50002B6943F080032B61F0BD0848506000F161
:10CB60008830506012691006D2D54FF0FF30F3E7DD
:10CB70006FF00A00F0E700BF002002402301674584
:10CB800038B504460D46FFF7A3FF00280CDD022848
:10CB900002D12046FFF758FF012805D1294620463B
:10CBA000BDE83840FFF7ABBF38BD002380F8003840
:10CBB000C0F804387047014690F8000818B1D1F861
:10CBC0000408FFF7DDBF70472DE9F74F0446914693
:10CBD0004FF0000A4FF0010B01F17845ED0A1E46B7
:10CBE00005F58033A1EBC321C1F5006821F00101F7
:10CBF00043180093002E27DDD4F80438C4F80458F5
:10CC00009D4205D021462846FFF756FF84F800A82C
:10CC10004645ABBF47463746012300233A464946BF
:10CC20000098019303F08EFF019B84F800B8F61B77
:10CC3000002BDFD02146D4F80408FFF7A1FF00281D
:10CC4000D8D003B0BDE8F08F0020FAE7014B1860A0
:10CC5000704700BFA4310020014B1868704700BF27
:10CC6000A431002010B50A4C236823B9094A1A21BF
:10CC70000948FFF78DFA40F608020021206803F00A
:10CC8000D7FF0022236883F80028C3F8042810BDCA
:10CC9000A4310020BB200108C920010838B50B4C85
:10CCA000236823B90A4A23210A48FFF771FA20684A
:10CCB000FFF781FF054640F608020021206803F0D7
:10CCC000B7FF281C18BF012038BD00BFA4310020C9
:10CCD000BB200108C9200108F8B50A4C05462368A5
:10CCE0000E46174623B9084A2B210848FFF750FA89
:10CCF0003B46324629462068FFF766FFB0FA80F0CF
:10CD00004009F8BDA4310020BB200108C92001085A
:10CD100001380A44914204D011F8013B00F8013F68
:10CD2000F8E77047026930B501F109036AB3426957
:10CD300001F11105541E14F8010F202806D0052812
:10CD400008BFE52003F8010BAB42F4D1107A20288C
:10CD50000DD018462E24D51D00F8044B013315F8CC
:10CD6000014F202C03D003F8014B9842F7D1D07A21
:10CD70000872D0690860547E107E40EA04208880E2
:10CD8000D07D927D42EA0022CA8000221A7030BD16
:10CD900003685BB11A784AB1D9888288914205D17B
:10CDA0005B78002B14BF03200020704709207047D8
:10CDB000CA7E8B7E032843EA022301BF487D0A7D99
:10CDC00042EA002243EA0243184670478369023967
:10CDD000023B8B4283BF8378806A01FB0300002003
:10CDE000704748B9054B1A6802B1107009B10022AA
:10CDF0000A701960002070470B207047A83100208E
:10CE0000003018BF01207047003018BF0120704764
:10CE100070B50E4660B95BB15B0255029CB222460A
:10CE20002946304602F098FE0028F8D0002070BD58
:10CE30000420FCE710B50A46044600F13001012346
:10CE40004078FFF7E5FFC0B994F82F2294F82E320E
:10CE500043EA02234AF65522934210D1D4F86630B1
:10CE6000084A23F07F43934206D0D4F8820020F092
:10CE70007F40801A18BF012010BD0320FCE702206C
:10CE8000FAE700BF464154002DE9F84303681A78D9
:10CE9000303A092A1ED900230B607D4E3468002CDD
:10CEA00000F0F1800C6023780BB1607880B1002332
:10CEB00023804FF400730021C4F80A302046FFF7A6
:10CEC000B9FF012840F0CC8094F8F2316BB90D2005
:10CED000BDE8F8835C783A2CDDD10233036000238F
:10CEE0000B60002AD9D00B20F2E7D4F8F671204667
:10CEF0003946FFF79FFF032800F0C7800028E6D1DE
:10CF000094F83C3094F83B0040EA03206389834264
:10CF1000DDD194F8473094F8462094F840C052EAA6
:10CF2000032208BF626D0CF1FF33012BE26184F82C
:10CF300003C0CCD894F83D9084F80290B9F1000F6A
:10CF4000C5D009F1FF3313EA090FC0D194F842307C
:10CF500094F84180450948EA0328B8FBF5F105FB40
:10CF60001185ADB2A4F80880002DB0D194F84450DA
:10CF700094F8433094F83EE053EA052394F83F5088
:10CF800008BF236D5EEA052EA1D002FB0CFC7144A4
:10CF9000614499429BD85B1AB3FBF9F3002B96D0FE
:10CFA00040F6F5754FF6F579AB428CBF02250125A9
:10CFB0004B4588BF032539440233A162032D0EEB94
:10CFC0000701A36121624DD1B8F1000F7FF47FAF5B
:10CFD000E16D9B006162411E0B44B3FBF0F08242A5
:10CFE000FFF475AF00234FF0FF32032DC4E9033285
:10CFF0002CD1637194F8602094F8613004F1300111
:10D0000042EA03223A44626101236078FFF700FF9D
:10D01000E0B994F82F2294F82E3243EA02234AF61C
:10D020005522934212D1226B1A4B9A420ED103F130
:10D03000FF53D4F8142203F5005320339A4201BF62
:10D04000D4F81C32E360D4F8183223610020B3888E
:10D05000257001339BB2B380E380E062207137E733
:10D06000002748E7B8F1000F3FF431AF6144022DCB
:10D0700061624FEA43011BBFC91803F001030B466D
:10D0800003EB5103A7E70C2022E7012020E700BFB4
:10D09000A83100205252614138B50D46144680B97E
:10D0A0007BB1012B04D0084A27210848FFF770F80C
:10D0B00064022146284602F04AFD0028F9D00020EB
:10D0C00038BD0420FCE700BFE9200108F420010876
:10D0D0002DE9F041C56A04468D420F4602D1002079
:10D0E000BDE8F0810379F3B100F1300801232A464D
:10D0F00041464078FFF7D0FF08B10120F0E7D4E9BE
:10D1000007231344AB4220710DD9E678012E0AD9CA
:10D11000E36941461D442A4601236078013EFFF73A
:10D12000BBFFF6B2F2E7002FD9D001233A4604F153
:10D1300030016078FFF76CFE0028DED1E762CFE7B0
:10D140000129F8B505460E4672D983698B426FD91D
:10D150000378022B32D0032B48D0012B09D143890D
:10D1600001EB5107B7FBF3F3016A1944FFF7B0FF76
:10D1700010B14FF0FF3020E069892846B7FBF1F38A
:10D1800001FB13730137B7FBF1F12B4493F83040E7
:10D190002B6A1944FFF79CFF0028EAD16A89B7FB84
:10D1A000F2F302FB13773D4495F83000F30744EAAD
:10D1B00000204CBF0009C0F30B00F8BD43895B0899
:10D1C000B1FBF3F3016A1944FFF782FF0028D0D1C5
:10D1D00072006E89B2FBF6F306FB1326354495F810
:10D1E000313095F8300040EA0320E6E743899B0898
:10D1F000B1FBF3F3016A1944FFF76AFF0028B8D1C5
:10D200006A89B600B6FBF2F302FB136606F130033F
:10D210002B449878DA780004354440EA026095F8A7
:10D2200030205B78104340EA032020F07040C4E7D0
:10D230000120C2E770B504460D46E18081680129EE
:10D2400001D1022070BD03689A698A42F9D9F9B9FF
:10D250001A78032A01D1596AD1B90022E2601A89E9
:10D26000AA42EED95A895B6A5209B5FBF2F213441D
:10D270002361236800205A8903F130015209B5FB6C
:10D28000F2F302FB1355ADB201EB45156561D9E729
:10D290005E8972099E785643B6B2B54222680ED3B3
:10D2A0001046FFF74DFF431C014613D00128C8D993
:10D2B00023689B698342C4D9AD1BADB2EDE7E16041
:10D2C0001046FFF783FD53895B09B5FBF3F3184460
:10D2D0002061CEE70120B5E701292DE9F0410446A0
:10D2E0000D46164640F2898083698B4240F2858064
:10D2F0000378022B45D0032B5AD0012B7BD14389D5
:10D3000001EB5108B8FBF3F3016A1944FFF7E0FEA3
:10D3100058BB618915F00105B8FBF1F301FB1383DC
:10D32000234417BF93F83020F2B202F00F0032010D
:10D330001CBF02F0F002024383F83020012308F101
:10D340000108B8FBF1F12371236A20461944FFF765
:10D35000BFFE50B96389B8FBF3F703FB1787274477
:10D360003DB1C6F3071287F8302001232371BDE8D1
:10D37000F08197F83020C6F3032622F00F023243E3
:10D38000F1E743895B08B1FBF3F3016A1944FFF746
:10D390009FFE0028E9D163896A00B2FBF3F503FB25
:10D3A00015253212254485F8306085F83120DCE7F8
:10D3B00043899B08B1FBF3F3016A1944FFF788FE28
:10D3C0000028D2D16289AD00B5FBF2F302FB135500
:10D3D00005F130012144CB7825441B0603F070434E
:10D3E00043EA0602131285F830204B70130C120E1C
:10D3F0008B70CA70B9E70220B7E70220B7E7F8B52B
:10D4000005460F4679B9C668BEB183699E4228BFFA
:10D4100001263446AB690134A34211D8012E0ED83F
:10D4200000242046F8BDFFF78BFE0128044630D9C2
:10D43000AB698342F5D83E46EBE70126E9E70224D3
:10D4400021462846FFF77CFE48B1411C02D14FF02F
:10D45000FF34E6E701281CD0B442DBD1E0E76FF0EF
:10D46000704221462846FFF737FF80B947B92B693C
:10D47000EC605A1CD5D0013B2B6101236B71D0E7C6
:10D48000224639462846FFF727FF0028EFD001281B
:10D49000DDD00124C5E7F8B504460D46FFF778FC5A
:10D4A0000746002868D1A27916065CD4E3689D423D
:10D4B00003D912F0020F08BF1D460022A368A26024
:10D4C000BDB9E368AB4257D2A379E56043F02003CE
:10D4D000A37151E000202368A5685A89B5FBF2F3D7
:10D4E00002FB1353002BECD0A369834218BFA06149
:10D4F000E7E720688278468956434BB3013B6A1EB2
:10D50000B2FBF6F2B3FBF6F18A4221D3724213402A
:10D510006169A360ED1A0029DCD0AE42206807D211
:10D52000A3799A072DD5FFF76AFF014660BB354600
:10D53000A36820682B44A3604389B5FBF3F203FB87
:10D540001255002DC6D0FFF741FC40B11044C2E790
:10D550002169A1B9FFF753FF0128014605D1A3793D
:10D5600063F07F03A371022706E0013006D1012793
:10D57000A37963F07F03A3713846F8BD216161612F
:10D58000C9E7FFF7DDFD01464B1CF0D00129E6D9C4
:10D5900023689B699942E2D2A36861613344A36026
:10D5A000AD1BBAE70129F8B504460D4622D98369B7
:10D5B0008B421FD90127A369AB4201D80020F8BDD7
:10D5C00029462046FFF7BCFD06460028F6D0012874
:10D5D00010D0411C10D0002229462046FFF77CFEC7
:10D5E0000028ECD123695A1C02D0013323616771F2
:10D5F0003546E0E70220E2E70120E0E770B50446A7
:10D6000040B3FFF7C5FB054698B9A379190623D4A3
:10D610009A0723D5D4E9022191420AD943F0200385
:10D62000E260A371206832B92169FFF7BBFF256171
:10D6300040B9284670BD6169FFF782FD431C06466C
:10D640000ED10120A379054663F07F03A371F0E7B3
:10D650000220F7E70925ECE70225EAE70725E8E7D6
:10D660000128F5D0206883699E42E2D26FF07042B3
:10D670006169FFF731FE0028E4D131462068FFF7E9
:10D6800091FFD5E72DE9F041C58804460135ADB2DB
:10D690000F4615B90420BDE8F0810269002AF9D0CF
:10D6A000006843895909B5FBF1F301FB13539BB2A1
:10D6B00033B9E1680132226191B90389AB42E9D9FA
:10D6C0002368E5805A8903F130015209B5FBF2F372
:10D6D00002FB1355ADB201EB451565610020DAE799
:10D6E000438982785B09B5FBF3F3013A1342E7D132
:10D6F000FFF726FD0128064601D80220CBE7421C91
:10D7000001D10120C7E720688369B3423AD8002FCE
:10D71000C0D0E168FFF773FE0646002839D0012823
:10D72000EBD0431CEDD000212068FFF7D1FC00288E
:10D73000E7D1236803F130025B8913F1FF3302D391
:10D7400002F8010BF9E7226831461046FFF73EFB6D
:10D7500000274FF00108D0622368F9B29A788A4214
:10D760000DD983F8048000212068FFF7B1FC013750
:10D770000028C6D12268D36A0133D362ECE7DA6AA3
:10D78000521ADA62E66031462068FFF71FFB20611B
:10D7900096E707207FE72DE9F8430B7804462F2B07
:10D7A0000D4601D05C2B00D101350026A6602B78F8
:10D7B0001F2B2ED920262B78AE462F2B05F10105E5
:10D7C000F9D05C2BF7D0A7693B4607F10B029342D7
:10D7D00026D14FF000084FF0080C454643460EF1A5
:10D7E000FF3919F8012F0135202A23D92F2A21D0FA
:10D7F0005C2A1FD02E2A75D0C44508D9100606D43D
:10D80000434810F8011F002975D08A42F9D106203B
:10D8100004E031462046FFF70DFD6661BDE8F88360
:10D8200003F8016BD3E743F0020307F8082008F17F
:10D830000108D6E7212A754434BF04220022B8F13A
:10D84000000FE4D039782046E52904BF052139705E
:10D85000BCF1080F04BF9B00DBB203F003010129F8
:10D8600003F00C0308BF42F01002042B08BF42F083
:10D870000802FA720021FFF7DDFCD8B9216920689F
:10D88000FFF726FCB0B96269137893B1D37A190710
:10D890000AD4A36903F10B0C63450BD012F8017B8A
:10D8A00013F8011B8F42F7D000212046FFF7EAFE54
:10D8B000E3E70420A369DB7A30B10428AED113F08A
:10D8C000040F08BF0520A9E75A07A7D46169CB7ADE
:10D8D000DB0605D523681878FFF76AFAA0606AE7C7
:10D8E00005209BE7BCF1080F91D19B00E046DBB21D
:10D8F0004FF00B0C75E7A2F14101192993D9A2F160
:10D90000610119299EBF203A43F00103D2B28CE78E
:10D910000A21010830B587B00191044628B30146B9
:10D9200001A8FFF7B1FA68B903ABA36101992046DA
:10D930002568FFF730FFD0B9616951B1CB7ADB06BA
:10D9400003D40520002323600DE02878FFF730FA88
:10D95000A060EB880021A3802046FFF76BFC042821
:10D96000EFD00028EED107B030BD0920FBE7042836
:10D97000E7D0E7E730B58DB001900D4601A805A9C5
:10D98000FFF782FA044668B902AB019905A80B9328
:10D99000FFF701FF044628B90A9B33B1294605A8C1
:10D9A000FFF7C0F920460DB030BD0624FAE738B5C0
:10D9B00000210546FFF73EFC0446B0B929692868F6
:10D9C000FFF786FB044680B96B691B78E52B0ED008
:10D9D0006BB101212846FFF755FEEDE70B22A9693F
:10D9E000FFF796F901222B681A71204638BD296984
:10D9F0002868FFF76DFB04460028F6D168692246C7
:10DA0000034600F120019942E8D003F8012BFAE720
:10DA10002DE9F74F9A460023CAF8003004460191D9
:10DA20001646FFF7B5F9002834D1A379190624D496
:10DA3000DA0740F19780D4E90250451BB54228BF70
:10DA40003546DDF80480002D00F08E802068A16846
:10DA50004289B1FBF2F602FB1612002A64D18378E8
:10DA6000013B334013F0FF0B18D141B92069012865
:10DA700009D8A37963F07F03A37102200AE06169EA
:10DA8000FFF75EFBF3E7431C07D10120A37963F0A6
:10DA90007F03A37103B0BDE8F08F6061D4F80090FC
:10DAA00061694846FFF792F90028E2D0B9F80A60A8
:10DAB00000EB0B07B5FBF6F6002E34D099F80220E8
:10DAC0000BEB0601914288BFA2EB0B06F3B23A467C
:10DAD000414699F80100FFF79BF90028D5D121684C
:10DAE0000B794BB1C86AC01B864205D94A893031CF
:10DAF00002FB0080FFF70CF92368019903F1300263
:10DB0000914204BF4FF0FF32DA6223685B895E43C3
:10DB1000A368B0443344A360DAF80030AD1B33444B
:10DB2000CAF800308FE7A7612068A2684689A1691A
:10DB3000B2FBF6F306FB1323F61AAE4228BF2E46BD
:10DB4000FFF7C6FA0028A0D12168A0684A89B0FB77
:10DB5000F2F302FB13033033324619444046FFF719
:10DB6000D7F8D5E7072095E7284693E710B5044690
:10DB700004202169C1B12068FFF7AAFA88B9626957
:10DB80001378A3B1E52B06D02E2B04D0D37A1B0734
:10DB900001D4002010BD00212046FFF773FD0028AE
:10DBA000E7D000232361F5E70028F2D0F9E704204D
:10DBB000F7E77FB504460D46FFF7EAF8064620B9B9
:10DBC0002DB901462046FFF735FB04B070BD01AB0F
:10DBD000A3612046FFF7CAFF04280DD1266129461C
:10DBE0002046FFF79FF800212046FFF74BFD042851
:10DBF00004BF00202061E8E70028F0D0E5E710B579
:10DC0000C1880446FFF716FB50B921692068FFF769
:10DC10005FFA28B9E52263691A70012223681A7134
:10DC200010BD2DE9F34702AB43F8040D88461846B2
:10DC300011461446FFF728F9054638B92468A76944
:10DC40002369BA1E934205D8C8F80030284602B0AE
:10DC5000BDE8F08794F80090B9F1010F19D10227BF
:10DC6000064639462046FFF76BFA431C39D0012897
:10DC700039D000B90136A3690137BB42F1D8B9F1F7
:10DC8000030F08BF0123266108BF6371C8F8006055
:10DC9000DCE7034602460646216A4AB9204601F1FE
:10DCA000010AFFF715FA00BB5146628904F13003FF
:10DCB0005878B9F1020F4FEA002093F800C008D15C
:10DCC00050EA0C0008BF01360233023A013FE4D1AA
:10DCD000D5E71868043A30F0704008BF01360433C5
:10DCE000F4E70125CBE70225C9E70546C7E72DE99B
:10DCF000F0478CB0019117460646002800F081805D
:10DD0000002305A9036001A8FFF7BEF80546002817
:10DD100073D102AB019905A80B93FFF73CFD0A9C58
:10DD200010B9002C08BF062017F01C0F07F01F08C1
:10DD300042D0C8B3042802D105A8FFF738FE48F046
:10DD4000080878BB0A9C18F0080F3ED0A023A373E4
:10DD50006C23E3732123002723742823DDF8149018
:10DD60006374E77227776777A777E77799F80000FA
:10DD70002146FFF71DF80123A776E776277567751B
:10DD800089F80430074600B301464846D9F82CA06C
:10DD9000FFF708FC30B90598013FC7605146FFF70F
:10DDA00097F990B1054628E0E37A13F0110F2CD1D2
:10DDB0007807C8D5082520E00028F3D1E37AD906F2
:10DDC00021D4BA0701D5DB071FD4059F18F0080F2F
:10DDD000FB6A18BF48F02008C6E9073486F80680B9
:10DDE00038782146FEF7E4FF3061E3693760F3607D
:10DDF0000023B360B361FB88B38028460CB0BDE854
:10DE0000F0870925F9E70425F7E70725F5E72DE968
:10DE1000F84F9B460023CBF800300446894617464E
:10DE2000FEF7B6FF002839D1A379190628D49A073E
:10DE300040F1B880E368DF4280F0A980A268002F3B
:10DE400000F0A58020684389B2FBF3F103FB1123A6
:10DE5000002B7AD18578013D0D4015F0FF0520D1CA
:10DE600082B9216931B9FFF7CAFA01462061002958
:10DE700000F08D8001290AD1A37963F07F03A3719B
:10DE800002200BE06169FFF7BAFA0146EFE74B1C8D
:10DE900006D10120A37963F07F03A371BDE8F88F59
:10DEA00061612068A369C26A9A4204D10021FFF728
:10DEB0000FF90028EDD1D4F800A061695046FEF7B3
:10DEC00085FF0028D8D0BAF80A6000EB0508B7FB38
:10DED000F6F65EB39AF80230AA199A4288BF5E1B22
:10DEE000F3B2424649469AF80100FFF7D5F80546D5
:10DEF0000028CED12068C16AA1EB08018E4207D963
:10DF00004289303002FB0191FEF702FF23681D7148
:10DF100023685B895E43A368B1443344A360DBF8A4
:10DF20000030BF1B3344CBF8003087E7D4E902232D
:10DF30009A4208D331465046FFF7CAF80028A8D1C4
:10DF40002368C3F82C80C4F818802068A26846892A
:10DF5000A169B2FBF6F306FB1323F61ABE4228BFF3
:10DF60003E46FFF7B5F8002893D12068A1684289A2
:10DF7000B1FBF2F302FB1313303332461844494627
:10DF8000FEF7C6FE4FF0010223681A71C3E7D4E919
:10DF90000232934288BFE360A379002043F020035C
:10DFA000A3717BE7072079E710B500210446FFF74E
:10DFB0008FF8034600283FD12378032B38D16379AB
:10DFC000B3B304F130010B46E06204F50C729342E6
:10DFD00002D003F8010BFAE74AF65523A4F82E32D3
:10DFE000164B6078236303F1FF5303F5005320338E
:10DFF000C4F8143223691A1284F8183284F81922EA
:10E000001A0C1B0E84F81B32E36884F81A221A12C9
:10E0100084F81C3284F81D221A0C1B0E84F81E2270
:10E0200084F81F3262690123FFF736F80023637119
:10E030006378003318BF0123184610BD5252614166
:10E0400010B50446FFF7B0FF2046BDE8104001219F
:10E05000FFF73EB870B594B0019006A901A8FEF78D
:10E0600013FF0446E8B903AB019906A80C93FFF728
:10E0700092FB0446A8B90B9EB6B1F37A13F0010FD8
:10E0800018BF0724069B31461878FEF791FE054617
:10E090003CB9F37ADB0609D406A8FFF7B0FD0446C5
:10E0A000D8B1204614B070BD0624EBE7012822D970
:10E0B0001C2206A90DA8FEF72BFE02210DA80F9524
:10E0C000FFF7B8F804460028EBD10DA8FFF74EFD86
:10E0D000044690B10428E4D1DEE725B90698FFF79D
:10E0E00063FF0446DDE729460698FFF75BFA04461E
:10E0F0000028D6D1F2E70224D3E70724D1E730B5D0
:10E100008DB001900D4601A805A91446FEF7BCFE8E
:10E11000A0B902AB019905A80B93FFF73CFB68B9C6
:10E120000A9A6AB1D37A05985D402C4004F027041E
:10E130005C400123D4720371FFF736FF0DB030BD90
:10E140000620FBE710B58CB001900C4601A805A98C
:10E15000FEF79AFEB8B902AB019905A80B93FFF739
:10E160001AFB80B90A9B83B1E28805989A75E28808
:10E170001212DA75A2881A76A28812125A76012330
:10E180000371FFF711FF0CB010BD0620FBE730B59F
:10E190009BB001900C4601A80CA9FEF775FE002863
:10E1A00069D10C9B019913930CA803AB1293FFF751
:10E1B000F2FA00285FD1119900295ED015220B31A7
:10E1C00006A8FEF7A5FD0CA913A81C22FEF7A0FDCA
:10E1D000214613A8FFF7DFFA002850D004284AD1BF
:10E1E00013A8FFF7E4FB002845D1189D13220DF179
:10E1F0001A0105F10D00FEF78BFD9DF818300C9CFF
:10E2000043F02003EB72012323710E9A159B9A426F
:10E210002AD0EB7ADB0627D529462078FEF7C8FD01
:10E2200001462046FEF7D2FD014650B32046FEF7D8
:10E230004FFF00BB0C9A92F851302E2B14D111785D
:10E24000159B032903D1516A994208BF0023191273
:10E2500082F86A301B0C82F864301B1282F8653039
:10E26000012382F86B1013710CA8FFF7C8FC10B9DA
:10E270000C98FFF799FE1BB030BD0420FBE7082087
:10E28000F9E70220F7E710B50446FEF781FD002804
:10E2900033D1A3799B0630D5E1692068FEF718FFDA
:10E2A000014650BB236ADA7A42F02002DA72E26851
:10E2B0001A77E26812125A77E2899A77E27BDA7764
:10E2C000226999749A761012120C1A7512125A75E4
:10E2D000A0229A756C22DA7521221A7628225A76A3
:10E2E0000122D876D974A37923F02003A37123687F
:10E2F0001A712068BDE8104056E610BD10B50446FE
:10E30000FFF7C1FF00B9206010BD2DE9F04F8FB0BD
:10E31000039007A903A8FEF7B7FD044606460028A8
:10E3200040F09E8004AB039907A80D93FFF733FAE2
:10E330000446002800F09C80042840F0918031467B
:10E340000798FFF75CF80546002800F08480012854
:10E3500000F08A80431C00F0898031460798FEF760
:10E36000B7FE0446002877D1079F29463846FEF7B6
:10E370002DFD07F13008034641467A8912F1FF323C
:10E3800008D24246202107F13B00824205D002F824
:10E39000011BFAE701F8014BF0E7102287F83B2058
:10E3A000A02287F846206C2287F8472021222E24BD
:10E3B00087F8482028222E0C5FFA86FB5FFA85F941
:10E3C000C5F3072A360A87F849204146202207F17B
:10E3D000500087F8304087F84A9087F84BA087F8BC
:10E3E00044B087F845600193FEF792FC079987F8DF
:10E3F00051400878099A0328019B03D1486A90424A
:10E4000008BF002287F86A201012120C87F86420D7
:10E41000121287F86520002287F86B008F7802922D
:10E4200047B307985A1CC3624FF0010300210371E0
:10E430000192FEF74DFE044670B94146079B029AD1
:10E440005B8913F1FF3302D301F8012BF9E7013F98
:10E45000FFB2019BE3E7072429460798FFF7A2F8DC
:10E4600020460FB0BDE8F08F0224F5E70124F3E762
:10E470000824F5E707A8FFF79AFA04460028EBD12D
:10E4800010220C9B0798DA72A0229A756C22DA751A
:10E4900021221A76282283F81A905A7683F81BA034
:10E4A00083F814B05E7501230371FFF77DFD044608
:10E4B000D6E770B959B1012903D14FF480531360E5
:10E4C00070478B1E012B04D84FF40073F7E7084602
:10E4D0007047042070470148704700BFA06C212896
:10E4E0000022024B98799A71704700BFA831002032
:10E4F00005289ABF014B185C02207047E3200108F1
:10E50000014B9860704700BFA8310020034B98680A
:10E51000034B002808BF1846704700BFA8310020F1
:10E5200024320020044B00211A6802B11170034A02
:10E53000002011701A607047A8310020F4310020CB
:10E5400007B5014601AB4FF400720948FFF75FFCC5
:10E55000019BB3F5007F06D1052806D8054B185C52
:10E5600003B05DF804FB0520FAE70220F8E700BFDE
:10E57000B4310020E320010808B5431C01460AD04D
:10E580000848FEF788FF18B1052808D9022008BD01
:10E590000448FFF733F80348FFF7B0FEF4E7024BF7
:10E5A000185CF4E7B4310020E320010808B5044802
:10E5B000FFF7A4FE052896BF024B0220185C08BD99
:10E5C000B4310020E320010810B504460146074895
:10E5D000FFF7EFFA637A23B1052804D8044B185CDF
:10E5E00010BD0320FCE70220FAE700BFD83100206D
:10E5F000E3200108014B9869704700BFA831002053
:10E6000008B501460448FEF746FF052896BF034BB0
:10E610000220185C08BD00BFB4310020E3200108CF
:10E620000148FFF70DBD00BFF431002038B50C469E
:10E6300000210C4B05469A7999710AB1FFF7F0FF5A
:10E64000022C08D10A2229460748FFF750FB05286B
:10E6500005D9022038BD012CFBD12246F3E7034B3C
:10E66000185CF7E7A8310020B4310020E32001084E
:10E6700013B500210D4B04469A7999710AB1FFF741
:10E68000CFFF214601AB4FF400720948FFF7C0F9F4
:10E69000044618B9074B185D02B010BD0146064884
:10E6A00000F06EF8052CF5D90220F5E7A83100201E
:10E6B000B4310020E32001081A2101080021094B90
:10E6C00010B59A79044699710AB1FFF7A9FF21465E
:10E6D0000548FFF71FF9052896BF044B0220185C78
:10E6E00010BD00BFA8310020D8310020E320010870
:10E6F00010B5164CFDF7F0FE237813B940F22D1338
:10E70000A3602070FDF744FFD4E90132C31A93429D
:10E7100001DC002010BD2378002BFAD040F22D112F
:10E720008A42606009D14FF49672A2602B3BDBB243
:10E73000132BEED8064AD05CECE7B2F5967F01D1F8
:10E740006422F2E70A2AF1DD0A3AEEE724420020C9
:10E750002E21010808B5FDF7BFFE003018BF0120CB
:10E7600008BD00BF002310B5044C237040F22D13E8
:10E77000A360FDF70DFF606010BD00BF24420020C4
:10E780000FB470B5A4B0289904A80B780026242BE8
:10E7900001BF0022154B0131C3E9002229AA0392CF
:10E7A00000F0C0F9114C0DF10F0515F8013FC3B190
:10E7B0000A2B616803D02068B0F5C47F06DD0E31F6
:10E7C000E029C8BF314626606160EEE700934FF64E
:10E7D000FF724FF43043FDF7F0FF236818442060C8
:10E7E000E3E724B0BDE8704004B070473042002039
:10E7F00010B5044602F0A2FB3E2804D9064A0E21B9
:10E800000648FDF7C5FC064B2146184602F038FBCA
:10E81000012280F8402010BD422101087121010829
:10E82000384200200048704738420020034B93F8DC
:10E83000400010B1002283F8402070473842002089
:10E8400008B50A490A4B08681A6890420CD0184665
:10E850004FF4987202F076F9BDE8084000F10041EB
:10E860004FF0005001F074BA08BD00BF00C00008AE
:10E870000030002010B50446FFF7E2FF014B53F8CB
:10E88000240010BD0030002038B504460D46FFF7C7
:10E89000D7FF024B43F8245038BD00BF00300020A2
:10E8A00062B6704772B60020704700BF20B103689F
:10E8B00019700368013303607047002A2DE9F041A5
:10E8C00006460C461FDD0D1B11F8010B0028FAD17E
:10E8D000AA42CCBF521B024613F0020F0CBF2027E6
:10E8E0003027DB0717D41546002D0EDC22EAE27331
:10E8F000D21A1D1B05EB040814F8011B69B1304640
:10E90000FFF7D4FFF6E72027EBE739463046FFF75D
:10E91000CDFF013DE8E70023EBE71446002C05DDC1
:10E9200039463046FFF7C2FF013CF7E7002AACBF8B
:10E9300008EB020008F10000BDE8F0812DE9F0438A
:10E940000C4685B0804600212046154602F0ACF802
:10E9500000B32D2304F100448DF804300DF10507B8
:10E96000204602F0C9F801230A2101FB03F282428A
:10E9700012DD0A21002B07F101060FDD90FBF3F2F7
:10E9800002F1300706F8017C03FB1200374693FBC7
:10E99000F1F3EFE701AFE3E71346E6E72E23002D9F
:10E9A0003B7008BF03253746DFF84490BB1B9D42F0
:10E9B00012DD204602F0A0F801F084FE0146204658
:10E9C00001F0CAFD494601F0D1FE044602F094F878
:10E9D000303007F8010BE9E7002225EAE5757255AA
:10E9E000202301A94046FFF768FF05B0BDE8F0838A
:10E9F00000002041F0B585B09446DDE90A270646BF
:10EA00001C4641B9302304A921F80C3D3B46FFF7D1
:10EA100054FF05B0F0BD33B1BCF10A0F16D1002987
:10EA200014DA01244942002304AD05F8013D0C9B92
:10EA30003A3B69B1B1FBFCF00CFB10110929C8BFCE
:10EA4000C918303105F8011D0146F2E70024EAE754
:10EA50003CB16AB1BB070BD52D213046FFF726FF2D
:10EA6000013A3B4629463046FFF727FF2044D0E7CE
:10EA70002D23013D2B700024F3E72DE9F043884658
:10EA800085B0064600214046174602F00DF878B3DF
:10EA9000002321491A463046FFF70FFF054608F1CB
:10EAA0000048404602F028F80024612301468146D0
:10EAB000CDE901430A22234600943046FFF79AFF2E
:10EAC00023462246154905443046FFF7F6FE054425
:10EAD000484601F0F7FD0146404601F03DFDDFF8F4
:10EAE0004080BC4206DA414601F040FE0134F8E7BE
:10EAF0000546D6E702F000F8022361220146CDE97F
:10EB00000132009700230A223046FFF773FF2844A2
:10EB100005B0BDE8F08300BF87210108B7230108D5
:10EB2000000020412DE9F0430E46144600254FF029
:10EB30000A0889B0DFF8349105903378002B00F093
:10EB40008E80252B40F085807278002A00F0878027
:10EB5000252A06F101037BD02D2A0ABF01270027B1
:10EB6000B31C1E4613F8012B302A02D147F00207CE
:10EB7000F7E72E2A08BF1E464FF0000208BF47F0F5
:10EB80000407314611F8013BA3F130005FFA80FC25
:10EB9000BCF1090F03D808FB02020E46F1E7732B04
:10EBA00009D121683B46002908BF4946043405A81D
:10EBB000FFF783FE1DE0642B07D161232146CDE9D9
:10EBC0000173012300920A2222E0662B17D1073439
:10EBD00024F00703D3E90001049203F1080401F0D3
:10EBE00067FC17F0040F0146049A05A804D0FFF74C
:10EBF00044FF05440136A0E7FFF7A0FEF9E7782BB4
:10EC00000CD121466123CDE901730092002310222B
:10EC1000096805A80434FFF7EDFEEAE7582B02D196
:10EC200021464123EFE7752B06D161232146CDE92B
:10EC3000017300920023C6E7632BDBD1236807A989
:10EC40008DF81C30002304348DF81D303B46AEE7B0
:10EC50001E46317805A8FFF729FE0135CAE70022D4
:10EC60002846059B1A7009B0BDE8F0838921010888
:10EC70000EB403B503AA52F8041B0192FFF752FF2A
:10EC800002B05DF804EB03B0704700BF41F20553DA
:10EC9000252110F8012B12B101FB0323F9E748F2FB
:10ECA0000D529BB2934200F02F8200F2BE8044F2DC
:10ECB000E442934200F0028258D842F22302934287
:10ECC00000F0828124D840F2CC72934200F0888117
:10ECD0000ED840F20952934200F00E8240F20672C2
:10ECE000934200F0E381B3F5866F32D1C648704796
:10ECF00040F66332934200F0E98140F6C542934208
:10ED000000F0E88140F6AD02934222D1BF4870473F
:10ED100043F66702934200F0FF810FD842F20622C9
:10ED2000934200F0E78143F2EF42934200F0CA8140
:10ED300042F2570293420CD1B548704743F6F9426C
:10ED4000934200F0458106D843F6BF42934200F05B
:10ED500049810020704743F65E62934200F0C28111
:10ED600044F2D6429342F4D1AA48704746F68F1235
:10ED7000934200F0C3812BD844F66672934200F0B0
:10ED80009B810FD844F24072934200F0898144F68F
:10ED90002C52934200F0348144F2DE629342D8D187
:10EDA0009D48704745F69412934200F09D8105D826
:10EDB00045F257729342CCD19848704745F6FD22F0
:10EDC000934200F01181B3F5C64FC2D19448704709
:10EDD00047F6BA62934200F0F9800FD847F28F529B
:10EDE000934200F0658147F20462934200F08A8109
:10EDF00046F63A729342ACD18A48704748F2A40270
:10EE0000934200F08B8105D848F263029342A0D16F
:10EE10008548704748F2DB02934200F0698148F26E
:10EE2000ED32934295D1814870474CF2566293423D
:10EE300000F0E08065D849F6D332934200F0D680E6
:10EE40002FD849F20102934200F0C68010D848F64C
:10EE5000D442934200F0C28048F67472934200F0AC
:10EE6000378148F2AC5293427FF473AF70487047D9
:10EE700049F26F42934200F0C58006D849F2481229
:10EE800093427FF466AF6B48704749F293529342C6
:10EE900000F0B28049F6551293427FF45AAF6648AB
:10EEA00070474AF66412934200F00E8110D84AF27D
:10EEB0000512934200F024814AF2B562934200F0B9
:10EEC000F98049F64B5293427FF443AF5B48704759
:10EED0004BF6C202934200F0098106D84BF2A132F0
:10EEE00093427FF436AF564870474BF60F22934259
:10EEF00000F00E814CF2553293427FF42AAF514814
:10EF000070474FF2A802934200F0DA802DD84DF6F8
:10EF1000AA2293425ED010D84CF20172934200F0C4
:10EF2000F9804DF6F402934200F0D6804CF2C062B4
:10EF300093427FF40EAF444870474DF623729342DC
:10EF400000F0B28006D84DF6AF6293427FF401AF75
:10EF50003E4870474EF2EB22934249D04EF24C327B
:10EF600093427FF4F6AE3A4870474FF6FD22934243
:10EF700044D010D84FF24322934200F0AF804FF2BA
:10EF8000C242934200F0C2804FF2B50293427FF436
:10EF9000E0AE304870474FF6AF52934200F08280A7
:10EFA00006D84FF6A44293427FF4D3AE2A48704766
:10EFB0004FF62F72934200F093804FF6E472934223
:10EFC0007FF4C7AE254870472548704725487047ED
:10EFD00025487047254870472548704725487047A1
:10EFE0002548704725487047254870472548704791
:10EFF0002548704725487047254870472548704781
:10F0000025487047254870478BC700080DE5000864
:10F0100025EB00081D04010871EC00088DC50008EF
:10F020003B0001081D010108EDC80008110101089D
:10F03000B1C600082DE6000825E80008E9C8000868
:10F0400001E60008C1C5000841E50008C9E500085F
:10F05000F5C50008ADE500088D03010881E700084B
:10F0600095FD000839FF00082DE80008F1E70008C9
:10F07000A1E80008A5E8000875E8000889E800088C
:10F08000A7000108BD010108690101088900010804
:10F09000F5FF000829000108ED0001086F000108D4
:10F0A0001F4870471F4870471F4870471F487047E8
:10F0B0001F4870471F4870471F4870471F487047D8
:10F0C0001F4870471F4870471F4870471F487047C8
:10F0D0001F4870471F4870471F4870471F487047B8
:10F0E0001F4870471F4870471F4870471F487047A8
:10F0F0001F4870471F4870471F4870471F48704798
:10F100001F4870471F4870471F4870471F48704787
:10F110001F4870471F4870471F4870471F48704777
:10F120005D0301088502010841030108A1030108EC
:10F13000F5E5000801E5000825E5000871E600088E
:10F1400079E50008BDE6000855E70008F1E600088B
:10F1500041C900082DC90008A3C700089FC70008BF
:10F160002BC6000867C90008D5C50008A5C8000857
:10F170001FC9000813CA0008D3C9000897C60008B1
:10F1800081C6000865C900083FC6000877C70008A7
:10F19000EDC60008A3C500089DC5000891C500087C
:10F1A0002DE9FF411A4D1B4C471E17F8016F66B33E
:10F1B0002B785BB14BF20823002000934FF4C87208
:10F1C000F023E02128702060FDF714FA0A2E02D106
:10F1D00001232B70E9E74FF0000804ABADF80C8079
:10F1E00003F8046D00934FF6FF724BF20823E12100
:10F1F0002068FDF779FB23681844B0F5C87F01DA71
:10F200002060D2E7C4F80080E2E704B0BDE8F081F6
:10F21000343100207C420020FFF7C2BFF7B50D4615
:10F2200000240969074600F0C7FBEE686B69A3423A
:10F230000EDD0DF10701384600F0B0FBA25D9DF830
:10F2400007309A4202D0002003B0F0BD0134EDE750
:10F250000120F9E70023CA684969994203DD985CF7
:10F2600018B90133F9E70120704700207047F7B55E
:10F270000C4600250969064600F09EFBE7686369B5
:10F28000AB4209DD0DF10701304600F087FB9DF828
:10F290000730EB550135F2E721463046FFF7BEFF58
:10F2A00048B9E26861690548FFF76AFA044A6421CF
:10F2B0000448FCF76DFF03B0F0BD00BF63220108F6
:10F2C000A3230108862201080023184610B5CA6846
:10F2D0004C699C4202DD98540133F9E710BD2DE9D9
:10F2E000F04F0C46C7B0D1F81490D1F80C800969E2
:10F2F0000746002600F060FBFDF7B4FCDFF880A0B5
:10F30000DFF878B04E4520DAA9EB0605B5F5807F29
:10F31000A8BF4FF4807500213B6804919A6806AB42
:10F320000393019303A9059538469047019B2A460C
:10F3300019464046FDF7D0FC20B952468021584678
:10F34000FCF726FF2E44A844DCE7FDF7A7FC214686
:10F350003846FFF763FF48B9E26861690548FFF77F
:10F360000FFA054A8A210548FCF712FF47B0BDE8AD
:10F37000F08F00BF63220108A32301088622010841
:10F38000A12201082DE9F04391B04F69CE684022D7
:10F390000021684601F04CFC0025FDF763FCDFF816
:10F3A0003880DFF83890BD4211DA7C1B402CA8BFB2
:10F3B0004024694622463046FDF78EFC20B942467D
:10F3C0009D214846FCF7E4FE25442644EBE7FDF783
:10F3D00065FC11B0BDE8F083A12201088622010876
:10F3E00030B591B00C460546FFF718FFE368626937
:10F3F00040B113496846FFF73BFC6846FFF7D0FE73
:10F4000011B030BD0F496846FFF732FC6846FFF780
:10F41000C7FEE3681B0E202B04D121462846FFF7C8
:10F4200026FFEDE7082B04D121462846FFF757FFBA
:10F43000E6E7054ABD210548FCF7AAFEE0E700BF64
:10F44000BB220108D6220108F12201088622010808
:10F4500030B591B00C460546FFF7FCFE6269E368E3
:10F4600040B113496846FFF703FC6846FFF798FE72
:10F4700011B030BD0F496846FFF7FAFB6846FFF749
:10F480008FFEE3681B0E202B04D121462846FFF790
:10F490001BFFEDE7082B04D121462846FFF772FF3A
:10F4A000E6E7054AD7210548FCF772FEE0E700BF12
:10F4B000BB22010813230108F1220108862201085A
:10F4C0002DE9F04FADF5097D0446FFF7EBF9A749AB
:10F4D0002246029028A8FFF7CBFB28A8FFF760FE82
:10F4E000A34B0993FFF712F800230A90012120464D
:10F4F000CDE90B33FFF79AF880B122469D4928A841
:10F50000FFF7B6FB28A8FFF74BFE00240298FFF791
:10F51000C7F920460DF5097DBDE8F08F0A98FFF781
:10F52000A7F806460028E8D1342328250DF16C0BF6
:10F53000699068A909A86A93CDF8A0B100F0F0F924
:10F54000DBF82030BBF8321009A805FB013100F0D0
:10F5500033FA11AC68A909A868946A95699600F015
:10F56000DFF92369844D0193D4F8148038AC0FCDB2
:10F570000FC40FCD0FC40FCD0FC495E80F0084E862
:10F580000F0030464FF0FF3348A958AA41F8203009
:10F5900042F8203001301028F8D10026DFF8009220
:10F5A000DFF800A2BBF83030B34240F38580282456
:10F5B000DBF8201009A804FB061100F0FDF96A949D
:10F5C000002468AD11AF294609A86897699400F036
:10F5D000A7F9396809A8A8EB01030393019B8DF8EB
:10F5E000AE41194400F0E8F9039B0DA90E2BA8BF0A
:10F5F0000E2309A80D95CDE90E4300F091F90522DF
:10F600004946284601F0C8FC80B95C492A4628A82A
:10F61000FFF72EFB28A8FFF7C3FD394609A8FFF71F
:10F62000DFFE5748FFF7BCFD0136BBE70522514618
:10F63000284601F0B1FC0028E7D0072251492846AE
:10F6400001F0AAFC0028E0D004224F49284601F02E
:10F65000A3FC60B92A46494928A8FFF709FB28A856
:10F66000FFF79EFD394609A8FFF7F2FED9E738AF4C
:10F6700057F82410284601F025FB78B994B92A469A
:10F68000424928A8FFF7F4FA28A8FFF789FD404A65
:10F690004FF4B1713F48FCF77BFD36E70134102C85
:10F6A000E6D1ECE748AB43F8246088AB03EB840475
:10F6B000159B44F8C03CB7E700264FF0FF3848AB35
:10F6C00053F82630591C33D02825DBF8201009A820
:10F6D00005FB031100F070F900236A9568AD294617
:10F6E00011AC09A86993689400F01AF938AB53F883
:10F6F0002620224928A8FFF7BBFA28A8FFF750FDCB
:10F70000731E0B2B11D8DFE803F00606220C0C0C3D
:10F710002D104F1010CB204A40F277111D48FCF7F6
:10F7200037FD214609A8FFF75BFE1548FFF738FDB6
:10F730000136102EC3D1DBF81820184928A8FFF78E
:10F7400097FA28A8FFF72CFDDBF81840DEE6124AEE
:10F750004FF4C2710F48FCF71BFD214609A8FFF7C3
:10F7600077FEE2E7D4F81080DFE700BF2D23010821
:10F770009821010847230108A421010864230108F6
:10F780007C1001086E230108762301087B23010801
:10F790009523010886220108A323010859240108A2
:10F7A0005E230108682301085148FFF7F9FCDDF8E2
:10F7B00080A1BAF1FF3F05D14E4A40F291114E4867
:10F7C000FCF7E6FC5F9B013305D14C4A4FF4C9714D
:10F7D0004948FCF7DDFC00276369DFF81C91DB0872
:10F7E0000193019B9F42A0DA216909A801EBC7019F
:10F7F00000F0E2F804AB689308236A9300232946DB
:10F8000009A8699300F08CF89DF81430162B05D0E8
:10F810003B4A40F29D114846FCF7BAFC059909A8FD
:10F82000090A0AEB011100F0C7F80DAB6893102329
:10F830006A930023294609A8699300F071F8B8F18A
:10F84000000F05DA2F4A40F2A3114846FCF7A0FC4E
:10F850000D9909A8414400F0AFF80023802206A9C1
:10F8600009A8CDE90732069500F05AF82846FFF7B7
:10F870000DFA034680B903902348FEF781FF28461E
:10F88000FEF77EFF2148FEF77BFF214A4FF4D87137
:10F890004846FCF77DFC039B049A01371360A0E700
:10F8A0001C48FFF77DFC67692169002409A800F066
:10F8B00083F82346DFF86490BF080DF1340ABC4298
:10F8C00012DA0422294609A8699301936A92CDF8B5
:10F8D000A0A100F025F8DAF8002090474846FFF78D
:10F8E0005FFC0134019BEAE70B48FFF759FC1CE77A
:10F8F000A5230108B923010886220108DB2301089A
:10F90000FD230108232401083B240108502301089A
:10F91000442401084F2401087C100108B723010882
:10F920002DE9F84F04460E460025184FDFF8648095
:10F93000DFF86490B368AB4225DDD4E901BA0AF17F
:10F940000103A360B3689D4204DB3A465921404657
:10F95000FCF71EFC33681BF80A205A55A368B3F560
:10F96000007F0ED10023A360E368606803F5007395
:10F97000E360FEF77DFE20B14A4671210448FCF7A2
:10F9800007FC0135D6E72046BDE8F88FE4210108E1
:10F990004222010808220108282201081FB500227E
:10F9A0000123CDE90223036801919B6801A99847CF
:10F9B00005B05DF804FB000010B50446C1F3080073
:10F9C000E368A060081A83420DD0E060FEF718FEDD
:10F9D0006068FEF74DFE30B1BDE81040024A81215B
:10F9E0000248FCF7D5BB10BD2822010842220108BD
:10F9F0004FF48053044A80B213604FF0C04210802D
:10FA0000024A1360704700BF1414014010140140F3
:10FA10004FF0C04380B2188070477047704708B5F8
:10FA20002E20FFF7E5FF4FF0C0431A8819882C20DD
:10FA300089B2FFF7DDFF084608BD70477047F8B58B
:10FA400006462A20551E5F1EFFF7D2FF4FF0C04426
:10FA5000C1F30F232380C9B2C7F30F23FFB2218064
:10FA60002B2023802780FFF7C3FFC6F30F232380BB
:10FA7000F6B2C5F30F23EDB226802C20238025801B
:10FA8000BDE8F840FFF7B4BF002814BF322264225B
:10FA9000014B1A60704700BF3834014038B5054645
:10FAA0002A20FFF7A5FF4FF0C0440023C9B22380EE
:10FAB00021802380EF232B202380FFF799FFC5F3BC
:10FAC0000F2323800123EDB2258023808F232C2058
:10FAD0002380BDE83840FFF78BBF704708B5044965
:10FAE0004FF0006000F034F9BDE80840F4F7BEBB09
:10FAF00000C00000002108B50420F4F7ABFBC343AD
:10FB000013F4806F0CBF00204FF40060190548BF4C
:10FB100040F480601A0748BF40F40070190448BFE1
:10FB200040F480705A0448BF40F00100990448BF77
:10FB300040F00200DA0548BF40F004009B0548BFD2
:10FB400040F0080008BD002070470020704708B54D
:10FB5000F4F788FB012008BD08B5F4F781FB01200C
:10FB600008BD0538092817D8DFE800F00516161675
:10FB700016070B0E11140948704700210E20F4F7E8
:10FB800069BB00210D20FAE700210F20F7E70021D3
:10FB90001020F4E7F4F752BB00207047CB24010893
:10FBA000374B82B01A6842F001021A605968354A30
:10FBB0000A405A601A6822F0847222F480321A6075
:10FBC0001A6822F480221A605A6822F4FE025A60EF
:10FBD0004FF41F029A600022009201921A6842F4C8
:10FBE00080321A601A6802F400320192009A0132DF
:10FBF0000092019A1AB9009AB2F5A06FF2D11A6870
:10FC000012F4003218BF01220192019A012A30D168
:10FC10001D4A116841F010011160116821F00301C3
:10FC20001160116841F0020111605A685A605A6807
:10FC30005A605A6842F480625A605A6822F47C1210
:10FC40005A605A6842F4E8125A601A6842F08072A8
:10FC50001A601A689201FCD55A6822F003025A60B1
:10FC60005A6842F002025A605A6802F00C02082AEE
:10FC7000FAD14FF00062054B9A6002B0704700BFA6
:10FC8000001002400000FFF80020024000ED00E0FC
:10FC9000104A536803F00C03082B0F4B0AD00F498E
:10FCA00019605268C2F303121A4411791A68CA40E3
:10FCB0001A60704751685068C1F38341C00301F175
:10FCC000020102D406484143EAE750688003F9D4B0
:10FCD0000248F8E7001002403831002000127A0094
:10FCE00000093D0040F0BF60024B40F40030D86096
:10FCF000704700BF00ED00E070B50125017801F00C
:10FD00001F039D40C3784C09C3B10F4BDA68437899
:10FD1000D243C2F30222C2F1040603FA06F6837844
:10FD20000F2020FA02F213403343084A1B01DBB2D2
:10FD3000114481F8003342F8245070BD034B203445
:10FD400043F82450F9E700BF00ED00E000E100E0D7
:10FD500021F0604121F07F01014B01439960704720
:10FD600000ED00E0044B1A6911B1104318617047AF
:10FD700022EA0000FAE700BF00ED00E0044B04288F
:10FD80001A680CBF42F0040222F004021A607047A5
:10FD900010E000E02DE9F04F1746654A95B0137862
:10FDA00005460E46A3B100231846624C137000228C
:10FDB000811804EB020C01F0070101320339082A13
:10FDC0000CF80310F4D10130082803F10803EED138
:10FDD000F300DBB20193F30803F0FC030293330A50
:10FDE00003F0F80314AC039395E80F0004E90F0047
:10FDF0000C46119B0133139300F007030593129BEC
:10FE0000059A1B1A13440993019AFB00DBB29B1A53
:10FE100008934B43029A0493FB0803F0FC039B1ADC
:10FE2000079301FB03F8039A3B0A03F0F8039B1ABC
:10FE300001FB03FB0693EB68A34276DDBE4265D06F
:10FE4000EF21049B98FBF1FE93FBF1FA9BFBF1F190
:10FE5000019B9A44029B9E44039B194400206342E9
:10FE600003F0070304F1050204F0070958BFC3F1CA
:10FE70000009534203F0070302F0070258BF5A4239
:10FE80002C4B1A444B440A9312F930300B4483F341
:10FE900008034FEAE30C0A9B13F93030534483F311
:10FEA0000803DB1043EACC230B9300F1030C214B36
:10FEB0000CF0070C03EBCC0C1CF909C00B9BF444B1
:10FEC0008CF3080C4FEAAC0C43EA4C1C0CAB23F847
:10FED00010C001300828D7D110A8FCF756FC119BA0
:10FEE000DDF8149001331193139B01331393099B95
:10FEF000994510DA09F0070314AA02EB430333F81B
:10FF0000200CFCF74CFC09F10109F0E7DDE902E106
:10FF1000DDF804A0A2E7049B089A0134134404937B
:10FF2000079B9844069B9B4485E715B0BDE8F08F7E
:10FF30004C3100208042002030B585B06C460D4623
:10FF40000FC884E80F0020460021FCF714FC009B3A
:10FF5000294602330093019B204602330193029B02
:10FF6000023B0293039B023B0393FCF704FC009BC0
:10FF70004BF2965102330093019B20460E330193BE
:10FF8000029B023B0293039B023B0393FCF7F3FBB0
:10FF900005B030BD10B50446034A05210348FCF7FF
:10FFA000F7F8204610BD00BFA3230108E424010890
:10FFB00010B50446034A0C210348FCF7E9F8204633
:10FFC00010BD00BFA3230108E424010870B5054655
:10FFD00002269A420BDCD41894FBF6F055F8204028
:10FFE0008C4201D2421CF4E703D9431EF1E74FF0E3
:10FFF000FF3070BD08B500210B20F4F72BF938B99C
:020000040801F1
:100000000648FEF7BDFB064A67210648FCF7C0F824
:10001000BDE8084000211420F4F718B9B8250108FC
:10002000A3230108D225010808B500210320F4F715
:1000300011F9003018BF012008BD10B500210220C1
:10004000F4F708F9002100F001040120F4F702F9A7
:100050000021C2074FF0030048BF44F00204F4F748
:10006000F9F8C30748BF44F00404204610BD08B5A2
:1000700001210620F4F7EAF8FCF78AFA014B186030
:1000800008BD00BFC0420020584940F220024FF096
:10009000C8434A6118884FEA00400A611988084439
:1000A00070470020704708B5FCF772FA0B4B1B68CD
:1000B000C01A00F007FB0A4900F00CFC094B196854
:1000C00000F008FC084900F051FB00F015FDB0F508
:1000D000805FA8BF4FF4805008BD00BFC042002021
:1000E00000007A44503100200000F04110B5044671
:1000F000064B014618712420F4F7A8F82CB1BDE88E
:10010000104000210520F4F7A1B810BDC042002026
:10011000014B1879704700BFC042002070B51646E9
:100120001D46044640B1012813D0BDE870400C4A7A
:10013000C5210C48FCF72CB80920F4F787F83146A4
:100140000A20F4F783F829462046BDE87040F4F70A
:100150007DB80B20F4F77AF831460C20F1E700BFA8
:10016000A3230108D225010838B5104C15230146F8
:10017000054600222046FFF729FF431C06D1BDE8B3
:1001800038400B4AF0210B48FCF702B804EB40045E
:10019000094BB4F8581007201D60F4F757F8B4F86D
:1001A00084100820BDE83840F4F750B8082501084D
:1001B000A3230108D225010850310020082A70B578
:1001C0000E4614461D4605D12021BDE87040202072
:1001D000F4F73CB801462220F4F738F831462120E4
:1001E000F4F734F844EAC501EFE7000000100140DD
:1001F000094B10B51A68094C22F001021A60084A2E
:10020000146043F2B0521A60064A116090601A6896
:1002100042F001021A6010BD44040240087400401C
:100220004C040240480402400F4B1A6822F470222A
:100230001A601A6842F480221A608422A3F574437B
:100240001A60002203F5C0431A608022A3F5D84348
:100250001A6003F582331A6822F070621A601A6815
:1002600042F040721A607047000801404022014B82
:100270001A607047100C01404022014B1A60704711
:10028000140C0140274B70B51B680546264C002B0B
:1002900039D100F017FA2549064600F00FFC10B3DB
:1002A000F0232360216822484B1CB0FBF3F0B0FB25
:1002B000F5F001380128D6BF0223606063606268F0
:1002C000E36810205343642293FBF2F3A360F3F737
:1002D000BDFF61681120F3F7B9FF1220A168BDE8E6
:1002E0007040F3F7B3BF1349304600F0E7FB08B1A5
:1002F000B423D6E71049304600F0E0FB08B90123EB
:10030000CFE71223CDE70D48142390FBF5F0013819
:1003100000282360D6BF01236060636061680D2000
:10032000DDE700BFC842002054310020000020411A
:1003300000A24A040000FA4400409C4680EE3600C9
:10034000054BC0F1640059684143642091FBF0F112
:1003500012209960F3F77ABF54310020074A084908
:1003600050680968431C39B90648B0FBF3F01368BC
:100370000133B0FBF3F070470348FAE75431002033
:10038000C842002000A24A0480EE36006423034ADB
:1003900090684343506893FBF0F07047543100205D
:1003A0000138F8B50D461646032823D8DFE800F0DB
:1003B0000208181E0023134A1360134A1361F8BD84
:1003C000104C114F22688A4202D13B69B342F6D0E9
:1003D0001DB1B1B22846FFF70BFF3E612560EEE785
:1003E000FFF722FF094B40221A60E8E7FFF71CFFE6
:1003F000074BF8E7074AAC21BDE8F8400648FBF791
:10040000C7BE00BFC842002054310020100C01407C
:10041000140C0140EF2501080026010808B5142836
:100420002BD8DFE800F0310E110B13151A1C1E201B
:100430002222222222222222222427004FF4C870C4
:1004400008BD134B1868FBE71248F9E7F020F7E7FF
:100450000520BDE80840FFF784BB0F48F0E70F48D0
:10046000EEE70F48ECE70F48EAE7C0B2F1E74FF4D8
:100470000070E5E74FF48050E2E70B480B4A372164
:10048000FBF786FE0020DBE740F20310D8E700BF51
:1004900030310020903100209D1001081D260108F8
:1004A00032260108E01001083F260108A3230108B5
:1004B0004FEA4102B2F1E04324BFB3F5001CDCF186
:1004C000FE5C0DD901F0004C4FEAC0024CEA5070BE
:1004D000B2F1004F40EB830008BF20F001007047ED
:1004E00011F0804F21D113F13872BCBF01F00040F0
:1004F000704741F480114FEA5252C2F11802C2F122
:10050000200C10FA0CF320FA02F018BF40F00100A2
:100510004FEAC1234FEAD32303FA0CFC40EA0C0054
:1005200023FA02F34FEA4303CCE77FEA625307D191
:1005300050EA01331EBF4FF0FE4040F440007047C8
:1005400001F0004040F0FE4040F40000704700BF62
:1005500080F0004002E000BF81F0004142001FBF78
:100560005FEA410392EA030F7FEA226C7FEA236C81
:100570006AD04FEA1262D2EB1363C1BFD218414076
:1005800048404140B8BF5B42192B88BF704710F00C
:10059000004F40F4000020F07F4018BF404211F0AF
:1005A000004F41F4000121F07F4118BF494292EA17
:1005B000030F3FD0A2F1010241FA03FC10EB0C0043
:1005C000C3F1200301FA03F100F0004302D54942D0
:1005D00060EB4000B0F5000F13D3B0F1807F06D37D
:1005E00040084FEA310102F10102FE2A51D2B1F175
:1005F000004F40EBC25008BF20F0010040EA03006A
:100600007047490040EB000010F4000FA2F1010216
:10061000EDD1B0FA80FCACF1080CB2EB0C0200FAA0
:100620000CF0AABF00EBC25052421843BCBFD040EE
:100630001843704792F0000F81F4000106BF80F468
:1006400000000132013BB5E74FEA41037FEA226C2B
:1006500018BF7FEA236C21D092EA030F04D092F0F6
:10066000000F08BF0846704790EA010F1CBF00202A
:10067000704712F07F4F04D1400028BF40F0004087
:10068000704712F100723CBF00F50000704700F0A7
:10069000004343F0FE4040F4000070477FEA2262CE
:1006A00016BF08467FEA23630146420206BF5FEA9F
:1006B000412390EA010F40F4800070474FF000039F
:1006C00004E000BF10F0004348BF40425FEA000C66
:1006D00008BF704743F0964301464FF000001CE00E
:1006E00050EA010208BF70474FF000030AE000BF64
:1006F00050EA010208BF704711F0004302D54042A2
:1007000061EB41015FEA010C02BF84460146002013
:1007100043F0B64308BFA3F18053A3F50003BCFA2E
:100720008CF2083AA3EBC25310DB01FA02FC6344DB
:1007300000FA02FCC2F12002BCF1004F20FA02F2E2
:1007400043EB020008BF20F00100704702F12002D5
:1007500001FA02FCC2F1200250EA4C0021FA02F236
:1007600043EB020008BF20EADC7070474FF0FF0C3B
:100770001CEAD0521EBF1CEAD15392EA0C0F93EA36
:100780000C0F6FD01A4480EA010C400218BF5FEAD8
:1007900041211ED04FF0006343EA501043EA51114B
:1007A000A0FB01310CF00040B1F5000F3EBF490045
:1007B00041EAD3715B0040EA010062F17F02FD2A49
:1007C0001DD8B3F1004F40EBC25008BF20F001002C
:1007D000704790F0000F0CF0004C08BF49024CEA43
:1007E000502040EA51207F3AC2BFD2F1FF0340EAD5
:1007F000C250704740F400004FF00003013A5DDC46
:1008000012F1190FDCBF00F000407047C2F1000286
:10081000410021FA02F1C2F1200200FA02FC5FEA73
:10082000310040F1000053EA4C0308BF20EADC70BD
:10083000704792F0000F00F0004C02BF400010F42F
:10084000000F013AF9D040EA0C0093F0000F01F0DC
:10085000004C02BF490011F4000F013BF9D041EAFE
:100860000C018FE70CEAD15392EA0C0F18BF93EA00
:100870000C0F0AD030F0004C18BF31F0004CD8D12A
:1008800080EA010000F00040704790F0000F17BFB1
:1008900090F0004F084691F0000F91F0004F14D0F7
:1008A00092EA0C0F01D142020FD193EA0C0F03D14F
:1008B0004B0218BF084608D180EA010000F0004052
:1008C00040F0FE4040F40000704740F0FE4040F42D
:1008D000400070474FF0FF0C1CEAD0521EBF1CEACC
:1008E000D15392EA0C0F93EA0C0F69D0A2EB0302EA
:1008F00080EA010C49024FEA402037D04FF0805384
:1009000043EA111143EA10130CF000408B4238BF48
:100910005B0042F17D024FF4000C8B4224BF5B1A56
:1009200040EA0C00B3EB510F24BFA3EB510340EAA4
:100930005C00B3EB910F24BFA3EB910340EA9C0052
:10094000B3EBD10F24BFA3EBD10340EADC001B01C2
:1009500018BF5FEA1C1CE0D1FD2A3FF650AF8B4266
:1009600040EBC25008BF20F0010070470CF0004C73
:100970004CEA50207F32C2BFD2F1FF0340EAC2509E
:10098000704740F400004FF00003013A37E792F05F
:10099000000F00F0004C02BF400010F4000F013ABD
:1009A000F9D040EA0C0093F0000F01F0004C02BFB8
:1009B000490011F4000F013BF9D041EA0C0195E721
:1009C0000CEAD15392EA0C0F08D142027FF47DAFBA
:1009D00093EA0C0F7FF470AF084676E793EA0C0FAA
:1009E00004D14B023FF44CAF08466EE730F0004CA8
:1009F00018BF31F0004CCAD130F000427FF45CAF38
:100A000031F000437FF43CAF5FE700BF4FF0FF3CA5
:100A100006E000BF4FF0010C02E000BF4FF0010CF8
:100A20004DF804CD4FEA40024FEA41037FEA226CC1
:100A300018BF7FEA236C11D001B052EA530C18BFE3
:100A400090EA010F58BFB2EB030088BFC81738BF48
:100A50006FEAE17018BF40F0010070477FEA226C36
:100A600002D15FEA402C05D17FEA236CE4D15FEA32
:100A7000412CE1D05DF8040B704700BF8446084666
:100A80006146FFE70FB5FFF7C9FF002848BF10F127
:100A9000000F0FBD4DF808EDFFF7F4FF0CBF01206C
:100AA00000205DF808FB00BF4DF808EDFFF7EAFFF6
:100AB00034BF012000205DF808FB00BF4DF808EDB1
:100AC000FFF7E0FF94BF012000205DF808FB00BFA6
:100AD0004DF808EDFFF7D2FF94BF012000205DF82C
:100AE00008FB00BF4DF808EDFFF7C8FF34BF012039
:100AF00000205DF808FB00BF4FEA4002B2F1FE4F54
:100B00000FD34FF09E03B3EB12620DD94FEA0023CF
:100B100043F0004310F0004F23FA02F018BF4042A8
:100B200070474FF00000704712F1610F01D142028F
:100B300005D110F0004008BF6FF0004070474FF043
:100B400000007047844641EA000313F0030349D1D3
:100B5000403A23D30B6803604B6843608B68836023
:100B6000CB68C3600B6903614B6943618B69836127
:100B7000CB69C3610B6A03624B6A43628B6A83620F
:100B8000CB6AC3620B6B03634B6B43638B6B8363F7
:100B9000CB6BC36340304031403ADBD230320BD3B1
:100BA0000B6803604B6843608B688360CB68C360ED
:100BB00010301031103AF3D20C3205D351F8043B07
:100BC00040F8043B043AF9D2043208D0D2071CBFE3
:100BD00011F8013B00F8013B01D30B88038060460C
:100BE000704700BF082A13D38B07B1D010F003035E
:100BF000AED0C3F10403D21ADB071CBF11F8013BCE
:100C000000F8013BA4D331F8023B20F8023B9FE7F8
:100C1000043AD9D3013A11F8013B00F8013BF9D26B
:100C20000B7803704B7843708B7883706046704705
:100C3000F0B4860743D0541E002A3ED0CAB2034601
:100C400002E014F1FF3438D303F8012B9D07F8D1EB
:100C5000032C2BD9CDB245EA05250F2C45EA0545D5
:100C600016D9A4F110073F0903F1200606EB071679
:100C700003F1100242E9045542E902551032B24232
:100C8000F8D104F00F040137032C03EB07130DD93F
:100C90001E462246043A032A46F8045BFAD8221F6D
:100CA00022F003020432134404F003042CB1C9B24D
:100CB0001C4403F8011B9C42FBD1F0BC7047144656
:100CC0000346C5E780EA010C1CF0030F37D110F092
:100CD000030C20F0030021F0030150F8042B08BF9F
:100CE00051F8043B0ED08CF0030C6FF07F434FEAB9
:100CF000CC0C23FA0CFC51F8043B42EA0C0243EA08
:100D00000C0300BFA2F1013C9A4201BF2CEA020C85
:100D10001CF0803F50F8042B51F8043BF2D04FEA0E
:100D200002604FEA1222012828BFB0EB036F08BF10
:100D30001B0AF4D003F0FF03000EC01A704710F036
:100D4000030F0AD010F8012B11F8013B012A28BF2C
:100D50009A42F4D0A2EB030070474DF8045D50F8BE
:100D6000042B01F0030521F0030151F8043B022D8F
:100D700026D04DD822F07F45B5EB132FA2F1013CD0
:100D80002CEA020C0DD11CF0803C08BF51F8043B4A
:100D90000AD185EA0205B5EB036F0CD150F8042B9C
:100DA000E8E74FEA13235BE03CF07F4C54D10B782B
:100DB0004FEA126554E04FEA126503F0FF034FE07B
:100DC0004FEA0245A2F1013C4FEA15452CEA020C1C
:100DD000B5EB134F18D11CF0803C08BF51F8043B11
:100DE00007D185EA0205B5EB034F09D150F8042B72
:100DF000E6E75FEA0C4C2FD10B884FEA12452FE053
:100E00004FEA03434FEA12454FEA134328E000BF7D
:100E100002F0FF05B5EB136FA2F1013C2CEA020CC6
:100E20000DD11CF0803C08BF51F8043B0AD185EA83
:100E30000205B5EB032F0AD150F8042BE8E74FEA7F
:100E400013630DE012F0FF0F06D051F8043B4FEA98
:100E5000122523F07F4303E04FF0000020BC7047D1
:100E600005F0FF0203F0FF00012828BF904204BFF5
:100E70002D0A1B0AF4D0A2EB000020BC704700BF73
:100E800080EA0102844612F0030F4FD111F0030FE4
:100E900032D14DF8044D11F0040F51F8043B0BD042
:100EA000A3F101329A4312F0803F04BF4CF8043B97
:100EB00051F8043B16D100BF51F8044BA3F10132A5
:100EC0009A4312F0803FA4F101320BD14CF8043B5D
:100ED000A24312F0803F04BF51F8043B4CF8044B8E
:100EE000EAD023460CF8013B13F0FF0F4FEA3323FF
:100EF000F8D15DF8044B704711F0010F06D011F8DE
:100F0000012B0CF8012B002A08BF704711F0020FCB
:100F1000BFD031F8022B12F0FF0F16BF2CF8022BB6
:100F20008CF8002012F47F4FB3D1704711F8012BD9
:100F30000CF8012B002AF9D1704700BF20F0030103
:100F400010F00300C0F1000051F8043B00F1040C64
:100F50004FEACC0C6FF000021CBF22FA0CF21343D4
:100F60004FF0010C4CEA0C2C4CEA0C4CA3EB0C029D
:100F700022EA030212EACC1204BF51F8043B043007
:100F8000F4D0C2F1000102EA0102B2FA82F2C2F127
:100F90001F0200EBD2007047002A3FD040EA010355
:100FA00013F00303F0B425D1032A23D904680D6894
:100FB000AC421FD1043A33D0A4F1013525EA040430
:100FC00014F0803F2FD1071D0D1D0DE057F8043B95
:100FD0000E68A3F10134B34224EA03040AD1043AAF
:100FE0001ED014F0803F1BD1032A2946384605F154
:100FF0000405EBD803780C78013A9C420BD17AB106
:1010000014B90DE062B173B110F8013F11F8014F4E
:10101000013AA342F6D0181BF0BC70471046704747
:101020000020F0BC70471846F6E700BF7368656C97
:101030006C2E656C660000000000000000000000DF
:1010400000000000000000000000000000000000A0
:101050000000000000000000000000000000000090
:101060000000000000000000000000004F70656EEE
:1010700020646972206661696C6564210A004669B2
:101080006C65733A3C00272573272C20003E0A002C
:101090004F53205265766973696F6E3A206433311D
:1010A00062666562004275696C6420646174653AC9
:1010B0002053657020333020323032302031373ABF
:1010C00033393A3132004275696C742062793A20C2
:1010D0006761627269656C76616C6B79206F6E20F6
:1010E00064617277696E31390053616665206D6F96
:1010F00064652C20707265737320463120746F20F4
:10110000636F6E74696E75652E0A00507265737335
:1011100020463120746F2072657472792E0A004166
:1011200070706C69636174696F6E2068616C74655E
:1011300064000A0A417373657274696F6E20666198
:10114000696C656420696E2000205B25645D3A202F
:10115000004E4D49457863657074696F6E004D654A
:101160006D4D616E616765457863657074696F6E1A
:101170000A004275734661756C74457863657074D6
:10118000696F6E0A0055736167654661756C7445D9
:101190007863657074696F6E0A00537461636B3AAB
:1011A0002025303878202530387820253038780AC6
:1011B000253038782025303878202530387820259B
:1011C0003038780A000000000A0A202020484152E6
:1011D000444641554C542020200A000053503A25E3
:1011E0003038782050433A25303878204C523A2510
:1011F0003038780A000000005343422048465352DA
:101200003A2530387820434653523A253038780A08
:10121000424641523A253038780A000052303A2589
:101220003038782052313A253038782052323A25F9
:101230003038780A52333A253038782000000000E0
:1012400052343A253038782052353A253038780AE9
:1012500052363A253038782052373A2530387820BF
:101260000000000052383A253038780A52393A25C1
:1012700030387820000000005231303A253038787C
:10128000205231313A253038780A5231323A2530FD
:1012900038780A0000000000000000000000000094
:1012A000000000007E81A58181BD99817E00000043
:1012B00000007EFFDBFFFFC3E7FF7E0000000000B1
:1012C000006CFEFEFEFE7C381000000000000010E6
:1012D000387CFE7C3810000000000000183C3CE721
:1012E000E7E718183C0000000000183C7EFFFF7E76
:1012F00018183C0000000000000000183C3C1800DA
:1013000000000000FFFFFFFFFFE7C3C3E7FFFFFF91
:10131000FFFF000000003C664242663C0000000007
:10132000FFFFFFFFC399BDBD99C3FFFFFFFF000093
:101330001E0E1A3278CCCCCC7800000000003C663F
:1013400066663C187E181800000000003F333F30EE
:10135000303070F0E000000000007F637F63636363
:1013600067E7E6C0000000001818DB3CE73CDB182C
:1013700018000000000080C0E0F8FEF8E0C0800027
:101380000000000002060E3EFE3E0E0602000000B7
:101390000000183C7E1818187E3C18000000000061
:1013A00066666666666600666600000000007FDBB3
:1013B000DBDB7B1B1B1B1B000000007CC660386C4A
:1013C000C6C66C380CC67C0000000000000000009F
:1013D000FEFEFE0000000000183C7E1818187E3C3F
:1013E000187E00000000183C7E1818181818180005
:1013F000000000001818181818187E3C180000008B
:1014000000000000180CFE0C180000000000000096
:1014100000003060FE6030000000000000000000AE
:1014200000C0C0C0FE000000000000000000286CEA
:10143000FE6C2800000000000000001038387C7CA2
:10144000FEFE00000000000000FEFE7C7C3838102C
:10145000000000000000000000000000000000008C
:1014600000000000183C3C3C181800181800000050
:101470000066666624000000000000000000000016
:101480006C6CFE6C6C6CFE6C6C00000018187CC6FA
:10149000C2C07C0686C67C18180000000000C2C6C8
:1014A0000C183066C60000000000386C6C3876DC22
:1014B000CCCC76000000003030306000000000002E
:1014C0000000000000000C183030303030180C00E4
:1014D0000000000030180C0C0C0C0C183000000040
:1014E00000000000663CFF3C6600000000000000B9
:1014F000000018187E18180000000000000000000E
:101500000000000018181830000000000000000063
:10151000FE000000000000000000000000000000CD
:10152000001818000000000002060C183060C0808F
:101530000000000000007CC6CEDEF6E6C6C67C00D9
:101540000000000018387818181818187E000000DD
:1015500000007CC6060C183060C6FE0000000000CB
:101560007CC606063C0606C67C00000000000C1C7B
:101570003C6CCCFE0C0C1E0000000000FEC0C0C085
:10158000FC0606C67C00000000003860C0C0FCC637
:10159000C6C67C0000000000FEC6060C18303030C5
:1015A0003000000000007CC6C6C67CC6C6C67C00F3
:1015B000000000007CC6C6C67E06060C780000004F
:1015C00000000018180000001818000000000000BB
:1015D0000018180000001818300000000000060C69
:1015E00018306030180C0600000000000000007E7B
:1015F00000007E000000000000006030180C060CA7
:1016000018306000000000007CC6C60C18180018D6
:101610001800000000007CC6C6DEDEDEDCC07C00F8
:101620000000000010386CC6C6FEC6C6C60000002A
:101630000000FC6666667C666666FC0000000000D2
:101640003C66C2C0C0C0C2663C0000000000F86C2E
:1016500066666666666CF80000000000FE666268FA
:1016600078686266FE0000000000FE6662687868C6
:101670006060F000000000003C66C2C0C0DEC666CC
:101680003A0000000000C6C6C6C6FEC6C6C6C600F2
:10169000000000003C181818181818183C0000002A
:1016A00000001E0C0C0C0C0CCCCC780000000000D0
:1016B000E6666C6C786C6C66E60000000000F0601A
:1016C000606060606266FE0000000000C6EEFEFE24
:1016D000D6C6C6C6C60000000000C6E6F6FEDECED0
:1016E000C6C6C60000000000386CC6C6C6C6C66CBA
:1016F000380000000000FC6666667C606060F000F8
:10170000000000007CC6C6C6C6D6DE7C0C0E0000FB
:101710000000FC6666667C6C6666E6000000000001
:101720007CC6C660380CC6C67C00000000007E7E09
:101730005A18181818183C0000000000C6C6C6C683
:10174000C6C6C6C67C0000000000C6C6C6C6C6C661
:101750006C38100000000000C6C6C6C6D6D6FE7C97
:101760006C0000000000C6C66C3838386CC6C60075
:1017700000000000666666663C1818183C00000011
:101780000000FEC68C183060C2C6FE0000000000DB
:101790003C303030303030303C000000000080C041
:1017A000E070381C0E060200000000003C0C0C0C1F
:1017B0000C0C0C0C3C00000010386CC60000000043
:1017C0000000000000000000000000000000000019
:1017D0000000FF0030301800000000000000000092
:1017E00000000000000000780C7CCCCC76000000EB
:1017F0000000E06060786C6666667C0000000000B7
:101800000000007CC6C0C0C67C00000000001C0CAC
:101810000C3C6CCCCCCC7600000000000000007CBE
:10182000C6FEC0C67C0000000000386C6460F0603A
:101830006060F0000000000000000076CCCCCC7CA2
:101840000CCC78000000E060606C76666666E600AE
:101850000000000018180038181818183C00000084
:1018600000000606000E0606060666663C0000003E
:10187000E06060666C786C66E60000000000381876
:101880001818181818183C0000000000000000ECA0
:10189000FED6D6D6C60000000000000000DC66665A
:1018A00066666600000000000000007CC6C6C6C672
:1018B0007C0000000000000000DC6666667C606062
:1018C000F000000000000076CCCCCC7C0C0C1E009C
:1018D0000000000000DC76666060F00000000000A0
:1018E0000000007CC6701CC67C00000000001030A8
:1018F00030FC303030361C0000000000000000CC0E
:10190000CCCCCCCC760000000000000000666666FF
:10191000663C180000000000000000C6C6D6D6FED7
:101920006C0000000000000000C66C38386CC60077
:1019300000000000000000C6C6C6C67E060CF80007
:101940000000000000FECC183066FE000000000021
:101950000E181818701818180E000000000018183B
:10196000181800181818180000000000701818182F
:101970000E18181870000000000076DC000000004F
:101980000000000000000000000010386CC6C6FE19
:101990000000000000003C66C2C0C0C2663C0C06ED
:1019A0007C000000CCCC00CCCCCCCCCC76000000B1
:1019B000000C1830007CC6FEC0C67C000000001081
:1019C000386C00780C7CCCCC760000000000CCCCCD
:1019D00000780C7CCCCC76000000006030180078D9
:1019E0000C7CCCCC7600000000386C3800780C7C85
:1019F000CCCC76000000000000003C6660663C0C29
:101A0000063C00000010386C007CC6FEC0C67C009E
:101A100000000000CCCC007CC6FEC0C67C000000EC
:101A200000603018007CC6FEC0C67C0000000000CC
:101A300066660038181818183C00000000183C664C
:101A40000038181818183C000000006030180038E2
:101A5000181818183C00000000C6C610386CC6C61E
:101A6000FEC6C6000000386C3800386CC6C6FEC61C
:101A7000C600000018306000FE66607C6066FE00F4
:101A8000000000000000CC76367ED8D86E00000042
:101A900000003E6CCCCCFECCCCCCCE0000000010C4
:101AA000386C007CC6C6C6C67C0000000000C6C6F6
:101AB000007CC6C6C6C67C00000000603018007CF2
:101AC000C6C6C6C67C000000003078CC00CCCCCCAA
