:020000040800F2
:10800000009F0020C5830008458100087D8200088C
:108010005581000865810008758100080000000096
:108020000000000000000000000000008183000844
:10803000818300080000000081830008E9830008B4
:1080400083830008838300088383000883830008F8
:1080500083830008838300088383000883830008E8
:1080600083830008838300088383000883830008D8
:1080700083830008838300088383000883830008C8
:1080800083830008838300088383000881830008BA
:10809000B984000881830008818300088383000875
:1080A0008383000883830008838300088383000898
:1080B0008383000883830008838300088383000888
:1080C0008383000883830008838300088383000878
:1080D0008383000883830008838300089984000851
:1080E0008383000883830008838300088383000858
:1080F0008383000883830008838300088383000848
:108100008383000883830008838300088383000837
:108110008383000883830008838300088383000827
:108120008383000883830008838300088383000817
:1081300008B513460A460146014802F0EFF9FEE78A
:10814000F617010808B5024802F0E8F9FEE700BF9B
:108150001718010808B5024802F0E0F9FEE700BF71
:108160002418010808B5024802F0D8F9FEE700BF5C
:108170003718010808B5024802F0D0F9FEE700BF41
:1081800049180108024BEFF308801860704700BFE0
:108190009403002037B5044601462D482D4D02F0CA
:1081A000BDF9E368216800932846D4E9012302F071
:1081B000B5F9E369216900932846D4E9052302F063
:1081C000ADF9E36A216A00932846D4E9092302F055
:1081D000A5F9E36B216B00932846D4E90D2302F047
:1081E0009DF9E36C216C00932846D4E9112302F039
:1081F00095F9E36D216D00932846D4E9152302F02B
:108200008DF9E36E216E00932846D4E9192302F01C
:1082100085F9E36F216F00932846D4E91D2302F00E
:108220007DF9D4F88C30D4F8801000932846D4E936
:10823000212302F073F9D4F89C30D4F89010009305
:108240002846D4E9252302F069F903B030BD00BF08
:108250005D18010872180108684620F007018D4674
:10826000044808B502F05AF9034B1868FFF792FF6B
:10827000FEE700BF8C18010894030020084BEFF3C1
:1082800008825C601A609D60DE601F61C3F8148024
:10829000C3F81890C3F81CA0C3F820B0FFF7DCFFA8
:1082A000940300202DE9F041A0B000F00FF902F096
:1082B00065F802F097FA02F09BFA2D4802F0E0F917
:1082C0006B462C4A2C4C10685168128903C300215C
:1082D0001A800DF10A00362209F034F802F010F984
:1082E000072827D00025224E244F02F0E1F9037819
:1082F00013B9684602F0C4F902F0DAF910AA14467C
:10830000431E3E3013F8011F944602F8011B1978F2
:1083100019B1202916D18CF80050204603F0BCF882
:108320008046A0B9384602F0F9F802F0E9F80528CD
:10833000FBD1DAE7204602F0F1F802F0E1F8052877
:10834000FBD1CBE78342DDD18DF87F50E5E73046A6
:1083500002F096F9404600F0CDF802F0A9F9037852
:10836000002BC2D02146684609F034F9BDE700BFB2
:108370008818010880170108C0170108E2170108D2
:108380007047FEE70A4A0B4B9A4203D00A49043A67
:108390008B4205D30021094B094A934205D370470C
:1083A00052F8040F43F8040BF2E743F8041BF4E718
:1083B00090320108000000208D030020940300206B
:1083C00000420020684620F007018D4608B5FFF7FF
:1083D000D9FFFFF767FFFEE70022024B18781A70FB
:1083E000704700BFB8030020F8B5284C636801331C
:1083F0006360A36813B1A368013BA360E3682BB17A
:10840000E0680138E06008B903F0FCFA03F062FBB1
:108410001F4B82B21978C2F30135C0B2A9424FEAAC
:10842000923200F00F0608D01A4F45EA81017956C2
:10843000002924DD2B2121701D7059788A4208D033
:10844000144D42EA8101695600291BDD3E2121704D
:108450005A709A78B24211D0C70744BF31222270B5
:10846000850744BF32222270410744BF3322227065
:10847000020748BF34229E7048BF2270F8BDDBD08F
:108480002D21D8E7E4D03C21E1E700BFB80300206C
:1084900030010020A0180108064808B503889B0693
:1084A00006D507F02DF9BDE80840C0B206F040BE81
:1084B00008BD00BF0048004002F060B9024B1860E0
:1084C0001A68002AFCD17047C003002003F0C6BA26
:1084D0000823C0EB801090FBF3F010F1FF3000D3C5
:1084E000FBE77047FFF7EABF014B1868704700BF12
:1084F000BC03002040F00100004770470E22024BF1
:1085000002FB0030704700BFB018010800487047F8
:10851000B0180108002138B50546084603F042FAB4
:108520004FF49634284603F049FA013CFAD138BD9D
:108530002DE9F0411D4680460C461646C1F1F00378
:10854000C5F1F001BDF8187003F04BFAA6EB080670
:108550002C1B744314F1FF3403D3384603F02EFA76
:10856000F8E7BDE8F08113B5B0F90240B0F9063084
:10857000B0F90420B0F9000000912146FFF7D8FFC0
:1085800002B010BD37B50D460446B0F90210B0F97F
:1085900004204B1CB0F900000095FFF7C9FFB4F9A7
:1085A0000630B4F90420B4F90000591E0095FFF715
:1085B000BFFFB4F90000B4F90630B4F90210421C50
:1085C0000095FFF7B5FFB4F90420B4F90630B4F90B
:1085D00002100095501EFFF7ABFF03B030BD10B581
:1085E0001446C1F1EF0103F0DDF92046BDE810406B
:1085F00003F0E4B910B50C46B0F90210B0F9000070
:10860000C1F1EF0103F0CEF92046BDE8104003F0C0
:10861000D5B908B5C1F1EF0103F0C4F9BDE80840D0
:1086200003F0D0B92DE9F74F90460E2299469DF8F8
:108630003040314B074602FB04344FF61E03994588
:108640001DD104F1FF3904F10D0A0C1B19F8016F5B
:108650000025F64304EB090BF6B2320604D5424678
:1086600059467819FFF7BBFF01357600082DF6B2A1
:10867000F3D1CA45EAD1082003B0BDE8F08F984590
:108680001CD104F1FF3804F10D0B0C1B4FF0000A54
:1086900018F8016F04EB0805330605D54A4629464C
:1086A00007EB0A00FFF79BFF0AF1010A7600BAF117
:1086B000080FF6B2F0D1D845E8D1DCE70D4604F159
:1086C0000E03019300F1080B3E4614F801AB1AF0BB
:1086D000800F14BF4A464246304629460136FFF70E
:1086E0007EFF4FEA4A03B3455FFA83FAEFD1019B5D
:1086F00001359C42E8D1BEE7B01801082DE9F743E7
:108700000A9D06460F4690469946BDB1287890B11D
:10871000013D344615F8013F63B10A2B01D11037F2
:10872000F7E7009320464B4642463946FFF77AFF6B
:108730000444EFE7A01B03B0BDE8F0832846FAE746
:10874000FFF7DCBF41EA000333F0030301BF40EA57
:1087500081000349401890F8000E18BF00207047B0
:10876000B01801082DE9F04F984605460E46174609
:108770000C4687B0BDF8403001F1030A0293531E46
:10878000A8F1030B059344452EDAA24508D1029BBC
:108790003A46009351465B462846FFF7C9FE5C46C1
:1087A000A946A8EB0402531E0393A31B0493B945E7
:1087B00018DA059BA9EB0502A3EB0900039B1946F8
:1087C000049B9942A8BF19469042A8BF1046FFF7E4
:1087D000B9FF20B9029A21464846FFF700FF09F188
:1087E0000109E4E70134CEE707B0BDE8F08F13B527
:1087F000B0F90240B0F90630B0F90420B0F9000039
:1088000000912146FFF7AEFF02B010BDB0F9023073
:10881000B0F90610B0F90420C3F1F003C1F1F00182
:10882000B0F9000003F0DDB803F0C8B803F0CAB82F
:1088300070472DE9F74F064600254FF61E091746EB
:108840000C9A9846137802F1010B00934B1E01938A
:108850005C46019BA3EB0B0A009BA4EB0B0293422B
:1088600013DD14F8012BB2B153070AD54F45F3D0ED
:108870003A4604EB0A013046FFF7B1FEECE7A346A7
:10888000E6E7C845E8D04246F3E70135502D06F14A
:108890000106F4D10825284603B0BDE8F08F2DE984
:1088A000F84F0A9F80463C460D4691469A4692B242
:1088B0009BB289B280B203F0B7F80B9B07EB43067B
:1088C00055450EDAC346CB4509DA34F8020B03F0FE
:1088D00075F8A64208BF3C460BF1010BF3E70135E2
:1088E000EEE7BDE8F88F024ADC210248FFF720BC22
:1088F000B7300108C026010800F58033DB0200F123
:108900000820834204D21A68013203D10433F8E705
:10891000012070470020704708B51D4B0344DB025F
:10892000B3F56C3F02D34FF0FF3008BD194A11690F
:10893000090623D4174AD168C907FCD4116903F189
:10894000006303F5A04341F0020111615361136913
:1089500043F0400313610F4BDA6812F00102FBD1C0
:1089600019691A611A6942F080021A61FFF7C4FF9F
:1089700000280CBF6FF00A000120D6E706495160BD
:1089800001F18831516012691206D3D5CBE700BFDF
:10899000F6FF1F00002002402301674508B50B4683
:1089A00000F580314FF40062C902184608F054FC0B
:1089B000012008BD00F58033012030B5C1EBC32391
:1089C00001F500645A5851F8045BAA4202D0013202
:1089D00005D10020A142F5D180F0010030BD022078
:1089E000FCE700F58030C00200F17843A3F5A04316
:1089F000B3F56C3FF0B502D34FF0FF30F0BD1A4B2A
:108A00001A69140624D4184AD368DB07FCD4164E1E
:108A100001F500673546431A32695C1842F00102DD
:108A2000326131F8022B2280E86810F00100FBD19E
:108A30002A6922F001022A61228831F8024C94420C
:108A40000FD1B942E8D12B6943F080032B61D5E700
:108A5000064A5A6002F188325A601B691A06D2D55A
:108A6000CAE76FF00A00C9E700200240230167450A
:108A700038B50E4B0E4A0344B2EBC32F04460D46E5
:108A800010D3FFF797FF00280EDD022802D1204601
:108A9000FFF742FF012807D129462046BDE83840AC
:108AA000FFF79FBF4FF0FF3038BD00BFF6FF1F003C
:108AB000FFAF0300002380F80038C0F80438704787
:108AC000014690F8000818B1D1F80408FFF7D0BFAC
:108AD00070472DE9F74F044691464FF0000A4FF0DA
:108AE000010B01F17845ED0A1E4605F58033A1EB37
:108AF000C321C1F5006821F0010143180093002E45
:108B000027DDD4F80438C4F804589D4205D0214626
:108B10002846FFF743FF84F800A84645ABBF474609
:108B20003746012300233A4649460098019308F04E
:108B300093FB019B84F800B8F61B002BDFD0214685
:108B4000D4F80408FFF794FF0028D8D003B0BDE89C
:108B5000F08F0020FAE70148704700BFC8030020EB
:108B600040F608020021014808F0ECBBC8030020D1
:108B700038B5074C2046FFF7A3FF054640F608022C
:108B80000021204608F0DEFB281C18BF012038BD5C
:108B9000C803002008B513460A4601460248FFF7FD
:108BA00098FF012008BD00BFC803002001380A4417
:108BB000914204D011F8013B00F8013FF8E77047FB
:108BC000026930B501F109036AB3426901F1110587
:108BD000541E14F8010F202806D0052808BFE520F0
:108BE00003F8010BAB42F4D1107A20280DD01846BF
:108BF0002E24D51D00F8044B013315F8014F202C0D
:108C000003D003F8014B9842F7D1D07A0872D069AB
:108C10000860547E107E40EA04208880D07D927DDA
:108C200042EA0022CA8000221A7030BD03685BB19C
:108C30001A784AB1D9888288914205D15B78002B95
:108C400014BF03200020704709207047CA7E8B7E26
:108C5000032843EA022301BF487D0A7D42EA00223D
:108C600043EA02431846704783690239023B8B424C
:108C700083BF8378806A01FB03000020704748B9F6
:108C8000054B1A6802B1107009B100220A70196010
:108C9000002070470B207047480C0020003018BFA0
:108CA00001207047003018BF0120704770B50E4694
:108CB00060B95BB11B0315039CB2224629463046BE
:108CC00004F086FE0028F8D0002070BD0420FCE7E8
:108CD00010B50A46044600F1300101234078FFF741
:108CE000E5FFC0B994F82F2294F82E3243EA02230C
:108CF0004AF65522934210D1D4F86630084A23F040
:108D00007F43934206D0D4F8820020F07F40801A3F
:108D100018BF012010BD0320FCE70220FAE700BFC6
:108D2000464154002DE9F84303681A78303A092A7D
:108D30001ED900230B607D4E3468002C00F0F180BA
:108D40000C6023780BB1607880B1002323804FF44E
:108D500080530021C4F80A302046FFF7B9FF0128EC
:108D600040F0CC8094F8F2316BB90D20BDE8F88367
:108D70005C783A2CDDD10233036000230B60002ABB
:108D8000D9D00B20F2E7D4F8F67120463946FFF728
:108D90009FFF032800F0C7800028E6D194F83C30FC
:108DA00094F83B0040EA032063898342DDD194F8C4
:108DB000473094F8462094F840C052EA032208BF96
:108DC000626D0CF1FF33012BE26184F803C0CCD853
:108DD00094F83D9084F80290B9F1000FC5D009F1E4
:108DE000FF3313EA090FC0D194F8423094F8418060
:108DF000450948EA0328B8FBF5F105FB1185ADB23A
:108E0000A4F80880002DB0D194F8445094F8433071
:108E100094F83EE053EA052394F83F5008BF236DD1
:108E20005EEA052EA1D002FB0CFC7144614499421C
:108E30009BD85B1AB3FBF9F3002B96D040F6F5757F
:108E40004FF6F579AB428CBF022501254B4588BF13
:108E5000032539440233A162032D0EEB0701A36100
:108E600021624DD1B8F1000F7FF47FAFE16D9B001F
:108E70006162411E0B44B3FBF0F08242FFF475AF18
:108E800000234FF0FF32032DC4E903322CD163716C
:108E900094F8602094F8613004F1300142EA032232
:108EA0003A44626101236078FFF700FFE0B994F86B
:108EB0002F2294F82E3243EA02234AF65522934297
:108EC00012D1226B1A4B9A420ED103F1FF53D4F800
:108ED000142203F5005320339A4201BFD4F81C3208
:108EE000E360D4F8183223610020B3882570013381
:108EF0009BB2B380E380E062207137E7002748E748
:108F0000B8F1000F3FF431AF6144022D61624FEAC6
:108F100043011BBFC91803F001030B4603EB5103C8
:108F2000A7E70C2022E7012020E700BF480C002023
:108F30005252614138B50D46144680B97BB1012BC0
:108F400004D0084A21210848FFF7F2F824032146FB
:108F5000284604F027FD0028F9D0002038BD042061
:108F6000FCE700BFDD260108E82601082DE9F041F5
:108F7000C56A04468D420F4602D10020BDE8F0814B
:108F80000379F3B100F1300801232A4641464078C5
:108F9000FFF7D0FF08B10120F0E7D4E9072313441D
:108FA000AB4220710DD9E678012E0AD9E36941461A
:108FB0001D442A4601236078013EFFF7BBFFF6B24D
:108FC000F2E7002FD9D001233A4604F1300160784E
:108FD000FFF76CFE0028DED1E762CFE70129F8B584
:108FE00005460E4672D983698B426FD90378022BEE
:108FF00032D0032B48D0012B09D1438901EB510713
:10900000B7FBF3F3016A1944FFF7B0FF10B14FF05B
:10901000FF3020E069892846B7FBF1F301FB1373A9
:109020000137B7FBF1F12B4493F830402B6A194418
:10903000FFF79CFF0028EAD16A89B7FBF2F302FB35
:1090400013773D4495F83000F30744EA00204CBF05
:109050000009C0F30B00F8BD43895B08B1FBF3F3D3
:10906000016A1944FFF782FF0028D0D172006E898F
:10907000B2FBF6F306FB1326354495F8313095F82C
:10908000300040EA0320E6E743899B08B1FBF3F395
:10909000016A1944FFF76AFF0028B8D16A89B6004F
:1090A000B6FBF2F302FB136606F130032B4498780B
:1090B000DA780004354440EA026095F830205B78A5
:1090C000104340EA032020F07040C4E70120C2E7CB
:1090D00070B504460D46E1808168012901D1022066
:1090E00070BD03689A698A42F9D9F9B91A78032AD6
:1090F00001D1596AD1B90022E2601A89AA42EED997
:109100005A895B6A5209B5FBF2F213442361236862
:1091100000205A8903F130015209B5FBF2F302FB3A
:109120001355ADB201EB45156561D9E75E8972094A
:109130009E785643B6B2B54222680ED31046FFF76A
:109140004DFF431C014613D00128C8D923689B69F1
:109150008342C4D9AD1BADB2EDE7E1601046FFF725
:1091600083FD53895B09B5FBF3F318442061CEE717
:109170000120B5E701292DE9F04104460D461646C8
:1091800040F2898083698B4240F285800378022B0C
:1091900045D0032B5AD0012B7BD1438901EB5108D9
:1091A000B8FBF3F3016A1944FFF7E0FE58BB61898D
:1091B00015F00105B8FBF1F301FB1383234417BF3E
:1091C00093F83020F2B202F00F0032011CBF02F01F
:1091D000F002024383F83020012308F10108B8FBB4
:1091E000F1F12371236A20461944FFF7BFFE50B9FD
:1091F0006389B8FBF3F703FB178727443DB1C6F338
:10920000071287F8302001232371BDE8F08197F819
:109210003020C6F3032622F00F023243F1E74389E0
:109220005B08B1FBF3F3016A1944FFF79FFE0028C6
:10923000E9D163896A00B2FBF3F503FB152532120D
:10924000254485F8306085F83120DCE743899B08A8
:10925000B1FBF3F3016A1944FFF788FE0028D2D16D
:109260006289AD00B5FBF2F302FB135505F1300145
:109270002144CB7825441B0603F0704343EA0602E1
:10928000131285F830204B70130C120E8B70CA70BD
:10929000B9E70220B7E70220B7E7F8B505460F4661
:1092A00079B9C668BEB183699E4228BF012634469B
:1092B000AB690134A34211D8012E0ED800242046F8
:1092C000F8BDFFF78BFE0128044630D9AB69834215
:1092D000F5D83E46EBE70126E9E702242146284679
:1092E000FFF77CFE48B1411C02D14FF0FF34E6E7A6
:1092F00001281CD0B442DBD1E0E76FF07042214678
:109300002846FFF737FF80B947B92B69EC605A1C34
:10931000D5D0013B2B6101236B71D0E72246394642
:109320002846FFF727FF0028EFD00128DDD00124D1
:10933000C5E7F8B504460D46FFF778FC0746002858
:1093400068D1A27916065CD4E3689D4203D912F075
:10935000020F08BF1D460022A368A260BDB9E368E2
:10936000AB4257D2A379E56043F02003A37151E0EB
:1093700000202368A5685A89B5FBF2F302FB13535A
:10938000002BECD0A369834218BFA061E7E72068F7
:109390008278468956434BB3013B6A1EB2FBF6F214
:1093A000B3FBF6F18A4221D3724213406169A36094
:1093B000ED1A0029DCD0AE42206807D2A3799A07C3
:1093C0002DD5FFF76AFF014660BB3546A3682068CC
:1093D0002B44A3604389B5FBF3F203FB1255002D28
:1093E000C6D0FFF741FC40B11044C2E72169A1B9E2
:1093F000FFF753FF0128014605D1A37963F07F03EE
:10940000A371022706E0013006D10127A37963F09A
:109410007F03A3713846F8BD21616161C9E7FFF799
:10942000DDFD01464B1CF0D00129E6D923689B697C
:109430009942E2D2A36861613344A360AD1BBAE7ED
:109440000129F8B504460D4622D983698B421FD9FC
:109450000127A369AB4201D80020F8BD2946204668
:10946000FFF7BCFD06460028F6D0012810D0411CAD
:1094700010D0002229462046FFF77CFE0028ECD1C0
:1094800023695A1C02D00133236167713546E0E736
:109490000220E2E70120E0E770B5044640B3FFF7A1
:1094A000C5FB054698B9A379190623D49A0723D595
:1094B000D4E9022191420AD943F02003E260A3716A
:1094C000206832B92169FFF7BBFF256140B9284602
:1094D00070BD6169FFF782FD431C06460ED1012075
:1094E000A379054663F07F03A371F0E70220F7E755
:1094F0000925ECE70225EAE70725E8E70128F5D08A
:10950000206883699E42E2D26FF070426169FFF782
:1095100031FE0028E4D131462068FFF791FFD5E7FE
:109520002DE9F041C58804460135ADB20F4615B9A5
:109530000420BDE8F0810269002AF9D0006843895F
:109540005909B5FBF1F301FB13539BB233B9E16841
:109550000132226191B90389AB42E9D92368E580E0
:109560005A8903F130015209B5FBF2F302FB13559E
:10957000ADB201EB451565610020DAE743898278D9
:109580005B09B5FBF3F3013A1342E7D1FFF726FD80
:109590000128064601D80220CBE7421C01D1012058
:1095A000C7E720688369B3423AD8002FC0D0E1688A
:1095B000FFF773FE0646002839D00128EBD0431C84
:1095C000EDD000212068FFF7D1FC0028E7D1236807
:1095D00003F130025B8913F1FF3302D302F8010B70
:1095E000F9E7226831461046FFF73EFB00274FF0AF
:1095F0000108D0622368F9B29A788A420DD983F8BB
:10960000048000212068FFF7B1FC01370028C6D193
:109610002268D36A0133D362ECE7DA6A521ADA625B
:10962000E66031462068FFF71FFB206196E70720C0
:109630007FE72DE9F8430B7804462F2B0D4601D028
:109640005C2B00D101350026A6602B781F2B2ED96C
:1096500020262B78AE462F2B05F10105F9D05C2B87
:10966000F7D0A7693B4607F10B02934226D14FF092
:1096700000084FF0080C454643460EF1FF3919F833
:10968000012F0135202A23D92F2A21D05C2A1FD06F
:109690002E2A75D0C44508D9100606D4434810F8C0
:1096A000011F002975D08A42F9D1062004E0314615
:1096B0002046FFF70DFD6661BDE8F88303F8016BF6
:1096C000D3E743F0020307F8082008F10108D6E7C2
:1096D000212A754434BF04220022B8F1000FE4D0DF
:1096E00039782046E52904BF05213970BCF1080FFF
:1096F00004BF9B00DBB203F00301012903F00C035C
:1097000008BF42F01002042B08BF42F00802FA72B0
:109710000021FFF7DDFCD8B921692068FFF726FC9E
:10972000B0B96269137893B1D37A19070AD4A369DF
:1097300003F10B0C63450BD012F8017B13F8011BEE
:109740008F42F7D000212046FFF7EAFEE3E704202E
:10975000A369DB7A30B10428AED113F0040F08BF3F
:109760000520A9E75A07A7D46169CB7ADB0605D59E
:1097700023681878FFF76AFAA0606AE705209BE77C
:10978000BCF1080F91D19B00E046DBB24FF00B0C0F
:1097900075E7A2F14101192993D9A2F161011929B3
:1097A0009EBF203A43F00103D2B28CE7FE260108A7
:1097B00030B587B00191044628B3014601A8FFF7F0
:1097C000B1FA68B903ABA361019920462568FFF798
:1097D00030FFD0B9616951B1CB7ADB0603D40520E3
:1097E000002323600DE02878FFF730FAA060EB88B3
:1097F0000021A3802046FFF76BFC0428EFD000284F
:10980000EED107B030BD0920FBE70428E7D0E7E739
:1098100030B58DB001900D4601A805A9FFF782FA79
:10982000044668B902AB019905A80B93FFF701FF45
:10983000044628B90A9B33B1294605A8FFF7C0F9A9
:1098400020460DB030BD0624FAE738B500210546A4
:10985000FFF73EFC0446B0B929692868FFF786FB8C
:10986000044680B96B691B78E52B0ED06BB10121E2
:109870002846FFF755FEEDE70B22A969FFF796F999
:1098800001222B681A71204638BD29692868FFF724
:109890006DFB04460028F6D168692246034600F1B4
:1098A00020019942E8D003F8012BFAE72DE9F84F9F
:1098B00099460023C9F80030044688461546FFF74C
:1098C000B5F9002832D1A379190622D4DA0740F17C
:1098D0008A80D4E90220801A854228BF0546002DDF
:1098E00000F083802068A2684389B2FBF3F103FB98
:1098F0001123002B59D18778013F0F4017F0FF0744
:1099000017D142B92069012809D8A37963F07F03F0
:10991000A37102200AE06169FFF760FBF3E7431CD3
:1099200006D10120A37963F07F03A371BDE8F88F0E
:109930006061D4F800B061695846FFF795F90028D6
:10994000E3D0BBF80A6000EB070AB5FBF6F656B3A6
:109950009BF80230BA199A4288BFDE1BF3B2524616
:1099600041469BF80100FFF7A1F90028D9D12168F1
:109970000B7953B1C86AA0EB0A00864205D94A891F
:10998000303102FB0080FFF711F923685B895E43E9
:10999000A368B0443344A360D9F80030AD1B33440E
:1099A000C9F800309BE7C4F818A02068A26846896F
:1099B000A169B2FBF6F306FB1323F61AAE4228BFE9
:1099C0002E46FFF7D3FA0028ABD12168A0684A8958
:1099D000B0FBF2F302FB1303303332461944404626
:1099E000FFF7E4F8D4E70720A0E728469EE710B584
:1099F000044604202169C1B12068FFF7B7FA88B98D
:109A000062691378A3B1E52B06D02E2B04D0D37A4C
:109A10001B0701D4002010BD00212046FFF780FD68
:109A20000028E7D000232361F5E70028F2D0F9E70A
:109A30000420F7E77FB504460D46FFF7F7F8064622
:109A400020B92DB901462046FFF742FB04B070BD96
:109A500001ABA3612046FFF7CAFF04280DD12661A0
:109A600029462046FFF7ACF800212046FFF758FDB5
:109A7000042804BF00202061E8E70028F0D0E5E7D3
:109A800010B5C1880446FFF723FB50B9216920684F
:109A9000FFF76CFA28B9E52263691A70012223687E
:109AA0001A7110BD2DE9F34702AB43F8040D884647
:109AB000184611461446FFF735F9054638B92468AB
:109AC000A7692369BA1E934205D8C8F80030284612
:109AD00002B0BDE8F08794F80090B9F1010F19D1F8
:109AE0000227064639462046FFF778FA431C39D04C
:109AF000012839D000B90136A3690137BB42F1D83A
:109B0000B9F1030F08BF0123266108BF6371C8F8CC
:109B10000060DCE7034602460646216A4AB9204651
:109B200001F1010AFFF722FA00BB5146628904F1F4
:109B300030035878B9F1020F4FEA002093F800C0C3
:109B400008D150EA0C0008BF01360233023A013F47
:109B5000E4D1D5E71868043A30F0704008BF013608
:109B60000433F4E70125CBE70225C9E70546C7E73B
:109B70002DE9F0478CB0019117460646002800F009
:109B80008180002305A9036001A8FFF7CBF80546F3
:109B9000002873D102AB019905A80B93FFF749FD8B
:109BA0000A9C10B9002C08BF062017F01C0F07F004
:109BB0001F0842D0C8B3042802D105A8FFF745FE0C
:109BC00048F0080878BB0A9C18F0080F3ED0A02384
:109BD000A3736C23E3732123002723742823DDF868
:109BE00014906374E77227776777A777E77799F818
:109BF00000002146FFF72AF80123A776E7762775AC
:109C0000677589F80430074600B301464846D9F81D
:109C10002CA0FFF715FC30B90598013FC7605146ED
:109C2000FFF7A4F990B1054628E0E37A13F0110F8D
:109C30002CD17807C8D5082520E00028F3D1E37A95
:109C4000D90621D4BA0701D5DB071FD4059F18F028
:109C5000080FFB6A18BF48F02008C6E9073486F8E9
:109C6000068038782146FEF7F1FF3061E3693760FE
:109C7000F3600023B360B361FB88B38028460CB067
:109C8000BDE8F0870925F9E70425F7E70725F5E79B
:109C90002DE9F84F9B460023CBF800300446894657
:109CA0001746FEF7C3FF002839D1A379190628D437
:109CB0009A0740F1B880E368DF4280F0A980A2688B
:109CC000002F00F0A58020684389B2FBF3F103FB6D
:109CD0001123002B7AD18578013D0D4015F0FF0549
:109CE00020D182B9216931B9FFF7D7FA0146206145
:109CF000002900F08D8001290AD1A37963F07F0348
:109D0000A37102200BE06169FFF7C7FA0146EFE794
:109D10004B1C06D10120A37963F07F03A371BDE83A
:109D2000F88F61612068A369C26A9A4204D1002158
:109D3000FFF71CF90028EDD1D4F800A06169504666
:109D4000FEF792FF0028D8D0BAF80A6000EB0508A9
:109D5000B7FBF6F65EB39AF80230AA199A4288BFAA
:109D60005E1BF3B2424649469AF80100FFF7E2F85B
:109D700005460028CED12068C16AA1EB08018E42B9
:109D800007D94289303002FB0191FEF70FFF2368AB
:109D90001D7123685B895E43A368B1443344A360AB
:109DA000DBF80030BF1B3344CBF8003087E7D4E941
:109DB00002239A4208D331465046FFF7D7F80028CD
:109DC000A8D12368C3F82C80C4F818802068A26842
:109DD0004689A169B2FBF6F306FB1323F61ABE42CD
:109DE00028BF3E46FFF7C2F8002893D12068A1683B
:109DF0004289B1FBF2F302FB1313303332461844AD
:109E00004946FEF7D3FE4FF0010223681A71C3E7FB
:109E1000D4E90232934288BFE360A379002043F083
:109E20002003A3717BE7072079E710B500210446E2
:109E3000FFF79CF8034600283FD12378032B38D145
:109E40006379B3B304F130010B46E06204F50C72A0
:109E5000934202D003F8010BFAE74AF65523A4F81F
:109E60002E32174B6078236303F1FF5303F5005341
:109E70002033C4F8143223691A1284F8183284F893
:109E800019221A0C1B0E84F81B32E36884F81A227C
:109E90001A1284F81C3284F81D221A0C1B0E84F846
:109EA0001E2284F81F3262690123FFF743F8002362
:109EB00063716378003318BF0123184610BD00BFDB
:109EC0005252614110B50446FFF7AFFF2046BDE88E
:109ED00010400121FFF74AB870B594B0019006A96F
:109EE00001A8FEF71FFF0446E8B903AB019906A8D5
:109EF0000C93FFF79EFB0446A8B90B9EB6B1F37A0C
:109F000013F0010F18BF0724069B31461878FEF79F
:109F10009DFE05463CB9F37ADB0609D406A8FFF797
:109F2000AFFD0446D8B1204614B070BD0624EBE75F
:109F3000012822D91C2206A90DA8FEF737FE02210E
:109F40000DA80F95FFF7C4F804460028EBD10DA823
:109F5000FFF74DFD044690B10428E4D1DEE725B9B2
:109F60000698FFF762FF0446DDE729460698FFF7EB
:109F700067FA04460028D6D1F2E70224D3E7072483
:109F8000D1E730B58DB001900D4601A805A9144662
:109F9000FEF7C8FEA0B902AB019905A80B93FFF725
:109FA00048FB68B90A9A6AB1D37A05985D402C409B
:109FB00004F027045C400123D4720371FFF735FFDE
:109FC0000DB030BD0620FBE710B58CB001900C46FB
:109FD00001A805A9FEF7A6FEB8B902AB019905A82C
:109FE0000B93FFF726FB80B90A9B83B1E2880598A3
:109FF0009A75E2881212DA75A2881A76A28812126D
:10A000005A7601230371FFF710FF0CB010BD062034
:10A01000FBE730B59BB001900C4601A80CA9FEF7F8
:10A0200081FE002869D10C9B019913930CA803AB06
:10A030001293FFF7FEFA00285FD1119900295ED034
:10A0400015220B3106A8FEF7B1FD0CA913A81C229E
:10A05000FEF7ACFD214613A8FFF7EBFA002850D01D
:10A0600004284AD113A8FFF7F0FB002845D1189D1A
:10A0700013220DF11A0105F10D00FEF797FD9DF871
:10A0800018300C9C43F02003EB72012323710E9ACD
:10A09000159B9A422AD0EB7ADB0627D529462078F1
:10A0A000FEF7D4FD01462046FEF7DEFD014650B323
:10A0B0002046FEF75BFF00BB0C9A92F851302E2B26
:10A0C00014D11178159B032903D1516A994208BF15
:10A0D0000023191282F86A301B0C82F864301B12BC
:10A0E00082F86530012382F86B1013710CA8FFF71A
:10A0F000C7FC10B90C98FFF798FE1BB030BD0420C8
:10A10000FBE70820F9E70220F7E710B50446FEF761
:10A110008DFD002833D1A3799B0630D5E1692068F5
:10A12000FEF724FF014650BB236ADA7A42F0200290
:10A13000DA72E2681A77E26812125A77E2899A773D
:10A14000E27BDA77226999749A761012120C1A75EA
:10A1500012125A75A0229A756C22DA7521221A768B
:10A1600028225A760122D876D974A37923F02003C5
:10A17000A37123681A712068BDE8104055E610BD30
:10A1800010B50446FFF7C1FF00B9206010BD2DE9EE
:10A19000F04F8FB0039007A903A8FEF7C3FD044654
:10A1A0000646002840F09E8004AB039907A80D9353
:10A1B000FFF73FFA0446002800F09C80042840F096
:10A1C000918031460798FFF768F80546002800F0AF
:10A1D0008480012800F08A80431C00F08980314689
:10A1E0000798FEF7C3FE0446002877D1079F29464B
:10A1F0003846FEF739FD07F13008034641467A89B3
:10A2000012F1FF3208D24246202107F13B00824280
:10A2100005D002F8011BFAE701F8014BF0E7102224
:10A2200087F83B20A02287F846206C2287F8472039
:10A2300021222E2487F8482028222E0C5FFA86FB44
:10A240005FFA85F9C5F3072A360A87F8492041469F
:10A25000202207F1500087F8304087F84A9087F8AD
:10A260004BA087F844B087F845600193FEF79EFC49
:10A27000079987F851400878099A0328019B03D170
:10A28000486A904208BF002287F86A201012120C18
:10A2900087F86420121287F86520002287F86B0087
:10A2A0008F78029247B307985A1CC3624FF001039C
:10A2B000002103710192FEF759FE044670B9414630
:10A2C000079B029A5B8913F1FF3302D301F8012B3C
:10A2D000F9E7013FFFB2019BE3E70724294607980E
:10A2E000FFF7AEF820460FB0BDE8F08F0224F5E787
:10A2F0000124F3E70824F5E707A8FFF7A6FA0446C8
:10A300000028EBD110220C9B0798DA72A0229A75D4
:10A310006C22DA7521221A76282283F81A905A764E
:10A3200083F81BA083F814B05E7501230371FFF757
:10A330007CFD0446D6E770B959B1012903D14FF429
:10A340000063136070478B1E012B04D84FF48053B9
:10A35000F7E708467047042070470148704700BF80
:10A36000A06C212805289ABF014B185C0220704779
:10A37000D726010800487047C01C0020044B00216C
:10A380001A6802B11170034A002011701A607047F8
:10A39000480C0020900C0020022908B50A4608D17C
:10A3A0000A2201460648FFF7E3FB052804D90220EC
:10A3B00008BD0129FBD1F4E7024B185CF8E700BFA8
:10A3C000500C0020D726010813B54FF480520146E7
:10A3D00001AB0848FFF76AFA044618B9064B185D46
:10A3E00002B010BD0146054800F098F8052CF5D9DB
:10A3F0000220F5E7500C0020D72601080E2701089F
:10A4000007B5014601AB4FF480520948FFF740FC05
:10A41000019BB3F5805F06D1052806D8054B185C73
:10A4200003B05DF804FB0520FAE70220F8E700BF5F
:10A43000500C0020D726010808B5431C01460AD05D
:10A440000848FEF776FF18B1052808D9022008BD94
:10A450000448FFF721F80348FFF792FEF4E7024BA8
:10A46000185CF4E7500C0020D726010808B5044812
:10A47000FFF786FE052896BF024B0220185C08BD38
:10A48000500C0020D726010808B501460448FFF704
:10A490008FF9052896BF034B0220185C08BD00BF4A
:10A4A000740C0020D726010810B504460146074861
:10A4B000FFF7C0FA637A23B1052804D8044B185C6F
:10A4C00010BD0320FCE70220FAE700BF740C002057
:10A4D000D7260108014B5869704700BF480C00207F
:10A4E00008B501460448FEF724FF052896BF034B34
:10A4F0000220185C08BD00BF500C0020D7260108C0
:10A5000008B5FDF769FF30B12B38C0B213288EBFF4
:10A510000020014B185C08BD222701080FB430B59C
:10A52000A5B0289900250B7804AC242B01BF00228C
:10A53000174B0131C3E9002202A829AA0294039211
:10A5400000F089FA0294124C029B1B78DBB10A2BB3
:10A55000616803D02068B0F59C7F09DD0E31E029E9
:10A56000C8BF294625606160029B01330293EBE777
:10A5700000934FF6FF724FF43043FEF753F8236811
:10A5800018442060F0E725B0BDE8304004B07047C3
:10A59000C02C00200FB410B592B014AA52F8041BBE
:10A5A00002AC6846CDE9004200F055FA204607F0BB
:10A5B0006FF8372804D9064A15210648FDF7B8FD7B
:10A5C0002046FFF7ABFF12B0BDE8104004B0704763
:10A5D00036270108522701080FB430B593B016AAE8
:10A5E00052F8041B02AD6846CDE9005200F033FA80
:10A5F000284607F04DF8372804D9124A232112487B
:10A60000FDF796FD284607F043F804460F4807F08B
:10A610003FF82044023040280BD90C48FFF77EFF5A
:10A620000B490A4806F0D6FF0A4A29210648FDF7D9
:10A630007FFD2946054806F0CFFE13B0BDE8304047
:10A6400004B070473627010852270108C82C0020A3
:10A6500088180108B730010810B5074C237A53B1A8
:10A6600004F10800FFF75AFF04F108000349BDE8B0
:10A67000104006F0AFBF10BDC02C002088180108A4
:10A6800010B5044607F004F83E2804D9054A0D2108
:10A690000548FDF74DFD2146BDE81040034806F092
:10A6A00099BF00BF6927010898270108082D0020DD
:10A6B00000487047082D002008B50A490A4B086871
:10A6C0001A6890420CD018464FF4987206F0C4FDF8
:10A6D000BDE8084000F100414FF0005005F0DAB845
:10A6E00008BD00BF008000080000002010B504462F
:10A6F000FFF7E2FF014B53F8240010BD00000020DB
:10A7000038B504460D46FFF7D7FF024B43F82450F7
:10A7100038BD00BF0000002080F310887047EFF3C1
:10A72000108070474FF48010114A1249536843F467
:10A730003B2343F488635360536823F4892323F451
:10A740006C735360C1F8800002F58432D36943F41E
:10A750000003D3610122084B1B681A6400221A65AA
:10A76000DA645A644FF480621A640860704700BF6C
:10A770000008014000E100E03401002006F01EB8AE
:10A780002DE9F0470546DDE9089810460F460A997D
:10A7900014461E4606F0D0F800210E4A02F11C00B5
:10A7A00059F8213042F8213058F8213040F8213052
:10A7B00001310729F4D13B881387074B074A1D60F5
:10A7C00002232B72064B16601C602368BDE8F0471D
:10A7D000184700BF482D0020942D0020882D002010
:10A7E000902D0020012001F030B9002001F02DB99A
:10A7F0001FB5FFF7FAFF084B084A0293084B0949B7
:10A800000193094B09480093094BFFF7B9FF05B0C5
:10A810005DF804EB05F046BA70410020AC02002060
:10A82000540300203803002070030020544100200E
:10A83000140300201FB5FFF7D8FF074B074A029308
:10A84000074B08490193084B08480093084BFFF752
:10A8500097FF05B05DF804FB100200207001002096
:10A8600030020020F40100204C020020F42D0020D2
:10A87000D001002010B5044605F0B2FEA0B2BDE83C
:10A88000104002F0F1BE00BF20B1036819700368E8
:10A89000013303607047002A2DE9F04106460C465B
:10A8A0001FDD0D1B11F8010B0028FAD1AA42CCBF05
:10A8B000521B024613F0020F0CBF20273027DB0784
:10A8C00017D41546002D0EDC22EAE273D21A1D1BA6
:10A8D00005EB040814F8011B69B13046FFF7D4FFFB
:10A8E000F6E72027EBE739463046FFF7CDFF013D7D
:10A8F000E8E70023EBE71446002C05DD3946304637
:10A90000FFF7C2FF013CF7E7002AACBF08EB0200EB
:10A9100008F10000BDE8F0812DE9F0430C4685B058
:10A92000804600212046154606F048FC00B32D2342
:10A9300004F100448DF804300DF10507204606F0BF
:10A9400065FC01230A2101FB03F2824212DD0A2188
:10A95000002B07F101060FDD90FBF3F202F1300747
:10A9600006F8017C03FB1200374693FBF1F3EFE797
:10A9700001AFE3E71346E6E72E23002D3B7008BF47
:10A9800003253746DFF84490BB1B9D4212DD20466D
:10A9900006F03CFC06F020FA0146204606F066F977
:10A9A000494606F06DFA044606F030FC303007F8F0
:10A9B000010BE9E7002225EAE5757255202301A97C
:10A9C0004046FFF768FF05B0BDE8F0830000204176
:10A9D000F0B585B09446DDE90A2706461C4641B924
:10A9E000302304A921F80C3D3B46FFF754FF05B086
:10A9F000F0BD33B1BCF10A0F16D1002914DA0124DD
:10AA00004942002304AD05F8013D0C9B3A3B69B176
:10AA1000B1FBFCF00CFB10110929C8BFC91830317B
:10AA200005F8011D0146F2E70024EAE73CB16AB1EE
:10AA3000BB070BD52D213046FFF726FF013A3B46D9
:10AA400029463046FFF727FF2044D0E72D23013D5C
:10AA50002B700024F3E72DE9F04307460E46144619
:10AA600000254FF00A08DFF8149189B03378002BE5
:10AA70007CD0252B74D17378002B77D0252B06F151
:10AA800001026CD02D2B0ABF01230023B21C1646F5
:10AA900031780132302902D143F00203F7E7002276
:10AAA000304610F8011BA1F1300C5FFA8CFEBEF1AC
:10AAB000090F03D808FB02C20646F1E7732908D143
:10AAC00021680434002908BF49463846FFF7E3FEF1
:10AAD0000DE064290ED161202146CDE9013001232A
:10AAE00000920A22096838460434FFF771FF0544D2
:10AAF0000136BBE766290FD1073424F00703D3E9F9
:10AB00000001059203F1080406F05CF8059A01467D
:10AB10003846FFF701FFEAE7782907D1214661208F
:10AB2000CDE90130009200231022DBE7582902D141
:10AB300021464120F4E7752906D161202146CDE95F
:10AB4000013000920023CCE76329D1D1216804347D
:10AB50008DF81C1000218DF81D1007A9B5E71646C9
:10AB600031783846FFF790FE0135C1E717B1002272
:10AB70003B681A70284609B0BDE8F083AE2701088B
:10AB80000EB40FB505AA52F8041B019001A8039258
:10AB9000FFF761FF04B05DF804EB03B0704700BF3E
:10ABA00010B508228B49044606F0A0FD70B90834A0
:10ABB00023461C4622780133303A092AF9D98649BE
:10ABC000204606F029FCD8B9844810BD07228449E4
:10ABD000204606F08BFD08B90734E9E70B228149CE
:10ABE000204606F083FD08B90B34E1E702227E49D6
:10ABF000204606F07BFD002840F065820234D7E74E
:10AC00007A49204606F008FC08B97948DDE7794919
:10AC1000204606F001FC08B97748D6E77749204678
:10AC200006F0FAFB08B97648CFE77649204606F0E9
:10AC3000F3FB08B97448C8E77449204606F0ECFBFA
:10AC400008B97348C1E77349204606F0E5FB08B927
:10AC50007148BAE77149204606F0DEFB08B9704832
:10AC6000B3E77049204606F0D7FB08B96E48ACE759
:10AC70006E49204606F0D0FB08B96D48A5E76D493E
:10AC8000204606F0C9FB08B96B489EE76B49204691
:10AC900006F0C2FB08B96A4897E76A49204606F001
:10ACA000BBFB08B9684890E76849204606F0B4FB4A
:10ACB00008B9674889E76749204606F0ADFB08B93F
:10ACC000654882E76549204606F0A6FB08B9644856
:10ACD0007BE76449204606F09FFB08B9624874E7A9
:10ACE0006249204606F098FB08B961486DE7614962
:10ACF000204606F091FB08B95F4866E75F492046A9
:10AD000006F08AFB08B95E485FE75E49204606F018
:10AD100083FB08B95C4858E75C49204606F07CFB99
:10AD200008B95B4851E75B49204606F075FB08B956
:10AD300059484AE75949204606F06EFB08B9584879
:10AD400043E75849204606F067FB08B956483CE7F8
:10AD50005649204606F060FB08B9554835E7554985
:10AD6000204606F059FB08B953482EE753492046C0
:10AD700006F052FB08B9524827E75249204606F030
:10AD80004BFB08B9504820E75049204606F044FBE9
:10AD900008B94F4819E74F49204606F03DFB08B96E
:10ADA0004D4812E74D49204606F036FB08B94C489D
:10ADB0000BE74C49204606F02FFB08B94A4804E748
:10ADC0004A49204606F028FB002840F09380484876
:10ADD000FBE600BF8B280108AB28010881AB000807
:10ADE000942801089C280108A8280108B92801080E
:10ADF00059090108CF280108110B0108E0280108B2
:10AE0000B1A60008F228010881A60008052901085A
:10AE1000EDA600083429010801A7000868290108E7
:10AE200081A7000890290108F1A70008A6290108B8
:10AE300035A80008BE290108E5A70008CB290108AC
:10AE4000EBA70008D929010875A80008F129010815
:10AE50001DA50008002A0108D5A40008132A01082E
:10AE600075A300082A2A01087DA30008352A0108D5
:10AE700099A30008432A0108C9A300084F2A010822
:10AE8000E1A400085A2A010839A40008662A01082A
:10AE90006DA40008722A010801A400087F2A010895
:10AEA00089A400088E2A0108A9A40008AC2A010878
:10AEB00001A50008B92A01082D880008CB2A01083D
:10AEC0000D880008E52A010829880008F82A0108E9
:10AED000678500080A2B010831850008182B010836
:10AEE00033880008292B010815850008352B010837
:10AEF000FD8600087549204606F08EFA08B97448A8
:10AF000063E67449204606F087FA08B972485CE6A1
:10AF10007249204606F080FA08B9714855E6714931
:10AF2000204606F079FA08B96F484EE66F49204688
:10AF300006F072FA08B96E4847E66E49204606F0F8
:10AF40006BFA08B96C4840E66C49204606F064FA92
:10AF500008B96B4839E66B49204606F05DFA08B936
:10AF6000694832E66949204606F056FA08B9684849
:10AF70002BE66849204606F04FFA08B9664824E6F1
:10AF80006649204606F048FA08B965481DE6654955
:10AF9000204606F041FA08B9634816E663492046A0
:10AFA00006F03AFA08B962480FE66249204606F010
:10AFB00033FA08B9604808E66049204606F02CFAE2
:10AFC00008B95F4801E65F49204606F025FA08B94E
:10AFD0005D48FAE55D49204606F01EFA08B95C486E
:10AFE000F3E55C49204606F017FA08B95A48ECE543
:10AFF0005A49204606F010FA08B95948E5E559497A
:10B00000204606F009FA08B95748DEE557492046B8
:10B0100006F002FA08B95648D7E55649204606F028
:10B02000FBF908B95448D0E55449204606F0F4F934
:10B0300008B95348C9E55349204606F0EDF908B967
:10B040005148C2E55149204606F0E6F908B9504892
:10B05000BBE55049204606F0DFF908B94E48B4E593
:10B060004E49204606F0D8F908B94D48ADE54D499E
:10B07000204606F0D1F908B94B48A6E54B492046D1
:10B0800006F0CAF908B94A489FE54A49204606F041
:10B09000C3F908B9484898E54849204606F0BCF984
:10B0A00008B9474891E54749204606F0B5F908B97F
:10B0B00045488AE54549204606F0AEF9002844484F
:10B0C00018BF002081E500207FE500BF472B010865
:10B0D00041870008582B0108E7880008692B010800
:10B0E0009F8800087E2B0108F5850008962B010833
:10B0F000DF850008A72B010813860008B72B01087D
:10B1000031880008C72B010885850008DF2B01085E
:10B11000EF870008F72B0108658700080B2C010852
:10B12000FB840008162C0108E5840008242C010883
:10B13000F5840008322C0108E9840008402C01083D
:10B140002DEF00085C2C0108EDEE00087A2C0108B8
:10B15000D9EE0008972C0108C5EE0008B62C0108AE
:10B160003DF00008CF2C0108B1F00008EB2C0108DD
:10B170002DF00008092D010891F00008192D010893
:10B1800061F000082A2D0108F1F000083B2D0108AC
:10B19000BBF000085A2D01082DF100086C2D0108A4
:10B1A000E1F00008822D010831EF0008A52D01080B
:10B1B000618B0008BB2D0108718B0008D22D01089E
:10B1C000958B0008ED2D0108578B0008072E01080C
:10B1D0000D8500082DE9FF411A4D1B4C471E17F83D
:10B1E000016F66B32B785BB14BF20823002000930C
:10B1F0004FF4A072F023E02128702060FDF798F949
:10B200000A2E02D101232B70E9E74FF0000804ABAE
:10B21000ADF80C8003F8046D00934FF6FF724BF20B
:10B220000823E0212068FDF78BFA23681844B0F565
:10B23000A07F01DA2060D2E7C4F80080E2E704B022
:10B24000BDE8F08138010020842D0020FFF7C2BF47
:10B25000F7B50D4600240969074600F08BFBEE6840
:10B260006B69A3420EDD0DF10701384600F074FB57
:10B27000A25D9DF807309A4202D0002003B0F0BDD5
:10B280000134EDE70120F9E70023CA6849699942D2
:10B2900003DD985C18B90133F9E7012070470020FD
:10B2A0007047F7B50D4600240969074600F062FBB8
:10B2B000EE686B69A34209DD0DF10701384600F025
:10B2C0004BFB9DF80730A3550134F2E703B0F0BD06
:10B2D0000023184610B5CA684C699C4202DD985498
:10B2E0000133F9E710BD2DE9F04F95B04F69CE68F5
:10B2F00009698046002500F03DFBFDF731FCDFF8D1
:10B3000054A0DFF854B00DF11009BD421CDA7C1BCB
:10B31000402CA8BF40240022D8F8003002929B683D
:10B3200001A9CDF804900394404698472246494627
:10B330003046FDF72FFC20B952467A215846FCF7DB
:10B34000F7FE25442644E0E7FDF712FC15B0BDE802
:10B35000F08F00BF1D2E0108372E01082DE9F043A4
:10B3600091B04F69CE6840220021684605F0EAFF9F
:10B370000025FDF7F5FBDFF83880DFF83890BD4297
:10B3800011DA7C1B402CA8BF402469462246304677
:10B39000FDF700FC20B9424691214846FCF7C8FE63
:10B3A00025442644EBE7FDF7E3FB11B0BDE8F0834D
:10B3B0001D2E0108372E010830B591B00C46054608
:10B3C000FFF746FFE368626940B113496846FFF73B
:10B3D000D7FB6846FFF7FEFE11B030BD0F49684647
:10B3E000FFF7CEFB6846FFF7F5FEE3681B0E202B48
:10B3F00004D121462846FFF754FFEDE7082B04D17E
:10B4000021462846FFF76FFFE6E7054AB1210548C8
:10B41000FCF78EFEE0E700BF4D2E0108682E010804
:10B42000832E0108372E010830B591B00C46054631
:10B43000FFF72AFF6269E36840B113496846FFF7E6
:10B440009FFB6846FFF7C6FE11B030BD0F49684646
:10B45000FFF796FB6846FFF7BDFEE3681B0E202B47
:10B4600004D121462846FFF733FFEDE7082B04D12E
:10B4700021462846FFF772FFE6E7054ACB2105483B
:10B48000FCF756FEE0E700BF4D2E0108A52E01088F
:10B49000832E0108372E01082DE9F04FADF5097D07
:10B4A0000446FFF73CF9A8492246029028A8FFF776
:10B4B00067FB28A8FFF78EFEA44B0793FEF75AFF01
:10B4C00000230890012120460993FEF765FF00281C
:10B4D00000F08B8022469E4928A8FFF751FB28A840
:10B4E000FFF778FE3423002628250DF16C0B68A9A0
:10B4F00007A86A93CDF8A0B1699600F0F3F9DBF8DC
:10B500002030BBF8321007A805FB013100F032FAF9
:10B5100011AC68A907A868946A95699600F0E2F9E9
:10B5200023698C4D0193D4F8148038AC0FCD0FC42F
:10B530000FCD0FC40FCD0FC495E80F0084E80F00A6
:10B5400033464FF0FF3248A858A940F8232041F86D
:10B5500023200133102BF8D10026DFF82092DFF8EA
:10B5600020A2BBF83030B34240F394802824DBF8AB
:10B57000201007A804FB061100F0FCF96A940024CF
:10B5800068AD11AF294607A86897699400F0AAF939
:10B59000396807A8A8EB01030393019B8DF8AE411E
:10B5A000194400F0E7F9039B0DA90E2BA8BF0E2349
:10B5B00007A80D95CDE90E4300F094F90522494600
:10B5C000284606F093F8B8B963492A4628A8FFF739
:10B5D000D7FA28A8FFF7FEFD394607A8FFF7ECFECB
:10B5E0005E48FFF7F7FD0136BBE70898FEF7ECFE73
:10B5F00000283FF477AF6DE705225146284606F054
:10B6000075F80028E0D007225549284606F06EF864
:10B610000028D9D004225349284606F067F860B9BB
:10B620002A464D4928A8FFF7ABFA28A8FFF7D2FD14
:10B63000394607A8FFF7F8FED2E738AF57F82410CD
:10B64000284605F0E9FEB8B9D4B92A46464928A8E3
:10B65000FFF796FA28A8FFF7BDFD444A40F26111B2
:10B660004348FCF765FD00240298FFF755F8204693
:10B670000DF5097DBDE8F08F0134102CDED1E4E733
:10B6800048AB43F8246088AB03EB8404159B44F873
:10B69000C03CA8E700254FF0FF3848AB53F82530F1
:10B6A000591C33D02826DBF8201007A806FB03110D
:10B6B00000F060F900236A9668AE314611AC07A825
:10B6C0006993689400F00EF938AB53F825202249AD
:10B6D00028A8FFF755FA28A8FFF77CFD6B1E0B2B57
:10B6E00011D8DFE803F00606220C0C0C2D104F10C9
:10B6F00010C3204A40F27B111D48FCF719FD21467A
:10B7000007A8FFF759FE1548FFF764FD0135102D16
:10B71000C3D1DBF81820184928A8FFF731FA28A868
:10B72000FFF758FDDBF818409EE7124A4FF4C4714A
:10B730000F48FCF7FDFC214607A8FFF775FEE2E77E
:10B74000D4F81080DFE700BFBF2E0108C027010832
:10B75000D92E0108CC270108F12E0108871801080D
:10B76000FB2E0108032F0108082F0108222F0108D2
:10B77000372E0108B7300108DD2F0108EB2E010834
:10B78000F52E01084D48FFF725FDDDF880A1BAF13F
:10B79000FF3F05D14A4A4FF4CC714A48FCF7C8FC38
:10B7A0005F9B013305D1484A40F299114548FCF7A7
:10B7B000BFFC00276369DFF80C91DB080193019B54
:10B7C0009F42A0DA216907A801EBC70100F0D2F877
:10B7D00008226A92002205AB314607A868930393BA
:10B7E000699200F07FF8039B1B79162B05D0374A2E
:10B7F0004FF4D2714846FCF79BFC069907A8090A4A
:10B800000AEB011100F0B6F80DAB689310236A93B0
:10B810000023314607A8699300F064F8B8F1000FDF
:10B8200005DA2B4A4FF4D5714846FCF781FC0D9997
:10B8300007A8414400F09EF8002380220AA907A827
:10B84000CDE90B320A9600F04DF83046FFF7A8F923
:10B85000034638B903901F4A40F2BD114846FCF731
:10B8600067FC039B059A01371360A8E71A48FFF7A6
:10B87000B1FC67692169002407A800F07BF8234622
:10B88000DFF85C90BF080DF1340ABC4212DA0422E2
:10B89000314607A8699301936A92CDF8A0A100F000
:10B8A00021F8DAF8002090474846FFF793FC01346E
:10B8B000019BEAE70948FFF78DFC24E7322F0108D6
:10B8C000462F0108372E0108682F01088A2F01082A
:10B8D000B02F0108C82F0108D32F010887180108CD
:10B8E000442F01082DE9F84F04460E460025DFF8E5
:10B8F0005C80DFF85C90DFF85CA0B368AB4220DDD1
:10B90000D4E901B77B1CA360B3689D4204DB4246C7
:10B9100059214846FCF70CFC33681BF807205A55A0
:10B92000A368B3F5805F0AD100236068A360FEF7C7
:10B930004BFD20B1524653210348FCF7F9FB01357A
:10B94000DBE72046BDE8F88F6A2801080C280108CB
:10B9500030280108502801081FB500220123CDE935
:10B960000223036801919B6801A9984705B05DF81F
:10B9700004FB000010B50446C1F30B00A060081AD8
:10B98000FEF7AEFD6068FEF71FFD30B1BDE8104068
:10B99000024A60210248FCF7CBBB10BD50280108C9
:10B9A0006A28010810B50C4601460B20F4F7A8FBE5
:10B9B0002146BDE810400C20F4F7A2BB01460D2043
:10B9C000F4F79EBB08B500210E20F4F799FB80B276
:10B9D00008BD00211520F4F793BB01211520F4F7D1
:10B9E0008FBB38B51C460D46013A42EA004109209A
:10B9F000F4F786FB611E41EA05410A20BDE83840A4
:10BA0000F4F77EBB08B5014648B101210520F4F7E3
:10BA100077FBBDE8084064210520F4F771BB0520E1
:10BA2000BDE80840F4F76CBB38B51C460D46013A3A
:10BA300042EA00410920F4F763FB611E41EA054137
:10BA40000A20BDE83840F4F75BBB18B10249122068
:10BA5000F4F756BB704700BF0000FFFF10B5184C4D
:10BA600004202146F4F74CFB21460620F4F748FB5E
:10BA700014494FF0006003F00DFF4FF47A72124B3F
:10BA8000F0211B680520B3FBF2F3104A013B536021
:10BA90000F4B83F823100023936007232146136084
:10BAA000F4F72EFB32210520F4F72AFB214615205E
:10BAB000F4F726FB2146BDE810401120F4F720BB27
:10BAC0000000FFFF008000005001002010E000E0B7
:10BAD00000ED00E008B503490620F4F711FBC04370
:10BAE00008BD00BF0000FCFF034A136803F03803E1
:10BAF00018431060704700BF00200240044B1A68D2
:10BB000022F008021A601A6810431860704700BFDC
:10BB100000200240044B1A6822F010021A601A68D2
:10BB200010431860704700BF00200240034B044AD6
:10BB30005A6002F188325A60704700BF002002400C
:10BB400023016745FFF7F2BF024A136943F0800300
:10BB50001361704700200240FFF7F6BF014BD86920
:10BB60008008704700200240014B186A704700BFF0
:10BB700000200240024BD869C0F34000704700BF6C
:10BB800000200240024B1868C0F34010704700BF0D
:10BB900000200240044B1A6911B11043186170472C
:10BBA00022EA0000FAE700BF002002400128064B0D
:10BBB00003D1D86900F001007047DB68034214BF6D
:10BBC00001200020704700BF00200240014BD860D8
:10BBD000704700BF00200240084BDA68D10709D443
:10BBE000DA68520708D4DB6813F0100F14BF032083
:10BBF0000420704701207047022070470020024057
:10BC0000084BDA68D10709D4DA68520708D4DB6830
:10BC100013F0100F14BF0320042070470120704759
:10BC2000022070470020024010B50446FFF7E8FFED
:10BC3000012806D10CB9052010BDFFF7E1FF013C3A
:10BC4000F6E7002C08BF0520F6E738B505464FF4A7
:10BC50003020FFF7E9FF042813D10A4C4FF43020BD
:10BC6000236943F0020323616561236943F04003C4
:10BC70002361FFF7D9FF236923F00203DB04DB0C08
:10BC8000236138BD0020024010B54FF43020FFF78B
:10BC9000CBFF042812D10A4C4FF43020236943F023
:10BCA00004032361236943F040032361FFF7BCFFD2
:10BCB000236923F00403DB04DB0C236110BD00BF08
:10BCC00000200240FFF7E0BF38B5FFF753FF002820
:10BCD0004FF430200CBFA5250025FFF7A5FF042851
:10BCE0002BD1164C164B4FF43020A36003F1883350
:10BCF000A360236943F020032361236943F04003D9
:10BD00002361FFF791FF04280FD123694FF40050FE
:10BD100023F02003DB04DB0C2361236943F01003D1
:10BD20002361084B1D80FFF77FFF052805D023699D
:10BD300023F01003DB04DB0C236138BD002002403C
:10BD40002301674500F8FF1F002373B506464FF433
:10BD500000500D460193FFF767FF04281BD10F4CDD
:10BD60004FF40050236943F001032361ABB23380E9
:10BD7000FFF75AFF042808D102360196019B2D0CCB
:10BD80001D804FF40050FFF74FFF236923F001039C
:10BD9000DB04DB0C236102B070BD00BF0020024059
:10BDA00070B505464FF400500E46FFF73DFF0428DE
:10BDB0000FD1084C4FF40050236943F00103236175
:10BDC0002E80FFF731FF236923F00103DB04DB0C36
:10BDD000236170BD0020024070B506464FF400504C
:10BDE0000D46FFF721FF042817D10C4C0C4BADB2C8
:10BDF000A36003F18833A36023694FF4005043F03C
:10BE0000100323613580FFF70FFF052805D0236954
:10BE100023F01003DB04DB0C236170BD0020024023
:10BE20002301674510B504464FF40050FFF7FCFEB0
:10BE300004283BD1E443224B224AE1B29A6002F14A
:10BE400088329A601A69FF2942F010021A6123D1E0
:10BE5000C4F30723FF2B07D01B4A4FF40050538134
:10BE6000FFF7E2FE04281FD1C4F30743FF2B07D0DE
:10BE7000154A4FF400509381FFF7D6FE042813D1E2
:10BE8000240EFF2C13D104200D4A136923F0100354
:10BE9000DB04DB0C136109E00B4B4FF400501981FC
:10BEA000FFF7C2FE0428D3D00528EDD110BD064B04
:10BEB000A4B2DC814FF40050FFF7B6FEF4E700BFF8
:10BEC000002002402301674500F8FF1F38B50546F2
:10BED0004FF43020FFF7A8FE04282ED11D4C1E4B36
:10BEE0004FF43020A36003F18833A360236943F04B
:10BEF00020032361236943F040032361FFF794FE8D
:10BF000004281DD1236923F02003DB04DB0C23610B
:10BF1000236943F010032361104B7DB100221A8086
:10BF20004FF43020FFF780FE052806D0094A136938
:10BF300023F01003DB04DB0C136138BDA522EEE710
:10BF40000528FAD0236923F02003DB04DB0C2361EE
:10BF5000F3E700BF002002402301674500F8FF1F00
:10BF6000F8B5134C134B0746A36003F18833A36065
:10BF70004FF400500E461546FFF756FE042815D123
:10BF8000236947F0F80743F0100323613E430A4B4F
:10BF900035435D804FF40050FFF746FE052805D07D
:10BFA000236923F01003DB04DB0C2361F8BD00BF21
:10BFB000002002402301674500F8FF1FFFF734BE51
:10BFC00008B5154B98420BD101214FF4805000F079
:10BFD0006FFABDE8084000214FF4805000F068BAC5
:10BFE0000E4B98420BD101214FF4804000F06CFAC7
:10BFF00000214FF48040BDE8084000F065BA084BCE
:10C00000984208D101214FF4004000F05DFA002170
:10C010004FF40040EFE708BD003001400038004019
:10C02000003C0040038810B503F441524C880B8853
:10C0300023438C882343CC8823430C8923434C8996
:10C0400023438C892343CC89234313430380838B6D
:10C0500023F400631B041B0C83830B8A038210BD33
:10C06000838BF0B523F47B6323F00F0383830223D8
:10C0700003848B68868B022B87B005460C46B6B2CC
:10C0800039D08B8801A8002B14BF0227012700F0AC
:10C09000ABF9E3880199B3F5007F18BF7B014FF03E
:10C0A0000A0214BFB1FBF3F30B0A5343A0680A2240
:10C0B000B3FBF0F305339BB2B3FBF2F303F00102E1
:10C0C0001202C3F34F03991E89B2FE2924BF002236
:10C0D00002231343E28813439BB262882B84238894
:10C0E0001343A28843F400631343A28913431E43FE
:10C0F000AE8307B0F0BD0022E5E700230380438054
:10C100008380C380038143818381C38107230382AA
:10C11000704700230222C0E90033826083817047A8
:10C12000038819B143F040030380704723F04003B4
:10C130001B041B0CF8E7838B19B143F480638383E2
:10C14000704723F480631B041B0CF8E70B090121E3
:10C15000994089B2838812B119438180704723EADC
:10C160000101FAE7838812B119438180704723EAFD
:10C170000101FAE781817047808970474FF6FF63BC
:10C180009942038805BF23F480731B0443F4807332
:10C190001B0C03807047838819B143F0040383802C
:10C1A000704723F004031B041B0CF8E7038823F4F7
:10C1B00000631B041B0C0380038819430180704734
:10C1C000038843F4805303807047038819B143F414
:10C1D00000530380704723F400531B041B0CF8E743
:10C1E000012914BF008B808A80B27047008A704793
:10C1F0000388B1F5804F1BBF23F480431B0443F435
:10C2000080431B0C038070470389194214BF01202F
:10C2100000207047C94389B2018170470123828899
:10C2200010B5048901F00F0003FA00F0204092B22B
:10C2300005D009098B401A4214BF0120002010BD0F
:10C2400001F00F0301219940C94389B20181704770
:10C250000D4B1A6842F001021A6059680B4A0A40F5
:10C260005A601A6822F0847222F480321A601A68C6
:10C2700022F480221A605A6822F4FE025A604FF4B7
:10C280001F029A60704700BF001002400000FFF8D4
:10C290000C4BB0F5803F1A6822F480321A601A689D
:10C2A00022F480221A6003D0B0F5802F05D07047A9
:10C2B0001A6842F480321A6070471A6842F4A02269
:10C2C000F9E700BF00100240034A136823F0F803A7
:10C2D00043EAC0001060704700100240014B186034
:10C2E000704700BF00004242034A536823F47C13A6
:10C2F000194301435160704700100240014B186020
:10C30000704700BF60004242034A536823F00303B2
:10C3100018435060704700BF00100240024B58683D
:10C3200000F00C00704700BF00100240034A536841
:10C3300023F0F00318435060704700BF0010024024
:10C34000034A536823F4E06318435060704700BF0A
:10C3500000100240034A536823F4605343EAC000CC
:10C360005060704700100240044B1A7811B110431E
:10C370001870704722EA0000FAE700BF0910024077
:10C38000014B1860704700BFD8004242034A53680F
:10C3900023F4404318435060704700BF0010024030
:10C3A0000022064B01281A701A7002D0042802D00D
:10C3B00070471870704705221A70704720100240AD
:10C3C000014B1860704700BF80044242024A136A62
:10C3D00018431062704700BF00100240014B186004
:10C3E000704700BF3C0442421B4A10B5536803F03B
:10C3F0000C03082B1FD0194B036053681849C3F373
:10C400000313CC5C0368E34043605468C4F3022424
:10C410000C5D23FA04F484605468C4F3C2240C5DF8
:10C42000E340C3605268C2F3813211440A7CB3FB1B
:10C43000F2F3036110BD53685168C3F38343CC0327
:10C4400003F1020302D407494B43D5E7516889033E
:10C45000F9D40249F8E700BF0010024000127A0048
:10C460003901002000093D00044B5A6911B1104305
:10C470005861704722EA0000FAE700BF001002404E
:10C48000044B9A6911B110439861704722EA000089
:10C49000FAE700BF00100240044BDA6911B1104303
:10C4A000D861704722EA0000FAE700BF001002409E
:10C4B000044BDA6811B11043D860704722EA0000DB
:10C4C000FAE700BF00100240044B1A6911B1104393
:10C4D0001861704722EA0000FAE700BF001002402E
:10C4E000014B1860704700BF40044242014B186086
:10C4F000704700BF4C004242014B1870704700BFAC
:10C50000071002404209012A074B07D11B6800F0BF
:10C510001F0023FA00F000F001007047022A0CBF50
:10C520001B6A5B6AF3E700BF00100240002307B5F7
:10C5300001933120FFF7E6FF019B01330193019B3B
:10C54000B3F5A06F01D00028F3D03120FFF7DAFF58
:10C55000003018BF012003B05DF804FB024A536AA3
:10C5600043F080735362704700100240034B9B6896
:10C57000184214BF01200020704700BF0010024085
:10C58000014B1870704700BF0A10024001F10051C2
:10C59000013201F540515210490002B9704730F89C
:10C5A000023B013A21F8043BF7E7002310B501F103
:10C5B0000051013201F54051521049009A4200D118
:10C5C00010BD51F8234020F813400133F6E7000076
:10C5D000014B1860704700BF405C0040014B186879
:10C5E00080B27047405C0040014B1860704700BF4C
:10C5F000445C0040014B186880B27047445C0040C6
:10C60000014B186880B27047485C0040014B1860CD
:10C61000704700BF4C5C0040014B186880B2704707
:10C620004C5C00404FF6F873014A034013607047BA
:10C63000505C0040014B186880B27047505C00406D
:10C64000800000F1804000F5B84001607047800034
:10C6500000F1804000F5B840006880B2704780006B
:10C6600000F1804000F5B840036823F4EC4323F068
:10C670007003194389B201607047800000F1804067
:10C6800000F5B840006800F4C0607047800000F119
:10C69000804000F5B8400368CA0623F4E04323F065
:10C6A00040039BB248BF83F010038A0648BF83F063
:10C6B000200343F4004343F080030360704780008D
:10C6C00000F1804000F5B8400368CA0423F48043B9
:10C6D00023F070039BB248BF83F480538A0448BFA1
:10C6E00083F4005343F4004343F080030360704736
:10C6F000800000F1804000F5B8400129036805D1B1
:10C7000023F480531B041B0C036070470229FCD1E7
:10C7100023F01003F6E7800000F1804000F5B840F8
:10C72000006800F030007047800000F1804000F5A4
:10C73000B840006800F440507047800000F180402D
:10C7400000F5B840036823F4E04323F040039BB2B4
:10C7500083F0300343F4004343F0800303607047E9
:10C76000800000F1804000F5B840036823F4804366
:10C7700023F070039BB283F4405343F4004343F02F
:10C7800080030360704740F60F63800000F1804033
:10C7900000F5B8400268134043F4014343F08003BE
:10C7A00003607047800000F1804000F5B8400368E6
:10C7B00023F4F8731B051B0D43F4004343F080037F
:10C7C00003607047FFF7EEBFFFF7DDBFFFF7DBBF8A
:10C7D000FFF7E8BF800000F1804000F5B840006836
:10C7E00000F03000A0F1100358425841704780001B
:10C7F00000F1804000F5B840006800F44050A0F51A
:10C800008053584258417047800000F1804000F545
:10C81000B840036823F070031B051B0D03607047CD
:10C82000800000F1804000F5B840036823F4E14344
:10C8300023F070031B041B0C03607047800000F1A1
:10C84000804000F5B840036823F0F0031B051B0D82
:10C8500043F4404343F0800303607047800000F1DD
:10C86000804000F5B840036823F0F0031B051B0D62
:10C8700043F4004343F0C00303607047800000F1BD
:10C88000804000F5B84003685B0409D5036823F0D5
:10C89000F0031B051B0D43F4404343F0800303608A
:10C8A0007047800000F1804000F5B84003685B06E7
:10C8B00009D5036823F0F0031B051B0D43F4004367
:10C8C00043F0C00303607047800000F1804000F532
:10C8D000B840036841F4004123F0F0031B051B0D31
:10C8E00041F080010B4303607047800000F18040FD
:10C8F00000F5B840006800F00F007047064B49088B
:10C900001B6849009BB203EBC00000F1005000F52A
:10C910004050400001607047505C0040054B4908A2
:10C920001B6849009BB203EBC000034B03445B0050
:10C9300019607047505C004004300020054B1B68B4
:10C940009BB203EBC00000F1005000F540504000E6
:10C9500000887047505C0040044B1B689BB203EB9F
:10C96000C000034B03445B0018887047505C0040D4
:10C9700004300020044B1B689BB203EBC000034B48
:10C9800003445B0019607047505C00400230002097
:10C990003E290AD94B09C90604BF03F1FF339BB2F4
:10C9A0009B0243F40043036070474B08CA0748BF2B
:10C9B00001339B02F7E70E4B0E4A1B683E299BB2E0
:10C9C00003EBC00002444FEA42020AD94B09C806F1
:10C9D00004BF03F1FF339BB29B0243F40043136097
:10C9E00070474B08C90748BF01339B02F7E700BFF8
:10C9F000505C004006300020054B1B689BB203EBE7
:10CA0000C000044B03445B001868C0F30900704782
:10CA1000505C004002300020054B1B689BB203EBCA
:10CA2000C000044B03445B001868C0F30900704762
:10CA3000505C00400630002010B50B4CC00023684D
:10CA400049089BB2034403F1005303F540535B00D4
:10CA500049001960236852089BB21844034B5200E6
:10CA600003445B001A6010BD505C0040043000209D
:10CA7000FFF744BFFFF752BFFFF760BFFFF76CBF80
:10CA8000012910B52BD1254CC0002168244B89B257
:10CA900001440B443E2A4FEA430119D9530912F0CD
:10CAA0001F0F04BF03F1FF339BB29B0243F400430B
:10CAB0000B6023681B499BB2184401443E2A4FEA8D
:10CAC00041011FD85308D20748BF01339B0222E01F
:10CAD000530812F0010F18BF01339B02E8E7022947
:10CAE0000FD10E4CC00021680D4B89B201440B449C
:10CAF0005B001A6023689BB218440A4B03445B0036
:10CB00001A6010BD5309D00604BF03F1FF339BB276
:10CB10009B0243F400430B60F3E700BF505C00400E
:10CB2000023000200630002001291BD1134B14498C
:10CB30001B683E2A9BB203EBC00001444FEA41014F
:10CB40000AD95309D00604BF03F1FF339BB29B02FD
:10CB500043F400430B6070475308D20748BF0133CA
:10CB60009B02F7E7022908D1044B1B689BB203EB39
:10CB7000C000034B03445B001A607047505C0040E8
:10CB80000230002001291BD1134B14491B683E2A97
:10CB90009BB203EBC00001444FEA41010AD953099B
:10CBA000D00604BF03F1FF339BB29B0243F4004362
:10CBB0000B6070475308D20748BF01339B02F7E769
:10CBC000022908D1044B1B689BB203EBC000034B46
:10CBD00003445B001A607047505C00400630002040
:10CBE000FFF70ABFFFF718BF0D49C0000B689BB2E3
:10CBF000C2180C4B13445B001B6813F47C4F0DD11F
:10CC00000B689BB21844084B03445B001B68C3F3DA
:10CC10000903002B14BF0220002070470120704739
:10CC2000505C0040063000200230002001290FD166
:10CC3000800000F1804000F5B840036823F0F00365
:10CC40001B051B0D43F4004343F0C0030360704712
:10CC50000229FCD1800000F1804000F5B840036853
:10CC600023F0F0031B051B0D43F4404343F0800306
:10CC7000ECE741EA00207047C3B2000A40EA032013
:10CC8000704700BF10B5064C18B9012223681A82FC
:10CC900010BD044B1B681B68984720680A30F7E7F3
:10CCA000942D0020882D002010B5064C18B90122C3
:10CCB00023681A8210BD044B1B689B689847206844
:10CCC0000C30F7E7942D0020882D00201E4B10B566
:10CCD0001C68002310B90223238210BD1B48038067
:10CCE0002178024611F07F0112D1617A8C0644BF8F
:10CCF00002230370037848064CBF43F0010323F07E
:10CD000001031370124B1B681B6998470F48E4E737
:10CD10000129E2D0022915D1617901F00F039B00AE
:10CD200003F1804303F5B84309061B6805D503F0FA
:10CD30003003102BE6D10123E3E703F44053B3F5AE
:10CD4000805FF7E71846C8E7942D00209A2D002051
:10CD5000882D00202DE9F843234FDFF8A0803D689F
:10CD60002C8AD4B92E7A042E17D120498B78012B26
:10CD70000ED11F4B1A681F4B92B213445B001C600C
:10CD800030238C70A8F800303B681E72BDE8F88331
:10CD900010230726A8F80030F6E7AB8A9C4294BF20
:10CDA000042602269C4228BF1C46AB6920469847B1
:10CDB00081460020FFF7C2FD224601464846FFF7A4
:10CDC000E5FB21460020FFF7D5FD2B8A4FF44052AA
:10CDD0001B1B2B826B8A1C443023A8F80030064BA7
:10CDE0006C821A80D0E700BF942D00209A2D00207D
:10CDF000505C0040023000209E2D0020A02D00201D
:10CE000010B50A4B0A491B684978DA7891420AD36F
:10CE1000997841B99C8834B99A72064B1B685B6853
:10CE20009847204610BD0220FCE700BF942D00204B
:10CE3000802D0020882D002038B50F4A0F4D126834
:10CE40002B689269D978587990472B6804469A7A6A
:10CE50007AB170B91A7962B99B7853B9084B1B68DB
:10CE6000DB6898472B685A79DA72DA781A732046A9
:10CE700038BD0224FBE700BF902D0020942D002038
:10CE8000882D002038B52F4B1B68187810F07F00D4
:10CE900004D15A7A22F020025A7238BD02284ED1AB
:10CEA0005A88002AF9D11A79002AF6D15979264DE3
:10CEB00021F08000840004F1804404F5B844226825
:10CEC00049B22D780029B4BF02F0300202F440527A
:10CED000854234D99AB39B7A8BB30029236811DA3F
:10CEE00003F03003102B07D1C4B22046FFF7D9FC62
:10CEF00030212046FFF7CAFB144B1B685B6998473B
:10CF00000020CAE703F44053B3F5805FF4D198B929
:10CF10000F4B1B6893F82C10FFF74DFD236823F48B
:10CF2000804323F070039BB283F4405343F40043E7
:10CF300043F080032360DFE7FFF7A0FCEEE7022069
:10CF4000ABE700BF942D0020802D0020882D00200D
:10CF5000902D002038B51D4B1D4D18682D78417956
:10CF600021F08004A20002F1804202F5B842136869
:10CF700049B20029B4BF03F0300303F44053A54283
:10CF800021D94488FCB9F3B1837AE3B1136800294D
:10CF9000B5BF23F4E04323F4804323F0400323F0A0
:10CFA0007003B5BF9BB29BB283F0100383F4805330
:10CFB00043F4004343F080031360064B1B689B69F6
:10CFC0009847002038BD0220FCE700BF942D0020C8
:10CFD000802D0020882D002008B5064B1A68537A52
:10CFE00043F020035372044B1B68DB699847002011
:10CFF00008BD00BF942D0020882D0020054B10B5E2
:10D000001C68628A18B98B889B1A238210BD086835
:10D010001044FBE7942D002008B50C4B00201B6842
:10D0200093F82C10FFF7C7FC094B1B68187A0828E7
:10D0300006D14FF48052074B1A801022064B1A80FB
:10D04000A0F109035842584108BD00BF902D0020AF
:10D05000942D00209E2D0020A02D0020F7B5964C89
:10D06000964E276832683B7A092B19D0944B92B2BE
:10D0700013445B001D886D0005F1804505F5C04532
:10D080002B783B706B787B70A888FFF7F5FD788074
:10D0900028892768FFF7F0FDB880AA892368DA801D
:10D0A000012223681A72DA885D78002A61D11A7821
:10D0B00012F07F024AD1092D03D1FFF7A1FE40BB38
:10D0C00016E0052D20D193F90320002A07DA082362
:10D0D0002268137203B0BDE8F040FFF79DBF9A7855
:10D0E000002AF4D19A88002AF1D19B7A002BEED144
:10D0F0003268744B92B2134400225B001A603022F3
:10D10000714B1A800623E3E7032D11D1DA78012A47
:10D1100008D06E4B28461B685B699847032825D1C9
:10D120000923D5E79B88002BF3D1FFF755FFC6E70E
:10D13000012DEED1DA78012AEBD19A88002AE8D1C4
:10D140005B7A9F06E5D5FFF79DFEB8E7012A04D17B
:10D150000B2DDED1FFF770FEB1E7022AD9D1012DE8
:10D16000F1D0032DD5D1FFF7F5FEA8E70028AED109
:10D17000BEE7062D12D11A7855065AD19B78534A2C
:10D18000012B126802D1D369DBB952E0022B01D125
:10D19000136AF9E7032B4CD1536AF5E7002D54D1FC
:10D1A0005988002945D15A6822F47F42B2F5003FE0
:10D1B0003FD11A7812F07F0216D19B88002B38D10C
:10D1C000434B00252268284655829361984728469C
:10D1D0004FF6FF7123681A8A8A4233D0022801D0A1
:10D1E000002A55D108222EE0012A0AD1374A58795F
:10D1F000126892699047E0B923689B7A002BDFD1CF
:10D2000017E0022A15D15A7902F00F018B0010069F
:10D2100003F180432F4803F5B8431B6800784CBFE7
:10D2200003F0300303F44053884202D912F0700F28
:10D23000E4D0264B22681B6850781B699847032866
:10D24000C6D1236809221A7244E7082D04D11B783D
:10D250005B06EED1204BB4E70A2DEAD11A7802F032
:10D260007F02012AE5D19A7A002AE2D05988002962
:10D27000DFD15A6822F47F42B2F5803FD9D1134AF8
:10D2800058791268926990470028D2D1134B98E7D9
:10D2900093F90010002934DAD9880C48019100680C
:10D2A000019D90F82C00AA4284B219D9019A1A82E1
:10D2B0009C82FFF74FFD0DE7942D0020505C00404D
:10D2C0000430002002300020A02D0020902D0020EE
:10D2D000CDCC0008802D002085CC0008A9CC00080A
:10D2E0008A42E5D2944203D90021094A9170DFE7CE
:10D2F00092FBF0F100FB1122002AD9D1044A01214E
:10D30000F4E703221A724FF44052024B1A80E1E60E
:10D310009A2D00209E2D0020F8B52B4E3468237ADC
:10D32000022B4FD0042B4DD0032B01D0052B43D122
:10D33000A369B3B1258AA5B1A28A954228BF154633
:10D3400028469847238A07465B1B2382638A00206E
:10D350002B446382FFF700FB2A4601463846FFF75D
:10D3600024F9238A53B100214FF44052174B084649
:10D370001A80FFF7FFFA3022154B1A80218AA38A00
:10D3800032688B4208D803231372137A32681372FF
:10D39000BDE8F840FFF740BE09B10523F4E70623D6
:10D3A00013720C4B18680C4B80B203445B0019607D
:10D3B0003021074B1980E8E7072B03D1074B1B6887
:10D3C000DB6898470823E1E7942D00209E2D00207C
:10D3D000A02D0020505C004002300020902D002045
:10D3E000F0B5002240F60F7548F280060A4B1C7813
:10D3F000A24204D3094B40F080001860F0BD02F156
:10D40000805303F5B8539B00196842EA0607294088
:10D41000394319600132EBE7802D00204C5C00405D
:10D4200010B5134C23681A7A022A01D0042A09D1B4
:10D43000FFF790FC23681B7A22681372BDE8104046
:10D44000FFF7EABD062A10D15A78052A09D11A78C1
:10D45000520606D1D878FFF7C3FF064B1B681B6A3C
:10D460009847054B1B689B6898470823E4E700BF73
:10D47000942D0020882D0020902D0020704700BFA3
:10D4800000232DE9F341564F564EADF8063039686A
:10D490000B044FD501F00F023270002A6ED14BF60B
:10D4A000BF75DFF84881504CD8F80030C9069BB2F0
:10D4B0002380238803F030036380238803F44053E0
:10D4C0002380D8F8003003EA050383F4005383F087
:10D4D000200343F4004343F08003C8F80030D8F839
:10D4E00000302AD423F4E14323F070031B041B0C07
:10D4F000C8F80030FFF794FFD8F8003022882B409E
:10D50000D704228848BF83F480539604628848BFBA
:10D5100083F40053D506628848BF83F01003900659
:10D5200048BF83F0200343F4004343F080032F4AB5
:10D530009BB2136002B0BDE8F0819BB2ADF806303B
:10D54000BDF806301A050AD5D8F8003023F070036C
:10D550001B051B0DC8F80030FFF780FDCCE7BDF8B8
:10D5600006301B0493D5D8F8003023F070031B0558
:10D570001B0DC8F80030FFF7CFFEBDE7930003F1A5
:10D58000804303F5B843196889B2ADF80610BDF8B9
:10D59000061009040AD51968013A21F0700109053D
:10D5A000090D1960124B53F822309847BDF8063028
:10D5B0001A067FF56CAF3278930003F1804303F5D0
:10D5C000B8431968013A21F4E14121F070010904DE
:10D5D000090C1960074B53F82230984757E700BFF2
:10D5E000445C0040982D00209E2D0020005C0040EF
:10D5F000642D0020482D002070B5174C174D184E93
:10D6000023681A0400D470BD47F6FF7203F00F03BD
:10D6100022609A0002F180422B7002F5B842116834
:10D6200008040BD51168013B21F070010905090DB3
:10D6300011600C4A52F823309847E1E70906DFD51C
:10D640001168013B21F4E14121F070010904090C4A
:10D65000116056F82330EFE7445C0040982D00201D
:10D66000482D0020642D00200023044A1360044A42
:10D670001080044A10601846704700BF445C0040A8
:10D680008C2D0020405C004070B500F07F051446F2
:10D6900028460E46FFF752F9A4B22246014630460C
:10D6A000FEF774FF28462146FFF764F9002070BD9D
:10D6B00070B500F07F0528460E46FFF7ADF9044629
:10D6C0002846FFF749F9224601463046FEF76DFF2E
:10D6D000204670BD374B82B01A6842F001021A60D2
:10D6E0005968354A0A405A601A6822F0847222F456
:10D6F00080321A601A6822F480221A605A6822F472
:10D70000FE025A604FF41F029A60002200920192BA
:10D710001A6842F480321A601A6802F400320192E8
:10D72000009A01320092019A1AB9009AB2F5A06FDC
:10D73000F2D11A6812F4003218BF01220192019A44
:10D74000012A30D11D4A116841F0100111601168A1
:10D7500021F003011160116841F0020111605A6863
:10D760005A605A685A605A6842F480625A605A682D
:10D7700022F47C125A605A6842F4E8125A601A681D
:10D7800042F080721A601A689201FCD55A6822F041
:10D7900003025A605A6842F002025A605A6802F064
:10D7A0000C02082AFAD14FF00062054B9A6002B0D1
:10D7B000704700BF001002400000FFF80020024048
:10D7C00000ED00E0104A536803F00C03082B0F4BE8
:10D7D0000AD00F4919605268C2F303121A44117932
:10D7E0001A68CA401A60704751685068C1F3834193
:10D7F000C00301F1020102D406484143EAE7506840
:10D800008003F9D40248F8E70010024050010020DC
:10D8100000127A0000093D0038B5044607480D465D
:10D82000FEF702FA052802D03420FEF7CFF9294688
:10D830002046BDE83840FEF7B3BA00BFA08601001D
:10D84000C0F30A0310B5044663B90748FEF7ECF9C4
:10D85000052802D03420FEF7B9F92046BDE8104073
:10D86000FEF7F3B910BD00BFA086010070B50546F4
:10D870000E4C0F4E02213046FEF7C6FC78B1294609
:10D880000B48FEF777FC094C094D01212846FEF7AD
:10D89000BBFC40B10648FEF76FFCC0B202E0013CA1
:10D8A000E8D1FF2070BD013CEFD1FAE7A28601006C
:10D8B00000300140A520FFF7D9BF10B50446FEF7A0
:10D8C00088F8012C0CBF06200420FFF7CFFFBDE82D
:10D8D0001040FEF782B810B5FEF77BF80520FFF781
:10D8E000C5FF064CFFF7E6FFC30703D4BDE81040B1
:10D8F000FEF773B8013CF5D110BD00BFA286010050
:10D9000010B50446FFF7E7FF0120FFF7D6FFFEF74B
:10D9100060F82020FFF7AAFFC4F30740FFF7A6FF37
:10D92000C4F30720FFF7A2FFE0B2FFF79FFFFEF767
:10D9300054F8BDE810400020FFF7BFBF2DE9F041CB
:10D94000012790460E46164C05462770FFF7C3FF89
:10D950003846FFF7B2FFFEF73CF84046FFF786FF78
:10D96000C6F30740FFF782FFC6F30720FFF77EFFED
:10D97000F0B2FFF77BFF6E1EFF3516F8010FC043B4
:10D98000C0B2FFF773FFAE42F7D1FEF726F80020D2
:10D99000FFF793FF002320782370BDE8F08100BFDC
:10D9A000A22D002070B521F47F6525F00F050646F5
:10D9B0002846FFF7A5FF0024022229193019FFF796
:10D9C000BDFF20B104F58074B4F5805FF4D170BD63
:10D9D000F8B501230F46134D16466B700446FFF74A
:10D9E0007AFFFDF7F6FF0320FFF740FFC7F307407C
:10D9F000FFF73CFFC7F30720FFF738FFF8B2FFF748
:10DA000035FF013C2644B44205D1FDF7E6FF002373
:10DA100068786B70F8BDFFF74DFFC04304F8010F45
:10DA2000F1E700BFA22D002008B5264B984209D18E
:10DA300001210420FEF73CFD00210420BDE8084040
:10DA4000FEF736BD204B984206D101210820FEF793
:10DA50002FFD00210820F1E71C4B984206D101213F
:10DA60001020FEF725FD00211020E7E7184B984213
:10DA700006D101212020FEF71BFD00212020DDE73B
:10DA8000144B984206D101214020FEF711FD0021E0
:10DA90004020D3E7104B984206D101218020FEF7A9
:10DAA00007FD00218020C9E70C4B984208D10121D5
:10DAB0004FF48070FEF7FCFC00214FF48070BDE74E
:10DAC00008BD00BF00080140000C014000100140EB
:10DAD0000014014000180140001C014000200140DA
