:020000040800F2
:10800000009F0020C1840008C98100080D8300087A
:10801000D9810008E9810008F9810008000000000A
:108020000000000000000000000000007D84000847
:108030007D840008000000007D840008F1840008B1
:108040007F8400087F8400087F8400087F84000804
:108050007F8400087F8400087F8400087F840008F4
:108060007F8400087F8400087F8400087F840008E4
:108070007F8400087F8400087F8400087F840008D4
:108080007F8400087F8400087F8400087D840008C6
:108090006B8500087D8400087D8400087F840008CB
:1080A0007F8400087F8400087F8400087F840008A4
:1080B0007F8400087F8400087F8400087F84000894
:1080C0007F8400087F8400087F8400087F84000884
:1080D0007F8400087F8400087F8400086985000889
:1080E0007F8400087F8400087F8400087F84000864
:1080F0007F8400087F8400087F8400087F84000854
:108100007F8400087F8400087F8400087F84000843
:108110007F8400087F8400087F8400087F84000833
:108120007F8400087F8400087F8400087F84000823
:1081300010B50E4886B002F0ABFA20B10C4802F040
:10814000F9FA06B010BD0B4802F0F4FA0A4C684682
:1081500002F0AEFA28B90DF10901204602F0EAFA60
:10816000F5E7064802F0E6FAEBE700BF95100108D4
:1081700084100108961001089E100108A51001083E
:1081800008B5024802F0D6FAFEE700BF3711010831
:1081900006460D46144608B5084802F0CBFA3046AC
:1081A00002F0C8FA2946064802F0C4FA204602F056
:1081B000C1FA044802F0BEFAFFF7E2FF4A110108D3
:1081C000611101089410010808B5024802F0B2FAE2
:1081D000FFF7D6FF6911010808B5024802F0AAFAB4
:1081E000FFF7CEFF7611010808B5024802F0A2FAA7
:1081F000FFF7C6FF8A11010808B5024802F09AFA93
:10820000FFF7BEFF9D110108024BEFF308801860D5
:10821000704700BF7C03002010B58CB004460021DD
:108220001C2205A808F0F0FC0023114904F11800F5
:1082300088420CD250F8042B140E082C01BF0CAC51
:1082400004EB8304013344F81C2C072BF0D10B9B67
:10825000059903930A9B07480293099B0193089B86
:108260000093DDE9062302F065FA0CB010BD00BFF3
:10827000009F0020B2110108684620F007018D46DA
:1082800000B5194C83B0194802F054FA2168184817
:10829000D1E9053202F04EFA164B1748D96A9A6AAC
:1082A0009B6B02F047FA25681448D5E90123296839
:1082B000ED68009502F03EFAD4E90132D4E90310EA
:1082C00000900F4802F036FAD4E905210D4802F07B
:1082D00031FA23680C48E2691B69216A02F02AFA24
:1082E0002068FFF799FFFEE77C030020E0110108FA
:1082F000F411010800ED00E0101201083412010829
:10830000581201087C12010890120108084BEFF383
:108310000882DC601A609D605E601F61C3F818808F
:10832000C3F81490C3F820A0C3F81CB0FFF7A4FF53
:108330007C0300202DE9F041ADF5C85D82B000203E
:1083400000F035F900F01CF902F012F902F040FBE0
:1083500002F04BFB424802F097FA424B4FF6FF7295
:10836000009300231946184600F0A4FA3E4B4FF63E
:10837000FF72009300231021184600F09BFA3B4B3C
:108380004FF6FF72009300232021184600F092FA66
:10839000374A02AB10685168128903C300211A8062
:1083A0000DF11200362208F02FFC324C02F0ACF92D
:1083B000082836D000252A4E2F4F02F07FFA037886
:1083C00013B902A802F060FA02F078FA12AA144671
:1083D000431E3E3013F8011F944602F8011B197822
:1083E00019B1202925D18CF8005022A800F053FCA7
:1083F0000DF6081002F0AAF8204603F04DF9804669
:10840000002000F048FC002002F0A0F8B8F1000FB6
:1084100014D1384602F08EF902F076F90528FBD126
:10842000CBE7204602F086F902F06EF90528FBD171
:10843000BCE78342CED184F83F50D6E702F042FA3F
:10844000404600F0B1F802F03DFA20B1214602A802
:1084500008F022FDB1E7304602F016FAADE700BFA2
:1084600095100108A8100108BD100108DE100108D0
:108470004410010801110108231101087047FEE7AB
:108480000A4A0B4B9A4203D00A49043A8B4205D35D
:108490000021094B094A934205D3704752F8040F53
:1084A00043F8040BF2E743F8041BF4E7CC26010879
:1084B00000000020790300207C030020FC2A00201B
:1084C000684620F007018D4608B5FFF7D9FFFFF792
:1084D00031FFFEE70022024B18781A70704700BF88
:1084E000A0030020014B1878704700BFA0030020B4
:1084F00010B51C4C636801336360A36813B1A368B3
:10850000013BA360E3682BB1E0680138E06008B983
:1085100003F09AFB03F0EEFB2369834221D0C205EE
:1085200044BF3E232370830544BF3C232370410591
:1085300044BF2B232370020544BF2D232370C307A0
:1085400044BF31232370810744BF32232370420785
:1085500044BF33232370030748BF3423206148BF3F
:10856000237010BDA0030020704702F0ECB900BFDB
:10857000024B18601A68002AFCD17047A80300203B
:1085800003F079BB0823C0EB801090FBF3F010F1EF
:10859000FF3000D3FBE77047FFF7EABF014B1868D5
:1085A000704700BFA403002040F00100004710B551
:1085B000044618B9BDE8104003F046BB012003F0A3
:1085C00043FB014B1C6010BDAC0300200E22024B8C
:1085D00002FB0030704700BFAC1201080048704732
:1085E000AC120108002138B50546084603F02DFB02
:1085F000034C284603F0E8FA013CFAD138BD00BF2D
:10860000007701002DE9F0411D4680460C461646D4
:10861000C1F1F003C5F1F001BDF8187003F000FBE3
:10862000A6EB08062C1B744314F1FF3403D3384621
:1086300003F0CAFAF8E7BDE8F08107B50091D0E988
:10864000022303C8FFF7DEFF03B05DF804FB37B574
:108650000D460446416800954B1C82680068FFF790
:10866000D1FFD4E902232068591E0095FFF7CAFF05
:108670002068E368421C61680095FFF7C3FFD4E9F6
:10868000022300956168501EFFF7BCFF03B030BDA8
:1086900010B51446C1F1EF0103F0D7FA2046BDE84A
:1086A000104003F091BA10B50C4641680068C1F162
:1086B000EF0103F0CAFA2046BDE8104003F084BA87
:1086C00010B5C1F1EF0103F0C0FA03F08DFA03F029
:1086D00083FA044603F09AFAA0B210BD41EA0003FF
:1086E00033F0030301BF40EA81000349401890F8CA
:1086F000000E18BF00207047AC1201082DE9F04FA2
:10870000984605460E4617460C4687B0BDF84030E1
:1087100001F1030A0293531EA8F1030B059344458C
:108720002EDAA24508D1029B3A46009351465B4699
:108730002846FFF767FF5C46A946A8EB0402531ED4
:108740000393A31B0493B94518DA059BA9EB050213
:10875000A3EB0900039B1946049B9942A8BF194645
:108760009042A8BF1046FFF7B9FF20B9029A2146F0
:108770004846FFF78DFF09F10109E4E70134CEE730
:1087800007B0BDE8F08F07B50091D0E9022303C818
:10879000FFF7B4FF03B05DF804FB4368C16882686B
:1087A000C3F1F003C1F1F001006803F039BA03F03E
:1087B0000BBA38B5044600EB4105AC4204D034F89E
:1087C000020B03F001FAF8E738BD2DE9F04F9046AF
:1087D0000E228DB01F469DF85840354B064602FBD1
:1087E00004344FF61E039F4220D1671E04F10D0989
:1087F0000C1B17F8015F4FF0000AED4304EB070B69
:10880000EDB22A0605D54246594606EB0A00FFF7A7
:108810003FFF0AF1010A6D00BAF1080FEDB2F0D185
:108820004F45E6D108200DB0BDE8F08F98451CD12A
:1088300004F1FF3804F10D0A0C1B4FF0000918F881
:10884000015F04EB080B2B0605D53A46594606EBAB
:108850000900FFF71DFF09F101096D00B9F1080FCB
:10886000EDB2F0D1C245E8D1DCE7CDE9010108362F
:108870000E3101A8039604910025FFF78EFF802694
:1088800046FA05F004F10E030DF1120213F8011D72
:10889000014214BF39464146A34222F8021FF5D1D6
:1088A0000E2105A80135FFF784FF082DE8D1B9E7AF
:1088B000AC1201082DE9F7430A9D06460F46904683
:1088C0009946BDB1287890B1013D344615F8013F75
:1088D00063B10A2B01D11037F7E7009320464B46CE
:1088E00042463946FFF771FF0444EFE7A01B03B08F
:1088F000BDE8F0832846FAE7FFF7DCBF2DE9F04139
:1089000005460E461746984694B01AAA52F8041B1C
:1089100004AC2046039202F09CF9009443463A4688
:1089200031462846FFF7C6FF14B0BDE8F08110B409
:108930009DF80440019410BCFFF747BF10B503F049
:1089400053F903F049F9044603F060F9A0B210BDF1
:1089500038B504460D4603F047F904EB4505AC4233
:1089600004D003F039F924F8020BF8E7BDE83840E9
:1089700003F04CB970472DE9F74F064600254FF636
:108980001E0917460C9A9846137802F1010B0093C2
:108990004B1E01935C46019BA3EB0B0A009BA4EBCF
:1089A0000B02934213DD14F8012BB2B153070AD521
:1089B0004F45F3D03A4604EB0A013046FFF768FE14
:1089C000ECE7A346E6E7C845E8D04246F3E70135C1
:1089D000502D06F10106F4D10825284603B0BDE864
:1089E000F08F2DE9F84F0A9F9A463C4680460D4687
:1089F000914603F015F90B9B07EB430655450EDA3C
:108A0000C346CB4509DA34F8020B03F0DDF8A64281
:108A100008BF3C460BF1010BF3E70135EEE7BDE87B
:108A2000F88F034A4FF482710248FFF7B1BB00BFD1
:108A3000EF230108BC20010800F58033DB0200F1C0
:108A40000820834204D21A68013203D10433F8E7C4
:108A5000012070470020704708B51D4B0344DB021E
:108A6000B3F56C3F02D34FF0FF3008BD194A1169CE
:108A7000090623D4174AD168C907FCD4116903F148
:108A8000006303F5A04341F00201116153611369D2
:108A900043F0400313610F4BDA6812F00102FBD17F
:108AA00019691A611A6942F080021A61FFF7C4FF5E
:108AB00000280CBF6FF00A000120D6E7064951607C
:108AC00001F18831516012691206D3D5CBE700BF9E
:108AD000F6FF1F00002002402301674508B50B4642
:108AE00000F580314FF40062C902184608F016F80C
:108AF000012008BD00F58033012030B5C1EBC32350
:108B000001F500645A5851F8045BAA4202D00132C0
:108B100005D10020A142F5D180F0010030BD022036
:108B2000FCE700F58030C00200F17843A3F5A043D4
:108B3000B3F56C3FF0B502D34FF0FF30F0BD1A4BE8
:108B40001A69140624D4184AD368DB07FCD4164EDD
:108B500001F500673546431A32695C1842F001029C
:108B6000326131F8022B2280E86810F00100FBD15D
:108B70002A6922F001022A61228831F8024C9442CB
:108B80000FD1B942E8D12B6943F080032B61D5E7BF
:108B9000064A5A6002F188325A601B691A06D2D519
:108BA000CAE76FF00A00C9E70020024023016745C9
:108BB00038B50E4B0E4A0344B2EBC32F04460D46A4
:108BC00010D3FFF797FF00280EDD022802D12046C0
:108BD000FFF742FF012807D129462046BDE838406B
:108BE000FFF79FBF4FF0FF3038BD00BFF6FF1F00FB
:108BF000FFAF0300002380F80038C0F80438704746
:108C0000014690F8000818B1D1F80408FFF7D0BF6A
:108C100070472DE9F74F044691464FF0000A4FF098
:108C2000010B01F17845ED0A1E4605F58033A1EBF5
:108C3000C321C1F5006821F0010143180093002E03
:108C400027DDD4F80438C4F804589D4205D02146E5
:108C50002846FFF743FF84F800A84645ABBF4746C8
:108C60003746012300233A4649460098019307F00E
:108C700055FF019B84F800B8F61B002BDFD021467E
:108C8000D4F80408FFF794FF0028D8D003B0BDE85B
:108C9000F08F0020FAE7014B18607047B403002002
:108CA000014B1868704700BFB403002010B50A4C90
:108CB000236823B9094A1A210948FFF769FA40F6DF
:108CC00008020021206807F09FFF0022236883F834
:108CD0000028C3F8042810BDB4030020D3200108E5
:108CE000E120010838B50B4C236823B90A4A232137
:108CF0000A48FFF74DFA2068FFF782FF054640F665
:108D000008020021206807F07FFF281C18BF0120FF
:108D100038BD00BFB4030020D3200108E1200108C2
:108D2000F8B50A4C054623680E46174623B9084A8B
:108D30002B210848FFF72CFA3B463246294620688B
:108D4000FFF767FFB0FA80F04009F8BDB4030020D8
:108D5000D3200108E120010801380A44914204D0DF
:108D600011F8013B00F8013FF8E77047026930B5A0
:108D700001F109036AB3426901F11105541E14F8A7
:108D8000010F202806D0052808BFE52003F8010BB5
:108D9000AB42F4D1107A20280DD018462E24D51DD0
:108DA00000F8044B013315F8014F202C03D003F8D1
:108DB000014B9842F7D1D07A0872D0690860547E8E
:108DC000107E40EA04208880D07D927D42EA002215
:108DD000CA8000221A7030BD03685BB11A784AB1AC
:108DE000D9888288914205D15B78002B14BF03207B
:108DF0000020704709207047CA7E8B7E032843EA13
:108E0000022301BF487D0A7D42EA002243EA024371
:108E10001846704783690239023B8B4283BF8378CF
:108E2000806A01FB03000020704748B9054B1A68AF
:108E300002B1107009B100220A7019600020704759
:108E40000B207047B8030020003018BF0120704786
:108E5000003018BF0120704770B50E4660B95BB195
:108E60001B0315039CB222462946304602F0EAFF56
:108E70000028F8D0002070BD0420FCE710B50A4699
:108E8000044600F1300101234078FFF7E5FFC0B947
:108E900094F82F2294F82E3243EA02234AF6552200
:108EA000934210D1D4F86630084A23F07F439342AE
:108EB00006D0D4F8820020F07F40801A18BF01202D
:108EC00010BD0320FCE70220FAE700BF4641540032
:108ED0002DE9F84303681A78303A092A1ED900238D
:108EE0000B607D4E3468002C00F0F1800C6023781C
:108EF0000BB1607880B1002323804FF480530021B0
:108F0000C4F80A302046FFF7B9FF012840F0CC80B2
:108F100094F8F2316BB90D20BDE8F8835C783A2CF7
:108F2000DDD10233036000230B60002AD9D00B206F
:108F3000F2E7D4F8F67120463946FFF79FFF032881
:108F400000F0C7800028E6D194F83C3094F83B004C
:108F500040EA032063898342DDD194F8473094F8D6
:108F6000462094F840C052EA032208BF626D0CF11B
:108F7000FF33012BE26184F803C0CCD894F83D9014
:108F800084F80290B9F1000FC5D009F1FF3313EA5C
:108F9000090FC0D194F8423094F84180450948EA5D
:108FA0000328B8FBF5F105FB1185ADB2A4F80880E4
:108FB000002DB0D194F8445094F8433094F83EE03A
:108FC00053EA052394F83F5008BF236D5EEA052E4F
:108FD000A1D002FB0CFC7144614499429BD85B1AFE
:108FE000B3FBF9F3002B96D040F6F5754FF6F57903
:108FF000AB428CBF022501254B4588BF0325394470
:109000000233A162032D0EEB0701A36121624DD152
:10901000B8F1000F7FF47FAFE16D9B006162411EEC
:109020000B44B3FBF0F08242FFF475AF00234FF026
:10903000FF32032DC4E903322CD1637194F8602010
:1090400094F8613004F1300142EA03223A4462614B
:1090500001236078FFF700FFE0B994F82F2294F81D
:109060002E3243EA02234AF65522934212D1226B52
:109070001A4B9A420ED103F1FF53D4F8142203F590
:10908000005320339A4201BFD4F81C32E360D4F875
:10909000183223610020B388257001339BB2B3805E
:1090A000E380E062207137E7002748E7B8F1000F5E
:1090B0003FF431AF6144022D61624FEA43011BBFAF
:1090C000C91803F001030B4603EB5103A7E70C207B
:1090D00022E7012020E700BFB8030020525261417F
:1090E00038B50D46144680B97BB1012B04D0084A2F
:1090F00025210848FFF74CF824032146284602F0B2
:1091000095FE0028F9D0002038BD0420FCE700BF00
:10911000012101080C2101082DE9F041C56A04462E
:109120008D420F4602D10020BDE8F0810379F3B1F2
:1091300000F1300801232A4641464078FFF7D0FF6E
:1091400008B10120F0E7D4E907231344AB422071B2
:109150000DD9E678012E0AD9E36941461D442A4615
:1091600001236078013EFFF7BBFFF6B2F2E7002F64
:10917000D9D001233A4604F130016078FFF76CFE44
:109180000028DED1E762CFE70129F8B505460E4693
:1091900072D983698B426FD90378022B32D0032BAB
:1091A00048D0012B09D1438901EB5107B7FBF3F3F9
:1091B000016A1944FFF7B0FF10B14FF0FF3020E013
:1091C00069892846B7FBF1F301FB13730137B7FB3D
:1091D000F1F12B4493F830402B6A1944FFF79CFFC0
:1091E0000028EAD16A89B7FBF2F302FB13773D440A
:1091F00095F83000F30744EA00204CBF0009C0F3A3
:109200000B00F8BD43895B08B1FBF3F3016A194415
:10921000FFF782FF0028D0D172006E89B2FBF6F30F
:1092200006FB1326354495F8313095F8300040EAB6
:109230000320E6E743899B08B1FBF3F3016A194475
:10924000FFF76AFF0028B8D16A89B600B6FBF2F3CF
:1092500002FB136606F130032B449878DA78000499
:10926000354440EA026095F830205B78104340EACC
:10927000032020F07040C4E70120C2E770B5044627
:109280000D46E1808168012901D1022070BD03688B
:109290009A698A42F9D9F9B91A78032A01D1596A27
:1092A000D1B90022E2601A89AA42EED95A895B6AD2
:1092B0005209B5FBF2F213442361236800205A8956
:1092C00003F130015209B5FBF2F302FB1355ADB2C5
:1092D00001EB45156561D9E75E8972099E785643B1
:1092E000B6B2B54222680ED31046FFF74DFF431CBD
:1092F000014613D00128C8D923689B698342C4D989
:10930000AD1BADB2EDE7E1601046FFF783FD538979
:109310005B09B5FBF3F318442061CEE70120B5E704
:1093200001292DE9F04104460D46164640F2898098
:1093300083698B4240F285800378022B45D0032B52
:109340005AD0012B7BD1438901EB5108B8FBF3F3D1
:10935000016A1944FFF7E0FE58BB618915F0010569
:10936000B8FBF1F301FB1383234417BF93F83020BC
:10937000F2B202F00F0032011CBF02F0F002024311
:1093800083F83020012308F10108B8FBF1F12371C3
:10939000236A20461944FFF7BFFE50B96389B8FB22
:1093A000F3F703FB178727443DB1C6F3071287F88D
:1093B000302001232371BDE8F08197F83020C6F3F7
:1093C000032622F00F023243F1E743895B08B1FB29
:1093D000F3F3016A1944FFF79FFE0028E9D163897E
:1093E0006A00B2FBF3F503FB15253212254485F81C
:1093F000306085F83120DCE743899B08B1FBF3F34B
:10940000016A1944FFF788FE0028D2D16289AD00B5
:10941000B5FBF2F302FB135505F130012144CB7883
:1094200025441B0603F0704343EA0602131285F835
:1094300030204B70130C120E8B70CA70B9E70220EB
:10944000B7E70220B7E7F8B505460F4679B9C66811
:10945000BEB183699E4228BF01263446AB69013400
:10946000A34211D8012E0ED800242046F8BDFFF7E4
:109470008BFE0128044630D9AB698342F5D83E46BD
:10948000EBE70126E9E7022421462846FFF77CFEA8
:1094900048B1411C02D14FF0FF34E6E701281CD04F
:1094A000B442DBD1E0E76FF0704221462846FFF777
:1094B00037FF80B947B92B69EC605A1CD5D0013B06
:1094C0002B6101236B71D0E7224639462846FFF70E
:1094D00027FF0028EFD00128DDD00124C5E7F8B52B
:1094E00004460D46FFF778FC0746002868D1A279AC
:1094F00016065CD4E3689D4203D912F0020F08BF40
:109500001D460022A368A260BDB9E368AB4257D2F2
:10951000A379E56043F02003A37151E000202368A4
:10952000A5685A89B5FBF2F302FB1353002BECD06C
:10953000A369834218BFA061E7E720688278468963
:1095400056434BB3013B6A1EB2FBF6F2B3FBF6F196
:109550008A4221D3724213406169A360ED1A002947
:10956000DCD0AE42206807D2A3799A072DD5FFF749
:109570006AFF014660BB3546A36820682B44A360A0
:109580004389B5FBF3F203FB1255002DC6D0FFF75C
:1095900041FC40B11044C2E72169A1B9FFF753FF74
:1095A0000128014605D1A37963F07F03A371022747
:1095B00006E0013006D10127A37963F07F03A37190
:1095C0003846F8BD21616161C9E7FFF7DDFD01465D
:1095D0004B1CF0D00129E6D923689B699942E2D25D
:1095E000A36861613344A360AD1BBAE70129F8B5F4
:1095F00004460D4622D983698B421FD90127A369EE
:10960000AB4201D80020F8BD29462046FFF7BCFD3B
:1096100006460028F6D0012810D0411C10D00022A8
:1096200029462046FFF77CFE0028ECD123695A1C0E
:1096300002D00133236167713546E0E70220E2E79B
:109640000120E0E770B5044640B3FFF7C5FB0546CF
:1096500098B9A379190623D49A0723D5D4E902210E
:1096600091420AD943F02003E260A371206832B925
:109670002169FFF7BBFF256140B9284670BD6169CC
:10968000FFF782FD431C06460ED10120A379054653
:1096900063F07F03A371F0E70220F7E70925ECE709
:1096A0000225EAE70725E8E70128F5D02068836965
:1096B0009E42E2D26FF070426169FFF731FE0028EE
:1096C000E4D131462068FFF791FFD5E72DE9F0415D
:1096D000C58804460135ADB20F4615B90420BDE872
:1096E000F0810269002AF9D0006843895909B5FB65
:1096F000F1F301FB13539BB233B9E16801322261EC
:1097000091B90389AB42E9D92368E5805A8903F10D
:1097100030015209B5FBF2F302FB1355ADB201EB78
:10972000451565610020DAE7438982785B09B5FB5E
:10973000F3F3013A1342E7D1FFF726FD012806466D
:1097400001D80220CBE7421C01D10120C7E72068E5
:109750008369B3423AD8002FC0D0E168FFF773FEA7
:109760000646002839D00128EBD0431CEDD000215B
:109770002068FFF7D1FC0028E7D1236803F130020D
:109780005B8913F1FF3302D302F8010BF9E722687A
:1097900031461046FFF73EFB00274FF00108D0622C
:1097A0002368F9B29A788A420DD983F8048000219F
:1097B0002068FFF7B1FC01370028C6D12268D36AC0
:1097C0000133D362ECE7DA6A521ADA62E6603146B4
:1097D0002068FFF71FFB206196E707207FE72DE950
:1097E000F8430B7804462F2B0D4601D05C2B00D19B
:1097F00001350026A6602B781F2B2ED920262B782A
:10980000AE462F2B05F10105F9D05C2BF7D0A769E7
:109810003B4607F10B02934226D14FF000084FF070
:10982000080C454643460EF1FF3919F8012F013562
:10983000202A23D92F2A21D05C2A1FD02E2A75D086
:10984000C44508D9100606D4434810F8011F002962
:1098500075D08A42F9D1062004E031462046FFF750
:109860000DFD6661BDE8F88303F8016BD3E743F0B3
:10987000020307F8082008F10108D6E7212A7544F9
:1098800034BF04220022B8F1000FE4D0397820461A
:10989000E52904BF05213970BCF1080F04BF9B0006
:1098A000DBB203F00301012903F00C0308BF42F00F
:1098B0001002042B08BF42F00802FA720021FFF7E1
:1098C000DDFCD8B921692068FFF726FCB0B96269D0
:1098D000137893B1D37A19070AD4A36903F10B0C57
:1098E00063450BD012F8017B13F8011B8F42F7D0B0
:1098F00000212046FFF7EAFEE3E70420A369DB7AB4
:1099000030B10428AED113F0040F08BF0520A9E739
:109910005A07A7D46169CB7ADB0605D52368187886
:10992000FFF76AFAA0606AE705209BE7BCF1080F21
:1099300091D19B00E046DBB24FF00B0C75E7A2F132
:109940004101192993D9A2F1610119299EBF203A39
:1099500043F00103D2B28CE72221010830B587B071
:109960000191044628B3014601A8FFF7B1FA68B98E
:1099700003ABA361019920462568FFF730FFD0B9FA
:10998000616951B1CB7ADB0603D405200023236043
:109990000DE02878FFF730FAA060EB880021A38063
:1099A0002046FFF76BFC0428EFD00028EED107B06B
:1099B00030BD0920FBE70428E7D0E7E730B58DB0DC
:1099C00001900D4601A805A9FFF782FA044668B97F
:1099D00002AB019905A80B93FFF701FF044628B9D4
:1099E0000A9B33B1294605A8FFF7C0F920460DB000
:1099F00030BD0624FAE738B500210546FFF73EFCE6
:109A00000446B0B929692868FFF786FB044680B987
:109A10006B691B78E52B0ED06BB101212846FFF74F
:109A200055FEEDE70B22A969FFF796F901222B6895
:109A30001A71204638BD29692868FFF76DFB044676
:109A40000028F6D168692246034600F120019942B8
:109A5000E8D003F8012BFAE72DE9F74F9A460023E7
:109A6000CAF80030044601911646FFF7B5F9002800
:109A700034D1A379190624D4DA0740F19780D4E9C8
:109A80000250451BB54228BF3546DDF80480002D45
:109A900000F08E802068A1684289B1FBF2F602FBDB
:109AA0001612002A64D18378013B334013F0FF0B78
:109AB00018D141B92069012809D8A37963F07F033F
:109AC000A37102200AE06169FFF75EFBF3E7431C24
:109AD00007D10120A37963F07F03A37103B0BDE830
:109AE000F08F6061D4F8009061694846FFF792F901
:109AF0000028E2D0B9F80A6000EB0B07B5FBF6F6D8
:109B0000002E34D099F802200BEB0601914288BF59
:109B1000A2EB0B06F3B23A46414699F80100FFF773
:109B20009BF90028D5D121680B794BB1C86AC01BBD
:109B3000864205D94A89303102FB0080FFF70CF9D3
:109B40002368019903F13002914204BF4FF0FF32C4
:109B5000DA6223685B895E43A368B0443344A36040
:109B6000DAF80030AD1B3344CAF800308FE7A76144
:109B70002068A2684689A169B2FBF6F306FB1323AD
:109B8000F61AAE4228BF2E46FFF7C6FA0028A0D12B
:109B90002168A0684A89B0FBF2F302FB130330335B
:109BA000324619444046FFF7D7F8D5E7072095E736
:109BB000284693E710B5044604202169C1B1206806
:109BC000FFF7AAFA88B962691378A3B1E52B06D02A
:109BD0002E2B04D0D37A1B0701D4002010BD002106
:109BE0002046FFF773FD0028E7D000232361F5E747
:109BF0000028F2D0F9E70420F7E77FB504460D46C8
:109C0000FFF7EAF8064620B92DB901462046FFF7CE
:109C100035FB04B070BD01ABA3612046FFF7CAFF5E
:109C200004280DD1266129462046FFF79FF8002120
:109C30002046FFF74BFD042804BF00202061E8E721
:109C40000028F0D0E5E710B5C1880446FFF716FB01
:109C500050B921692068FFF75FFA28B9E5226369E6
:109C60001A70012223681A7110BD2DE9F34702AB67
:109C700043F8040D8846184611461446FFF728F9A4
:109C8000054638B92468A7692369BA1E934205D8E6
:109C9000C8F80030284602B0BDE8F08794F800907C
:109CA000B9F1010F19D10227064639462046FFF7C0
:109CB0006BFA431C39D0012839D000B90136A369A9
:109CC0000137BB42F1D8B9F1030F08BF0123266168
:109CD00008BF6371C8F80060DCE703460246064629
:109CE000216A4AB9204601F1010AFFF715FA00BBC3
:109CF0005146628904F130035878B9F1020F4FEAF6
:109D0000002093F800C008D150EA0C0008BF0136CB
:109D10000233023A013FE4D1D5E71868043A30F043
:109D2000704008BF01360433F4E70125CBE7022574
:109D3000C9E70546C7E72DE9F0478CB00191174602
:109D40000646002800F08180002305A9036001A8D1
:109D5000FFF7BEF80546002873D102AB019905A8AC
:109D60000B93FFF73CFD0A9C10B9002C08BF06209E
:109D700017F01C0F07F01F0842D0C8B3042802D107
:109D800005A8FFF738FE48F0080878BB0A9C18F0D1
:109D9000080F3ED0A023A3736C23E3732123002775
:109DA00023742823DDF814906374E77227776777AC
:109DB000A777E77799F800002146FFF71DF8012300
:109DC000A776E7762775677589F80430074600B3EC
:109DD00001464846D9F82CA0FFF708FC30B9059891
:109DE000013FC7605146FFF797F990B1054628E05B
:109DF000E37A13F0110F2CD17807C8D5082520E09D
:109E00000028F3D1E37AD90621D4BA0701D5DB07BC
:109E10001FD4059F18F0080FFB6A18BF48F02008F0
:109E2000C6E9073486F8068038782146FEF7E4FF55
:109E30003061E3693760F3600023B360B361FB888E
:109E4000B38028460CB0BDE8F0870925F9E7042562
:109E5000F7E70725F5E72DE9F84F9B460023CBF8F8
:109E60000030044689461746FEF7B6FF002839D170
:109E7000A379190628D49A0740F1B880E368DF4235
:109E800080F0A980A268002F00F0A5802068438997
:109E9000B2FBF3F103FB1123002B7AD18578013D4E
:109EA0000D4015F0FF0520D182B9216931B9FFF7C6
:109EB000CAFA01462061002900F08D8001290AD1EB
:109EC000A37963F07F03A37102200BE06169FFF7C0
:109ED000BAFA0146EFE74B1C06D10120A37963F0E3
:109EE0007F03A371BDE8F88F61612068A369C26A2E
:109EF0009A4204D10021FFF70FF90028EDD1D4F8E0
:109F000000A061695046FEF785FF0028D8D0BAF856
:109F10000A6000EB0508B7FBF6F65EB39AF802306C
:109F2000AA199A4288BF5E1BF3B2424649469AF884
:109F30000100FFF7D5F805460028CED12068C16A98
:109F4000A1EB08018E4207D94289303002FB019112
:109F5000FEF702FF23681D7123685B895E43A368D7
:109F6000B1443344A360DBF80030BF1B3344CBF86B
:109F7000003087E7D4E902239A4208D3314650469D
:109F8000FFF7CAF80028A8D12368C3F82C80C4F8CA
:109F900018802068A2684689A169B2FBF6F306FB27
:109FA0001323F61ABE4228BF3E46FFF7B5F8002835
:109FB00093D12068A1684289B1FBF2F302FB13132D
:109FC0003033324618444946FEF7C6FE4FF00102D0
:109FD00023681A71C3E7D4E90232934288BFE36071
:109FE000A379002043F02003A3717BE7072079E7E2
:109FF00010B500210446FFF78FF8034600283FD133
:10A000002378032B38D16379B3B304F130010B46C5
:10A01000E06204F50C72934202D003F8010BFAE7F8
:10A020004AF65523A4F82E32164B6078236303F1C9
:10A03000FF5303F500532033C4F8143223691A1276
:10A0400084F8183284F819221A0C1B0E84F81B327B
:10A05000E36884F81A221A1284F81C3284F81D224C
:10A060001A0C1B0E84F81E2284F81F326269012329
:10A07000FFF736F8002363716378003318BF0123BC
:10A08000184610BD5252614110B50446FFF7B0FFAB
:10A090002046BDE810400121FFF73EB870B594B0EE
:10A0A000019006A901A8FEF713FF0446E8B903AB27
:10A0B000019906A80C93FFF792FB0446A8B90B9EE2
:10A0C000B6B1F37A13F0010F18BF0724069B31468F
:10A0D0001878FEF791FE05463CB9F37ADB0609D401
:10A0E00006A8FFF7B0FD0446D8B1204614B070BDF5
:10A0F0000624EBE7012822D91C2206A90DA8FEF7A9
:10A100002BFE02210DA80F95FFF7B8F80446002892
:10A11000EBD10DA8FFF74EFD044690B10428E4D121
:10A12000DEE725B90698FFF763FF0446DDE7294619
:10A130000698FFF75BFA04460028D6D1F2E702241E
:10A14000D3E70724D1E730B58DB001900D4601A8C3
:10A1500005A91446FEF7BCFEA0B902AB019905A8FB
:10A160000B93FFF73CFB68B90A9A6AB1D37A05985A
:10A170005D402C4004F027045C400123D47203713D
:10A18000FFF736FF0DB030BD0620FBE710B58CB0F1
:10A1900001900C4601A805A9FEF79AFEB8B902ABDA
:10A1A000019905A80B93FFF71AFB80B90A9B83B1AD
:10A1B000E28805989A75E2881212DA75A2881A76F2
:10A1C000A28812125A7601230371FFF711FF0CB017
:10A1D00010BD0620FBE730B59BB001900C4601A8EE
:10A1E0000CA9FEF775FE002869D10C9B0199139309
:10A1F0000CA803AB1293FFF7F2FA00285FD1119974
:10A2000000295ED015220B3106A8FEF7A5FD0CA98A
:10A2100013A81C22FEF7A0FD214613A8FFF7DFFAC2
:10A22000002850D004284AD113A8FFF7E4FB0028E7
:10A2300045D1189D13220DF11A0105F10D00FEF70D
:10A240008BFD9DF818300C9C43F02003EB7201232A
:10A2500023710E9A159B9A422AD0EB7ADB0627D5FA
:10A2600029462078FEF7C8FD01462046FEF7D2FDBC
:10A27000014650B32046FEF74FFF00BB0C9A92F800
:10A2800051302E2B14D11178159B032903D1516A1B
:10A29000994208BF0023191282F86A301B0C82F819
:10A2A00064301B1282F86530012382F86B10137141
:10A2B0000CA8FFF7C8FC10B90C98FFF799FE1BB06B
:10A2C00030BD0420FBE70820F9E70220F7E710B5CE
:10A2D0000446FEF781FD002833D1A3799B0630D5D3
:10A2E000E1692068FEF718FF014650BB236ADA7A5D
:10A2F00042F02002DA72E2681A77E26812125A77A4
:10A30000E2899A77E27BDA77226999749A76101259
:10A31000120C1A7512125A75A0229A756C22DA75EF
:10A3200021221A7628225A760122D876D974A37966
:10A3300023F02003A37123681A712068BDE8104040
:10A3400056E610BD10B50446FFF7C1FF00B9206006
:10A3500010BD2DE9F04F8FB0039007A903A8FEF7B9
:10A36000B7FD04460646002840F09E8004AB0399E2
:10A3700007A80D93FFF733FA0446002800F09C80ED
:10A38000042840F0918031460798FFF75CF80546B5
:10A39000002800F08480012800F08A80431C00F02F
:10A3A000898031460798FEF7B7FE0446002877D12A
:10A3B000079F29463846FEF72DFD07F13008034672
:10A3C00041467A8912F1FF3208D24246202107F134
:10A3D0003B00824205D002F8011BFAE701F8014B6D
:10A3E000F0E7102287F83B20A02287F846206C2255
:10A3F00087F8472021222E2487F8482028222E0C77
:10A400005FFA86FB5FFA85F9C5F3072A360A87F8F3
:10A4100049204146202207F1500087F8304087F854
:10A420004A9087F84BA087F844B087F845600193BD
:10A43000FEF792FC079987F851400878099A03289B
:10A44000019B03D1486A904208BF002287F86A2026
:10A450001012120C87F86420121287F8652000226F
:10A4600087F86B008F78029247B307985A1CC36233
:10A470004FF00103002103710192FEF74DFE0446E7
:10A4800070B94146079B029A5B8913F1FF3302D3EF
:10A4900001F8012BF9E7013FFFB2019BE3E7072435
:10A4A00029460798FFF7A2F820460FB0BDE8F08FC5
:10A4B0000224F5E70124F3E70824F5E707A8FFF7EE
:10A4C0009AFA04460028EBD110220C9B0798DA7206
:10A4D000A0229A756C22DA7521221A76282283F836
:10A4E0001A905A7683F81BA083F814B05E75012386
:10A4F0000371FFF77DFD0446D6E770B959B1012914
:10A5000003D140F2FF73136070478B1E012B04D8F8
:10A510004FF48053F7E7084670470420704701481E
:10A52000704700BFA06C21280020FFF7ADBD0022BE
:10A53000014B18781A7070476419002005289ABFDB
:10A54000014B185C02207047FB200108014B98600A
:10A55000704700BFB8030020034B9868034B0028E6
:10A5600008BF1846704700BFB8030020340400201D
:10A57000044B00211A6802B11170034A00201170C7
:10A580001A607047B803002004040020022908B5AF
:10A590000A4608D10A2201460648FFF7CCFB0528E7
:10A5A00004D9022008BD0129FBD1F4E7024B185C55
:10A5B000F8E700BFC4030020FB20010813B5002109
:10A5C0000D4B04461A7819700AB1FFF7ADFF21460A
:10A5D00001AB4FF480520948FFF73EFA044618B920
:10A5E000074B185D02B010BD0146064800F0A2F806
:10A5F000052CF5D90220F5E764190020C4030020DA
:10A60000FB2001083221010807B5014601AB4FF4D8
:10A6100080520948FFF71FFC019BB3F5805F06D10C
:10A62000052806D8054B185C03B05DF804FB05202F
:10A63000FAE70220F8E700BFC4030020FB2001086E
:10A6400008B5431C01460AD00848FEF748FF18B178
:10A65000052808D9022008BD0448FEF7F3FF034887
:10A66000FFF770FEF4E7024B185CF4E7C403002028
:10A67000FB20010808B50448FFF764FE052896BFD3
:10A68000024B0220185C08BDC4030020FB20010817
:10A6900008B501460448FFF761F9052896BF034B4A
:10A6A0000220185C08BD00BFE8030020FB20010861
:10A6B00010B5044601460748FFF79FFA637A23B1B5
:10A6C000052804D8044B185C10BD0320FCE70220C9
:10A6D000FAE700BFE8030020FB200108014B98695E
:10A6E000704700BFB803002008B501460448FEF7D4
:10A6F000F6FE052896BF034B0220185C08BD00BF7C
:10A70000C4030020FB20010808B5FDF7E3FE30B1CB
:10A710002B38C0B213288EBF0020014B185C08BD37
:10A720004621010808B5FDF7DDFE003018BF012005
:10A7300008BD00BF0FB470B5A4B0289904A80B7869
:10A740000026242B01BF0022154B0131C3E9002252
:10A7500029AA039200F07DFA114C0DF10F0515F8AE
:10A76000013FC3B10A2B616803D02068B0F5C47FF4
:10A7700006DD0E31E029C8BF314626606160EEE794
:10A7800000934FF6FF724FF43043FEF71EF8236834
:10A7900018442060E3E724B0BDE8704004B070477F
:10A7A000341400200FB400B593B014AA52F8041B5F
:10A7B00002A8019200F04DFA02A806F0CBFB372860
:10A7C00004D9064A15210648FDF7E2FC02A8FFF766
:10A7D000B1FF13B05DF804EB04B070475A210108D3
:10A7E000762101080FB410B592B014AA52F8041BD8
:10A7F00002A8019200F02DFA02A806F0ABFB372860
:10A8000004D9124A24211248FDF7C2FC02A806F01E
:10A81000A1FB04460F4806F09DFB2044023040286F
:10A820000BD90C48FFF786FF0B490A4806F034FBAA
:10A830000A4A2A210648FDF7ABFC02A9054806F0A2
:10A840002DFA12B0BDE8104004B070475A2101083B
:10A85000762101083C14002095100108EF2301081F
:10A8600010B5074C237A53B104F10800FFF762FFDB
:10A8700004F108000349BDE8104006F00DBB10BD0F
:10A88000341400209510010810B5044606F062FB50
:10A890003E2804D9064A0E210648FDF779FC064BEE
:10A8A0002146184606F0F8FA012280F8402010BD33
:10A8B0008D210108BC2101087C140020004870474C
:10A8C0007C140020034B93F8400010B1002283F861
:10A8D000402070477C14002008B50A490A4B0868DC
:10A8E0001A6890420CD018464FF4987206F016F988
:10A8F000BDE8084000F100414FF0005004F038BCC2
:10A9000008BD00BF008000080000002010B504460C
:10A91000FFF7E2FF014B53F8240010BD00000020B8
:10A9200038B504460D46FFF7D7FF024B43F82450D5
:10A9300038BD00BF0000002080F310887047EFF39F
:10A9400010807047704705F09DBB2DE9F74F054615
:10A95000DDE90C8910460F460E991446019305F067
:10A960004FFC1649002301F11C028E469246144802
:10A9700058F823C04FEA830B41F823C059F82360ED
:10A9800042F82360BCF1000F01D141F823000EB959
:10A990004AF80B000133072BEAD13B88019AAEF845
:10A9A0003830084B1D6002232B72074B1C60074B8D
:10A9B0001A60236803B0BDE8F04F1847C0140020A8
:10A9C00045A90008DC160020D8160020D01600206B
:10A9D000012001F04FB908B5002001F04BF9BDE8A6
:10A9E00008404FF4FA70FDF7D7BD1FB5FFF7F3FF2E
:10A9F000084B094A0293094B09490193094B0A483C
:10AA000000930A4BFFF7A1FF05B05DF804EB04F0DB
:10AA1000A7BD00BF6C2A0020980200204003002040
:10AA2000240300205C030020502A002000030020A3
:10AA30001FB5FFF7D0FF074B074A0293074B0849A2
:10AA40000193084B08480093084BFFF77EFF05B0C1
:10AA50005DF804FBFC010020680100201C020020BE
:10AA6000EC01002038020020EC160020C801002074
:10AA700010B5044605F018FAA0B2BDE8104002F087
:10AA8000ADBF00BF20B103681970036801330360D4
:10AA90007047002A2DE9F04106460C461FDD0D1BCC
:10AAA00011F8010B0028FAD1AA42CCBF521B024672
:10AAB00013F0020F0CBF20273027DB0717D41546F1
:10AAC000002D0EDC22EAE273D21A1D1B05EB0408EE
:10AAD00014F8011B69B13046FFF7D4FFF6E72027D1
:10AAE000EBE739463046FFF7CDFF013DE8E70023AD
:10AAF000EBE71446002C05DD39463046FFF7C2FF70
:10AB0000013CF7E7002AACBF08EB020008F10000A7
:10AB1000BDE8F0812DE9F0430C4685B08046002168
:10AB20002046154605F0ACFF00B32D2304F1004488
:10AB30008DF804300DF10507204605F0C9FF01230B
:10AB40000A2101FB03F2824212DD0A21002B07F1E8
:10AB500001060FDD90FBF3F202F1300706F8017CED
:10AB600003FB1200374693FBF1F3EFE701AFE3E796
:10AB70001346E6E72E23002D3B7008BF032537461A
:10AB8000DFF84490BB1B9D4212DD204605F0A0FF7C
:10AB900005F084FD0146204605F0CAFC494605F053
:10ABA000D1FD044605F094FF303007F8010BE9E7CA
:10ABB000002225EAE5757255202301A94046FFF7DA
:10ABC00068FF05B0BDE8F08300002041F0B585B016
:10ABD0009446DDE90A2706461C4641B9302304A9FC
:10ABE00021F80C3D3B46FFF754FF05B0F0BD33B1F3
:10ABF000BCF10A0F16D1002914DA012449420023BE
:10AC000004AD05F8013D0C9B3A3B69B1B1FBFCF08A
:10AC10000CFB10110929C8BFC918303105F8011DF6
:10AC20000146F2E70024EAE73CB16AB1BB070BD565
:10AC30002D213046FFF726FF013A3B462946304694
:10AC4000FFF727FF2044D0E72D23013D2B70002480
:10AC5000F3E72DE9F0430E46144600254FF00A08AD
:10AC600089B0DFF8149105903378002B7DD0252B27
:10AC700075D17378002B78D0252B06F101026DD0A9
:10AC80002D2B0ABF01230023B21C16463178013256
:10AC9000302902D143F00203F7E70027314611F8CB
:10ACA000012BA2F130005FFA80FCBCF1090F03D840
:10ACB00008FB07070E46F1E7732A09D121683A46D7
:10ACC000002908BF4946043405A8FFF7E2FE0DE05D
:10ACD000642A0ED161222146CDE901320123009779
:10ACE0000A22096805A80434FFF770FF05440136FD
:10ACF000BAE7662A0ED1073424F00703D3E900012E
:10AD000003F1080405F0C0FB3A46014605A8FFF729
:10AD100001FFEBE7782A07D121466122CDE9013214
:10AD2000009700231022DCE7582A02D12146412255
:10AD3000F4E7752A06D161222146CDE90132009758
:10AD40000023CDE7632AD2D1226807A98DF81C2001
:10AD5000002204348DF81D203A46B5E716463178B6
:10AD600005A8FFF78FFE0135C1E700222846059BA5
:10AD70001A7009B0BDE8F083D22101080EB403B502
:10AD800003AA52F8041B0192FFF763FF02B05DF8BB
:10AD900004EB03B0704700BF41F20553252110F8C2
:10ADA000012B12B101FB0323F9E748F20D529BB2CC
:10ADB000934200F0668200F2E88044F240729342CF
:10ADC00000F02D826ED842F25702934200F00B82BF
:10ADD00033D840F66332934200F0398216D840F2FD
:10ADE0000952934200F0498205D8B3F5866F00F00E
:10ADF00034820020704740F2CC72934200F0FD8113
:10AE000040F6AD029342F4D1CC48704740F6C542BB
:10AE1000934200F0208205D840F69E329342E8D15A
:10AE2000C748704741F28C42934200F02E8242F2B2
:10AE300023029342DDD1C348704743F6BF42934299
:10AE400000F0DD81B3F5735F15D2B3F5275F00F035
:10AE5000228205D842F206229342CAD1BA487047EC
:10AE600043F2EF42934200F0EE8143F667029342D1
:10AE7000BFD1B648704743F65E62934200F0F3815B
:10AE800005D843F6F9429342B3D1B148704744F232
:10AE9000E442934200F0D18144F2DE629342A8D1B1
:10AEA000AC48704746F63A72934200F0AA8134D813
:10AEB00045F69412934200F0D88116D844F62C52ED
:10AEC000934200F0A88105D844F63A12934290D1FB
:10AED000A148704744F66672934200F0AA8145F299
:10AEE0005772934285D19D48704745F6723293421E
:10AEF00000F0CD8106D845F6FD2293427FF479AF6C
:10AF000097487047B3F5C64F00F0878146F68F1219
:10AF100093427FF46EAF9348704748F27E029342AB
:10AF200000F0BD8118D847F20462934200F0A78177
:10AF300006D847F28F5293427FF45BAF8A4870473E
:10AF400047F6BA62934200F0508148F2630293429E
:10AF50007FF44FAF8548704748F2DB02934200F020
:10AF60008A8106D848F2A40293427FF442AF804817
:10AF7000704748F2E822934200F0858148F2ED32B2
:10AF800093427FF436AF7B4870474CF6C002934241
:10AF900000F04B8175D849F64B52934200F069811D
:10AFA00037D849F24812934200F0458118D848F644
:10AFB000D442934200F01F8106D848F2AC5293422B
:10AFC0007FF417AF6C48704748F67472934200F0F4
:10AFD000408149F2010293427FF40BAF674870470A
:10AFE00049F29352934200F0128106D849F26F421F
:10AFF00093427FF4FEAE6248704749F65512934281
:10B0000000F0F58049F6D33293427FF4F2AE5D480A
:10B0100070474BF6C202934200F0298118D84AF2D9
:10B02000B562934200F0038106D84AF205129342BA
:10B030007FF4DFAE544870474AF66412934200F042
:10B0400004814BF2A13293427FF4D3AE4F48704754
:10B050004CF25662934200F0D88006D84BF60F228D
:10B0600093427FF4C6AE4A4870474CF2C0629342A6
:10B0700000F0E7804CF2017293427FF4BAAE45488B
:10B0800070474EF68352934200F00D8137D84DF64B
:10B09000AA22934200F0AD8018D84CF6D612934203
:10B0A00000F0F78006D84CF6321293427FF4A1AE3E
:10B0B000394870474CF6CE32934200F0EE804DF6A0
:10B0C000F40293427FF495AE344870474DF62372F4
:10B0D000934200F0A88006D84DF6AF6293427FF409
:10B0E00088AE2F4870474EF2EB22934200F08B80DF
:10B0F0004EF24C3293427FF47CAE2A4870474FF2B6
:10B10000EA72934200F0CD8052D84FF2B5029342DA
:10B1100000F0958006D84FF2A80293427FF469AE02
:10B12000214870474FF24322934200F098804FF23B
:10B13000C24293427FF45DAE1C48704759A5000897
:10B14000AD8C000821020108238A0008A9850008A7
:10B15000C5A800087DAD0008E58C000899850008A9
:10B1600069040108A7860008DDA60008FD8800081C
:10B170009D8500086F040108C186000839A90008F0
:10B18000630401087704010891860008E9A6000815
:10B19000FD860008AF85000831AA0008B3870008C3
:10B1A000B1A600080586000841A6000887870008A8
:10B1B0004FF6AF52934234D00AD84FF6FD22934255
:10B1C00027D04FF6A44293427FF413AE374870471E
:10B1D0004FF62F72934244D04FF6E47293427FF4BD
:10B1E00008AE334870473348704733487047334898
:10B1F0007047334870473348704733487047334887
:10B200007047334870473348704733487047334876
:10B210007047334870473348704733487047334866
:10B220007047334870473348704733487047334856
:10B230007047334870473348704733487047334846
:10B240007047334870473348704733487047334836
:10B250007047334870473348704733487047334826
:10B260007047334870473348704733487047334816
:10B270007047334870473348704733487047334806
:10B2800070473348704733487047334870473348F6
:10B2900070473348704733487047334870473348E6
:10B2A0007047334870473348704700BF8104010836
:10B2B00035A7000853AC0008C5030108BDA8000865
:10B2C00089A800083FA900080DA9000821A90008C5
:10B2D0007304010875040108650401085904010894
:10B2E0005B0401086D0401085F0401087D04010886
:10B2F000790401087B040108850401084DA50008B4
:10B3000071A500088DA50008BDA5000875A6000858
:10B3100009A6000891A6000825A7000809A70008AB
:10B32000518900083D8900089B870008AF87000805
:10B330003B86000877890008E5850008B588000885
:10B34000F98800082F890008E3890008758900083A
:10B350004F8600084BA90008EBA9000871AA000855
:10B36000D1A90008D7A90008218D0008A18C0008E8
:10B37000978C0008DD8500082DE9FF411A4D1B4C14
:10B38000471E17F8016F66B32B785BB14BF20823A9
:10B39000002000934FF4C872F023E0212870206051
:10B3A000FDF730F90A2E02D101232B70E9E74FF0A7
:10B3B000000804ABADF80C8003F8046D00934FF661
:10B3C000FF724BF20823E1212068FDF795FA23680C
:10B3D0001844B0F5C87F01DA2060D2E7C4F80080D5
:10B3E000E2E704B0BDE8F08134010020FC14002045
:10B3F000FFF7C2BFF7B50D4600240969074600F004
:10B40000C7FBEE686B69A3420EDD0DF107013846FC
:10B4100000F0B0FBA25D9DF807309A4202D00020F8
:10B4200003B0F0BD0134EDE70120F9E70023CA685D
:10B430004969994203DD985C18B90133F9E70120A5
:10B44000704700207047F7B50C460025096906468D
:10B4500000F09EFBE7686369AB4209DD0DF107016F
:10B46000304600F087FB9DF80730EB550135F2E7D9
:10B4700021463046FFF7BEFF48B9E26861690548DA
:10B48000FFF758F9044A64210448FCF781FE03B031
:10B49000F0BD00BFAF220108EF230108D22201084E
:10B4A0000023184610B5CA684C699C4202DD9854C6
:10B4B0000133F9E710BD2DE9F04F0C46C7B0D1F8C4
:10B4C0001490D1F80C8009690746002600F060FB53
:10B4D000FDF7ECFBDFF880A0DFF878B04E4520DA0E
:10B4E000A9EB0605B5F5807FA8BF4FF48075002154
:10B4F0003B6804919A6806AB0393019303A90595F1
:10B5000038469047019B2A4619464046FDF708FCFD
:10B5100020B9524680215846FCF73AFE2E44A844F2
:10B52000DCE7FDF7DFFB21463846FFF763FF48B94C
:10B53000E26861690548FFF7FDF8054A8A21054878
:10B54000FCF726FE47B0BDE8F08F00BFAF22010830
:10B55000EF230108D2220108ED2201082DE9F04372
:10B5600091B04F69CE6840220021684605F04CFB3F
:10B570000025FDF79BFBDFF83880DFF83890BD42EF
:10B5800011DA7C1B402CA8BF402469462246304675
:10B59000FDF7C6FB20B942469D214846FCF7F8FD61
:10B5A00025442644EBE7FDF79DFB11B0BDE8F08391
:10B5B000ED220108D222010830B591B00C460546B3
:10B5C000FFF718FFE368626940B113496846FFF767
:10B5D000D5FB6846FFF7D0FE11B030BD0F49684675
:10B5E000FFF7CCFB6846FFF7C7FEE3681B0E202B76
:10B5F00004D121462846FFF726FFEDE7082B04D1AA
:10B6000021462846FFF757FFE6E7054ABD210548D2
:10B61000FCF7BEFDE0E700BF072301082223010875
:10B620003D230108D222010830B591B00C460546F1
:10B63000FFF7FCFE6269E36840B113496846FFF713
:10B640009DFB6846FFF798FE11B030BD0F49684674
:10B65000FFF794FB6846FFF78FFEE3681B0E202B75
:10B6600004D121462846FFF71BFFEDE7082B04D144
:10B6700021462846FFF772FFE6E7054AD72105482D
:10B68000FCF786FDE0E700BF072301085F23010800
:10B690003D230108D22201082DE9F04FADF5097DC7
:10B6A0000446FFF74CF9A7492246029028A8FFF765
:10B6B00065FB28A8FFF760FEA34B0993FEF74CFF3C
:10B6C00000230A9001212046CDE90B33FEF75EFFEF
:10B6D00080B122469D4928A8FFF750FB28A8FFF714
:10B6E0004BFE00240298FFF727F920460DF5097D4F
:10B6F000BDE8F08F0A98FEF761FF06460028E8D102
:10B70000342328250DF16C0B699068A909A86A9368
:10B71000CDF8A0B100F0F0F9DBF82030BBF8321022
:10B7200009A805FB013100F033FA11AC68A909A89A
:10B7300068946A95699600F0DFF92369844D019356
:10B74000D4F8148038AC0FCD0FC40FCD0FC40FCD7B
:10B750000FC495E80F0084E80F0030464FF0FF3328
:10B7600048A958AA41F8203042F82030013010286A
:10B77000F8D10026DFF80092DFF800A2BBF83030E5
:10B78000B34240F385802824DBF8201009A804FB8D
:10B79000061100F0FDF96A94002468AD11AF294646
:10B7A00009A86897699400F0A7F9396809A8A8EB77
:10B7B00001030393019B8DF8AE41194400F0E8F9B1
:10B7C000039B0DA90E2BA8BF0E2309A80D95CDE94B
:10B7D0000E4300F091F905224946284605F0E8FBA2
:10B7E00080B95C492A4628A8FFF7C8FA28A8FFF7BD
:10B7F000C3FD394609A8FFF7DFFE5748FFF7BCFD38
:10B800000136BBE705225146284605F0D1FB00284A
:10B81000E7D007225149284605F0CAFB0028E0D0AE
:10B8200004224F49284605F0C3FB60B92A4649491E
:10B8300028A8FFF7A3FA28A8FFF79EFD394609A814
:10B84000FFF7F2FED9E738AF57F82410284605F085
:10B8500045FA78B994B92A46424928A8FFF78EFAE2
:10B8600028A8FFF789FD404A4FF4B1713F48FCF723
:10B870008FFC36E70134102CE6D1ECE748AB43F8F7
:10B88000246088AB03EB8404159B44F8C03CB7E705
:10B8900000264FF0FF3848AB53F82630591C33D000
:10B8A0002825DBF8201009A805FB031100F070F92A
:10B8B00000236A9568AD294611AC09A8699368947C
:10B8C00000F01AF938AB53F82620224928A8FFF7D0
:10B8D00055FA28A8FFF750FD731E0B2B11D8DFE88F
:10B8E00003F00606220C0C0C2D104F1010CB204A32
:10B8F00040F277111D48FCF74BFC214609A8FFF7E1
:10B900005BFE1548FFF738FD0136102EC3D1DBF87A
:10B910001820184928A8FFF731FA28A8FFF72CFDAE
:10B92000DBF81840DEE6124A4FF4C2710F48FCF70C
:10B930002FFC214609A8FFF777FEE2E7D4F8108034
:10B94000DFE700BF79230108E42101089323010800
:10B95000F0210108B023010894100108BA2301085E
:10B96000C2230108C7230108E1230108D2220108EC
:10B97000EF230108A5240108AA230108B423010824
:10B980005148FFF7F9FCDDF880A1BAF1FF3F05D17E
:10B990004E4A40F291114E48FCF7FAFB5F9B01338F
:10B9A00005D14C4A4FF4C9714948FCF7F1FB002717
:10B9B0006369DFF81C91DB080193019B9F42A0DAC9
:10B9C000216909A801EBC70100F0E2F804AB689314
:10B9D00008236A930023294609A8699300F08CF88C
:10B9E0009DF81430162B05D03B4A40F29D11484675
:10B9F000FCF7CEFB059909A8090A0AEB011100F032
:10BA0000C7F80DAB689310236A930023294609A851
:10BA1000699300F071F8B8F1000F05DA2F4A40F28F
:10BA2000A3114846FCF7B4FB0D9909A8414400F066
:10BA3000AFF80023802206A909A8CDE907320695B0
:10BA400000F05AF82846FFF7A7F9034680B903909B
:10BA50002348FEF76FFE2846FEF76CFE2148FEF7EE
:10BA600069FE214A4FF4D8714846FCF791FB039BCD
:10BA7000049A01371360A0E71C48FFF77DFC676953
:10BA80002169002409A800F083F82346DFF86490B8
:10BA9000BF080DF1340ABC4212DA0422294609A873
:10BAA000699301936A92CDF8A0A100F025F8DAF825
:10BAB000002090474846FFF75FFC0134019BEAE70E
:10BAC0000B48FFF759FC1CE7F12301080524010886
:10BAD000D222010827240108492401086F24010803
:10BAE000872401089C230108902401089B24010855
:10BAF00094100108032401082DE9F84F04460E466E
:10BB00000025184FDFF86480DFF86490B368AB421B
:10BB100025DDD4E901BA0AF10103A360B3689D42AF
:10BB200004DB3A4659214046FCF732FB33681BF8E8
:10BB30000A205A55A368B3F5805F0ED10023A36095
:10BB4000E368606803F58053E360FEF737FD20B1DA
:10BB50004A4666210448FCF71BFB0135D6E7204620
:10BB6000BDE8F88F302201088E2201085422010816
:10BB7000742201081FB500220123CDE902230368C6
:10BB800001919B6801A9984705B05DF804FB00008E
:10BB900010B50446C1F30B00E368A060081A8342A5
:10BBA0000DD0E060FEF7A0FD6068FEF707FD30B144
:10BBB000BDE81040024A76210248FCF7E9BA10BD00
:10BBC000742201088E220108024B80B2D3F8C430DF
:10BBD0001880704700150020024BD3F8C830188831
:10BBE000704700BF00150020074810B4D0F8E440AB
:10BBF000D0F8BC31D0F8C021D0F8C411A446D0F898
:10BC0000C80110BC604700BF001500207047024B00
:10BC1000D3F8C83018887047001500207047704767
:10BC200010B4084C013A013BC4F8C801C4F8C4116F
:10BC3000C4F8C021C4F8BC31D4F8E040A44610BC1C
:10BC4000604700BF001500207047094A10B4D2F8C1
:10BC5000E040C2F8C801C2F8C411C2F8C001C2F87D
:10BC6000BC11D2F8D030A446D2F8CC2010BC60472A
:10BC700000150020704710B517494FF0006003F021
:10BC800077FA4FF47A72154BF0211B68144CB3FB12
:10BC9000F2F3144A013B5360134B204683F8231000
:10BCA0000023936007231360104B9847236D0620F1
:10BCB0009847236D052098474FF4FA70FCF758FC1D
:10BCC000236D04209847D4F84821D4F8441108483B
:10BCD000BDE81040FEF766BD008000004C0100206A
:10BCE0000015002010E000E000ED00E00101000878
:10BCF0001725010810B5324AD2F89C10D2F89830B6
:10BD000009781B7800290CBF02200020D2F8A0106F
:10BD1000002B14BF034640F00103097800290CBF33
:10BD2000042000201843D2F8A4301B78002B0CBF4D
:10BD3000082300231843D2F8A8301978D2F8AC3081
:10BD40001B785B0343EA0133D2F8B010097843EA69
:10BD50008133D2F8B410097843EAC133D2F8CC1158
:10BD6000C2F8CC3123EA010421EA030111F4805F17
:10BD700007D013F4005F14BF4FF480724FF40072C9
:10BD80001043490407D513F4004F14BF4FF4006269
:10BD90004FF480621043A10407D513F4805F14BFF1
:10BDA0004FF480724FF400721043220407D513F44D
:10BDB000804F14BF4FF400634FF48063184310BDED
:10BDC00000150020002070470020704713B5154C67
:10BDD0006946A369144843F00403A3614FF4C053B8
:10BDE000ADF8003018238DF8033001F036FFE36919
:10BDF000002043F40003E36100F07CFC4FF4A060FA
:10BE000003F080F94FF40573ADF8043000238DF88A
:10BE10000630012301A88DF8073003F07DF902B048
:10BE200010BD00BF001002400008014008B5044BDF
:10BE30004FF48052D3F850319847012008BD00BF1D
:10BE40000015002008B5044B4FF48052D3F854314C
:10BE50009847012008BD00BF00150020034A136861
:10BE600003F0380318431060704700BF0020024001
:10BE7000044B1A6822F008021A601A68104318600E
:10BE8000704700BF00200240044B1A6822F01002E5
:10BE90001A601A6810431860704700BF0020024003
:10BEA000034B044A5A6002F188325A60704700BF5F
:10BEB0000020024023016745FFF7F2BF024A1369E1
:10BEC00043F080031361704700200240FFF7F6BF84
:10BED000014BD8698008704700200240014B186A66
:10BEE000704700BF00200240024BD869C0F34000F9
:10BEF000704700BF00200240024B1868C0F340109A
:10BF0000704700BF00200240044B1A6911B1104372
:10BF10001861704722EA0000FAE700BF00200240E3
:10BF20000128064B03D1D86900F001007047DB6897
:10BF3000034214BF01200020704700BF00200240D0
:10BF4000014BD860704700BF00200240084BDA6800
:10BF5000D10709D4DA68520708D4DB6813F0100F50
:10BF600014BF03200420704701207047022070474F
:10BF700000200240084BDA68D10709D4DA6852077A
:10BF800008D4DB6813F0100F14BF0320042070479F
:10BF900001207047022070470020024010B504467F
:10BFA000FFF7E8FF012806D10CB9052010BDFFF707
:10BFB000E1FF013CF6E7002C08BF0520F6E738B5A5
:10BFC00005464FF43020FFF7E9FF042813D10A4C4F
:10BFD0004FF43020236943F0020323616561236934
:10BFE00043F040032361FFF7D9FF236923F00203E5
:10BFF000DB04DB0C236138BD0020024010B54FF498
:10C000003020FFF7CBFF042812D10A4C4FF4302028
:10C01000236943F004032361236943F04003236150
:10C02000FFF7BCFF236923F00403DB04DB0C23616F
:10C0300010BD00BF00200240FFF7E0BF38B5FFF79A
:10C0400053FF00284FF430200CBFA5250025FFF733
:10C05000A5FF04282BD1164C164B4FF43020A360BB
:10C0600003F18833A360236943F02003236123692C
:10C0700043F040032361FFF791FF04280FD12369A8
:10C080004FF4005023F02003DB04DB0C2361236911
:10C0900043F010032361084B1D80FFF77FFF052845
:10C0A00005D0236923F01003DB04DB0C236138BDCA
:10C0B000002002402301674500F8FF1F002373B5ED
:10C0C00006464FF400500D460193FFF767FF042822
:10C0D0001BD10F4C4FF40050236943F0010323613F
:10C0E000ABB23380FFF75AFF042808D1023601961D
:10C0F000019B2D0C1D804FF40050FFF74FFF23696B
:10C1000023F00103DB04DB0C236102B070BD00BF30
:10C110000020024070B505464FF400500E46FFF770
:10C120003DFF04280FD1084C4FF40050236943F021
:10C13000010323612E80FFF731FF236923F0010300
:10C14000DB04DB0C236170BD0020024070B50646A5
:10C150004FF400500D46FFF721FF042817D10C4C77
:10C160000C4BADB2A36003F18833A36023694FF495
:10C17000005043F0100323613580FFF70FFF0528BF
:10C1800005D0236923F01003DB04DB0C236170BDB1
:10C19000002002402301674510B504464FF40050CB
:10C1A000FFF7FCFE04283BD1E443224B224AE1B2D4
:10C1B0009A6002F188329A601A69FF2942F01002EF
:10C1C0001A6123D1C4F30723FF2B07D01B4A4FF476
:10C1D00000505381FFF7E2FE04281FD1C4F3074348
:10C1E000FF2B07D0154A4FF400509381FFF7D6FE7E
:10C1F000042813D1240EFF2C13D104200D4A1369F7
:10C2000023F01003DB04DB0C136109E00B4B4FF44C
:10C2100000501981FFF7C2FE0428D3D00528EDD1C4
:10C2200010BD064BA4B2DC814FF40050FFF7B6FE00
:10C23000F4E700BF002002402301674500F8FF1F1C
:10C2400038B505464FF43020FFF7A8FE04282ED15C
:10C250001D4C1E4B4FF43020A36003F18833A360C4
:10C26000236943F020032361236943F040032361E2
:10C27000FFF794FE04281DD1236923F02003DB047B
:10C28000DB0C2361236943F010032361104B7DB164
:10C2900000221A804FF43020FFF780FE052806D0D8
:10C2A000094A136923F01003DB04DB0C136138BD6A
:10C2B000A522EEE70528FAD0236923F02003DB044A
:10C2C000DB0C2361F3E700BF002002402301674538
:10C2D00000F8FF1FF8B5134C134B0746A36003F19A
:10C2E0008833A3604FF400500E461546FFF756FE04
:10C2F000042815D1236947F0F80743F010032361A0
:10C300003E430A4B35435D804FF40050FFF746FE35
:10C31000052805D0236923F01003DB04DB0C23611F
:10C32000F8BD00BF002002402301674500F8FF1F51
:10C33000FFF734BE08B5154B98420BD101214FF4DD
:10C34000805000F06FFABDE8084000214FF48050A3
:10C3500000F068BA0E4B98420BD101214FF4804097
:10C3600000F06CFA00214FF48040BDE8084000F076
:10C3700065BA084B984208D101214FF4004000F003
:10C380005DFA00214FF40040EFE708BD00300140A6
:10C3900000380040003C0040038810B503F44152CF
:10C3A0004C880B8823438C882343CC8823430C89F7
:10C3B00023434C8923438C892343CC892343134350
:10C3C0000380838B23F400631B041B0C83830B8A81
:10C3D000038210BD838BF0B523F47B6323F00F033E
:10C3E0008383022303848B68868B022B87B00546E8
:10C3F0000C46B6B239D08B8801A8002B14BF022797
:10C40000012700F0ABF9E3880199B3F5007F18BF6D
:10C410007B014FF00A0214BFB1FBF3F30B0A534345
:10C42000A0680A22B3FBF0F305339BB2B3FBF2F32F
:10C4300003F001021202C3F34F03991E89B2FE29D1
:10C4400024BF002202231343E28813439BB2628875
:10C450002B8423881343A28843F400631343A289E7
:10C4600013431E43AE8307B0F0BD0022E5E700236F
:10C47000038043808380C380038143818381C381A0
:10C4800007230382704700230222C0E90033826041
:10C4900083817047038819B143F0400303807047DC
:10C4A00023F040031B041B0CF8E7838B19B143F402
:10C4B00080638383704723F480631B041B0CF8E7BD
:10C4C0000B090121994089B2838812B119438180F7
:10C4D000704723EA0101FAE7838812B1194381808A
:10C4E000704723EA0101FAE781817047808970472C
:10C4F0004FF6FF639942038805BF23F480731B0442
:10C5000043F480731B0C03807047838819B143F098
:10C5100004038380704723F004031B041B0CF8E71B
:10C52000038823F400631B041B0C03800388194356
:10C5300001807047038843F4805303807047038869
:10C5400019B143F400530380704723F400531B04D4
:10C550001B0CF8E7012914BF008B808A80B270475A
:10C56000008A70470388B1F5804F1BBF23F48043D6
:10C570001B0443F480431B0C03807047038919425A
:10C5800014BF012000207047C94389B20181704760
:10C590000123828810B5048901F00F0003FA00F02E
:10C5A000204092B205D009098B401A4214BF0120E5
:10C5B000002010BD01F00F0301219940C94389B249
:10C5C000018170470D4B1A6842F001021A605968E8
:10C5D0000B4A0A405A601A6822F0847222F48032B0
:10C5E0001A601A6822F480221A605A6822F4FE0245
:10C5F0005A604FF41F029A60704700BF001002405B
:10C600000000FFF80C4BB0F5803F1A6822F480322E
:10C610001A601A6822F480221A6003D0B0F5802FC5
:10C6200005D070471A6842F480321A6070471A6861
:10C6300042F4A022F9E700BF00100240034A136849
:10C6400023F0F80343EAC000106070470010024076
:10C65000014B1860704700BF00004242034A536814
:10C6600023F47C13194301435160704700100240CA
:10C67000014B1860704700BF60004242034A536894
:10C6800023F0030318435060704700BF00100240BE
:10C69000024B586800F00C00704700BF00100240C9
:10C6A000034A536823F0F00318435060704700BFFB
:10C6B00000100240034A536823F4E06318435060BB
:10C6C000704700BF00100240034A536823F46053D0
:10C6D00043EAC0005060704700100240044B1A78D3
:10C6E00011B110431870704722EA0000FAE700BF4A
:10C6F00009100240014B1860704700BFD800424249
:10C70000034A536823F4404318435060704700BF06
:10C71000001002400022064B01281A701A7002D045
:10C72000042802D070471870704705221A707047AD
:10C7300020100240014B1860704700BF8004424245
:10C74000024A136A18431062704700BF001002408B
:10C75000014B1860704700BF3C0442421B4A10B5B1
:10C76000536803F00C03082B1FD0194B0360536868
:10C770001849C3F30313CC5C0368E3404360546877
:10C78000C4F302240C5D23FA04F484605468C4F3F7
:10C79000C2240C5DE340C3605268C2F3813211448D
:10C7A0000A7CB3FBF2F3036110BD53685168C3F315
:10C7B0008343CC0303F1020302D407494B43D5E77B
:10C7C00051688903F9D40249F8E700BF001002401C
:10C7D00000127A003501002000093D00044B5A691F
:10C7E00011B110435861704722EA0000FAE700BF18
:10C7F00000100240044B9A6911B1104398617047D0
:10C8000022EA0000FAE700BF00100240044BDA6998
:10C8100011B11043D861704722EA0000FAE700BF67
:10C8200000100240044BDA6811B11043D860704721
:10C8300022EA0000FAE700BF00100240044B1A6928
:10C8400011B110431861704722EA0000FAE700BFF7
:10C8500000100240014B1860704700BF4004424284
:10C86000014B1860704700BF4C004242014B1870EA
:10C87000704700BF071002404209012A074B07D149
:10C880001B6800F01F0023FA00F000F00100704761
:10C89000022A0CBF1B6A5B6AF3E700BF001002406C
:10C8A000002307B501933120FFF7E6FF019B013319
:10C8B0000193019BB3F5A06F01D00028F3D0312084
:10C8C000FFF7DAFF003018BF012003B05DF804FB6A
:10C8D000024A536A43F0807353627047001002406B
:10C8E000034B9B68184214BF01200020704700BF13
:10C8F00000100240014B1870704700BF0A10024040
:10C9000001F10051013201F540515210490002B9C4
:10C91000704730F8023B013A21F8043BF7E7002367
:10C9200010B501F10051013201F54051521049009A
:10C930009A4200D110BD51F8234020F81340013332
:10C94000F6E70000014B1860704700BF405C0040F4
:10C95000014B186880B27047405C0040014B186082
:10C96000704700BF445C0040014B186880B27047BC
:10C97000445C0040014B186880B27047485C00403E
:10C98000014B1860704700BF4C5C0040014B1868B9
:10C9900080B270474C5C00404FF6F873014A034088
:10C9A00013607047505C0040014B186880B27047BC
:10C9B000505C0040800000F1804000F5B84001600C
:10C9C0007047800000F1804000F5B840006880B2F8
:10C9D0007047800000F1804000F5B840036823F400
:10C9E000EC4323F07003194389B201607047800063
:10C9F00000F1804000F5B840006800F4C060704766
:10CA0000800000F1804000F5B8400368CA0623F4B6
:10CA1000E04323F040039BB248BF83F010038A0633
:10CA200048BF83F0200343F4004343F080030360D6
:10CA30007047800000F1804000F5B8400368CA04E8
:10CA400023F4804323F070039BB248BF83F48053E8
:10CA50008A0448BF83F4005343F4004343F0800347
:10CA600003607047800000F1804000F5B840012964
:10CA7000036805D123F480531B041B0C036070472B
:10CA80000229FCD123F01003F6E7800000F180407A
:10CA900000F5B840006800F030007047800000F1F9
:10CAA000804000F5B840006800F4405070478000B6
:10CAB00000F1804000F5B840036823F4E04323F020
:10CAC00040039BB283F0300343F4004343F0800300
:10CAD00003607047800000F1804000F5B8400368B3
:10CAE00023F4804323F070039BB283F4405343F458
:10CAF000004343F080030360704740F60F638000FB
:10CB000000F1804000F5B8400268134043F401434F
:10CB100043F0800303607047800000F1804000F51F
:10CB2000B840036823F4F8731B051B0D43F400435E
:10CB300043F0800303607047FFF7EEBFFFF7DDBFF0
:10CB4000FFF7DBBFFFF7E8BF800000F1804000F592
:10CB5000B840006800F03000A0F11003584258417E
:10CB60007047800000F1804000F5B840006800F494
:10CB70004050A0F58053584258417047800000F162
:10CB8000804000F5B840036823F070031B051B0DBF
:10CB900003607047800000F1804000F5B8400368F2
:10CBA00023F4E14323F070031B041B0C0360704764
:10CBB000800000F1804000F5B840036823F0F003E6
:10CBC0001B051B0D43F4404343F080030360704793
:10CBD000800000F1804000F5B840036823F0F003C6
:10CBE0001B051B0D43F4004343F0C0030360704773
:10CBF000800000F1804000F5B84003685B0409D56F
:10CC0000036823F0F0031B051B0D43F4404343F07E
:10CC1000800303607047800000F1804000F5B84059
:10CC200003685B0609D5036823F0F0031B051B0DA1
:10CC300043F4004343F0C00303607047800000F1F9
:10CC4000804000F5B840036841F4004123F0F00350
:10CC50001B051B0D41F080010B43036070478000F2
:10CC600000F1804000F5B840006800F00F00704708
:10CC7000064B49081B6849009BB203EBC00000F15A
:10CC8000005000F54050400001607047505C00408B
:10CC9000054B49081B6849009BB203EBC000034BDE
:10CCA00003445B0019607047505C00400430002072
:10CCB000054B1B689BB203EBC00000F1005000F570
:10CCC0004050400000887047505C0040044B1B6897
:10CCD0009BB203EBC000034B03445B001888704712
:10CCE000505C004004300020044B1B689BB203EBF7
:10CCF000C000034B03445B0019607047505C004068
:10CD0000023000203E290AD94B09C90604BF03F1AD
:10CD1000FF339BB29B0243F40043036070474B0810
:10CD2000CA0748BF01339B02F7E70E4B0E4A1B6848
:10CD30003E299BB203EBC00002444FEA42020AD9EB
:10CD40004B09C80604BF03F1FF339BB29B0243F4B7
:10CD50000043136070474B08C90748BF01339B026B
:10CD6000F7E700BF505C004006300020054B1B6811
:10CD70009BB203EBC000044B03445B001868C0F394
:10CD800009007047505C004002300020054B1B68D2
:10CD90009BB203EBC000044B03445B001868C0F374
:10CDA00009007047505C00400630002010B50B4C65
:10CDB000C000236849089BB2034403F1005303F504
:10CDC00040535B0049001960236852089BB2184425
:10CDD000034B520003445B001A6010BD505C0040DE
:10CDE00004300020FFF744BFFFF752BFFFF760BFDA
:10CDF000FFF76CBF012910B52BD1254CC00021686D
:10CE0000244B89B201440B443E2A4FEA430119D90D
:10CE1000530912F01F0F04BF03F1FF339BB29B02B3
:10CE200043F400430B6023681B499BB21844014440
:10CE30003E2A4FEA41011FD85308D20748BF0133A9
:10CE40009B0222E0530812F0010F18BF01339B022E
:10CE5000E8E702290FD10E4CC00021680D4B89B2C2
:10CE600001440B445B001A6023689BB218440A4BD0
:10CE700003445B001A6010BD5309D00604BF03F1E0
:10CE8000FF339BB29B0243F400430B60F3E700BF08
:10CE9000505C0040023000200630002001291BD1E8
:10CEA000134B14491B683E2A9BB203EBC00001449C
:10CEB0004FEA41010AD95309D00604BF03F1FF33F9
:10CEC0009BB29B0243F400430B6070475308D207A8
:10CED00048BF01339B02F7E7022908D1044B1B68C6
:10CEE0009BB203EBC000034B03445B001A60704726
:10CEF000505C00400230002001291BD1134B144923
:10CF00001B683E2A9BB203EBC00001444FEA41017B
:10CF10000AD95309D00604BF03F1FF339BB29B0229
:10CF200043F400430B6070475308D20748BF0133F6
:10CF30009B02F7E7022908D1044B1B689BB203EB65
:10CF4000C000034B03445B001A607047505C004014
:10CF500006300020FFF70ABFFFF718BF0D49C000D9
:10CF60000B689BB2C2180C4B13445B001B6813F494
:10CF70007C4F0DD10B689BB21844084B03445B00F7
:10CF80001B68C3F30903002B14BF02200020704765
:10CF900001207047505C0040063000200230002025
:10CFA00001290FD1800000F1804000F5B8400368EE
:10CFB00023F0F0031B051B0D43F4004343F0C003B3
:10CFC000036070470229FCD1800000F1804000F529
:10CFD000B840036823F0F0031B051B0D43F44043E6
:10CFE00043F08003ECE741EA00207047C3B2000A37
:10CFF00040EA0320704700BF10B5064C18B9012263
:10D0000023681A8210BD044B1B681B689847206870
:10D010000A30F7E7DC160020D016002010B5064CC9
:10D0200018B9012223681A8210BD044B1B689B6843
:10D03000984720680C30F7E7DC160020D016002057
:10D040001E4B10B51C68002310B90223238210BDAB
:10D050001B4803802178024611F07F0112D1617ACA
:10D060008C0644BF02230370037848064CBF43F08C
:10D07000010323F001031370124B1B681B699847CF
:10D080000F48E4E70129E2D0022915D1617901F0C6
:10D090000F039B0003F1804303F5B84309061B68A7
:10D0A00005D503F03003102BE6D10123E3E703F4A9
:10D0B0004053B3F5805FF7E71846C8E7DC16002059
:10D0C000E2160020D01600202DE9F843234FDFF8A8
:10D0D000A0803D682C8AD4B92E7A042E17D120491D
:10D0E0008B78012B0ED11F4B1A681F4B92B2134441
:10D0F0005B001C6030238C70A8F800303B681E7207
:10D10000BDE8F88310230726A8F80030F6E7AB8ABD
:10D110009C4294BF042602269C4228BF1C46AB6951
:10D120002046984781460020FFF7C2FD224601466F
:10D130004846FFF7E5FB21460020FFF7D5FD2B8A87
:10D140004FF440521B1B2B826B8A1C443023A8F8DF
:10D150000030064B6C821A80D0E700BFDC1600203E
:10D16000E2160020505C004002300020E61600204D
:10D17000E816002010B50A4B0A491B684978DA788E
:10D1800091420AD3997841B99C8834B99A72064B76
:10D190001B685B689847204610BD0220FCE700BF73
:10D1A000DC160020F8140020D016002038B50F4AF5
:10D1B0000F4D12682B689269D978587990472B687F
:10D1C00004469A7A7AB170B91A7962B99B7853B9E0
:10D1D000084B1B68DB6898472B685A79DA72DA7853
:10D1E0001A73204638BD0224FBE700BFD816002082
:10D1F000DC160020D016002038B52F4B1B6818789D
:10D2000010F07F0004D15A7A22F020025A7238BD01
:10D2100002284ED15A88002AF9D11A79002AF6D16B
:10D220005979264D21F08000840004F1804404F5F2
:10D23000B844226849B22D780029B4BF02F0300208
:10D2400002F44052854234D99AB39B7A8BB30029B9
:10D25000236811DA03F03003102B07D1C4B2204643
:10D26000FFF7D9FC30212046FFF7CAFB144B1B689F
:10D270005B6998470020CAE703F44053B3F5805F29
:10D28000F4D198B90F4B1B6893F82C10FFF74DFDA4
:10D29000236823F4804323F070039BB283F440534C
:10D2A00043F4004343F080032360DFE7FFF7A0FC73
:10D2B000EEE70220ABE700BFDC160020F8140020E8
:10D2C000D0160020D816002038B51D4B1D4D18680B
:10D2D0002D78417921F08004A20002F1804202F50C
:10D2E000B842136849B20029B4BF03F0300303F415
:10D2F0004053A54221D94488FCB9F3B1837AE3B104
:10D3000013680029B5BF23F4E04323F4804323F0DE
:10D31000400323F07003B5BF9BB29BB283F01003B0
:10D3200083F4805343F4004343F080031360064BBF
:10D330001B689B699847002038BD0220FCE700BFAE
:10D34000DC160020F8140020D016002008B5064B8B
:10D350001A68537A43F020035372044B1B68DB694D
:10D360009847002008BD00BFDC160020D016002022
:10D37000054B10B51C68628A18B98B889B1A2382EA
:10D3800010BD08681044FBE7DC16002008B50C4B04
:10D3900000201B6893F82C10FFF7C7FC094B1B6893
:10D3A000187A082806D14FF48052074B1A801022B1
:10D3B000064B1A80A0F109035842584108BD00BF2E
:10D3C000D8160020DC160020E6160020E816002003
:10D3D000F7B5964C964E276832683B7A092B19D0E0
:10D3E000944B92B213445B001D886D0005F180459B
:10D3F00005F5C0452B783B706B787B70A888FFF7EC
:10D40000F5FD788028892768FFF7F0FDB880AA89A4
:10D410002368DA80012223681A72DA885D78002A8C
:10D4200061D11A7812F07F024AD1092D03D1FFF79A
:10D43000A1FE40BB16E0052D20D193F90320002A60
:10D4400007DA08232268137203B0BDE8F040FFF743
:10D450009DBF9A78002AF4D19A88002AF1D19B7A4C
:10D46000002BEED13268744B92B2134400225B0061
:10D470001A603022714B1A800623E3E7032D11D185
:10D48000DA78012A08D06E4B28461B685B699847FA
:10D49000032825D10923D5E79B88002BF3D1FFF77B
:10D4A00055FFC6E7012DEED1DA78012AEBD19A8833
:10D4B000002AE8D15B7A9F06E5D5FFF79DFEB8E725
:10D4C000012A04D10B2DDED1FFF770FEB1E7022A4D
:10D4D000D9D1012DF1D0032DD5D1FFF7F5FEA8E765
:10D4E0000028AED1BEE7062D12D11A7855065AD1C2
:10D4F0009B78534A012B126802D1D369DBB952E001
:10D50000022B01D1136AF9E7032B4CD1536AF5E7DB
:10D51000002D54D15988002945D15A6822F47F4200
:10D52000B2F5003F3FD11A7812F07F0216D19B88E6
:10D53000002B38D1434B0025226828465582936141
:10D54000984728464FF6FF7123681A8A8A4233D0DB
:10D55000022801D0002A55D108222EE0012A0AD142
:10D56000374A5879126892699047E0B923689B7AE4
:10D57000002BDFD117E0022A15D15A7902F00F01F2
:10D580008B00100603F180432F4803F5B8431B6856
:10D5900000784CBF03F0300303F44053884202D9B3
:10D5A00012F0700FE4D0264B22681B6850781B697C
:10D5B00098470328C6D1236809221A7244E7082D28
:10D5C00004D11B785B06EED1204BB4E70A2DEAD1DB
:10D5D0001A7802F07F02012AE5D19A7A002AE2D075
:10D5E00059880029DFD15A6822F47F42B2F5803F82
:10D5F000D9D1134A58791268926990470028D2D13C
:10D60000134B98E793F90010002934DAD9880C48B5
:10D6100001910068019D90F82C00AA4284B219D9AA
:10D62000019A1A829C82FFF74FFD0DE7DC1600205D
:10D63000505C00400430002002300020E81600203A
:10D64000D816002041D00008F8140020F9CF0008B7
:10D650001DD000088A42E5D2944203D90021094A2C
:10D660009170DFE792FBF0F100FB1122002AD9D183
:10D67000044A0121F4E703221A724FF44052024B8C
:10D680001A80E1E6E2160020E6160020F8B52B4EDF
:10D690003468237A022B4FD0042B4DD0032B01D0BA
:10D6A000052B43D1A369B3B1258AA5B1A28A9542BE
:10D6B00028BF154628469847238A07465B1B2382C6
:10D6C000638A00202B446382FFF700FB2A46014651
:10D6D0003846FFF724F9238A53B100214FF4405212
:10D6E000174B08461A80FFF7FFFA3022154B1A80B5
:10D6F000218AA38A32688B4208D803231372137AD3
:10D7000032681372BDE8F840FFF740BE09B1052347
:10D71000F4E7062313720C4B18680C4B80B20344D9
:10D720005B0019603021074B1980E8E7072B03D114
:10D73000074B1B68DB6898470823E1E7DC160020ED
:10D74000E6160020E8160020505C00400230002061
:10D75000D8160020F0B5002240F60F7548F280067A
:10D760000A4B1C78A24204D3094B40F08000186099
:10D77000F0BD02F1805303F5B8539B00196842EAEB
:10D7800006072940394319600132EBE7F8140020FD
:10D790004C5C004010B5134C23681A7A022A01D061
:10D7A000042A09D1FFF790FC23681B7A22681372C0
:10D7B000BDE81040FFF7EABD062A10D15A78052AC5
:10D7C00009D11A78520606D1D878FFF7C3FF064B65
:10D7D0001B681B6A9847054B1B689B689847082382
:10D7E000E4E700BFDC160020D0160020D816002089
:10D7F000704700BF00232DE9F341564F564EADF858
:10D80000063039680B044FD501F00F023270002A40
:10D810006ED14BF6BF75DFF84881504CD8F8003018
:10D82000C9069BB22380238803F0300363802388DA
:10D8300003F440532380D8F8003003EA050383F44F
:10D84000005383F0200343F4004343F08003C8F8FF
:10D850000030D8F800302AD423F4E14323F07003D9
:10D860001B041B0CC8F80030FFF794FFD8F80030F9
:10D8700022882B40D704228848BF83F48053960423
:10D88000628848BF83F40053D506628848BF83F09E
:10D890001003900648BF83F0200343F4004343F095
:10D8A00080032F4A9BB2136002B0BDE8F0819BB2A7
:10D8B000ADF80630BDF806301A050AD5D8F80030A4
:10D8C00023F070031B051B0DC8F80030FFF780FD27
:10D8D000CCE7BDF806301B0493D5D8F8003023F010
:10D8E00070031B051B0DC8F80030FFF7CFFEBDE726
:10D8F000930003F1804303F5B843196889B2ADF88A
:10D900000610BDF8061009040AD51968013A21F07D
:10D9100070010905090D1960124B53F82230984720
:10D92000BDF806301A067FF56CAF3278930003F12C
:10D93000804303F5B8431968013A21F4E14121F02D
:10D9400070010904090C1960074B53F822309847FD
:10D9500057E700BF445C0040E0160020E6160020B8
:10D96000005C0040DC140020C014002070B5174C8F
:10D97000174D184E23681A0400D470BD47F6FF7285
:10D9800003F00F0322609A0002F180422B7002F52F
:10D99000B842116808040BD51168013B21F07001F1
:10D9A0000905090D11600C4A52F823309847E1E748
:10D9B0000906DFD51168013B21F4E14121F0700136
:10D9C0000904090C116056F82330EFE7445C00406D
:10D9D000E0160020C0140020DC1400200023044ABC
:10D9E0001360044A1080044A10601846704700BF54
:10D9F000445C0040D4160020405C004070B500F04C
:10DA00007F05144628460E46FFF752F9A4B2224677
:10DA100001463046FEF774FF28462146FFF764F9B9
:10DA2000002070BD70B500F07F0528460E46FFF758
:10DA3000ADF904462846FFF749F92246014630462B
:10DA4000FEF76DFF204670BD374B82B01A6842F07A
:10DA500001021A605968354A0A405A601A6822F071
:10DA6000847222F480321A601A6822F480221A60CA
:10DA70005A6822F4FE025A604FF41F029A60002294
:10DA8000009201921A6842F480321A601A6802F415
:10DA900000320192009A01320092019A1AB9009A5A
:10DAA000B2F5A06FF2D11A6812F4003218BF012249
:10DAB0000192019A012A30D11D4A116841F01001EA
:10DAC0001160116821F003011160116841F0020139
:10DAD00011605A685A605A685A605A6842F4806203
