:020000040800F2
:10C0000000B70020B5C40008C9C100080DC300086E
:10C01000D9C10008E9C10008F9C10008000000000A
:10C0200000000000000000000000000071C40008D3
:10C0300071C400080000000071C40008E5C40008D5
:10C0400073C4000873C4000873C4000873C40008F4
:10C0500073C4000873C4000873C4000873C40008E4
:10C0600073C4000873C4000873C4000873C40008D4
:10C0700073C4000873C4000873C4000873C40008C4
:10C0800073C4000873C4000873C4000871C50008B5
:10C0900075C5000871C4000871C4000873C40008A5
:10C0A00073C4000873C4000873C4000873C4000894
:10C0B00073C400085DC5000873C4000873C4000899
:10C0C00073C4000873C4000873C4000873C4000874
:10C0D00073C4000873C4000873C400086FC5000867
:10C0E00073C4000873C4000873C4000873C4000854
:10C0F00073C4000873C4000873C4000873C4000844
:10C1000073C4000873C4000873C4000873C4000833
:10C1100073C4000873C4000873C4000873C4000823
:10C1200073C4000873C4000873C4000873C4000813
:10C1300010B50E4886B002F0AFFA20B10C4802F0FC
:10C14000FDFA06B010BD0B4802F0F8FA0A4C68463A
:10C1500002F0B2FA28B90DF10901204602F0EEFA18
:10C16000F5E7064802F0EAFAEBE700BF7152010872
:10C1700060520108725201087A5201088152010886
:10C1800008B5024802F0DAFAFEE700BF13530108CF
:10C1900006460D46144608B5084802F0CFFA304668
:10C1A00002F0CCFA2946064802F0C8FA204602F00E
:10C1B000C5FA044802F0C2FAFFF7E2FF265301086D
:10C1C0003D5301087052010808B5024802F0B6FA62
:10C1D000FFF7D6FF4553010808B5024802F0AEFA52
:10C1E000FFF7CEFF5253010808B5024802F0A6FA45
:10C1F000FFF7C6FF6653010808B5024802F09EFA31
:10C20000FFF7BEFF79530108024BEFF30880186077
:10C21000704700BF1834002010B58CB004460021D0
:10C220001C2205A808F0DEFD0023114904F11800C6
:10C2300088420CD250F8042B140E082C01BF0CAC11
:10C2400004EB8304013344F81C2C072BF0D10B9B27
:10C25000059903930A9B07480293099B0193089B46
:10C260000093DDE9062302F069FA0CB010BD00BFAF
:10C2700000B700208E530108684620F007018D4664
:10C2800000B5194C83B0194802F058FA21681848D3
:10C29000D1E9053202F052FA164B1748D96A9A6A68
:10C2A0009B6B02F04BFA25681448D5E901232968F5
:10C2B000ED68009502F042FAD4E90132D4E90310A6
:10C2C00000900F4802F03AFAD4E905210D4802F037
:10C2D00035FA23680C48E2691B69216A02F02EFADC
:10C2E0002068FFF799FFFEE718340020BC530108CF
:10C2F000D053010800ED00E0EC5301081054010890
:10C3000034540108585401086C540108084BEFF3E9
:10C310000882DC601A609D605E601F61C3F818804F
:10C32000C3F81490C3F820A0C3F81CB0FFF7A4FF13
:10C33000183400202DE9F0410020ADF6083D00F052
:10C340003AF900F021F902F017F9424802F0A0FA98
:10C35000414B4FF6FF72009300231946184600F038
:10C36000ADFA3E4B4FF6FF720093002310211846A2
:10C3700000F0A4FA3A4B4FF6FF72009300232021FD
:10C38000184600F09BFA374A02AB106851681289D0
:10C3900003C300211A800DF11200362208F022FD9D
:10C3A000314C02F0B5F9082835D00025294E2F4F21
:10C3B00002F088FA037813B902A802F069FA02F0D1
:10C3C00081FA12AA1446431E3E3013F8011F944608
:10C3D00002F8011B197819B1202924D18CF80050DA
:10C3E000A2A800F05CFC22A802F0B4F8204603F0FA
:10C3F0008FF98046002000F052FC002002F0AAF8DD
:10C40000B8F1000F14D1384602F098F902F080F923
:10C410000528FBD1CCE7204602F090F902F078F92C
:10C420000528FBD1BDE78342CFD184F83F50D7E741
:10C4300002F04CFA404600F0BBF802F047FA20B197
:10C44000214602A808F016FEB2E7304602F020FAB4
:10C45000AEE700BF715201088452010899520108E9
:10C46000BA52010820520108DD520108FF520108AA
:10C470007047FEE70A4A0B4B9A4203D00A49043A36
:10C480008B4205D30021094B094A934205D37047DB
:10C4900052F8040F43F8040BF2E743F8041BF4E7E7
:10C4A0007C69010800300020183400201834002076
:10C4B000CD4B0020684620F007018D4608B5FFF7F8
:10C4C000D9FFFFF737FFFEE70022024B18781A70FA
:10C4D000704700BF3C340020014B1878704700BF04
:10C4E0003C34002010B51C4C636801336360A368C2
:10C4F00013B1A368013BA360E3682BB1E068013886
:10C50000E06008B903F0D4FB03F0F4FB2369834235
:10C5100021D0C20544BF3E232370830544BF3C2382
:10C520002370410544BF2B232370020544BF2D23F4
:10C530002370C30744BF31232370810744BF3223D4
:10C540002370420744BF33232370030748BF3423BB
:10C55000206148BF237010BD3C34002008B5002185
:10C56000132003F06DFBBDE80840FFF7BBBF704729
:10C5700003F06CBB03F070BB024B18601A68002A12
:10C58000FCD170474434002003F0A5BB0823C0EB66
:10C59000801090FBF3F010F1FF3000D3FBE7704701
:10C5A000FFF7EABF014B1868704700BF4034002016
:10C5B00040F00100004710B5044618B9BDE810402E
:10C5C00003F076BB012003F073FB014B1C6010BD30
:10C5D000483400200E22024B02FB0030704700BF9F
:10C5E000885401080048704788540108002138B574
:10C5F0000546084603F066FB034C284603F032FB71
:10C60000013CFAD138BD00BF007701002DE9F041AF
:10C610001D4680460C461646C1F1F003C5F1F001F7
:10C62000BDF8187003F036FBA6EB08062C1B74430C
:10C6300014F1FF3403D3384603F014FBF8E7BDE8E8
:10C64000F08107B50091D0E9022303C8FFF7DEFFB0
:10C6500003B05DF804FB37B50D460446416800950C
:10C660004B1C82680068FFF7D1FFD4E902232068E1
:10C67000591E0095FFF7CAFF2068E368421C6168F5
:10C680000095FFF7C3FFD4E9022300956168501EAF
:10C69000FFF7BCFF03B030BD10B51446C1F1EF0188
:10C6A00003F010FB2046BDE8104003F0DBBA10B5E4
:10C6B0000C4641680068C1F1EF0103F003FB20461E
:10C6C000BDE8104003F0CEBA10B5C1F1EF0103F0A0
:10C6D000F9FA03F0D5FA03F0CBFA044603F0D1FAE5
:10C6E000A0B210BD41EA000333F0030301BF40EAEA
:10C6F00081000349401890F8000E18BF00207047D1
:10C70000885401082DE9F04F984605460E46174615
:10C710000C4687B0BDF8403001F1030A0293531E66
:10C72000A8F1030B059344452EDAA24508D1029BDC
:10C730003A46009351465B462846FFF767FF5C4642
:10C74000A946A8EB0402531E0393A31B0493B94507
:10C7500018DA059BA9EB0502A3EB0900039B194618
:10C76000049B9942A8BF19469042A8BF1046FFF704
:10C77000B9FF20B9029A21464846FFF78DFF09F11B
:10C780000109E4E70134CEE707B0BDE8F08F07B553
:10C790000091D0E9022303C8FFF7B4FF03B05DF8AE
:10C7A00004FB4368C1688268C3F1F003C1F1F00182
:10C7B000006803F06FBA03F055BA38B5044600EBD1
:10C7C0004105AC4204D034F8020B03F04BFAF8E711
:10C7D00038BD2DE9F04F90460E228DB01F469DF8D2
:10C7E0005840354B064602FB04344FF61E039F4269
:10C7F00020D1671E04F10D090C1B17F8015F4FF0E3
:10C80000000AED4304EB070BEDB22A0605D54246BC
:10C81000594606EB0A00FFF73FFF0AF1010A6D00D7
:10C82000BAF1080FEDB2F0D14F45E6D108200DB0B6
:10C83000BDE8F08F98451CD104F1FF3804F10D0AD2
:10C840000C1B4FF0000918F8015F04EB080B2B06D6
:10C8500005D53A46594606EB0900FFF71DFF09F1D9
:10C8600001096D00B9F1080FEDB2F0D1C245E8D170
:10C87000DCE7CDE9010108360E3101A803960491E9
:10C880000025FFF78EFF802646FA05F004F10E031F
:10C890000DF1120213F8011D014214BF3946414641
:10C8A000A34222F8021FF5D10E2105A80135FFF79A
:10C8B00084FF082DE8D1B9E7885401082DE9F74332
:10C8C0000A9D06460F4690469946BDB1287890B11C
:10C8D000013D344615F8013F63B10A2B01D11037F1
:10C8E000F7E7009320464B4642463946FFF771FF73
:10C8F0000444EFE7A01B03B0BDE8F0832846FAE745
:10C90000FFF7DCBF2DE9F04105460E461746984675
:10C9100094B01AAA52F8041B04AC2046039202F009
:10C920009CF9009443463A4631462846FFF7C6FF35
:10C9300014B0BDE8F08110B49DF80440019410BC1F
:10C94000FFF747BF10B503F09BF903F091F90446D8
:10C9500003F097F9A0B210BD38B504460D4603F0B8
:10C960008FF904EB4505AC4204D003F081F924F8BB
:10C97000020BF8E7BDE8384003F083B970472DE9B2
:10C98000F74F064600254FF61E0917460C9A9846A3
:10C99000137802F1010B00934B1E01935C46019B3F
:10C9A000A3EB0B0A009BA4EB0B02934213DD14F8DC
:10C9B000012BB2B153070AD54F45F3D03A4604EBE9
:10C9C0000A013046FFF768FEECE7A346E6E7C845F4
:10C9D000E8D04246F3E70135502D06F10106F4D1C7
:10C9E0000825284603B0BDE8F08F2DE9F84F0A9FCF
:10C9F0009A463C4680460D46914603F04BF90B9B08
:10CA000007EB430655450EDAC346CB4509DA34F841
:10CA1000020B03F027F9A64208BF3C460BF1010BBD
:10CA2000F3E70135EEE7BDE8F88F034A4FF4827172
:10CA30000248FFF7ADBB00BFCB6501089862010853
:10CA400000F58033DB0200F10820834204D21A682B
:10CA5000013203D10433F8E701207047002070470A
:10CA600008B51D4B0344DB02B3F56C3F02D34FF016
:10CA7000FF3008BD194A1169090623D4174AD16845
:10CA8000C907FCD4116903F1006303F5A04341F029
:10CA9000020111615361136943F0400313610F4BAD
:10CAA000DA6812F00102FBD119691A611A6942F0C1
:10CAB00080021A61FFF7C4FF00280CBF6FF00A0064
:10CAC0000120D6E70649516001F1883151601269B1
:10CAD0001206D3D5CBE700BFF6FF1F0000200240AF
:10CAE0002301674508B50B4600F580314FF400621D
:10CAF000C902184608F000F9012008BD00F580338E
:10CB0000012030B5C1EBC32301F500645A5851F838
:10CB1000045BAA4202D0013205D10020A142F5D126
:10CB200080F0010030BD0220FCE700F58030C0023B
:10CB300000F17843A3F5A043B3F56C3FF0B502D301
:10CB40004FF0FF30F0BD1A4B1A69140624D4184A6E
:10CB5000D368DB07FCD4164E01F500673546431A4F
:10CB600032695C1842F00102326131F8022B2280F6
:10CB7000E86810F00100FBD12A6922F001022A6165
:10CB8000228831F8024C94420FD1B942E8D12B6986
:10CB900043F080032B61D5E7064A5A6002F18832E0
:10CBA0005A601B691A06D2D5CAE76FF00A00C9E7B6
:10CBB000002002402301674538B50E4B0E4A03445E
:10CBC000B2EBC32F04460D4610D3FFF797FF0028A2
:10CBD0000EDD022802D12046FFF742FF012807D1CF
:10CBE00029462046BDE83840FFF79FBF4FF0FF3091
:10CBF00038BD00BFF6FF1F00FFAF0300002380F821
:10CC00000038C0F804387047014690F8000818B1A1
:10CC1000D1F80408FFF7D0BF70472DE9F74F04465D
:10CC200091464FF0000A4FF0010B01F17845ED0AF3
:10CC30001E4605F58033A1EBC321C1F5006821F044
:10CC4000010143180093002E27DDD4F80438C4F8FE
:10CC500004589D4205D021462846FFF743FF84F83B
:10CC600000A84645ABBF47463746012300233A4656
:10CC700049460098019308F03FF8019B84F800B8FA
:10CC8000F61B002BDFD02146D4F80408FFF794FFF1
:10CC90000028D8D003B0BDE8F08F0020FAE7014BA0
:10CCA0001860704750340020014B1868704700BF6F
:10CCB0005034002010B50A4C236823B9094A1A21C0
:10CCC0000948FFF765FA40F608020021206808F0DD
:10CCD00089F80022236883F80028C3F8042810BDCF
:10CCE00050340020AF620108BD62010838B50B4C1A
:10CCF000236823B90A4A23210A48FFF749FA206822
:10CD0000FFF782FF054640F608020021206808F080
:10CD100069F8281C18BF012038BD00BF503400201E
:10CD2000AF620108BD620108F8B50A4C05462368E8
:10CD30000E46174623B9084A2B210848FFF728FA60
:10CD40003B46324629462068FFF767FFB0FA80F07D
:10CD50004009F8BD50340020AF620108BD620108EF
:10CD600001380A44914204D011F8013B00F8013F18
:10CD7000F8E77047026930B501F109036AB3426907
:10CD800001F11105541E14F8010F202806D00528C2
:10CD900008BFE52003F8010BAB42F4D1107A20283C
:10CDA0000DD018462E24D51D00F8044B013315F87C
:10CDB000014F202C03D003F8014B9842F7D1D07AD1
:10CDC0000872D0690860547E107E40EA0420888092
:10CDD000D07D927D42EA0022CA8000221A7030BDC6
:10CDE00003685BB11A784AB1D9888288914205D12B
:10CDF0005B78002B14BF0320002070470920704788
:10CE0000CA7E8B7E032843EA022301BF487D0A7D48
:10CE100042EA002243EA0243184670478369023916
:10CE2000023B8B4283BF8378806A01FB03000020B2
:10CE3000704748B9054B1A6802B1107009B1002259
:10CE40000A701960002070470B207047543400208E
:10CE5000003018BF01207047003018BF0120704714
:10CE600070B50E4660B95BB15B0255029CB22246BA
:10CE70002946304602F0A6FF0028F8D0002070BDF9
:10CE80000420FCE710B50A46044600F130010123F6
:10CE90004078FFF7E5FFC0B994F82F2294F82E32BE
:10CEA00043EA02234AF65522934210D1D4F8663061
:10CEB000084A23F07F43934206D0D4F8820020F042
:10CEC0007F40801A18BF012010BD0320FCE702201C
:10CED000FAE700BF464154002DE9F84303681A7889
:10CEE000303A092A1ED900230B607D4E3468002C8D
:10CEF00000F0F1800C6023780BB1607880B10023E2
:10CF000023804FF400730021C4F80A302046FFF755
:10CF1000B9FF012840F0CC8094F8F2316BB90D20B4
:10CF2000BDE8F8835C783A2CDDD10233036000233E
:10CF30000B60002AD9D00B20F2E7D4F8F671204616
:10CF40003946FFF79FFF032800F0C7800028E6D18D
:10CF500094F83C3094F83B0040EA03206389834214
:10CF6000DDD194F8473094F8462094F840C052EA56
:10CF7000032208BF626D0CF1FF33012BE26184F8DC
:10CF800003C0CCD894F83D9084F80290B9F1000F1A
:10CF9000C5D009F1FF3313EA090FC0D194F842302C
:10CFA00094F84180450948EA0328B8FBF5F105FBF0
:10CFB0001185ADB2A4F80880002DB0D194F844508A
:10CFC00094F8433094F83EE053EA052394F83F5038
:10CFD00008BF236D5EEA052EA1D002FB0CFC714454
:10CFE000614499429BD85B1AB3FBF9F3002B96D0AE
:10CFF00040F6F5754FF6F579AB428CBF0225012559
:10D000004B4588BF032539440233A162032D0EEB43
:10D010000701A36121624DD1B8F1000F7FF47FAF0A
:10D02000E16D9B006162411E0B44B3FBF0F0824254
:10D03000FFF475AF00234FF0FF32032DC4E9033234
:10D040002CD1637194F8602094F8613004F13001C0
:10D0500042EA03223A44626101236078FFF700FF4D
:10D06000E0B994F82F2294F82E3243EA02234AF6CC
:10D070005522934212D1226B1A4B9A420ED103F1E0
:10D08000FF53D4F8142203F5005320339A4201BF12
:10D09000D4F81C32E360D4F8183223610020B3883E
:10D0A000257001339BB2B380E380E062207137E7E3
:10D0B000002748E7B8F1000F3FF431AF6144022D7B
:10D0C00061624FEA43011BBFC91803F001030B461D
:10D0D00003EB5103A7E70C2022E7012020E700BF64
:10D0E000543400205252614138B50D46144680B97F
:10D0F0007BB1012B04D0084A25210848FFF748F8E6
:10D1000064022146284602F055FE0028F9D000208E
:10D1100038BD0420FCE700BFDD620108E8620108B9
:10D120002DE9F041C56A04468D420F4602D1002028
:10D13000BDE8F0810379F3B100F1300801232A46FC
:10D1400041464078FFF7D0FF08B10120F0E7D4E96D
:10D1500007231344AB4220710DD9E678012E0AD97A
:10D16000E36941461D442A4601236078013EFFF7EA
:10D17000BBFFF6B2F2E7002FD9D001233A4604F103
:10D1800030016078FFF76CFE0028DED1E762CFE760
:10D190000129F8B505460E4672D983698B426FD9CD
:10D1A0000378022B32D0032B48D0012B09D14389BD
:10D1B00001EB5107B7FBF3F3016A1944FFF7B0FF26
:10D1C00010B14FF0FF3020E069892846B7FBF1F33A
:10D1D00001FB13730137B7FBF1F12B4493F8304097
:10D1E0002B6A1944FFF79CFF0028EAD16A89B7FB34
:10D1F000F2F302FB13773D4495F83000F30744EA5D
:10D2000000204CBF0009C0F30B00F8BD43895B0848
:10D21000B1FBF3F3016A1944FFF782FF0028D0D174
:10D2200072006E89B2FBF6F306FB1326354495F8BF
:10D23000313095F8300040EA0320E6E743899B0847
:10D24000B1FBF3F3016A1944FFF76AFF0028B8D174
:10D250006A89B600B6FBF2F302FB136606F13003EF
:10D260002B449878DA780004354440EA026095F857
:10D2700030205B78104340EA032020F07040C4E780
:10D280000120C2E770B504460D46E180816801299E
:10D2900001D1022070BD03689A698A42F9D9F9B9AF
:10D2A0001A78032A01D1596AD1B90022E2601A8999
:10D2B000AA42EED95A895B6A5209B5FBF2F21344CD
:10D2C0002361236800205A8903F130015209B5FB1C
:10D2D000F2F302FB1355ADB201EB45156561D9E7D9
:10D2E0005E8972099E785643B6B2B54222680ED363
:10D2F0001046FFF74DFF431C014613D00128C8D943
:10D3000023689B698342C4D9AD1BADB2EDE7E160F0
:10D310001046FFF783FD53895B09B5FBF3F318440F
:10D320002061CEE70120B5E701292DE9F04104464F
:10D330000D46164640F2898083698B4240F2858013
:10D340000378022B45D0032B5AD0012B7BD1438984
:10D3500001EB5108B8FBF3F3016A1944FFF7E0FE53
:10D3600058BB618915F00105B8FBF1F301FB13838C
:10D37000234417BF93F83020F2B202F00F003201BD
:10D380001CBF02F0F002024383F83020012308F1B1
:10D390000108B8FBF1F12371236A20461944FFF715
:10D3A000BFFE50B96389B8FBF3F703FB1787274427
:10D3B0003DB1C6F3071287F8302001232371BDE881
:10D3C000F08197F83020C6F3032622F00F02324393
:10D3D000F1E743895B08B1FBF3F3016A1944FFF7F6
:10D3E0009FFE0028E9D163896A00B2FBF3F503FBD5
:10D3F00015253212254485F8306085F83120DCE7A8
:10D4000043899B08B1FBF3F3016A1944FFF788FED7
:10D410000028D2D16289AD00B5FBF2F302FB1355AF
:10D4200005F130012144CB7825441B0603F07043FD
:10D4300043EA0602131285F830204B70130C120ECB
:10D440008B70CA70B9E70220B7E70220B7E7F8B5DA
:10D4500005460F4679B9C668BEB183699E4228BFAA
:10D4600001263446AB690134A34211D8012E0ED8EF
:10D4700000242046F8BDFFF78BFE0128044630D972
:10D48000AB698342F5D83E46EBE70126E9E7022483
:10D4900021462846FFF77CFE48B1411C02D14FF0DF
:10D4A000FF34E6E701281CD0B442DBD1E0E76FF09F
:10D4B000704221462846FFF737FF80B947B92B69EC
:10D4C000EC605A1CD5D0013B2B6101236B71D0E776
:10D4D000224639462846FFF727FF0028EFD00128CB
:10D4E000DDD00124C5E7F8B504460D46FFF778FC0A
:10D4F0000746002868D1A27916065CD4E3689D42ED
:10D5000003D912F0020F08BF1D460022A368A260D3
:10D51000BDB9E368AB4257D2A379E56043F020037D
:10D52000A37151E000202368A5685A89B5FBF2F386
:10D5300002FB1353002BECD0A369834218BFA061F8
:10D54000E7E720688278468956434BB3013B6A1E61
:10D55000B2FBF6F2B3FBF6F18A4221D372421340DA
:10D560006169A360ED1A0029DCD0AE42206807D2C1
:10D57000A3799A072DD5FFF76AFF014660BB3546B0
:10D58000A36820682B44A3604389B5FBF3F203FB37
:10D590001255002DC6D0FFF741FC40B11044C2E740
:10D5A0002169A1B9FFF753FF0128014605D1A379ED
:10D5B00063F07F03A371022706E0013006D1012743
:10D5C000A37963F07F03A3713846F8BD21616161DF
:10D5D000C9E7FFF7DDFD01464B1CF0D00129E6D974
:10D5E00023689B699942E2D2A36861613344A360D6
:10D5F000AD1BBAE70129F8B504460D4622D9836967
:10D600008B421FD90127A369AB4201D80020F8BD86
:10D6100029462046FFF7BCFD06460028F6D0012823
:10D6200010D0411C10D0002229462046FFF77CFE76
:10D630000028ECD123695A1C02D0013323616771A1
:10D640003546E0E70220E2E70120E0E770B5044656
:10D6500040B3FFF7C5FB054698B9A379190623D453
:10D660009A0723D5D4E9022191420AD943F0200335
:10D67000E260A371206832B92169FFF7BBFF256121
:10D6800040B9284670BD6169FFF782FD431C06461C
:10D690000ED10120A379054663F07F03A371F0E763
:10D6A0000220F7E70925ECE70225EAE70725E8E786
:10D6B0000128F5D0206883699E42E2D26FF0704263
:10D6C0006169FFF731FE0028E4D131462068FFF799
:10D6D00091FFD5E72DE9F041C58804460135ADB28B
:10D6E0000F4615B90420BDE8F0810269002AF9D07F
:10D6F000006843895909B5FBF1F301FB13539BB251
:10D7000033B9E1680132226191B90389AB42E9D9A9
:10D710002368E5805A8903F130015209B5FBF2F321
:10D7200002FB1355ADB201EB451565610020DAE748
:10D73000438982785B09B5FBF3F3013A1342E7D1E1
:10D74000FFF726FD0128064601D80220CBE7421C40
:10D7500001D10120C7E720688369B3423AD8002F7E
:10D76000C0D0E168FFF773FE0646002839D00128D3
:10D77000EBD0431CEDD000212068FFF7D1FC00283E
:10D78000E7D1236803F130025B8913F1FF3302D341
:10D7900002F8010BF9E7226831461046FFF73EFB1D
:10D7A00000274FF00108D0622368F9B29A788A42C4
:10D7B0000DD983F8048000212068FFF7B1FC013700
:10D7C0000028C6D12268D36A0133D362ECE7DA6A53
:10D7D000521ADA62E66031462068FFF71FFB2061CB
:10D7E00096E707207FE72DE9F8430B7804462F2BB7
:10D7F0000D4601D05C2B00D101350026A6602B78A8
:10D800001F2B2ED920262B78AE462F2B05F1010594
:10D81000F9D05C2BF7D0A7693B4607F10B02934286
:10D8200026D14FF000084FF0080C454643460EF154
:10D83000FF3919F8012F0135202A23D92F2A21D0A9
:10D840005C2A1FD02E2A75D0C44508D9100606D4EC
:10D85000434810F8011F002975D08A42F9D10620EB
:10D8600004E031462046FFF70DFD6661BDE8F88310
:10D8700003F8016BD3E743F0020307F8082008F12F
:10D880000108D6E7212A754434BF04220022B8F1EA
:10D89000000FE4D039782046E52904BF052139700E
:10D8A000BCF1080F04BF9B00DBB203F003010129A8
:10D8B00003F00C0308BF42F01002042B08BF42F033
:10D8C0000802FA720021FFF7DDFCD8B9216920684F
:10D8D000FFF726FCB0B96269137893B1D37A1907C0
:10D8E0000AD4A36903F10B0C63450BD012F8017B3A
:10D8F00013F8011B8F42F7D000212046FFF7EAFE04
:10D90000E3E70420A369DB7A30B10428AED113F039
:10D91000040F08BF0520A9E75A07A7D46169CB7A8D
:10D92000DB0605D523681878FFF76AFAA0606AE776
:10D9300005209BE7BCF1080F91D19B00E046DBB2CC
:10D940004FF00B0C75E7A2F14101192993D9A2F10F
:10D95000610119299EBF203A43F00103D2B28CE73E
:10D96000FE62010830B587B00191044628B3014634
:10D9700001A8FFF7B1FA68B903ABA361019920468A
:10D980002568FFF730FFD0B9616951B1CB7ADB066A
:10D9900003D40520002323600DE02878FFF730FA38
:10D9A000A060EB880021A3802046FFF76BFC0428D1
:10D9B000EFD00028EED107B030BD0920FBE70428E6
:10D9C000E7D0E7E730B58DB001900D4601A805A975
:10D9D000FFF782FA044668B902AB019905A80B93D8
:10D9E000FFF701FF044628B90A9B33B1294605A871
:10D9F000FFF7C0F920460DB030BD0624FAE738B570
:10DA000000210546FFF73EFC0446B0B929692868A5
:10DA1000FFF786FB044680B96B691B78E52B0ED0B7
:10DA20006BB101212846FFF755FEEDE70B22A969EE
:10DA3000FFF796F901222B681A71204638BD296933
:10DA40002868FFF76DFB04460028F6D16869224676
:10DA5000034600F120019942E8D003F8012BFAE7D0
:10DA60002DE9F74F9A460023CAF800300446019189
:10DA70001646FFF7B5F9002834D1A379190624D446
:10DA8000DA0740F19780D4E90250451BB54228BF20
:10DA90003546DDF80480002D00F08E802068A168F6
:10DAA0004289B1FBF2F602FB1612002A64D1837898
:10DAB000013B334013F0FF0B18D141B92069012815
:10DAC00009D8A37963F07F03A37102200AE061699A
:10DAD000FFF75EFBF3E7431C07D10120A37963F056
:10DAE0007F03A37103B0BDE8F08F6061D4F80090AC
:10DAF00061694846FFF792F90028E2D0B9F80A6058
:10DB000000EB0B07B5FBF6F6002E34D099F8022097
:10DB10000BEB0601914288BFA2EB0B06F3B23A462B
:10DB2000414699F80100FFF79BF90028D5D12168FB
:10DB30000B794BB1C86AC01B864205D94A8930317E
:10DB400002FB0080FFF70CF92368019903F1300212
:10DB5000914204BF4FF0FF32DA6223685B895E4373
:10DB6000A368B0443344A360DAF80030AD1B3344FB
:10DB7000CAF800308FE7A7612068A2684689A169CA
:10DB8000B2FBF6F306FB1323F61AAE4228BF2E466D
:10DB9000FFF7C6FA0028A0D12168A0684A89B0FB27
:10DBA000F2F302FB13033033324619444046FFF7C9
:10DBB000D7F8D5E7072095E7284693E710B5044640
:10DBC00004202169C1B12068FFF7AAFA88B9626907
:10DBD0001378A3B1E52B06D02E2B04D0D37A1B07E4
:10DBE00001D4002010BD00212046FFF773FD00285E
:10DBF000E7D000232361F5E70028F2D0F9E70420FD
:10DC0000F7E77FB504460D46FFF7EAF8064620B968
:10DC10002DB901462046FFF735FB04B070BD01ABBE
:10DC2000A3612046FFF7CAFF04280DD126612946CB
:10DC30002046FFF79FF800212046FFF74BFD042800
:10DC400004BF00202061E8E70028F0D0E5E710B528
:10DC5000C1880446FFF716FB50B921692068FFF719
:10DC60005FFA28B9E52263691A70012223681A71E4
:10DC700010BD2DE9F34702AB43F8040D8846184662
:10DC800011461446FFF728F9054638B92468A769F4
:10DC90002369BA1E934205D8C8F80030284602B05E
:10DCA000BDE8F08794F80090B9F1010F19D102276F
:10DCB000064639462046FFF76BFA431C39D0012847
:10DCC00039D000B90136A3690137BB42F1D8B9F1A7
:10DCD000030F08BF0123266108BF6371C8F8006005
:10DCE000DCE7034602460646216A4AB9204601F1AE
:10DCF000010AFFF715FA00BB5146628904F13003AF
:10DD00005878B9F1020F4FEA002093F800C008D10B
:10DD100050EA0C0008BF01360233023A013FE4D159
:10DD2000D5E71868043A30F0704008BF0136043374
:10DD3000F4E70125CBE70225C9E70546C7E72DE94A
:10DD4000F0478CB0019117460646002800F081800C
:10DD5000002305A9036001A8FFF7BEF805460028C7
:10DD600073D102AB019905A80B93FFF73CFD0A9C08
:10DD700010B9002C08BF062017F01C0F07F01F0871
:10DD800042D0C8B3042802D105A8FFF738FE48F0F6
:10DD9000080878BB0A9C18F0080F3ED0A023A37394
:10DDA0006C23E3732123002723742823DDF81490C8
:10DDB0006374E77227776777A777E77799F80000AA
:10DDC0002146FFF71DF80123A776E77627756775CB
:10DDD00089F80430074600B301464846D9F82CA01C
:10DDE000FFF708FC30B90598013FC7605146FFF7BF
:10DDF00097F990B1054628E0E37A13F0110F2CD182
:10DE00007807C8D5082520E00028F3D1E37AD906A1
:10DE100021D4BA0701D5DB071FD4059F18F0080FDE
:10DE2000FB6A18BF48F02008C6E9073486F8068068
:10DE300038782146FEF7E4FF3061E3693760F3602C
:10DE40000023B360B361FB88B38028460CB0BDE803
:10DE5000F0870925F9E70425F7E70725F5E72DE918
:10DE6000F84F9B460023CBF80030044689461746FE
:10DE7000FEF7B6FF002839D1A379190628D49A07EE
:10DE800040F1B880E368DF4280F0A980A268002FEB
:10DE900000F0A58020684389B2FBF3F103FB112356
:10DEA000002B7AD18578013D0D4015F0FF0520D17A
:10DEB00082B9216931B9FFF7CAFA01462061002908
:10DEC00000F08D8001290AD1A37963F07F03A3714B
:10DED00002200BE06169FFF7BAFA0146EFE74B1C3D
:10DEE00006D10120A37963F07F03A371BDE8F88F09
:10DEF00061612068A369C26A9A4204D10021FFF7D8
:10DF00000FF90028EDD1D4F800A061695046FEF762
:10DF100085FF0028D8D0BAF80A6000EB0508B7FBE7
:10DF2000F6F65EB39AF80230AA199A4288BF5E1BD1
:10DF3000F3B2424649469AF80100FFF7D5F8054684
:10DF40000028CED12068C16AA1EB08018E4207D912
:10DF50004289303002FB0191FEF702FF23681D71F8
:10DF600023685B895E43A368B1443344A360DBF854
:10DF70000030BF1B3344CBF8003087E7D4E90223DD
:10DF80009A4208D331465046FFF7CAF80028A8D174
:10DF90002368C3F82C80C4F818802068A2684689DA
:10DFA000A169B2FBF6F306FB1323F61ABE4228BFA3
:10DFB0003E46FFF7B5F8002893D12068A168428952
:10DFC000B1FBF2F302FB13133033324618444946D7
:10DFD000FEF7C6FE4FF0010223681A71C3E7D4E9C9
:10DFE0000232934288BFE360A379002043F020030C
:10DFF000A3717BE7072079E710B500210446FFF7FE
:10E000008FF8034600283FD12378032B38D163795A
:10E01000B3B304F130010B46E06204F50C72934295
:10E0200002D003F8010BFAE74AF65523A4F82E3282
:10E03000164B6078236303F1FF5303F5005320333D
:10E04000C4F8143223691A1284F8183284F8192299
:10E050001A0C1B0E84F81B32E36884F81A221A1279
:10E0600084F81C3284F81D221A0C1B0E84F81E2220
:10E0700084F81F3262690123FFF736F800236371C9
:10E080006378003318BF0123184610BD5252614116
:10E0900010B50446FFF7B0FF2046BDE8104001214F
:10E0A000FFF73EB870B594B0019006A901A8FEF73D
:10E0B00013FF0446E8B903AB019906A80C93FFF7D8
:10E0C00092FB0446A8B90B9EB6B1F37A13F0010F88
:10E0D00018BF0724069B31461878FEF791FE0546C7
:10E0E0003CB9F37ADB0609D406A8FFF7B0FD044675
:10E0F000D8B1204614B070BD0624EBE7012822D920
:10E100001C2206A90DA8FEF72BFE02210DA80F95D3
:10E11000FFF7B8F804460028EBD10DA8FFF74EFD35
:10E12000044690B10428E4D1DEE725B90698FFF74C
:10E1300063FF0446DDE729460698FFF75BFA0446CD
:10E140000028D6D1F2E70224D3E70724D1E730B57F
:10E150008DB001900D4601A805A91446FEF7BCFE3E
:10E16000A0B902AB019905A80B93FFF73CFB68B976
:10E170000A9A6AB1D37A05985D402C4004F02704CE
:10E180005C400123D4720371FFF736FF0DB030BD40
:10E190000620FBE710B58CB001900C4601A805A93C
:10E1A000FEF79AFEB8B902AB019905A80B93FFF7E9
:10E1B0001AFB80B90A9B83B1E28805989A75E288B8
:10E1C0001212DA75A2881A76A28812125A760123E0
:10E1D0000371FFF711FF0CB010BD0620FBE730B54F
:10E1E0009BB001900C4601A80CA9FEF775FE002813
:10E1F00069D10C9B019913930CA803AB1293FFF701
:10E20000F2FA00285FD1119900295ED015220B3156
:10E2100006A8FEF7A5FD0CA913A81C22FEF7A0FD79
:10E22000214613A8FFF7DFFA002850D004284AD16E
:10E2300013A8FFF7E4FB002845D1189D13220DF128
:10E240001A0105F10D00FEF78BFD9DF818300C9CAE
:10E2500043F02003EB72012323710E9A159B9A421F
:10E260002AD0EB7ADB0627D529462078FEF7C8FDB1
:10E2700001462046FEF7D2FD014650B32046FEF788
:10E280004FFF00BB0C9A92F851302E2B14D111780D
:10E29000159B032903D1516A994208BF0023191223
:10E2A00082F86A301B0C82F864301B1282F86530E9
:10E2B000012382F86B1013710CA8FFF7C8FC10B98A
:10E2C0000C98FFF799FE1BB030BD0420FBE7082037
:10E2D000F9E70220F7E710B50446FEF781FD0028B4
:10E2E00033D1A3799B0630D5E1692068FEF718FF8A
:10E2F000014650BB236ADA7A42F02002DA72E26801
:10E300001A77E26812125A77E2899A77E27BDA7713
:10E31000226999749A761012120C1A7512125A7593
:10E32000A0229A756C22DA7521221A7628225A7652
:10E330000122D876D974A37923F02003A37123682E
:10E340001A712068BDE8104056E610BD10B50446AD
:10E35000FFF7C1FF00B9206010BD2DE9F04F8FB06D
:10E36000039007A903A8FEF7B7FD04460646002858
:10E3700040F09E8004AB039907A80D93FFF733FA92
:10E380000446002800F09C80042840F0918031462B
:10E390000798FFF75CF80546002800F08480012804
:10E3A00000F08A80431C00F0898031460798FEF710
:10E3B000B7FE0446002877D1079F29463846FEF766
:10E3C0002DFD07F13008034641467A8912F1FF32EC
:10E3D00008D24246202107F13B00824205D002F8D4
:10E3E000011BFAE701F8014BF0E7102287F83B2008
:10E3F000A02287F846206C2287F8472021222E246D
:10E4000087F8482028222E0C5FFA86FB5FFA85F9F0
:10E41000C5F3072A360A87F849204146202207F12A
:10E42000500087F8304087F84A9087F84BA087F86B
:10E4300044B087F845600193FEF792FC079987F88E
:10E4400051400878099A0328019B03D1486A9042F9
:10E4500008BF002287F86A201012120C87F8642087
:10E46000121287F86520002287F86B008F780292DD
:10E4700047B307985A1CC3624FF001030021037190
:10E480000192FEF74DFE044670B94146079B029A81
:10E490005B8913F1FF3302D301F8012BF9E7013F48
:10E4A000FFB2019BE3E7072429460798FFF7A2F88C
:10E4B00020460FB0BDE8F08F0224F5E70124F3E712
:10E4C0000824F5E707A8FFF79AFA04460028EBD1DD
:10E4D00010220C9B0798DA72A0229A756C22DA75CA
:10E4E00021221A76282283F81A905A7683F81BA0E4
:10E4F00083F814B05E7501230371FFF77DFD0446B8
:10E50000D6E770B959B1012903D14FF48053136094
:10E5100070478B1E012B04D84FF40073F7E70846B1
:10E520007047042070470148704700BFA06C212845
:10E530000020FFF7ADBD0022014B18781A7070471C
:10E540006C4A002005289ABF014B185C02207047D6
:10E55000D7620108014B9860704700BF5434002017
:10E56000034B9868034B002808BF1846704700BF4C
:10E5700054340020D0340020044B00211A6802B12A
:10E580001170034A002011701A6070475434002043
:10E59000A0340020022908B50A4608D10A22014603
:10E5A0000648FFF7CCFB052804D9022008BD012945
:10E5B000FBD1F4E7024B185CF8E700BF60340020A1
:10E5C000D762010813B500210D4B04461A78197063
:10E5D0000AB1FFF7ADFF214601AB4FF400720948C5
:10E5E000FFF73EFA044618B9074B185D02B010BD9C
:10E5F0000146064800F0A2F8052CF5D90220F5E7FF
:10E600006C4A002060340020D76201080E630108C4
:10E6100007B5014601AB4FF400720948FFF71FFC34
:10E62000019BB3F5007F06D1052806D8054B185C81
:10E6300003B05DF804FB0520FAE70220F8E700BF0D
:10E6400060340020D762010808B5431C01460AD097
:10E650000848FEF748FF18B1052808D9022008BD70
:10E660000448FEF7F3FF0348FFF770FEF4E7024BA0
:10E67000185CF4E760340020D762010808B504484C
:10E68000FFF764FE052896BF024B0220185C08BD08
:10E6900060340020D762010808B501460448FFF73E
:10E6A00061F9052896BF034B0220185C08BD00BF26
:10E6B00084340020D762010810B50446014607489B
:10E6C000FFF79FFA637A23B1052804D8044B185C3E
:10E6D00010BD0320FCE70220FAE700BF84340020CD
:10E6E000D7620108014B9869704700BF543400207D
:10E6F00008B501460448FEF7F6FE052896BF034B11
:10E700000220185C08BD00BF60340020D7620108F9
:10E7100008B5FDF7D9FE30B12B38C0B213288EBF33
:10E720000020014B185C08BD2263010808B5FDF705
:10E73000D3FE003018BF012008BD00BF0FB470B574
:10E74000A4B0289904A80B780026242B01BF00222E
:10E75000154B0131C3E9002229AA039200F07DFA8A
:10E76000114C0DF10F0515F8013FC3B10A2B61687B
:10E7700003D02068B0F5C47F06DD0E31E029C8BFA4
:10E78000314626606160EEE700934FF6FF724FF46A
:10E790003043FEF71EF8236818442060E3E724B0F6
:10E7A000BDE8704004B07047D04400200FB400B5FD
:10E7B00093B014AA52F8041B02A8019200F04DFA7B
:10E7C00002A806F0B5FC372804D9064A15210648E8
:10E7D000FDF7DEFC02A8FFF7B1FF13B05DF804EB14
:10E7E00004B0704736630108526301080FB410B5D6
:10E7F00092B014AA52F8041B02A8019200F02DFA5C
:10E8000002A806F095FC372804D9124A24211248A0
:10E81000FDF7BEFC02A806F08BFC04460F4806F08C
:10E8200087FC2044023040280BD90C48FFF786FFB4
:10E830000B490A4806F01EFC0A4A2A210648FDF741
:10E84000A7FC02A9054806F017FB12B0BDE810406E
:10E8500004B070473663010852630108D8440020B1
:10E8600071520108CB65010810B5074C237A53B1EA
:10E8700004F10800FFF762FF04F108000349BDE856
:10E88000104006F0F7BB10BDD044002071520108C3
:10E8900010B5044606F04CFC3E2804D9064A0E2169
:10E8A0000648FDF775FC064B2146184606F0E2FBCC
:10E8B000012280F8402010BD6963010898630108B7
:10E8C000184500200048704718450020034B93F876
:10E8D000400010B1002283F8402070471845002006
:10E8E00008B50A490A4B08681A6890420CD01846C5
:10E8F0004FF4987206F000FABDE8084000F10041BC
:10E900004FF0005004F0F0BB08BD00BF00C000088D
:10E910000030002010B50446FFF7E2FF014B53F82A
:10E92000240010BD0030002038B504460D46FFF726
:10E93000D7FF024B43F8245038BD00BF0030002001
:10E9400080F310887047EFF310807047704705F030
:10E9500077BB2DE9F74F0546DDE90C8910460F46D8
:10E960000E991446019305F029FC1649002301F184
:10E970001C028E469246144858F823C04FEA830B77
:10E9800041F823C059F8236042F82360BCF1000F1E
:10E9900001D141F823000EB94AF80B000133072BCF
:10E9A000EAD13B88019AAEF83830084B1D6002234B
:10E9B0002B72074B1C60074B1A60236803B0BDE83D
:10E9C000F04F18475C4500204DE90008A84500209D
:10E9D000A44500209C450020012001F07BB908B52A
:10E9E000002001F077F9BDE808404FF4FA70FDF718
:10E9F000D7BD1FB5FFF7F3FF084B094A0293094B38
:10EA000009490193094B0A4800930A4BFFF7A1FFFC
:10EA100005B05DF804EB04F05FBD00BF384B00208B
:10EA200030330020D8330020BC330020F4330020E2
:10EA30001C4B0020983300201FB5FFF7D0FF074B79
:10EA4000074A0293074B08490193084B0848009373
:10EA5000084BFFF77EFF05B05DF804FB9432002001
:10EA600000320020B432002084320020D032002056
:10EA7000B84500206032002010B5044605F0F2F9D8
:10EA8000A0B2BDE8104002F065BF00BF20B103682E
:10EA900019700368013303607047002A2DE9F041C3
:10EAA00006460C461FDD0D1B11F8010B0028FAD19C
:10EAB000AA42CCBF521B024613F0020F0CBF202704
:10EAC0003027DB0717D41546002D0EDC22EAE2734F
:10EAD000D21A1D1B05EB040814F8011B69B130465E
:10EAE000FFF7D4FFF6E72027EBE739463046FFF77C
:10EAF000CDFF013DE8E70023EBE71446002C05DDE0
:10EB000039463046FFF7C2FF013CF7E7002AACBFA9
:10EB100008EB020008F10000BDE8F0812DE9F043A8
:10EB20000C4685B0804600212046154606F096F832
:10EB300000B32D2304F100448DF804300DF10507D6
:10EB4000204606F0B3F801230A2101FB03F28242BA
:10EB500012DD0A21002B07F101060FDD90FBF3F215
:10EB600002F1300706F8017C03FB1200374693FBE5
:10EB7000F1F3EFE701AFE3E71346E6E72E23002DBD
:10EB80003B7008BF03253746DFF84490BB1B9D420E
:10EB900012DD204606F08AF805F06EFE014620469A
:10EBA00005F0B4FD494605F0BBFE044606F07EF8CC
:10EBB000303007F8010BE9E7002225EAE5757255C8
:10EBC000202301A94046FFF768FF05B0BDE8F083A8
:10EBD00000002041F0B585B09446DDE90A270646DD
:10EBE0001C4641B9302304A921F80C3D3B46FFF7F0
:10EBF00054FF05B0F0BD33B1BCF10A0F16D10029A6
:10EC000014DA01244942002304AD05F8013D0C9BB0
:10EC10003A3B69B1B1FBFCF00CFB10110929C8BFEC
:10EC2000C918303105F8011D0146F2E70024EAE772
:10EC30003CB16AB1BB070BD52D213046FFF726FF4B
:10EC4000013A3B4629463046FFF727FF2044D0E7EC
:10EC50002D23013D2B700024F3E72DE9F0430E46F0
:10EC6000144600254FF00A0889B0DFF8149105908A
:10EC70003378002B7DD0252B75D17378002B78D07D
:10EC8000252B06F101026DD02D2B0ABF0123002395
:10EC9000B21C164631780132302902D143F002030A
:10ECA000F7E70027314611F8012BA2F130005FFA97
:10ECB00080FCBCF1090F03D808FB07070E46F1E7FB
:10ECC000732A09D121683A46002908BF494604340D
:10ECD00005A8FFF7E2FE0DE0642A0ED1612221466D
:10ECE000CDE90132012300970A22096805A80434FE
:10ECF000FFF770FF05440136BAE7662A0ED10734E4
:10ED000024F00703D3E9000103F1080405F0AAFC8D
:10ED10003A46014605A8FFF701FFEBE7782A07D13D
:10ED200021466122CDE90132009700231022DCE761
:10ED3000582A02D121464122F4E7752A06D16122E0
:10ED40002146CDE9013200970023CDE7632AD2D1D5
:10ED5000226807A98DF81C20002204348DF81D209C
:10ED60003A46B5E71646317805A8FFF78FFE01351C
:10ED7000C1E700222846059B1A7009B0BDE8F08360
:10ED8000AE6301080EB403B503AA52F8041B019246
:10ED9000FFF763FF02B05DF804EB03B0704700BFFC
:10EDA00041F2055310F8012B1AB102EB4312134440
:10EDB000F8E7C14A934200F0828200F2DC8002F15F
:10EDC0004E42A2F52022A2F67542934200F05782ED
:10EDD0005AD8BA4A934200F04C8225D8B84A934296
:10EDE00000F027820CD8B74A934200F05682B64A08
:10EDF000934200F05882B54A93420AD1B448704712
:10EE0000B44A934200F0678205D8B34A934200F0B7
:10EE1000668200207047B14A934200F04A82B04AAD
:10EE20009342F6D1AF487047AF4A934200F0038255
:10EE300014D8A2F1D072A2F5B732A2F5B6729342FD
:10EE400000F0558202F5121202F29D32934200F058
:10EE50003882A64A9342DCD1A5487047A54A93421E
:10EE600000F0FD8107D8A2F58602A2F55672934202
:10EE7000CFD1A1487047A14A934200F0FC81A04A3B
:10EE80009342C6D19F4870479F4A934200F0F58154
:10EE900037D8A2F11862A2F53522A2F2CD629342D0
:10EEA00000F0F78115D8A2F1E562A2F5B1224C3A43
:10EEB000934200F0C881954A934200F0CA81A2F1C2
:10EEC0001862A2F55322A2F675729342A1D190481E
:10EED0007047904A934200F0B08104D88E4A934222
:10EEE00097D18E4870478E4A934200F0DA8102F142
:10EEF000617202F51E3202F20912934289D18948E9
:10EF00007047894A934200F0D0811BD8874A9342C8
:10EF100000F0E38109D8A2F14472A2F56C52313AB3
:10EF200093427FF476AF82487047824A934200F062
:10EF3000BE8102F1407202F20B5293427FF469AF3C
:10EF40007D4870477D4A934200F08B8105D87C4A0A
:10EF500093427FF45EAF7B4870477B4A934200F058
:10EF60007C8102F59D0202F5E342413293427FF437
:10EF700050AF76487047764A934200F0A68171D828
:10EF800002F15E4202F5FD126432934200F06B81A1
:10EF900036D8704A934200F0768117D86E4A934271
:10EFA00000F0758102F14A7202F5E33202F2351285
:10EFB000934200F06681A2F13562A2F56622A2F6C4
:10EFC000337293427FF425AF64487047644A93429A
:10EFD00000F0898105D8634A93427FF41AAF6248F2
:10EFE0007047624A934200F06E8102F1D16202F5ED
:10EFF000F12202F5D96293427FF40BAF5C4870476F
:10F000005C4A934200F0638114D85B4A934200F05B
:10F01000548105D8594A93427FF4FBAE5848704753
:10F02000584A934200F01181574A93427FF4F1AE5F
:10F0300056487047564A934200F0538105D8554AC6
:10F0400093427FF4E6AE54487047544A934200F02E
:10F05000F68002F5761202F66B1293427FF4D9AE77
:10F060004F4870474F4A934200F0EB8000F2B38064
:10F070004D4A934200F00F8111D84C4A934200F060
:10F080000E8102F51D0202F54B42B832934200F0A8
:10F09000FC80474A93427FF4BCAE46487047464ADC
:10F0A000934200F0228100F28D80444A93427FF423
:10F0B000B0AE4348704700BFE9855C6AA9C9E91D45
:10F0C000E671000E9C80180457DD9F04B76DFC03A9
:10F0D00037C90008B44DE2153045970FA82E0E1819
:10F0E000A745271CDD410108F391182DBE244429B2
:10F0F00039EA0008455A782E61E50008BEA1373785
:10F100006273F137B5CC0008A903E64DF6B8DF41CC
:10F110007DE600088AF3C34713970C4605C900082B
:10F1200073F4BD49A5C500083824C45792738A54A6
:10F13000C5E800081212AF54CDE80008BF134F5DB8
:10F140001D88305AB7C500080C67605E7D44010811
:10F15000B84919AD7B45F778C3108D74FD4401089B
:10F16000268FC17AE3E3047A29E90008BF93FA7C89
:10F1700001C900081D703FA682078A9A3B89648EE8
:10F18000B1C50008F61F1B9F8B177BA5B9E60008C9
:10F19000F617FFA853DE65A7A1C500086186BDA9C3
:10F1A00095E50008B8852DCDE531C7B56C530CB198
:10F1B00091076AAD99C600086E8C00C2080060BD58
:10F1C000C5E500084B4A934241D04B4A93427FF435
:10F1D00020AE4A4870474A4A934246D016D8494A18
:10F1E000934244D009D8A2F53602A2F56A42A53A64
:10F1F00093427FF40EAE44487047444A93422AD06B
:10F20000434A93427FF405AE42487047424A9342D4
:10F2100051D005D8414A93427FF4FBAD4048704736
:10F22000404A934255D0404A93427FF4F2AD3F4862
:10F2300070473F4870473F4870473F4870473F48D6
:10F2400070473F4870473F4870473F4870473F48C6
:10F2500070473F4870473F4870473F4870473F48B6
:10F2600070473F4870473F4870473F4870473F48A6
:10F2700070473F4870473F4870473F4870473F4896
:10F2800070473F4870473F4870473F4870473F4886
:10F2900070473F4870473F4870473F4870473F4876
:10F2A00070473F4870473F4870473F4870473F4866
:10F2B00070473F4870473F4870473F4870473F4856
:10F2C00070473F4870473F4870473F4870473F4846
:10F2D00070473F4870473F4870473F4870473F4836
:10F2E00070473F4870473F4870473F4870473F4826
:10F2F000704700BFE7AC5FC43080B5C9F3E90008D0
:10F300002C1D25D6B35806D0814301082BFC18D0FC
:10F310008FD8B1D52D460108B270CEF43E0522E556
:10F320008FC700089F70B8F762C0C7FDD9E9000811
:10F3300085ED00085BEC000891E8000841E9000851
:10F3400047E9000815E9000879450108D145010899
:10F35000F14401083D440108414501086D4501089B
:10F36000D1440108954401083DE70008E5E600089E
:10F3700055E5000879E50008F1E6000849E60008CF
:10F3800011E6000899E600082DE7000811E70008DB
:10F3900059C9000845C90008A3C70008BBC7000831
:10F3A000B7C7000843C600080DC600087FC900089B
:10F3B000EDC50008BDC800082BCA0008EBC900084D
:10F3C000C9C60008AFC600087DC9000857C60008B6
:10F3D00005C7000853E9000879EA0008DFE90008DA
:10F3E000EDCC000829CD0008A9CC0008E5C500082F
:10F3F0002DE9FF411A4D1B4C471E17F8016F66B3EC
:10F400002B785BB14BF20823002000934FF4C872B5
:10F41000F023E02128702060FDF7F8F80A2E02D1D1
:10F4200001232B70E9E74FF0000804ABADF80C8026
:10F4300003F8046D00934FF6FF724BF20823E121AD
:10F440002068FDF75DFA23681844B0F5C87F01DA3B
:10F450002060D2E7C4F80080E2E704B0BDE8F081A4
:10F460003431002098450020FFF7C2BFF7B50D46A4
:10F4700000240969074600F0C7FBEE686B69A342E8
:10F480000EDD0DF10701384600F0B0FBA25D9DF8DE
:10F4900007309A4202D0002003B0F0BD0134EDE7FE
:10F4A0000120F9E70023CA684969994203DD985CA5
:10F4B00018B90133F9E70120704700207047F7B50C
:10F4C0000C4600250969064600F09EFBE768636963
:10F4D000AB4209DD0DF10701304600F087FB9DF8D6
:10F4E0000730EB550135F2E721463046FFF7BEFF06
:10F4F00048B9E26861690548FFF720F9044A6421C8
:10F500000448FCF745FE03B0F0BD00BF8B64010862
:10F51000CB650108AE6401080023184610B5CA681F
:10F520004C699C4202DD98540133F9E710BD2DE986
:10F53000F04F0C46C7B0D1F81490D1F80C8009698F
:10F540000746002600F060FBFDF7B4FBDFF880A063
:10F55000DFF878B04E4520DAA9EB0605B5F5807FD7
:10F56000A8BF4FF4807500213B6804919A6806ABF0
:10F570000393019303A9059538469047019B2A46BA
:10F5800019464046FDF7D0FB20B952468021584627
:10F59000FCF7FEFD2E44A844DCE7FDF7A7FB21465F
:10F5A0003846FFF763FF48B9E26861690548FFF72D
:10F5B000C5F8054A8A210548FCF7EAFD47B0BDE8D1
:10F5C000F08F00BF8B640108CB650108AE640108B1
:10F5D000C96401082DE9F04391B04F69CE6840221B
:10F5E0000021684605F0FEFB0025FDF763FBDFF810
:10F5F0003880DFF83890BD4211DA7C1B402CA8BF60
:10F600004024694622463046FDF78EFB20B942462B
:10F610009D214846FCF7BCFD25442644EBE7FDF759
:10F6200065FB11B0BDE8F083C9640108AE64010850
:10F6300030B591B00C460546FFF718FFE3686269E4
:10F6400040B113496846FFF79DFB6846FFF7D0FEBF
:10F6500011B030BD0F496846FFF794FB6846FFF7CD
:10F66000C7FEE3681B0E202B04D121462846FFF776
:10F6700026FFEDE7082B04D121462846FFF757FF68
:10F68000E6E7054ABD210548FCF782FDE0E700BF3B
:10F69000E3640108FE64010819650108AE6401080D
:10F6A00030B591B00C460546FFF7FCFE6269E36891
:10F6B00040B113496846FFF765FB6846FFF798FEBF
:10F6C00011B030BD0F496846FFF75CFB6846FFF795
:10F6D0008FFEE3681B0E202B04D121462846FFF73E
:10F6E0001BFFEDE7082B04D121462846FFF772FFE8
:10F6F000E6E7054AD7210548FCF74AFDE0E700BFE9
:10F70000E36401083B65010819650108AE6401085E
:10F710002DE9F04FADF5097D0446FFF714F9A7492F
:10F720002246029028A8FFF72DFB28A8FFF760FECD
:10F73000A34B0993FEF714FF00230A9001212046F2
:10F74000CDE90B33FEF726FF80B122469D4928A85C
:10F75000FFF718FB28A8FFF74BFE00240298FFF7DD
:10F76000EFF820460DF5097DBDE8F08F0A98FEF709
:10F7700029FF06460028E8D1342328250DF16C0B1B
:10F78000699068A909A86A93CDF8A0B100F0F0F9D2
:10F79000DBF82030BBF8321009A805FB013100F07E
:10F7A00033FA11AC68A909A868946A95699600F0C3
:10F7B000DFF92369844D0193D4F8148038AC0FCD60
:10F7C0000FC40FCD0FC40FCD0FC495E80F0084E810
:10F7D0000F0030464FF0FF3348A958AA41F82030B7
:10F7E00042F8203001301028F8D10026DFF80092CE
:10F7F000DFF800A2BBF83030B34240F38580282404
:10F80000DBF8201009A804FB061100F0FDF96A944A
:10F81000002468AD11AF294609A86897699400F0E3
:10F82000A7F9396809A8A8EB01030393019B8DF898
:10F83000AE41194400F0E8F9039B0DA90E2BA8BFB7
:10F840000E2309A80D95CDE90E4300F091F905228C
:10F850004946284605F09AFC80B95C492A4628A802
:10F86000FFF790FA28A8FFF7C3FD394609A8FFF76C
:10F87000DFFE5748FFF7BCFD0136BBE705225146C6
:10F88000284605F083FC0028E7D007225149284686
:10F8900005F07CFC0028E0D004224F49284605F002
:10F8A00075FC60B92A46494928A8FFF76BFA28A8D1
:10F8B000FFF79EFD394609A8FFF7F2FED9E738AFFA
:10F8C00057F82410284605F0F7FA78B994B92A4673
:10F8D000424928A8FFF756FA28A8FFF789FD404AB1
:10F8E0004FF4B1713F48FCF753FC36E70134102C5C
:10F8F000E6D1ECE748AB43F8246088AB03EB840423
:10F90000159B44F8C03CB7E700264FF0FF3848ABE2
:10F9100053F82630591C33D02825DBF8201009A8CD
:10F9200005FB031100F070F900236A9568AD2946C4
:10F9300011AC09A86993689400F01AF938AB53F830
:10F940002620224928A8FFF71DFA28A8FFF750FD16
:10F95000731E0B2B11D8DFE803F00606220C0C0CEB
:10F960002D104F1010CB204A40F277111D48FCF7A4
:10F970000FFC214609A8FFF75BFE1548FFF738FD8D
:10F980000136102EC3D1DBF81820184928A8FFF73C
:10F99000F9F928A8FFF72CFDDBF81840DEE6124A3B
:10F9A0004FF4C2710F48FCF7F3FB214609A8FFF79B
:10F9B00077FEE2E7D4F81080DFE700BF5565010865
:10F9C000C06301086F650108CC6301088C650108FC
:10F9D00070520108966501089E650108A36501083B
:10F9E000BD650108AE640108CB65010881660108A8
:10F9F00086650108906501085148FFF7F9FCDDF8BC
:10FA000080A1BAF1FF3F05D14E4A40F291114E4814
:10FA1000FCF7BEFB5F9B013305D14C4A4FF4C97123
:10FA20004948FCF7B5FB00276369DFF81C91DB0848
:10FA30000193019B9F42A0DA216909A801EBC7014C
:10FA400000F0E2F804AB689308236A930023294688
:10FA500009A8699300F08CF89DF81430162B05D096
:10FA60003B4A40F29D114846FCF792FB059909A8D4
:10FA7000090A0AEB011100F0C7F80DAB68931023D7
:10FA80006A930023294609A8699300F071F8B8F138
:10FA9000000F05DA2F4A40F2A3114846FCF778FB25
:10FAA0000D9909A8414400F0AFF80023802206A96F
:10FAB00009A8CDE90732069500F05AF82846FFF765
:10FAC0006FF9034680B903902348FEF737FE2846B6
:10FAD000FEF734FE2148FEF731FE214A4FF4D8717B
:10FAE0004846FCF755FB039B049A01371360A0E7D7
:10FAF0001C48FFF77DFC67692169002409A800F014
:10FB000083F82346DFF86490BF080DF1340ABC4245
:10FB100012DA0422294609A8699301936A92CDF862
:10FB2000A0A100F025F8DAF8002090474846FFF73A
:10FB30005FFC0134019BEAE70B48FFF759FC1CE727
:10FB4000CD650108E1650108AE640108036601089E
:10FB5000256601084B66010863660108786501089F
:10FB60006C6601087766010870520108DF650108BC
:10FB70002DE9F84F04460E460025184FDFF8648043
:10FB8000DFF86490B368AB4225DDD4E901BA0AF12D
:10FB90000103A360B3689D4204DB3A465921404605
:10FBA000FCF7F6FA33681BF80A205A55A368B3F538
:10FBB000007F0ED10023A360E368606803F5007343
:10FBC000E360FEF7FFFC20B14A4666210448FCF7DB
:10FBD000DFFA0135D6E72046BDE8F88F0C6401084E
:10FBE0006A64010830640108506401081FB50022EE
:10FBF0000123CDE90223036801919B6801A998477D
:10FC000005B05DF804FB000010B50446C1F3080020
:10FC1000E368A060081A83420DD0E060FEF768FD3B
:10FC20006068FEF7CFFC30B1BDE81040024A762193
:10FC30000248FCF7ADBA10BD506401086A640108BF
:10FC4000014BC0B21B68184738310020014B5B687C
:10FC5000184700BF38310020014B9B68184700BF90
:10FC600038310020014B80B2DB6818473831002062
:10FC700008B5024B1B69984708BD00BF383100200A
:10FC800070477047014B1B69184700BF383100208F
:10FC90007047704730B4551E044A013B54699BB20B
:10FCA0008AB2A446A9B280B230BC60473831002085
:10FCB000034B00281B6814BF642100210320184750
:10FCC00038310020024B89B29B6980B2184700BFCF
:10FCD00038310020704710B504494FF0006003F040
:10FCE00003FABDE81040024BDB69184700C0000072
:10FCF0003831002008B5144B00211B6A04209847B6
:10FD0000C34313F4806F0CBF00204FF4006019054B
:10FD100048BF40F480601A0748BF40F4807019045F
:10FD200048BF40F400705A0448BF40F001009904F5
:10FD300048BF40F00200DA0548BF40F004009B05D0
:10FD400048BF40F0080008BD38310020002070474F
:10FD50000020704713B5154C6946A369144843F059
:10FD60000403A3614FF4C053ADF8003018238DF89D
:10FD7000033001F02EFFE369002043F40003E36148
:10FD800000F074FC4FF4A06003F078F94FF40573B1
:10FD9000ADF8043000238DF80630012301A88DF85A
:10FDA000073003F075F902B010BD00BF001002402B
:10FDB0000008014008B5024B5B6A9847012008BD66
:10FDC0003831002008B5024B9B6A9847012008BDD6
:10FDD00038310020034A136803F0380318431060D9
:10FDE000704700BF00200240044B1A6822F008024E
:10FDF0001A601A6810431860704700BF0020024064
:10FE0000044B1A6822F010021A601A681043186036
:10FE1000704700BF00200240034B044A5A6002F1C1
:10FE200088325A60704700BF0020024023016745B6
:10FE3000FFF7F2BF024A136943F080031361704772
:10FE400000200240FFF7F6BF014BD86980087047D9
:10FE500000200240014B186A704700BF002002409A
:10FE6000024BD869C0F34000704700BF0020024039
:10FE7000024B1868C0F34010704700BF00200240DA
:10FE8000044B1A6911B110431861704722EA00004F
:10FE9000FAE700BF002002400128064B03D1D869D1
:10FEA00000F001007047DB68034214BF012000200E
:10FEB000704700BF00200240014BD860704700BF70
:10FEC00000200240084BDA68D10709D4DA685207EB
:10FED00008D4DB6813F0100F14BF03200420704710
:10FEE000012070470220704700200240084BDA686A
:10FEF000D10709D4DA68520708D4DB6813F0100F71
:10FF000014BF03200420704701207047022070476F
:10FF10000020024010B50446FFF7E8FF012806D193
:10FF20000CB9052010BDFFF7E1FF013CF6E7002CFE
:10FF300008BF0520F6E738B505464FF43020FFF737
:10FF4000E9FF042813D10A4C4FF43020236943F011
:10FF5000020323616561236943F040032361FFF7D6
:10FF6000D9FF236923F00203DB04DB0C236138BDD6
:10FF70000020024010B54FF43020FFF7CBFF0428DB
:10FF800012D10A4C4FF43020236943F0040323615B
:10FF9000236943F040032361FFF7BCFF236923F08B
:10FFA0000403DB04DB0C236110BD00BF0020024012
:10FFB000FFF7E0BF38B5FFF753FF00284FF43020BC
:10FFC0000CBFA5250025FFF7A5FF04282BD1164C53
:10FFD000164B4FF43020A36003F18833A3602369EC
:10FFE00043F020032361236943F040032361FFF7BB
:10FFF00091FF04280FD123694FF4005023F0200310
:020000040801F1
:10000000DB04DB0C2361236943F010032361084BFD
:100010001D80FFF77FFF052805D0236923F010031B
:10002000DB04DB0C236138BD00200240230167455F
:1000300000F8FF1F002373B506464FF400500D462D
:100040000193FFF767FF04281BD10F4C4FF40050BA
:10005000236943F001032361ABB23380FFF75AFFFA
:10006000042808D102360196019B2D0C1D804FF407
:100070000050FFF74FFF236923F00103DB04DB0C83
:10008000236102B070BD00BF0020024070B505467C
:100090004FF400500E46FFF73DFF04280FD1084CE7
:1000A0004FF40050236943F0010323612E80FFF7D2
:1000B00031FF236923F00103DB04DB0C236170BDF6
:1000C0000020024070B506464FF400500D46FFF781
:1000D00021FF042817D10C4C0C4BADB2A36003F1E7
:1000E0008833A36023694FF4005043F01003236169
:1000F0003580FFF70FFF052805D0236923F0100393
:10010000DB04DB0C236170BD002002402301674546
:1001100010B504464FF40050FFF7FCFE04283BD115
:10012000E443224B224AE1B29A6002F188329A609B
:100130001A69FF2942F010021A6123D1C4F3072380
:10014000FF2B07D01B4A4FF400505381FFF7E2FE0C
:1001500004281FD1C4F30743FF2B07D0154A4FF4DF
:1001600000509381FFF7D6FE042813D1240EFF2CF4
:1001700013D104200D4A136923F01003DB04DB0CB8
:10018000136109E00B4B4FF400501981FFF7C2FED9
:100190000428D3D00528EDD110BD064BA4B2DC81D4
:1001A0004FF40050FFF7B6FEF4E700BF0020024016
:1001B0002301674500F8FF1F38B505464FF430208E
:1001C000FFF7A8FE04282ED11D4C1E4B4FF4302003
:1001D000A36003F18833A360236943F02003236104
:1001E000236943F040032361FFF794FE04281DD1E7
:1001F000236923F02003DB04DB0C2361236943F034
:1002000010032361104B7DB100221A804FF430207F
:10021000FFF780FE052806D0094A136923F0100372
:10022000DB04DB0C136138BDA522EEE70528FAD00C
:10023000236923F02003DB04DB0C2361F3E700BF19
:10024000002002402301674500F8FF1FF8B5134C5A
:10025000134B0746A36003F18833A3604FF40050AB
:100260000E461546FFF756FE042815D1236947F0C0
:10027000F80743F0100323613E430A4B35435D808A
:100280004FF40050FFF746FE052805D0236923F000
:100290001003DB04DB0C2361F8BD00BF002002402B
:1002A0002301674500F8FF1FFFF734BE08B5154B63
:1002B00098420BD101214FF4805000F06FFABDE855
:1002C000084000214FF4805000F068BA0E4B98426D
:1002D0000BD101214FF4804000F06CFA00214FF463
:1002E0008040BDE8084000F065BA084B984208D14C
:1002F00001214FF4004000F05DFA00214FF400406E
:10030000EFE708BD0030014000380040003C0040ED
:10031000038810B503F441524C880B8823438C8822
:100320002343CC8823430C8923434C8923438C8962
:100330002343CC89234313430380838B23F400633B
:100340001B041B0C83830B8A038210BD838BF0B5C7
:1003500023F47B6323F00F038383022303848B68DE
:10036000868B022B87B005460C46B6B239D08B88F7
:1003700001A8002B14BF0227012700F0ABF9E38886
:100380000199B3F5007F18BF7B014FF00A0214BF3B
:10039000B1FBF3F30B0A5343A0680A22B3FBF0F35B
:1003A00005339BB2B3FBF2F303F001021202C3F375
:1003B0004F03991E89B2FE2924BF00220223134352
:1003C000E28813439BB262882B8423881343A2885C
:1003D00043F400631343A28913431E43AE8307B063
:1003E000F0BD0022E5E70023038043808380C380C3
:1003F000038143818381C3810723038270470023E4
:100400000222C0E90033826083817047038819B1FA
:1004100043F040030380704723F040031B041B0C90
:10042000F8E7838B19B143F480638383704723F427
:1004300080631B041B0CF8E70B090121994089B26A
:10044000838812B119438180704723EA0101FAE7DA
:10045000838812B119438180704723EA0101FAE7CA
:1004600081817047808970474FF6FF639942038806
:1004700005BF23F480731B0443F480731B0C0380BB
:100480007047838819B143F004038380704723F0D9
:1004900004031B041B0CF8E7038823F400631B040C
:1004A0001B0C03800388194301807047038843F4C1
:1004B000805303807047038819B143F400530380CD
:1004C000704723F400531B041B0CF8E7012914BFE9
:1004D000008B808A80B27047008A70470388B1F52C
:1004E000804F1BBF23F480431B0443F480431B0C49
:1004F000038070470389194214BF01200020704710
:10050000C94389B2018170470123828810B50489EB
:1005100001F00F0003FA00F0204092B205D0090963
:100520008B401A4214BF0120002010BD01F00F03C0
:1005300001219940C94389B2018170470D4B1A6866
:1005400042F001021A6059680B4A0A405A601A6860
:1005500022F0847222F480321A601A6822F4802217
:100560001A605A6822F4FE025A604FF41F029A6021
:10057000704700BF001002400000FFF80C4BB0F5C0
:10058000803F1A6822F480321A601A6822F48022AE
:100590001A6003D0B0F5802F05D070471A6842F476
:1005A00080321A6070471A6842F4A022F9E700BF4F
:1005B00000100240034A136823F0F80343EAC00026
:1005C0001060704700100240014B1860704700BF78
:1005D00000004242034A536823F47C131943014349
:1005E0005160704700100240014B1860704700BF17
:1005F00060004242034A536823F0030318435060EB
:10060000704700BF00100240024B586800F00C0019
:10061000704700BF00100240034A536823F0F00304
:1006200018435060704700BF00100240034A5368EF
:1006300023F4E06318435060704700BF001002408D
:10064000034A536823F4605343EAC0005060704784
:1006500000100240044B1A7811B110431870704713
:1006600022EA0000FAE700BF09100240014B1860BF
:10067000704700BFD8004242034A536823F4404306
:1006800018435060704700BF001002400022064B24
:1006900001281A701A7002D0042802D0704718700E
:1006A000704705221A70704720100240014B1860F5
:1006B000704700BF80044242024A136A1843106226
:1006C000704700BF00100240014B1860704700BF28
:1006D0003C0442421B4A10B5536803F00C03082B3C
:1006E0001FD0194B036053681849C3F30313CC5C44
:1006F0000368E34043605468C4F302240C5D23FAAA
:1007000004F484605468C4F3C2240C5DE340C36005
:100710005268C2F3813211440A7CB3FBF2F30361E5
:1007200010BD53685168C3F38343CC0303F1020344
:1007300002D407494B43D5E751688903F9D40249EC
:10074000F8E700BF0010024000127A00D03100200C
:1007500000093D00044B5A6911B1104358617047BC
:1007600022EA0000FAE700BF00100240044B9A6939
:1007700011B110439861704722EA0000FAE700BF08
:1007800000100240044BDA6911B11043D861704780
:1007900022EA0000FAE700BF00100240044BDA68CA
:1007A00011B11043D860704722EA0000FAE700BF99
:1007B00000100240044B1A6911B1104318617047D0
:1007C00022EA0000FAE700BF00100240014B186067
:1007D000704700BF40044242014B1860704700BFA1
:1007E0004C004242014B1870704700BF0710024096
:1007F0004209012A074B07D11B6800F01F0023FAAA
:1008000000F000F001007047022A0CBF1B6A5B6A0F
:10081000F3E700BF00100240002307B50193312029
:10082000FFF7E6FF019B01330193019BB3F5A06F36
:1008300001D00028F3D03120FFF7DAFF003018BFD5
:10084000012003B05DF804FB024A536A43F0807351
:100850005362704700100240034B9B68184214BF5C
:1008600001200020704700BF00100240014B1870AB
:10087000704700BF0A10024001F10051013201F53A
:1008800040515210490002B9704730F8023B013A1A
:1008900021F8043BF7E7002310B501F100510132C4
:1008A00001F54051521049009A4200D110BD51F853
:1008B000234020F813400133F6E70000014B186095
:1008C000704700BF405C0040014B186880B2704721
:1008D000405C0040014B1860704700BF445C004022
:1008E000014B186880B27047445C0040014B1868A7
:1008F00080B27047485C0040014B1860704700BFF1
:100900004C5C0040014B186880B270474C5C004062
:100910004FF6F873014A034013607047505C004083
:10092000014B186880B27047505C0040800000F1B5
:10093000804000F5B84001607047800000F18040C1
:1009400000F5B840006880B27047800000F1804038
:1009500000F5B840036823F4EC4323F07003194317
:1009600089B201607047800000F1804000F5B84016
:10097000006800F4C0607047800000F1804000F51E
:10098000B8400368CA0623F4E04323F040039BB257
:1009900048BF83F010038A0648BF83F0200343F466
:1009A000004343F0800303607047800000F1804003
:1009B00000F5B8400368CA0423F4804323F07003B1
:1009C0009BB248BF83F480538A0448BF83F400532A
:1009D00043F4004343F0800303607047800000F15C
:1009E000804000F5B8400129036805D123F4805305
:1009F0001B041B0C036070470229FCD123F0100379
:100A0000F6E7800000F1804000F5B840006800F093
:100A100030007047800000F1804000F5B840006869
:100A200000F440507047800000F1804000F5B8406D
:100A3000036823F4E04323F040039BB283F03003C8
:100A400043F4004343F0800303607047800000F1EB
:100A5000804000F5B840036823F4804323F070031E
:100A60009BB283F4405343F4004343F0800303609C
:100A7000704740F60F63800000F1804000F5B840F9
:100A80000268134043F4014343F08003036070475E
:100A9000800000F1804000F5B840036823F4F8734B
:100AA0001B051B0D43F4004343F0800303607047B4
:100AB000FFF7EEBFFFF7DDBFFFF7DBBFFFF7E8BFD4
:100AC000800000F1804000F5B840006800F0300080
:100AD000A0F11003584258417047800000F1804057
:100AE00000F5B840006800F44050A0F5805358422B
:100AF00058417047800000F1804000F5B84003681D
:100B000023F070031B051B0D03607047800000F18C
:100B1000804000F5B840036823F4E14323F07003FC
:100B20001B041B0C03607047800000F1804000F53F
:100B3000B840036823F0F0031B051B0D43F440434A
:100B400043F0800303607047800000F1804000F5AF
:100B5000B840036823F0F0031B051B0D43F400436A
:100B600043F0C00303607047800000F1804000F54F
:100B7000B84003685B0409D5036823F0F0031B0544
:100B80001B0D43F4404343F0800303607047800033
:100B900000F1804000F5B84003685B0609D50368A2
:100BA00023F0F0031B051B0D43F4004343F0C00387
:100BB00003607047800000F1804000F5B840036892
:100BC00041F4004123F0F0031B051B0D41F08001AF
:100BD0000B4303607047800000F1804000F5B8408F
:100BE000006800F00F007047064B49081B68490079
:100BF0009BB203EBC00000F1005000F540504000F4
:100C000001607047505C0040054B49081B68490073
:100C10009BB203EBC000034B03445B0019607047B9
:100C2000505C004004300020054B1B689BB203EB76
:100C3000C00000F1005000F54050400000887047AF
:100C4000505C0040044B1B689BB203EBC000034B9D
:100C500003445B0018887047505C0040043000205B
:100C6000044B1B689BB203EBC000034B03445B00C7
:100C700019607047505C0040023000203E290AD9BC
:100C80004B09C90604BF03F1FF339BB29B0243F437
:100C90000043036070474B08CA0748BF01339B02FB
:100CA000F7E70E4B0E4A1B683E299BB203EBC000D0
:100CB00002444FEA42020AD94B09C80604BF03F1B5
:100CC000FF339BB29B0243F40043136070474B0811
:100CD000C90748BF01339B02F7E700BF505C0040E3
:100CE00006300020054B1B689BB203EBC000044B91
:100CF00003445B001868C0F309007047505C004073
:100D000002300020054B1B689BB203EBC000044B74
:100D100003445B001868C0F309007047505C004052
:100D20000630002010B50B4CC000236849089BB268
:100D3000034403F1005303F540535B00490019607D
:100D4000236852089BB21844034B520003445B00D3
:100D50001A6010BD505C004004300020FFF744BF13
:100D6000FFF752BFFFF760BFFFF76CBF012910B557
:100D70002BD1254CC0002168244B89B201440B447F
:100D80003E2A4FEA430119D9530912F01F0F04BF3D
:100D900003F1FF339BB29B0243F400430B602368D3
:100DA0001B499BB2184401443E2A4FEA41011FD817
:100DB0005308D20748BF01339B0222E0530812F0C8
:100DC000010F18BF01339B02E8E702290FD10E4C37
:100DD000C00021680D4B89B201440B445B001A60CE
:100DE00023689BB218440A4B03445B001A6010BD91
:100DF0005309D00604BF03F1FF339BB29B0243F4B7
:100E000000430B60F3E700BF505C0040023000205D
:100E10000630002001291BD1134B14491B683E2AC0
:100E20009BB203EBC00001444FEA41010AD95309C8
:100E3000D00604BF03F1FF339BB29B0243F400438F
:100E40000B6070475308D20748BF01339B02F7E796
:100E5000022908D1044B1B689BB203EBC000034B73
:100E600003445B001A607047505C00400230002071
:100E700001291BD1134B14491B683E2A9BB203EB7B
:100E8000C00001444FEA41010AD95309D00604BF0A
:100E900003F1FF339BB29B0243F400430B607047A6
:100EA0005308D20748BF01339B02F7E7022908D154
:100EB000044B1B689BB203EBC000034B03445B0075
:100EC0001A607047505C004006300020FFF70ABFF0
:100ED000FFF718BF0D49C0000B689BB2C2180C4B3E
:100EE00013445B001B6813F47C4F0DD10B689BB25D
:100EF0001844084B03445B001B68C3F30903002B31
:100F000014BF02200020704701207047505C004051
:100F1000063000200230002001290FD1800000F1AE
:100F2000804000F5B840036823F0F0031B051B0D5B
:100F300043F4004343F0C003036070470229FCD12F
:100F4000800000F1804000F5B840036823F0F00312
:100F50001B051B0D43F4404343F08003ECE741EADB
:100F600000207047C3B2000A40EA0320704700BF68
:100F700010B5064C18B9012223681A8210BD044B23
:100F80001B681B68984720680A30F7E7A8450020CF
:100F90009C45002010B5064C18B9012223681A821E
:100FA00010BD044B1B689B68984720680C30F7E71E
:100FB000A84500209C4500201E4B10B51C6800234E
:100FC00010B90223238210BD1B48038021780246FA
:100FD00011F07F0112D1617A8C0644BF02230370A5
:100FE000037848064CBF43F0010323F0010313705C
:100FF000124B1B681B6998470F48E4E70129E2D0B0
:10100000022915D1617901F00F039B0003F18043A0
:1010100003F5B84309061B6805D503F03003102B10
:10102000E6D10123E3E703F44053B3F5805FF7E72C
:101030001846C8E7A8450020AE4500209C45002082
:101040002DE9F843234FDFF8A0803D682C8AD4B9FE
:101050002E7A042E17D120498B78012B0ED11F4BED
:101060001A681F4B92B213445B001C6030238C70D3
:10107000A8F800303B681E72BDE8F88310230726ED
:10108000A8F80030F6E7AB8A9C4294BF04260226FB
:101090009C4228BF1C46AB692046984781460020E9
:1010A000FFF7C2FD224601464846FFF7E5FB214611
:1010B0000020FFF7D5FD2B8A4FF440521B1B2B82DB
:1010C0006B8A1C443023A8F80030064B6C821A80CF
:1010D000D0E700BFA8450020AE450020505C00408E
:1010E00002300020B2450020B445002010B50A4B64
:1010F0000A491B684978DA7891420AD3997841B94C
:101100009C8834B99A72064B1B685B6898472046E6
:1011100010BD0220FCE700BFA84500209445002038
:101120009C45002038B50F4A0F4D12682B68926914
:10113000D978587990472B6804469A7A7AB170B971
:101140001A7962B99B7853B9084B1B68DB689847DA
:101150002B685A79DA72DA781A73204638BD02247D
:10116000FBE700BFA4450020A84500209C450020C7
:1011700038B52F4B1B68187810F07F0004D15A7ACD
:1011800022F020025A7238BD02284ED15A88002A15
:10119000F9D11A79002AF6D15979264D21F080002B
:1011A000840004F1804404F5B844226849B22D78E3
:1011B0000029B4BF02F0300202F44052854234D913
:1011C0009AB39B7A8BB30029236811DA03F03003BA
:1011D000102B07D1C4B22046FFF7D9FC302120469E
:1011E000FFF7CAFB144B1B685B6998470020CAE7EE
:1011F00003F44053B3F5805FF4D198B90F4B1B68EB
:1012000093F82C10FFF74DFD236823F4804323F05F
:1012100070039BB283F4405343F4004343F08003D4
:101220002360DFE7FFF7A0FCEEE70220ABE700BF9B
:10123000A8450020944500209C450020A44500209E
:1012400038B51D4B1D4D18682D78417921F080046B
:10125000A20002F1804202F5B842136849B20029A7
:10126000B4BF03F0300303F44053A54221D94488AE
:10127000FCB9F3B1837AE3B113680029B5BF23F455
:10128000E04323F4804323F0400323F07003B5BF11
:101290009BB29BB283F0100383F4805343F400436A
:1012A00043F080031360064B1B689B69984700203E
:1012B00038BD0220FCE700BFA8450020944500206F
:1012C0009C45002008B5064B1A68537A43F020036A
:1012D0005372044B1B68DB699847002008BD00BFB0
:1012E000A84500209C450020054B10B51C68628A6B
:1012F00018B98B889B1A238210BD08681044FBE73D
:10130000A845002008B50C4B00201B6893F82C1052
:10131000FFF7C7FC094B1B68187A082806D14FF461
:101320008052074B1A801022064B1A80A0F1090345
:101330005842584108BD00BFA4450020A8450020E0
:10134000B2450020B4450020F7B5964C964E27686C
:1013500032683B7A092B19D0944B92B213445B004C
:101360001D886D0005F1804505F5C0452B783B7063
:101370006B787B70A888FFF7F5FD7880288927684F
:10138000FFF7F0FDB880AA892368DA80012223687C
:101390001A72DA885D78002A61D11A7812F07F0219
:1013A0004AD1092D03D1FFF7A1FE40BB16E0052D60
:1013B00020D193F90320002A07DA08232268137248
:1013C00003B0BDE8F040FFF79DBF9A78002AF4D142
:1013D0009A88002AF1D19B7A002BEED13268744BA7
:1013E00092B2134400225B001A603022714B1A80C3
:1013F0000623E3E7032D11D1DA78012A08D06E4BDA
:1014000028461B685B699847032825D10923D5E73F
:101410009B88002BF3D1FFF755FFC6E7012DEED1D6
:10142000DA78012AEBD19A88002AE8D15B7A9F0604
:10143000E5D5FFF79DFEB8E7012A04D10B2DDED1DB
:10144000FFF770FEB1E7022AD9D1012DF1D0032DAB
:10145000D5D1FFF7F5FEA8E70028AED1BEE7062DEF
:1014600012D11A7855065AD19B78534A012B12682B
:1014700002D1D369DBB952E0022B01D1136AF9E73B
:10148000032B4CD1536AF5E7002D54D1598800291C
:1014900045D15A6822F47F42B2F5003F3FD11A7815
:1014A00012F07F0216D19B88002B38D1434B0025C8
:1014B0002268284655829361984728464FF6FF7167
:1014C00023681A8A8A4233D0022801D0002A55D1D3
:1014D00008222EE0012A0AD1374A58791268926907
:1014E0009047E0B923689B7A002BDFD117E0022AEE
:1014F00015D15A7902F00F018B00100603F18043D9
:101500002F4803F5B8431B6800784CBF03F0300345
:1015100003F44053884202D912F0700FE4D0264BF6
:1015200022681B6850781B6998470328C6D1236836
:1015300009221A7244E7082D04D11B785B06EED10C
:10154000204BB4E70A2DEAD11A7802F07F02012A73
:10155000E5D19A7A002AE2D059880029DFD15A6869
:1015600022F47F42B2F5803FD9D1134A58791268EC
:10157000926990470028D2D1134B98E793F9001055
:10158000002934DAD9880C4801910068019D90F84F
:101590002C00AA4284B219D9019A1A829C82FFF7C0
:1015A0004FFD0DE7A8450020505C004004300020AE
:1015B00002300020B4450020A4450020B90F0108E6
:1015C00094450020710F0108950F01088A42E5D269
:1015D000944203D90021094A9170DFE792FBF0F1B0
:1015E00000FB1122002AD9D1044A0121F4E7032289
:1015F0001A724FF44052024B1A80E1E6AE450020C9
:10160000B2450020F8B52B4E3468237A022B4FD018
:10161000042B4DD0032B01D0052B43D1A369B3B1CB
:10162000258AA5B1A28A954228BF15462846984723
:10163000238A07465B1B2382638A00202B44638234
:10164000FFF700FB2A4601463846FFF724F9238AB4
:1016500053B100214FF44052174B08461A80FFF750
:10166000FFFA3022154B1A80218AA38A32688B42F6
:1016700008D803231372137A32681372BDE8F84056
:10168000FFF740BE09B10523F4E7062313720C4BA4
:1016900018680C4B80B203445B0019603021074B83
:1016A0001980E8E7072B03D1074B1B68DB689847D5
:1016B0000823E1E7A8450020B2450020B4450020FA
:1016C000505C004002300020A4450020F0B500220C
:1016D00040F60F7548F280060A4B1C78A24204D3EC
:1016E000094B40F080001860F0BD02F1805303F513
:1016F000B8539B00196842EA06072940394319602C
:101700000132EBE7944500204C5C004010B5134CCF
:1017100023681A7A022A01D0042A09D1FFF790FC23
:1017200023681B7A22681372BDE81040FFF7EABDF8
:10173000062A10D15A78052A09D11A78520606D1FC
:10174000D878FFF7C3FF064B1B681B6A9847054B09
:101750001B689B6898470823E4E700BFA845002062
:101760009C450020A4450020704700BF00232DE9C0
:10177000F341564F564EADF8063039680B044FD53D
:1017800001F00F023270002A6ED14BF6BF75DFF800
:101790004881504CD8F80030C9069BB2238023887A
:1017A00003F030036380238803F440532380D8F888
:1017B000003003EA050383F4005383F0200343F46D
:1017C000004343F08003C8F80030D8F800302AD432
:1017D00023F4E14323F070031B041B0CC8F8003012
:1017E000FFF794FFD8F8003022882B40D7042288D6
:1017F00048BF83F480539604628848BF83F4005343
:10180000D506628848BF83F01003900648BF83F076
:10181000200343F4004343F080032F4A9BB213603C
:1018200002B0BDE8F0819BB2ADF80630BDF80630DD
:101830001A050AD5D8F8003023F070031B051B0DDC
:10184000C8F80030FFF780FDCCE7BDF806301B0478
:1018500093D5D8F8003023F070031B051B0DC8F892
:101860000030FFF7CFFEBDE7930003F1804303F59F
:10187000B843196889B2ADF80610BDF8061009041E
:101880000AD51968013A21F070010905090D19609E
:10189000124B53F822309847BDF806301A067FF5F0
:1018A0006CAF3278930003F1804303F5B8431968B5
:1018B000013A21F4E14121F070010904090C196099
:1018C000074B53F82230984757E700BF445C00406D
:1018D000AC450020B2450020005C00407845002067
:1018E0005C45002070B5174C174D184E23681A043C
:1018F00000D470BD47F6FF7203F00F0322609A0018
:1019000002F180422B7002F5B842116808040BD531
:101910001168013B21F070010905090D11600C4AA5
:1019200052F823309847E1E70906DFD51168013BFB
:1019300021F4E14121F070010904090C116056F80D
:101940002330EFE7445C0040AC4500205C450020BC
:10195000784500200023044A1360044A1080044A9A
:1019600010601846704700BF445C0040A04500204E
:10197000405C004070B500F07F05144628460E46D6
:10198000FFF752F9A4B2224601463046FEF774FF33
:1019900028462146FFF764F9002070BD70B500F0BD
:1019A0007F0528460E46FFF7ADF904462846FFF7A7
:1019B00049F9224601463046FEF76DFF204670BDCC
:1019C000374B82B01A6842F001021A605968354AF2
:1019D0000A405A601A6822F0847222F480321A6037
:1019E0001A6822F480221A605A6822F4FE025A60B1
:1019F0004FF41F029A600022009201921A6842F48A
:101A000080321A601A6802F400320192009A0132A0
:101A10000092019A1AB9009AB2F5A06FF2D11A6831
:101A200012F4003218BF01220192019A012A30D12A
:101A30001D4A116841F010011160116821F0030185
:101A40001160116841F0020111605A685A605A68C9
:101A50005A605A6842F480625A605A6822F47C12D2
:101A60005A605A6842F4E8125A601A6842F080726A
:101A70001A601A689201FCD55A6822F003025A6073
:101A80005A6842F002025A605A6802F00C02082AB0
:101A9000FAD14FF00062054B9A6002B0704700BF68
:101AA000001002400000FFF80020024000ED00E0BE
:101AB000104A536803F00C03082B0F4B0AD00F4950
:101AC00019605268C2F303121A4411791A68CA40A5
