:020000040800F2
:10800000009F00202D84000879810008BD820008AF
:108010008981000899810008A981000800000000FA
:10802000000000000000000000000000E9830008DC
:10803000E983000800000000E98300085D8400086F
:10804000EB830008EB830008EB830008EB83000858
:10805000EB830008EB830008EB830008EB83000848
:10806000EB830008EB830008EB830008EB83000838
:10807000EB830008EB830008EB830008EB83000828
:10808000EB830008EB830008EB830008E98300081A
:1080900001850008E9830008E9830008EB830008F4
:1080A000EB830008EB830008EB830008EB830008F8
:1080B000EB830008EB830008EB830008EB830008E8
:1080C000EB830008EB830008EB830008EB830008D8
:1080D000EB830008EB830008EB830008D5840008DD
:1080E000EB830008EB830008EB830008EB830008B8
:1080F000EB830008EB830008EB830008EB830008A8
:10810000EB830008EB830008EB830008EB83000897
:10811000EB830008EB830008EB830008EB83000887
:10812000EB830008EB830008EB830008EB83000877
:1081300008B5024802F0DCFAFEE700BFB21A0108F7
:1081400006460D46144608B5084802F0D1FA3046F6
:1081500002F0CEFA2946064802F0CAFA204602F09A
:10816000C7FA044802F0C4FAFFF7E2FFC51A010893
:10817000DC1A0108F82C010808B5024802F0B8FA28
:10818000FFF7D6FFE41A010808B5024802F0B0FA7A
:10819000FFF7CEFFF11A010808B5024802F0A8FA6D
:1081A000FFF7C6FF051B010808B5024802F0A0FA58
:1081B000FFF7BEFF181B0108024BEFF308801860A1
:1081C000704700BFA802002010B58CB00446002103
:1081D0001C2205A809F034FA0023114904F1180003
:1081E00088420CD250F8042B140E082C01BF0CACA2
:1081F00004EB8304013344F81C2C072BF0D10B9BB8
:10820000059903930A9B07480293099B0193089BD6
:108210000093DDE9062302F06BFA0CB010BD00BF3D
:10822000009F00202D1B0108684620F007018D46A5
:1082300000B5194C83B0194802F05AFA2168184861
:10824000D1E9053202F054FA164B1748D96A9A6AF6
:108250009B6B02F04DFA25681448D5E90123296883
:10826000ED68009502F044FAD4E90132D4E9031034
:1082700000900F4802F03CFAD4E905210D4802F0C5
:1082800037FA23680C48E2691B69216A02F030FA68
:108290002068FFF799FFFEE7A8020020581B01089D
:1082A0006C1B010800ED00E0881B0108AC1B0108F5
:1082B000D01B0108F41B0108081C0108084BEFF350
:1082C0000882DC601A609D605E601F61C3F81880E0
:1082D000C3F81490C3F820A0C3F81CB0FFF7A4FFA4
:1082E000A80200202DE9F0410020ADF5C85D00F0A6
:1082F0001EF900F00FF902F0FFF802F0FFFA02F0A9
:10830000D9FA354802F02CFA6B46344A344C1068DE
:108310005168128903C300211A800DF10A00362228
:1083200009F08EF902F0CEF9072836D000252A4E42
:108330002C4F02F02FFA037813B9684602F010FAB6
:1083400002F028FA10AA1446431E3E3013F8011F0B
:10835000944602F8011B197819B1202925D18CF80F
:10836000005020A800F05CFC0DF5106002F0B2F89F
:10837000204603F003F98046002000F051FC002065
:1083800002F0A8F8B8F1000F14D1384602F0B0F9A5
:1083900002F098F90528FBD1CBE7204602F0A8F9B6
:1083A00002F090F90528FBD1BCE78342CED184F8D6
:1083B0003F50D6E702F0F2F9404600F0B5F802F07F
:1083C000EDF920B12146684609F062FAB1E730467E
:1083D00002F0C6F9ADE700BFF92C01083C1A01080C
:1083E0007C1A01089E1A01087047FEE70A4A0B4BE7
:1083F0009A4203D00A49043A8B4205D30021094B23
:10840000094A934205D3704752F8040F43F8040B0E
:10841000F2E743F8041BF4E75C3001080000002099
:10842000A1020020A802002004260020684620F0B7
:1084300007018D4608B5FFF7D9FFFFF753FFFEE7A9
:108440000022024B18781A70704700BFCC0200203F
:10845000014B1878704700BFCC02002010B51C4CAF
:10846000636801336360A36813B1A368013BA36031
:10847000E3682BB1E0680138E06008B903F010FD53
:1084800003F0A6FD2369834221D0C20544BF3E23E9
:108490002370830544BF3C232370410544BF2B2335
:1084A0002370020544BF2D232370C30744BF31232B
:1084B0002370810744BF32232370420744BF332314
:1084C0002370030748BF3423206148BF237010BDC9
:1084D000CC02002010B5094C23881A0702D020884E
:1084E00007F026F923889B0607D5044807F00EFC01
:1084F000BDE81040C0B207F007B910BD0048004009
:1085000002F08DB9024B18601A68002AFCD170473E
:10851000D402002003F020BDFFF7F4BF014B186820
:10852000704700BFD002002040F00100004710B5A6
:10853000044618B9BDE8104003F0B2BC012003F0B6
:10854000AFFC014B1C6010BDD8020020002070471A
:108550000E22024B02FB0030704700BF241C0108B2
:10856000002138B50546084603F0ACFC4FF49634BC
:10857000284603F0CFFB013CFAD138BD2DE9F0418C
:108580001D4680460C461646C1F1F003C5F1F001C8
:10859000BDF8187003F03BFCA6EB08062C1B7443D7
:1085A00014F1FF3403D3384603F0B4FBF8E7BDE819
:1085B000F08107B50091D0E9022303C8FFF7DEFF81
:1085C00003B05DF804FB37B50D46044641680095DD
:1085D0004B1C82680068FFF7D1FFD4E902232068B2
:1085E000591E0095FFF7CAFF2068E368421C6168C6
:1085F0000095FFF7C3FFD4E9022300956168501E80
:10860000FFF7BCFF03B030BD10B51446C1F1EF0158
:1086100003F058FC2046BDE8104003F07BBB10B5CA
:108620000C4641680068C1F1EF0103F04BFC2046A5
:10863000BDE8104003F06EBB10B5C1F1EF0103F0CF
:1086400041FC03F0A9FB03F071FB044603F0C4FBFB
:10865000A0B210BD41EA000333F0030301BF40EABA
:1086600081000349401890F8000E18BF00207047A1
:10867000241C01082DE9F04F984605460E46174682
:108680000C4687B0BDF8403001F1030A0293531E37
:10869000A8F1030B059344452EDAA24508D1029BAD
:1086A0003A46009351465B462846FFF767FF5C4613
:1086B000A946A8EB0402531E0393A31B0493B945D8
:1086C00018DA059BA9EB0502A3EB0900039B1946E9
:1086D000049B9942A8BF19469042A8BF1046FFF7D5
:1086E000B9FF20B9029A21464846FFF78DFF09F1EC
:1086F0000109E4E70134CEE707B0BDE8F08F07B524
:108700000091D0E9022303C8FFF7B4FF03B05DF87E
:1087100004FB38B50A4C0546227822B1094AB82133
:108720000948FFF70DFD6B68E968C3F1F003AA681B
:10873000C1F1F001286803F06AFB0023237038BD03
:10874000E0020020342A01083D2A010803F0E2BAC1
:1087500038B5044600EB4105AC4204D034F8020BB6
:1087600003F0D8FAF8E738BD2DE9F04F17460E228E
:108770008DB098469DF85840354B064602FB0434B0
:108780004FF61E0398451FD104F1FF3804F10D0A7E
:108790000C1B4FF0000918F8015F04EB080B2A06C8
:1087A00005D53A46594606EB0900FFF72DFF09F1BA
:1087B00001096D00B9F1080FEDB2F0D1D045E8D153
:1087C00008200DB0BDE8F08F9F421DD1671E04F157
:1087D0000D090C1B17F8015F4FF0000AED4304EB85
:1087E000070BEDB22B0605D54246594606EB0A00AB
:1087F000FFF70AFF0AF1010A6D00BAF1080FEDB2A6
:10880000F0D1B945E6D1DBE7CDE9010108360E31FB
:1088100001A8039604910025FFF77BFF802646FA06
:1088200005F004F10E030DF1120213F8011D0142CF
:1088300014BF39464146A34222F8021FF5D10E214A
:1088400005A80135FFF784FF082DE8D1B8E700BF80
:10885000241C01082DE9F7430A9D06460F46904661
:108860009946BDB1287890B1013D344615F8013FD5
:1088700063B10A2B01D11037F7E7009320464B462E
:1088800042463946FFF770FF0444EFE7A01B03B0F0
:10889000BDE8F0832846FAE7FFF7DCBF2DE9F04199
:1088A00005460E461746984694B01AAA52F8041B7D
:1088B00004AC2046039202F073F9009443463A4612
:1088C00031462846FFF7C6FF14B0BDE8F08110B46A
:1088D0009DF80440019410BCFFF746BF08B5054B56
:1088E0001A781AB901221A7003F056FA03F01EFA28
:1088F00080B208BDE002002038B5094B04461A7862
:108900000D461AB901221A7003F046FA04EB450528
:10891000AC4204D003F00AFA24F8020BF8E738BDA1
:10892000E002002010B5044C23781BB103F054FA88
:108930000023237010BD00BFE00200202DE9F74F97
:10894000064600254FF61E0917460C9A98461378DE
:1089500002F1010B00934B1E01935C46019BA3EBBC
:108960000B0A009BA4EB0B02934213DD14F8012BBE
:10897000B2B153070AD54F45F3D03A4604EB0A018A
:108980003046FFF741FEECE7A346E6E7C845E8D0EE
:108990004246F3E70135502D06F10106F4D10825D2
:1089A000284603B0BDE8F08F2DE9F84F0A9F9A469C
:1089B0003C4680460D46914603F029FA0B9B07EB97
:1089C000430655450EDAC346CB4509DA34F8020BA7
:1089D00003F0A0F9A64208BF3C460BF1010BF3E7F8
:1089E0000135EEE7BDE8F88F024A40F21511024862
:1089F000FFF7A6BB212F01083D2A010800F58033AF
:108A0000DB0200F10820834204D21A68013203D14C
:108A10000433F8E7012070470020704708B5194B70
:108A20001A69120622D4174BDA68D207FCD41A69E5
:108A300042F002021A6100F58032D2025A611A69CC
:108A400042F040021A610F4BDA6812F00102FBD1CA
:108A500019691A611A6942F080021A61FFF7CEFFA4
:108A600000280CBF6FF00A00012008BD064A5A60BA
:108A700002F188325A601B691906D4D54FF0FF30D5
:108A8000F3E700BF002002402301674508B50B460D
:108A900000F580314FF40062C902184608F05AFD13
:108AA000012008BD00F58033012030B5C1EBC323A0
:108AB00001F500645A5851F8045BAA4202D0013211
:108AC00005D10020A142F5D180F0010030BD022087
:108AD000FCE71E4A00F580331069F0B504064FEA42
:108AE000C32324D41948C268D207FCD4174E01F519
:108AF000006735465B1A32695C1842F00102326148
:108B000031F8022B2280E86810F00100FBD12A69BD
:108B100022F001022A61228831F8024C944211D1DC
:108B20008F42E8D12B6943F080032B61F0BD0848E8
:108B3000506000F18830506012691006D2D54FF0B5
:108B4000FF30F3E76FF00A00F0E700BF00200240BB
:108B50002301674538B504460D46FFF7A3FF0028FB
:108B60000CDD022802D12046FFF758FF012805D16D
:108B700029462046BDE83840FFF7ABBF38BD00238B
:108B800080F80038C0F804387047014690F80008B3
:108B900018B1D1F80408FFF7DDBF70472DE9F74F92
:108BA000044691464FF0000A4FF0010B01F1784561
:108BB000ED0A1E4605F58033A1EBC321C1F500681F
:108BC00021F0010143180093002E27DDD4F804386A
:108BD000C4F804589D4205D021462846FFF756FFA9
:108BE00084F800A84645ABBF47463746012300231B
:108BF0003A4649460098019308F0ACFC019B84F882
:108C000000B8F61B002BDFD02146D4F80408FFF78C
:108C1000A1FF0028D8D003B0BDE8F08F0020FAE70C
:108C2000014B1860704700BFE4020020014B186838
:108C3000704700BFE402002010B50A4C236823B936
:108C4000094A1A210948FFF77BFA40F60802002179
:108C5000206808F0F5FC0022236883F80028C3F898
:108C6000042810BDE4020020542A0108622A0108E9
:108C700038B50B4C236823B90A4A23210A48FFF769
:108C80005FFA2068FFF781FF054640F608020021E1
:108C9000206808F0D5FC281C18BF012038BD00BF93
:108CA000E4020020542A0108622A0108F8B50A4C9F
:108CB000054623680E46174623B9084A2B21084863
:108CC000FFF73EFA3B46324629462068FFF766FF2B
:108CD000B0FA80F04009F8BDE4020020542A0108EF
:108CE000622A010801380A44914204D011F8013B7C
:108CF00000F8013FF8E77047026930B501F1090358
:108D00006AB3426901F11105541E14F8010F2028BD
:108D100006D0052808BFE52003F8010BAB42F4D1CB
:108D2000107A20280DD018462E24D51D00F8044BAB
:108D3000013315F8014F202C03D003F8014B984262
:108D4000F7D1D07A0872D0690860547E107E40EA6C
:108D500004208880D07D927D42EA0022CA800022D1
:108D60001A7030BD03685BB11A784AB1D98882881D
:108D7000914205D15B78002B14BF0320002070477F
:108D800009207047CA7E8B7E032843EA022301BF75
:108D9000487D0A7D42EA002243EA024318467047B2
:108DA00083690239023B8B4283BF8378806A01FB6F
:108DB00003000020704748B9054B1A6802B11070D3
:108DC00009B100220A701960002070470B2070471B
:108DD000E8020020003018BF01207047003018BFA3
:108DE0000120704770B50E4660B95BB11B031503D7
:108DF0009CB222462946304602F004FF0028F8D0F3
:108E0000002070BD0420FCE710B50A46044600F1BE
:108E1000300101234078FFF7E5FFC0B994F82F2215
:108E200094F82E3243EA02234AF65522934210D197
:108E3000D4F86630084A23F07F43934206D0D4F832
:108E4000820020F07F40801A18BF012010BD03204F
:108E5000FCE70220FAE700BF464154002DE9F84341
:108E600003681A78303A092A1ED900230B607D4E18
:108E70003468002C00F0F1800C6023780BB160782E
:108E800080B1002323804FF480530021C4F80A30BE
:108E90002046FFF7B9FF012840F0CC8094F8F2316A
:108EA0006BB90D20BDE8F8835C783A2CDDD1023334
:108EB000036000230B60002AD9D00B20F2E7D4F81E
:108EC000F67120463946FFF79FFF032800F0C78060
:108ED0000028E6D194F83C3094F83B0040EA0320A7
:108EE00063898342DDD194F8473094F8462094F8A2
:108EF00040C052EA032208BF626D0CF1FF33012B20
:108F0000E26184F803C0CCD894F83D9084F80290D4
:108F1000B9F1000FC5D009F1FF3313EA090FC0D131
:108F200094F8423094F84180450948EA0328B8FB98
:108F3000F5F105FB1185ADB2A4F80880002DB0D184
:108F400094F8445094F8433094F83EE053EA0523F3
:108F500094F83F5008BF236D5EEA052EA1D002FBB6
:108F60000CFC7144614499429BD85B1AB3FBF9F342
:108F7000002B96D040F6F5754FF6F579AB428CBFD5
:108F8000022501254B4588BF032539440233A162E0
:108F9000032D0EEB0701A36121624DD1B8F1000F43
:108FA0007FF47FAFE16D9B006162411E0B44B3FB18
:108FB000F0F08242FFF475AF00234FF0FF32032D33
:108FC000C4E903322CD1637194F8602094F86130C5
:108FD00004F1300142EA03223A44626101236078DD
:108FE000FFF700FFE0B994F82F2294F82E3243EAFD
:108FF00002234AF65522934212D1226B1A4B9A420F
:109000000ED103F1FF53D4F8142203F5005320339B
:109010009A4201BFD4F81C32E360D4F818322361BD
:109020000020B388257001339BB2B380E380E062F7
:10903000207137E7002748E7B8F1000F3FF431AF60
:109040006144022D61624FEA43011BBFC91803F05E
:1090500001030B4603EB5103A7E70C2022E7012095
:1090600020E700BFE80200205252614138B50D46AA
:10907000144680B97BB1012B04D0084A2721084847
:10908000FFF75EF824032146284602F057FD00282A
:10909000F9D0002038BD0420FCE700BF822A010877
:1090A0008D2A01082DE9F041C56A04468D420F461C
:1090B00002D10020BDE8F0810379F3B100F130085E
:1090C00001232A4641464078FFF7D0FF08B101202E
:1090D000F0E7D4E907231344AB4220710DD9E678B9
:1090E000012E0AD9E36941461D442A4601236078CE
:1090F000013EFFF7BBFFF6B2F2E7002FD9D0012304
:109100003A4604F130016078FFF76CFE0028DED1AA
:10911000E762CFE70129F8B505460E4672D98369A3
:109120008B426FD90378022B32D0032B48D0012B0E
:1091300009D1438901EB5107B7FBF3F3016A1944E5
:10914000FFF7B0FF10B14FF0FF3020E069892846EB
:10915000B7FBF1F301FB13730137B7FBF1F12B44BC
:1091600093F830402B6A1944FFF79CFF0028EAD19E
:109170006A89B7FBF2F302FB13773D4495F83000A0
:10918000F30744EA00204CBF0009C0F30B00F8BD10
:1091900043895B08B1FBF3F3016A1944FFF782FFCF
:1091A0000028D0D172006E89B2FBF6F306FB1326BD
:1091B000354495F8313095F8300040EA0320E6E771
:1091C00043899B08B1FBF3F3016A1944FFF76AFF77
:1091D0000028B8D16A89B600B6FBF2F302FB136629
:1091E00006F130032B449878DA780004354440EADD
:1091F000026095F830205B78104340EA032020F0AD
:109200007040C4E70120C2E770B504460D46E18016
:109210008168012901D1022070BD03689A698A42E0
:10922000F9D9F9B91A78032A01D1596AD1B90022BA
:10923000E2601A89AA42EED95A895B6A5209B5FBE3
:10924000F2F213442361236800205A8903F13001AC
:109250005209B5FBF2F302FB1355ADB201EB451514
:109260006561D9E75E8972099E785643B6B2B54208
:1092700022680ED31046FFF74DFF431C014613D062
:109280000128C8D923689B698342C4D9AD1BADB2FC
:10929000EDE7E1601046FFF783FD53895B09B5FBFD
:1092A000F3F318442061CEE70120B5E701292DE949
:1092B000F04104460D46164640F2898083698B4290
:1092C00040F285800378022B45D0032B5AD0012B26
:1092D0007BD1438901EB5108B8FBF3F3016A1944D0
:1092E000FFF7E0FE58BB618915F00105B8FBF1F30B
:1092F00001FB1383234417BF93F83020F2B202F02E
:109300000F0032011CBF02F0F002024383F830204C
:10931000012308F10108B8FBF1F12371236A20460B
:109320001944FFF7BFFE50B96389B8FBF3F703FB9D
:10933000178727443DB1C6F3071287F83020012371
:109340002371BDE8F08197F83020C6F3032622F0A0
:109350000F023243F1E743895B08B1FBF3F3016A83
:109360001944FFF79FFE0028E9D163896A00B2FB28
:10937000F3F503FB15253212254485F8306085F896
:109380003120DCE743899B08B1FBF3F3016A194400
:10939000FFF788FE0028D2D16289AD00B5FBF2F359
:1093A00002FB135505F130012144CB7825441B06FF
:1093B00003F0704343EA0602131285F830204B7025
:1093C000130C120E8B70CA70B9E70220B7E70220A7
:1093D000B7E7F8B505460F4679B9C668BEB18369E7
:1093E0009E4228BF01263446AB690134A34211D8FE
:1093F000012E0ED800242046F8BDFFF78BFE012871
:10940000044630D9AB698342F5D83E46EBE70126E6
:10941000E9E7022421462846FFF77CFE48B1411CBB
:1094200002D14FF0FF34E6E701281CD0B442DBD173
:10943000E0E76FF0704221462846FFF737FF80B91A
:1094400047B92B69EC605A1CD5D0013B2B61012335
:109450006B71D0E7224639462846FFF727FF0028E0
:10946000EFD00128DDD00124C5E7F8B504460D464C
:10947000FFF778FC0746002868D1A27916065CD46D
:10948000E3689D4203D912F0020F08BF1D46002277
:10949000A368A260BDB9E368AB4257D2A379E56087
:1094A00043F02003A37151E000202368A5685A8986
:1094B000B5FBF2F302FB1353002BECD0A3698342FC
:1094C00018BFA061E7E720688278468956434BB30E
:1094D000013B6A1EB2FBF6F2B3FBF6F18A4221D3DE
:1094E000724213406169A360ED1A0029DCD0AE42DC
:1094F000206807D2A3799A072DD5FFF76AFF0146A6
:1095000060BB3546A36820682B44A3604389B5FB44
:10951000F3F203FB1255002DC6D0FFF741FC40B11A
:109520001044C2E72169A1B9FFF753FF01280146A2
:1095300005D1A37963F07F03A371022706E0013010
:1095400006D10127A37963F07F03A3713846F8BDE4
:1095500021616161C9E7FFF7DDFD01464B1CF0D0D9
:109560000129E6D923689B699942E2D2A368616127
:109570003344A360AD1BBAE70129F8B504460D4694
:1095800022D983698B421FD90127A369AB4201D835
:109590000020F8BD29462046FFF7BCFD06460028FE
:1095A000F6D0012810D0411C10D0002229462046B8
:1095B000FFF77CFE0028ECD123695A1C02D001334E
:1095C000236167713546E0E70220E2E70120E0E72A
:1095D00070B5044640B3FFF7C5FB054698B9A379BB
:1095E000190623D49A0723D5D4E9022191420AD936
:1095F00043F02003E260A371206832B92169FFF7CC
:10960000BBFF256140B9284670BD6169FFF782FD47
:10961000431C06460ED10120A379054663F07F0363
:10962000A371F0E70220F7E70925ECE70225EAE756
:109630000725E8E70128F5D0206883699E42E2D239
:109640006FF070426169FFF731FE0028E4D13146C6
:109650002068FFF791FFD5E72DE9F041C588044662
:109660000135ADB20F4615B90420BDE8F08102699D
:10967000002AF9D0006843895909B5FBF1F301FBD1
:1096800013539BB233B9E1680132226191B9038966
:10969000AB42E9D92368E5805A8903F130015209C8
:1096A000B5FBF2F302FB1355ADB201EB4515656155
:1096B0000020DAE7438982785B09B5FBF3F3013ACE
:1096C0001342E7D1FFF726FD0128064601D8022004
:1096D000CBE7421C01D10120C7E720688369B34270
:1096E0003AD8002FC0D0E168FFF773FE0646002885
:1096F00039D00128EBD0431CEDD000212068FFF7C2
:10970000D1FC0028E7D1236803F130025B8913F113
:10971000FF3302D302F8010BF9E722683146104605
:10972000FFF73EFB00274FF00108D0622368F9B233
:109730009A788A420DD983F8048000212068FFF7C7
:10974000B1FC01370028C6D12268D36A0133D36245
:10975000ECE7DA6A521ADA62E66031462068FFF70F
:109760001FFB206196E707207FE72DE9F8430B7880
:1097700004462F2B0D4601D05C2B00D1013500266D
:10978000A6602B781F2B2ED920262B78AE462F2BA8
:1097900005F10105F9D05C2BF7D0A7693B4607F12D
:1097A0000B02934226D14FF000084FF0080C4546BB
:1097B00043460EF1FF3919F8012F0135202A23D92C
:1097C0002F2A21D05C2A1FD02E2A75D0C44508D953
:1097D000100606D4434810F8011F002975D08A42AC
:1097E000F9D1062004E031462046FFF70DFD666101
:1097F000BDE8F88303F8016BD3E743F0020307F8F1
:10980000082008F10108D6E7212A754434BF042254
:109810000022B8F1000FE4D039782046E52904BFD2
:1098200005213970BCF1080F04BF9B00DBB203F0C7
:109830000301012903F00C0308BF42F01002042BBE
:1098400008BF42F00802FA720021FFF7DDFCD8B928
:1098500021692068FFF726FCB0B96269137893B1DB
:10986000D37A19070AD4A36903F10B0C63450BD013
:1098700012F8017B13F8011B8F42F7D0002120461C
:10988000FFF7EAFEE3E70420A369DB7A30B104289E
:10989000AED113F0040F08BF0520A9E75A07A7D4DB
:1098A0006169CB7ADB0605D523681878FFF76AFA79
:1098B000A0606AE705209BE7BCF1080F91D19B00EF
:1098C000E046DBB24FF00B0C75E7A2F1410119291C
:1098D00093D9A2F1610119299EBF203A43F00103F7
:1098E000D2B28CE7A32A010830B587B001910446B3
:1098F00028B3014601A8FFF7B1FA68B903ABA36129
:10990000019920462568FFF730FFD0B9616951B150
:10991000CB7ADB0603D40520002323600DE02878F2
:10992000FFF730FAA060EB880021A3802046FFF704
:109930006BFC0428EFD00028EED107B030BD092021
:10994000FBE70428E7D0E7E730B58DB001900D467E
:1099500001A805A9FFF782FA044668B902AB01998C
:1099600005A80B93FFF701FF044628B90A9B33B102
:10997000294605A8FFF7C0F920460DB030BD0624E2
:10998000FAE738B500210546FFF73EFC0446B0B9BA
:1099900029692868FFF786FB044680B96B691B7844
:1099A000E52B0ED06BB101212846FFF755FEEDE700
:1099B0000B22A969FFF796F901222B681A7120463C
:1099C00038BD29692868FFF76DFB04460028F6D1E9
:1099D00068692246034600F120019942E8D003F865
:1099E000012BFAE72DE9F74F9A460023CAF8003019
:1099F000044601911646FFF7B5F9002834D1A37942
:109A0000190624D4DA0740F19780D4E90250451BA7
:109A1000B54228BF3546DDF80480002D00F08E8069
:109A20002068A1684289B1FBF2F602FB1612002AF7
:109A300064D18378013B334013F0FF0B18D141B957
:109A40002069012809D8A37963F07F03A37102205C
:109A50000AE06169FFF75EFBF3E7431C07D10120D1
:109A6000A37963F07F03A37103B0BDE8F08F606159
:109A7000D4F8009061694846FFF792F90028E2D0D7
:109A8000B9F80A6000EB0B07B5FBF6F6002E34D0F0
:109A900099F802200BEB0601914288BFA2EB0B065E
:109AA000F3B23A46414699F80100FFF79BF90028C6
:109AB000D5D121680B794BB1C86AC01B864205D944
:109AC0004A89303102FB0080FFF70CF923680199C5
:109AD00003F13002914204BF4FF0FF32DA62236893
:109AE0005B895E43A368B0443344A360DAF8003076
:109AF000AD1B3344CAF800308FE7A7612068A26825
:109B00004689A169B2FBF6F306FB1323F61AAE42AF
:109B100028BF2E46FFF7C6FA0028A0D12168A0680A
:109B20004A89B0FBF2F302FB130330333246194487
:109B30004046FFF7D7F8D5E7072095E7284693E793
:109B400010B5044604202169C1B12068FFF7AAFAC4
:109B500088B962691378A3B1E52B06D02E2B04D007
:109B6000D37A1B0701D4002010BD00212046FFF747
:109B700073FD0028E7D000232361F5E70028F2D029
:109B8000F9E70420F7E77FB504460D46FFF7EAF84A
:109B9000064620B92DB901462046FFF735FB04B033
:109BA00070BD01ABA3612046FFF7CAFF04280DD1A9
:109BB000266129462046FFF79FF800212046FFF73F
:109BC0004BFD042804BF00202061E8E70028F0D006
:109BD000E5E710B5C1880446FFF716FB50B92169C7
:109BE0002068FFF75FFA28B9E52263691A7001223D
:109BF00023681A7110BD2DE9F34702AB43F8040D39
:109C00008846184611461446FFF728F9054638B924
:109C10002468A7692369BA1E934205D8C8F80030A2
:109C2000284602B0BDE8F08794F80090B9F1010F22
:109C300019D10227064639462046FFF76BFA431C26
:109C400039D0012839D000B90136A3690137BB42A8
:109C5000F1D8B9F1030F08BF0123266108BF637172
:109C6000C8F80060DCE7034602460646216A4AB9A6
:109C7000204601F1010AFFF715FA00BB514662893F
:109C800004F130035878B9F1020F4FEA002093F83D
:109C900000C008D150EA0C0008BF01360233023A76
:109CA000013FE4D1D5E71868043A30F0704008BFAE
:109CB00001360433F4E70125CBE70225C9E7054661
:109CC000C7E72DE9F0478CB00191174606460028FA
:109CD00000F08180002305A9036001A8FFF7BEF80A
:109CE0000546002873D102AB019905A80B93FFF735
:109CF0003CFD0A9C10B9002C08BF062017F01C0F71
:109D000007F01F0842D0C8B3042802D105A8FFF706
:109D100038FE48F0080878BB0A9C18F0080F3ED0BF
:109D2000A023A3736C23E373212300272374282328
:109D3000DDF814906374E77227776777A777E77782
:109D400099F800002146FFF71DF80123A776E77672
:109D50002775677589F80430074600B30146484601
:109D6000D9F82CA0FFF708FC30B90598013FC7606F
:109D70005146FFF797F990B1054628E0E37A13F0D2
:109D8000110F2CD17807C8D5082520E00028F3D181
:109D9000E37AD90621D4BA0701D5DB071FD4059F82
:109DA00018F0080FFB6A18BF48F02008C6E907340E
:109DB00086F8068038782146FEF7E4FF3061E369D3
:109DC0003760F3600023B360B361FB88B38028463B
:109DD0000CB0BDE8F0870925F9E70425F7E707256A
:109DE000F5E72DE9F84F9B460023CBF800300446F9
:109DF00089461746FEF7B6FF002839D1A379190620
:109E000028D49A0740F1B880E368DF4280F0A98047
:109E1000A268002F00F0A58020684389B2FBF3F10F
:109E200003FB1123002B7AD18578013D0D4015F0FD
:109E3000FF0520D182B9216931B9FFF7CAFA01467D
:109E40002061002900F08D8001290AD1A37963F0F7
:109E50007F03A37102200BE06169FFF7BAFA0146A4
:109E6000EFE74B1C06D10120A37963F07F03A371B8
:109E7000BDE8F88F61612068A369C26A9A4204D183
:109E80000021FFF70FF90028EDD1D4F800A0616997
:109E90005046FEF785FF0028D8D0BAF80A6000EBDC
:109EA0000508B7FBF6F65EB39AF80230AA199A4293
:109EB00088BF5E1BF3B2424649469AF80100FFF79D
:109EC000D5F805460028CED12068C16AA1EB08016B
:109ED0008E4207D94289303002FB0191FEF702FF22
:109EE00023681D7123685B895E43A368B1443344D2
:109EF000A360DBF80030BF1B3344CBF8003087E7AA
:109F0000D4E902239A4208D331465046FFF7CAF8F3
:109F10000028A8D12368C3F82C80C4F818802068D2
:109F2000A2684689A169B2FBF6F306FB1323F61A71
:109F3000BE4228BF3E46FFF7B5F8002893D12068FF
:109F4000A1684289B1FBF2F302FB131330333246AE
:109F500018444946FEF7C6FE4FF0010223681A7105
:109F6000C3E7D4E90232934288BFE360A3790020BB
:109F700043F02003A3717BE7072079E710B50021A8
:109F80000446FFF78FF8034600283FD12378032BC0
:109F900038D16379B3B304F130010B46E06204F5C4
:109FA0000C72934202D003F8010BFAE74AF65523EC
:109FB000A4F82E32164B6078236303F1FF5303F5A8
:109FC00000532033C4F8143223691A1284F818326B
:109FD00084F819221A0C1B0E84F81B32E36884F8EB
:109FE0001A221A1284F81C3284F81D221A0C1B0E35
:109FF00084F81E2284F81F3262690123FFF736F8C5
:10A00000002363716378003318BF0123184610BD25
:10A010005252614110B50446FFF7B0FF2046BDE83B
:10A0200010400121FFF73EB870B594B0019006A929
:10A0300001A8FEF713FF0446E8B903AB019906A88F
:10A040000C93FFF792FB0446A8B90B9EB6B1F37AC6
:10A0500013F0010F18BF0724069B31461878FEF74E
:10A0600091FE05463CB9F37ADB0609D406A8FFF752
:10A07000B0FD0446D8B1204614B070BD0624EBE70D
:10A08000012822D91C2206A90DA8FEF72BFE0221C9
:10A090000DA80F95FFF7B8F804460028EBD10DA8DE
:10A0A000FFF74EFD044690B10428E4D1DEE725B960
:10A0B0000698FFF763FF0446DDE729460698FFF799
:10A0C0005BFA04460028D6D1F2E70224D3E707243E
:10A0D000D1E730B58DB001900D4601A805A9144611
:10A0E000FEF7BCFEA0B902AB019905A80B93FFF7E0
:10A0F0003CFB68B90A9A6AB1D37A05985D402C4056
:10A1000004F027045C400123D4720371FFF736FF8B
:10A110000DB030BD0620FBE710B58CB001900C46A9
:10A1200001A805A9FEF79AFEB8B902AB019905A8E6
:10A130000B93FFF71AFB80B90A9B83B1E28805985D
:10A140009A75E2881212DA75A2881A76A28812121B
:10A150005A7601230371FFF711FF0CB010BD0620E2
:10A16000FBE730B59BB001900C4601A80CA9FEF7A7
:10A1700075FE002869D10C9B019913930CA803ABC1
:10A180001293FFF7F2FA00285FD1119900295ED0EF
:10A1900015220B3106A8FEF7A5FD0CA913A81C2259
:10A1A000FEF7A0FD214613A8FFF7DFFA002850D0E4
:10A1B00004284AD113A8FFF7E4FB002845D1189DD5
:10A1C00013220DF11A0105F10D00FEF78BFD9DF82C
:10A1D00018300C9C43F02003EB72012323710E9A7C
:10A1E000159B9A422AD0EB7ADB0627D529462078A0
:10A1F000FEF7C8FD01462046FEF7D2FD014650B3EA
:10A200002046FEF74FFF00BB0C9A92F851302E2BE0
:10A2100014D11178159B032903D1516A994208BFC3
:10A220000023191282F86A301B0C82F864301B126A
:10A2300082F86530012382F86B1013710CA8FFF7C8
:10A24000C8FC10B90C98FFF799FE1BB030BD042074
:10A25000FBE70820F9E70220F7E710B50446FEF710
:10A2600081FD002833D1A3799B0630D5E1692068B0
:10A27000FEF718FF014650BB236ADA7A42F020024B
:10A28000DA72E2681A77E26812125A77E2899A77EC
:10A29000E27BDA77226999749A761012120C1A7599
:10A2A00012125A75A0229A756C22DA7521221A763A
:10A2B00028225A760122D876D974A37923F0200374
:10A2C000A37123681A712068BDE8104056E610BDDE
:10A2D00010B50446FFF7C1FF00B9206010BD2DE99D
:10A2E000F04F8FB0039007A903A8FEF7B7FD04460F
:10A2F0000646002840F09E8004AB039907A80D9302
:10A30000FFF733FA0446002800F09C80042840F050
:10A31000918031460798FFF75CF80546002800F069
:10A320008480012800F08A80431C00F08980314637
:10A330000798FEF7B7FE0446002877D1079F294605
:10A340003846FEF72DFD07F13008034641467A896D
:10A3500012F1FF3208D24246202107F13B0082422F
:10A3600005D002F8011BFAE701F8014BF0E71022D3
:10A3700087F83B20A02287F846206C2287F84720E8
:10A3800021222E2487F8482028222E0C5FFA86FBF3
:10A390005FFA85F9C5F3072A360A87F8492041464E
:10A3A000202207F1500087F8304087F84A9087F85C
:10A3B0004BA087F844B087F845600193FEF792FC04
:10A3C000079987F851400878099A0328019B03D11F
:10A3D000486A904208BF002287F86A201012120CC7
:10A3E00087F86420121287F86520002287F86B0036
:10A3F0008F78029247B307985A1CC3624FF001034B
:10A40000002103710192FEF74DFE044670B94146EA
:10A41000079B029A5B8913F1FF3302D301F8012BEA
:10A42000F9E7013FFFB2019BE3E7072429460798BC
:10A43000FFF7A2F820460FB0BDE8F08F0224F5E741
:10A440000124F3E70824F5E707A8FFF79AFA044682
:10A450000028EBD110220C9B0798DA72A0229A7583
:10A460006C22DA7521221A76282283F81A905A76FD
:10A4700083F81BA083F814B05E7501230371FFF706
:10A480007DFD0446D6E770B959B1012903D14FF4D7
:10A490000063136070478B1E012B04D84FF4805368
:10A4A000F7E708467047042070470148704700BF2F
:10A4B000A06C21280022024B98799A71704700BF46
:10A4C000E802002005289ABF014B185C0220704763
:10A4D0007C2A0108014B9860704700BFE802002009
:10A4E000034B9868034B002808BF1846704700BF0D
:10A4F000E802002064030020044B00211A6802B126
:10A500001170034A002011701A607047E8020020A1
:10A510003403002007B5014601AB4FF480520948CF
:10A52000FFF75FFC019BB3F5805F06D1052806D8D5
:10A53000054B185C03B05DF804FB0520FAE7022028
:10A54000F8E700BFF40200207C2A010808B5431C8C
:10A5500001460AD00848FEF788FF18B1052808D937
:10A56000022008BD0448FFF733F80348FFF7B0FEA8
:10A57000F4E7024B185CF4E7F40200207C2A01089F
:10A5800008B50448FFF7A4FE052896BF024B022039
:10A59000185C08BDF40200207C2A010810B50446AE
:10A5A00001460748FFF7EFFA637A23B1052804D87C
:10A5B000044B185C10BD0320FCE70220FAE700BF43
:10A5C000180300207C2A0108014B9869704700BFDE
:10A5D000E802002008B501460448FEF746FF0528BA
:10A5E00096BF034B0220185C08BD00BFF402002098
:10A5F0007C2A01080148FFF70DBD00BF340300208D
:10A6000038B50C4600210C4B05469A7999710AB170
:10A61000FFF7F0FF022C08D10A2229460748FFF76E
:10A6200050FB052805D9022038BD012CFBD122465C
:10A63000F3E7034B185CF7E7E8020020F402002080
:10A640007C2A010813B500210D4B04469A799971B3
:10A650000AB1FFF7CFFF214601AB4FF48052094802
:10A66000FFF7C0F9044618B9074B185D02B010BDDA
:10A670000146064800F03CF8052CF5D90220F5E724
:10A68000E8020020F40200207C2A0108B32A010815
:10A690000021094B10B59A79044699710AB1FFF768
:10A6A000A9FF21460548FFF71FF9052896BF044B6F
:10A6B0000220185C10BD00BFE80200201803002033
:10A6C0007C2A010808B5FDF7BBFE30B12B38C0B2BB
:10A6D00013288EBF0020014B185C08BDC72A010853
:10A6E00008B5FDF7B5FE003018BF012008BD00BF5A
:10A6F0000FB470B5A4B0289904A80B780026242BB9
:10A7000001BF0022154B0131C3E9002229AA03929F
:10A7100000F046FA114C0DF10F0515F8013FC3B1D9
:10A720000A2B616803D02068B0F59C7F06DD0E31EE
:10A73000E029C8BF314626606160EEE700934FF61E
:10A74000FF724FF43043FEF70FF82368184420607F
:10A75000E3E724B0BDE8704004B070476413002004
:10A7600010B5044607F0F2F83E2804D9064A0E2137
:10A770000648FDF7E5FC064B2146184607F088F829
:10A78000012280F8402010BDDB2A01080A2B0108B5
:10A790006C130020004870476C130020034B93F8A3
:10A7A000400010B1002283F8402070476C13002055
:10A7B00008B50A490A4B08681A6890420CD0184636
:10A7C0004FF4987206F0C6FEBDE8084000F1004163
:10A7D0004FF0005005F064BB08BD00BF00800008CA
:10A7E0000000002010B50446FFF7E2FF014B53F8CC
:10A7F000240010BD0000002038B504460D46FFF7C8
:10A80000D7FF024B43F8245038BD00BF00000020A2
:10A8100062B6704772B60020704700BF704706F0FE
:10A8200005B9014B1B681847340100202DE9F74F8B
:10A830000546DDE90C8910460F460E991446019332
:10A8400006F0B2F91649002301F11C028E46924629
:10A85000144858F823C04FEA830B41F823C059F835
:10A86000236042F82360BCF1000F01D141F82300BE
:10A870000EB94AF80B000133072BEAD13B88019A45
:10A88000AEF83830084B1D6002232B72074B1C605A
:10A89000074B1A60236803B0BDE8F04F184700BFAC
:10A8A000B01300201DA8000804140020001400208C
:10A8B000F81300201FB5094B094A0393094B0A49B5
:10A8C00002930A4B0A4801930A4B00930A4BFFF785
:10A8D000ADFF05B05DF804EB05F004BB41080108CD
:10A8E000C0010020742500204C02002068020020D6
:10A8F000582500208402002028020020012001F0B9
:10A900001FBB08B5002001F01BFBBDE808404FF459
:10A91000FA70FDF701BE10B5044605F09FFFA0B226
:10A92000BDE8104003F0B0B920B1036819700368A6
:10A93000013303607047002A2DE9F04106460C46BA
:10A940001FDD0D1B11F8010B0028FAD1AA42CCBF64
:10A95000521B024613F0020F0CBF20273027DB07E3
:10A9600017D41546002D0EDC22EAE273D21A1D1B05
:10A9700005EB040814F8011B69B13046FFF7D4FF5A
:10A98000F6E72027EBE739463046FFF7CDFF013DDC
:10A99000E8E70023EBE71446002C05DD3946304696
:10A9A000FFF7C2FF013CF7E7002AACBF08EB02004B
:10A9B00008F10000BDE8F0812DE9F0430C4685B0B8
:10A9C000804600212046154606F076FD00B32D2373
:10A9D00004F100448DF804300DF10507204606F01F
:10A9E00093FD01230A2101FB03F2824212DD0A21B9
:10A9F000002B07F101060FDD90FBF3F202F13007A7
:10AA000006F8017C03FB1200374693FBF1F3EFE7F6
:10AA100001AFE3E71346E6E72E23002D3B7008BFA6
:10AA200003253746DFF84490BB1B9D4212DD2046CC
:10AA300006F06AFD06F04EFB0146204606F094FA49
:10AA4000494606F09BFB044606F05EFD303007F8F1
:10AA5000010BE9E7002225EAE5757255202301A9DB
:10AA60004046FFF768FF05B0BDE8F08300002041D5
:10AA7000F0B585B09446DDE90A2706461C4641B983
:10AA8000302304A921F80C3D3B46FFF754FF05B0E5
:10AA9000F0BD33B1BCF10A0F16D1002914DA01243C
:10AAA0004942002304AD05F8013D0C9B3A3B69B1D6
:10AAB000B1FBFCF00CFB10110929C8BFC9183031DB
:10AAC00005F8011D0146F2E70024EAE73CB16AB14E
:10AAD000BB070BD52D213046FFF726FF013A3B4639
:10AAE00029463046FFF727FF2044D0E72D23013DBC
:10AAF0002B700024F3E72DE9F043884685B0064625
:10AB000000214046174606F0D7FC78B300232149C0
:10AB10001A463046FFF70FFF054608F10048404649
:10AB200006F0F2FC0024612301468146CDE9014391
:10AB30000A22234600943046FFF79AFF2346224616
:10AB4000154905443046FFF7F6FE0544484606F031
:10AB5000C1FA0146404606F007FADFF84080BC42E1
:10AB600006DA414606F00AFB0134F8E70546D6E767
:10AB700006F0CAFC022361220146CDE901320097AA
:10AB800000230A223046FFF773FF284405B0BDE8D2
:10AB9000F08300BF202B0108532D01080000204145
:10ABA0002DE9F0430E46144600254FF00A0889B0FF
:10ABB000DFF8349105903378002B00F08E80252B40
:10ABC00040F085807278002A00F08780252A06F1FF
:10ABD00001037BD02D2A0ABF01270027B31C1E4684
:10ABE00013F8012B302A02D147F00207F7E72E2A8B
:10ABF00008BF1E464FF0000208BF47F00407314669
:10AC000011F8013BA3F130005FFA80FCBCF1090FA1
:10AC100003D808FB02020E46F1E7732B09D1216825
:10AC20003B46002908BF4946043405A8FFF783FEC8
:10AC30001DE0642B07D161232146CDE90173012377
:10AC400000920A2222E0662B17D1073424F0070372
:10AC5000D3E90001049203F1080406F031F917F07A
:10AC6000040F0146049A05A804D0FFF744FF0544E9
:10AC70000136A0E7FFF7A0FEF9E7782B0CD12146BB
:10AC80006123CDE90173009200231022096805A811
:10AC90000434FFF7EDFEEAE7582B02D121464123A9
:10ACA000EFE7752B06D161232146CDE901730092B0
:10ACB0000023C6E7632BDBD1236807A98DF81C307E
:10ACC000002304348DF81D303B46AEE71E46317834
:10ACD00005A8FFF729FE0135CAE700222846059B93
:10ACE0001A7009B0BDE8F083222B01080EB403B539
:10ACF00003AA52F8041B0192FFF752FF02B05DF85D
:10AD000004EB03B0704700BF41F20553252110F852
:10AD1000012B12B101FB0323F9E748F20D529BB25C
:10AD2000934200F0218200F2CF8043F65E629342AC
:10AD300000F00C825ED841F28C42934200F02282F5
:10AD40002CD840F2CC72934200F09C810ED840F295
:10AD50000952934200F0048240F2E552934200F01F
:10AD60001982B3F5866F0CD1CB48704740F6AD021F
:10AD7000934200F08D8106D840F68702934200F09E
:10AD800013820020704740F66332934200F0D28174
:10AD900040F6C5429342F4D1C0487047B3F5275FEF
:10ADA00000F0F6810FD842F25702934200F066811C
:10ADB00042F20622934200F0D18142F223029342F2
:10ADC000DFD1B748704743F66702934200F0D28163
:10ADD00005D843F2EF429342D3D1B248704743F6CD
:10ADE000BF42934200F0508143F6F9429342C8D1EA
:10ADF000AD48704745F67232934200F0C5812CD8B9
:10AE000044F6E152934200F0BB810FD844F2E44291
:10AE1000934200F0858144F2DE62934200F02C817F
:10AE200044F2D6429342ACD1A048704745F27642F4
:10AE3000934200F0B38105D844F666729342A0D1E4
:10AE40009B48704745F25772934200F0918145F656
:10AE50009412934295D19748704747F6BC3293427B
:10AE600000F09E8117D846F68652934200F09481F6
:10AE700005D846F68F12934283D18F48704747F228
:10AE80008F52934200F0028147F2046293427FF4B2
:10AE900078AF8A48704748F26302934200F05C81C1
:10AEA00006D847F6BA6293427FF46BAF8448704786
:10AEB00048F2A402934200F05F8148F2DB02934221
:10AEC0007FF45FAF7F4870474CF25532934200F0F9
:10AED000558165D849F64B52934200F03B812FD8FB
:10AEE00048F67472934200F0278110D848F6D44295
:10AEF000934200F0C58048F6E362934200F0588127
:10AF000048F2AC5293427FF43CAF6F48704749F22D
:10AF10004812934200F0028106D849F2010293429E
:10AF20007FF42FAF6948704749F26D12934200F0E9
:10AF3000398149F6551293427FF423AF6448704734
:10AF40004AF66412934200F0F38010D84AF20512D8
:10AF5000934200F007814AF2B562934200F09A8072
:10AF600049F6FE7293427FF40CAF5A4870474BF299
:10AF7000A132934200F0D68006D84AF66562934229
:10AF80007FF4FFAE544870474BF6C202934200F084
:10AF9000DF804BF60F2293427FF4F3AE4F487047A9
:10AFA0004EF24C32934200F0CF802FD84DF6F4028F
:10AFB000934200F0C38010D84CF20172934200F02B
:10AFC000D5804CF6D612934200F0E0804CF2C0627D
:10AFD00093427FF4D6AE424870474DF6AD5293424D
:10AFE00000F0EA8006D84DF6AA2293427FF4C9AE5B
:10AFF0003C4870474DF6AF62934200F097804EF2A6
:10B00000952293427FF4BDAE374870474FF24322FA
:10B01000934200F0958017D84EF67862934200F084
:10B02000C98006D84EF68D1293427FF4AAAE2F48FF
:10B0300070474FF2A802934276D04FF2B502934286
:10B040007FF49FAE2A4870474FF24862934200F067
:10B05000AD8006D84FF2C24293427FF492AE2548AB
:10B0600070474FF62F7293426CD04FF6E4729342C2
:10B070007FF487AE204870472048704720487047CB
:10B080002048704720487047204870472048704744
:10B09000204870472048704713870008DD88000863
:10B0A000C90B010891A600089DA70008010E010820
:10B0B000F9A40008618500081F860008258900089A
:10B0C0006D0D0108CF8800083986000811A8000816
:10B0D00095A7000835F6000805F7000875860008F2
:10B0E00015A5000861A70008E5F50008B9F60008F5
:10B0F00081A50008FF860008F1A60008EDAC000855
:10B10000A1AB000815A80008E5A70008F9A70008EA
:10B11000C9A50008E1A40008D5A400082748704785
:10B120002748704727487047274870472748704787
:10B130002748704727487047274870472748704777
:10B140002748704727487047274870472748704767
:10B150002748704727487047274870472748704757
:10B160002748704727487047274870472748704747
:10B170002748704727487047274870472748704737
:10B180002748704727487047274870472748704727
:10B190002748704727487047274870472748704717
:10B1A0002748704727487047274870472748704707
:10B1B00027487047274870472748704701A600086E
:10B1C00045A60008D5A500084DA500089DA50008C6
:10B1D000E1A60008C5A60008F98800085187000804
:10B1E0004D870008B38500087D8500083D8900086B
:10B1F00055880008998800089D880008E98900089A
:10B20000A989000809860008C78500082F8500085D
:10B2100019850008298500081D8500084D8500084E
:10B220002DA80008B5A8000817A90008FDA8000867
:10B2300003A9000889F4000835F4000805F40008A3
:10B24000CFF300080BF6000859F6000839F600089D
:10B25000C9F600085DF60008ADF400082DE9FF41CD
:10B260001A4D1B4C471E17F8016F66B32B785BB164
:10B270004BF20823002000934FF4A072F023E0214A
:10B2800028702060FDF77AF90A2E02D101232B7075
:10B29000E9E74FF0000804ABADF80C8003F8046D4B
:10B2A00000934FF6FF724BF20823E1212068FDF76F
:10B2B000F3FA23681844B0F5A07F01DA2060D2E7E2
:10B2C000C4F80080E2E704B0BDE8F0813C01002052
:10B2D000EC130020FFF7C2BFF7B50D460024096943
:10B2E000074600F0C7FBEE686B69A3420EDD0DF167
:10B2F0000701384600F0B0FBA25D9DF807309A4286
:10B3000002D0002003B0F0BD0134EDE70120F9E7E1
:10B310000023CA684969994203DD985C18B9013372
:10B32000F9E70120704700207047F7B50C4600256B
:10B330000969064600F09EFBE7686369AB4209DDD8
:10B340000DF10701304600F087FB9DF80730EB5503
:10B350000135F2E721463046FFF7BEFF48B9E26803
:10B3600061690548FFF7C4F9044A64210448FCF701
:10B37000E7FE03B0F0BD00BFFF2B0108212F01083D
:10B38000222C01080023184610B5CA684C699C425B
:10B3900002DD98540133F9E710BD2DE9F04F0C465A
:10B3A000C7B0D1F81490D1F80C800969074600267F
:10B3B00000F060FBFDF740FCDFF880A0DFF878B01C
:10B3C0004E4520DAA9EB0605B5F5807FA8BF4FF4FE
:10B3D000807500213B6804919A6806AB0393019342
:10B3E00003A9059538469047019B2A4619464046D1
:10B3F000FDF75CFC20B9524680215846FCF7A0FEC0
:10B400002E44A844DCE7FDF733FC21463846FFF71D
:10B4100063FF48B9E26861690548FFF769F9054AC1
:10B420008A210548FCF78CFE47B0BDE8F08F00BFCD
:10B43000FF2B0108212F0108222C01083D2C0108B7
:10B440002DE9F04391B04F69CE6840220021684653
:10B4500006F0F6F80025FDF7EFFBDFF83880DFF89F
:10B460003890BD4211DA7C1B402CA8BF40246946AD
:10B4700022463046FDF71AFC20B942469D21484637
:10B48000FCF75EFE25442644EBE7FDF7F1FB11B027
:10B49000BDE8F0833D2C0108222C010830B591B0A5
:10B4A0000C460546FFF718FFE368626940B113498F
:10B4B0006846FFF71BFC6846FFF7D0FE11B030BDB1
:10B4C0000F496846FFF712FC6846FFF7C7FEE368BE
:10B4D0001B0E202B04D121462846FFF726FFEDE75F
:10B4E000082B04D121462846FFF757FFE6E7054A17
:10B4F000BD210548FCF724FEE0E700BF572C0108FA
:10B50000722C01088D2C0108222C010830B591B055
:10B510000C460546FFF7FCFE6269E36840B113493B
:10B520006846FFF7E3FB6846FFF798FE11B030BDB1
:10B530000F496846FFF7DAFB6846FFF78FFEE368BE
:10B540001B0E202B04D121462846FFF71BFFEDE7F9
:10B55000082B04D121462846FFF772FFE6E7054A8B
:10B56000D7210548FCF7ECFDE0E700BF572C0108A8
:10B57000AF2C01088D2C0108222C01082DE9F04F79
:10B58000ADF5097D0446FFF745F9A749224602902B
:10B5900028A8FFF7ABFB28A8FFF760FEA34B099391
:10B5A000FEF79EFF00230A9001212046CDE90B33D0
:10B5B000FFF726F880B122469D4928A8FFF796FBA1
:10B5C00028A8FFF74BFE00240298FFF721F9204638
:10B5D0000DF5097DBDE8F08F0A98FFF733F80646B0
:10B5E0000028E8D1342328250DF16C0B699068A957
:10B5F00009A86A93CDF8A0B100F0F0F9DBF820308B
:10B60000BBF8321009A805FB013100F033FA11AC88
:10B6100068A909A868946A95699600F0DFF923691A
:10B62000844D0193D4F8148038AC0FCD0FC40FCDE6
:10B630000FC40FCD0FC495E80F0084E80F0030460B
:10B640004FF0FF3348A958AA41F8203042F8203083
:10B6500001301028F8D10026DFF80092DFF800A2B0
:10B66000BBF83030B34240F385802824DBF820104B
:10B6700009A804FB061100F0FDF96A94002468ADE6
:10B6800011AF294609A86897699400F0A7F93968AD
:10B6900009A8A8EB01030393019B8DF8AE4119445F
:10B6A00000F0E8F9039B0DA90E2BA8BF0E2309A8F3
:10B6B0000D95CDE90E4300F091F905224946284643
:10B6C00006F072F980B95C492A4628A8FFF70EFBFC
:10B6D00028A8FFF7C3FD394609A8FFF7DFFE574842
:10B6E000FFF7BCFD0136BBE705225146284606F0B0
:10B6F0005BF90028E7D007225149284606F054F9A3
:10B700000028E0D004224F49284606F04DF960B9E0
:10B710002A46494928A8FFF7E9FA28A8FFF79EFD1D
:10B72000394609A8FFF7F2FED9E738AF57F82410D9
:10B73000284605F0CFFF78B994B92A46424928A88F
:10B74000FFF7D4FA28A8FFF789FD404A4FF4B171FA
:10B750003F48FCF7F5FC36E70134102CE6D1ECE766
:10B7600048AB43F8246088AB03EB8404159B44F892
:10B77000C03CB7E700264FF0FF3848AB53F82630FF
:10B78000591C33D02825DBF8201009A805FB03112C
:10B7900000F070F900236A9568AD294611AC09A83C
:10B7A0006993689400F01AF938AB53F826202249BF
:10B7B00028A8FFF79BFA28A8FFF750FD731E0B2B54
:10B7C00011D8DFE803F00606220C0C0C2D104F10E8
:10B7D00010CB204A40F277111D48FCF7B1FC2146FE
:10B7E00009A8FFF75BFE1548FFF738FD0136102E5C
:10B7F000C3D1DBF81820184928A8FFF777FA28A842
:10B80000FFF72CFDDBF81840DEE6124A4FF4C27158
:10B810000F48FCF795FC214609A8FFF777FEE2E701
:10B82000D4F81080DFE700BFC92C0108342B0108D1
:10B83000E32C0108402B0108002D0108F82C010819
:10B840000A2D0108122D0108172D0108312D0108BC
:10B85000222C0108212F0108F52D0108FA2C0108DE
:10B86000042D01085148FFF7F9FCDDF880A1BAF179
:10B87000FF3F05D14E4A40F291114E48FCF760FC63
:10B880005F9B013305D14C4A4FF4C9714948FCF71D
:10B8900057FC00276369DFF81C91DB080193019BCB
:10B8A0009F42A0DA216909A801EBC70100F0E2F884
:10B8B00004AB689308236A930023294609A8699377
:10B8C00000F08CF89DF81430162B05D03B4A40F25E
:10B8D0009D114846FCF734FC059909A8090A0AEBB2
:10B8E000011100F0C7F80DAB689310236A93002391
:10B8F000294609A8699300F071F8B8F1000F05DA3C
:10B900002F4A40F2A3114846FCF71AFC0D9909A8EA
:10B91000414400F0AFF80023802206A909A8CDE930
:10B920000732069500F05AF82846FFF7EDF903466E
:10B9300080B903902348FEF7DBFE2846FEF7D8FEC9
:10B940002148FEF7D5FE214A4FF4D8714846FCF74E
:10B95000F7FB039B049A01371360A0E71C48FFF72D
:10B960007DFC67692169002409A800F083F823465B
:10B97000DFF86490BF080DF1340ABC4212DA0422E9
:10B98000294609A8699301936A92CDF8A0A100F015
:10B9900025F8DAF8002090474846FFF75FFC0134AD
:10B9A000019BEAE70B48FFF759FC1CE7412D010812
:10B9B000552D0108222C0108772D0108992D010829
:10B9C000BF2D0108D72D0108EC2C0108E02D01083E
:10B9D000EB2D0108F82C0108532D01082DE9F84F33
:10B9E00004460E460025184FDFF86480DFF86490A7
:10B9F000B368AB4225DDD4E901BA0AF10103A360C3
:10BA0000B3689D4204DB3A4659214046FCF798FB57
:10BA100033681BF80A205A55A368B3F5805F0ED12E
:10BA20000023A360E368606803F58053E360FEF7DA
:10BA300009FE20B14A4671210448FCF781FB01351B
:10BA4000D6E72046BDE8F88F802B0108DE2B0108E1
:10BA5000A42B0108C42B01081FB500220123CDE946
:10BA60000223036801919B6801A9984705B05DF81E
:10BA700004FB000010B50446C1F30B00E368A060AE
:10BA8000081A83420DD0E060FEF7A4FD6068FEF75F
:10BA9000D9FD30B1BDE81040024A81210248FCF7CF
:10BAA0004FBB10BDC42B0108DE2B010838B504467E
:10BAB00007480D4600F0C8FB052802D0342000F0EE
:10BAC00095FB29462046BDE8384000F079BC00BF10
:10BAD000A0860100C0F30A0310B5044663B9074805
:10BAE00000F0B2FB052802D0342000F07FFB204696
:10BAF000BDE8104000F0B9BB10BD00BFA08601003A
:10BB000010B5044600F0ECF8012000F0DBF800F07E
:10BB100076F9202000F0B1F8C4F3074000F0ADF84A
:10BB2000C4F3072000F0A9F8E0B200F0A6F800F096
:10BB30006AF9BDE81040002000F0C4B8164B70B59B
:10BB40009A6806468A4294BF9A609960DA688A4287
:10BB50002CBFDA60D960D3E90402904208D388424E
:10BB600006D38A429EBF4FF0FF300022C3E9040291
:10BB700021F47F6424F00F042046FFF7C1FF002565
:10BB800002226119701900F009F820B105F58075DD
:10BB9000B5F5805FF4D170BD400100202DE9F04182
:10BBA000012790460E46164C0546277000F098F87F
:10BBB000384600F087F800F022F9404600F05DF8C2
:10BBC000C6F3074000F059F8C6F3072000F055F817
:10BBD000F0B200F052F86E1EFF3516F8010FC043A8
:10BBE000C0B200F04AF8AE42F7D100F00CF90020E4
:10BBF00000F068F8002320782370BDE8F08100BFD2
:10BC0000F0130020F8B501230E46184D17462B708F
:10BC1000174B04461A68013C8A4294BF1A601960A7
:10BC20005A6827448A422CBF5A60596000F058F87D
:10BC300000F0E5F8032000F020F8C6F3074000F01C
:10BC40001CF8C6F3072000F018F8F0B200F015F861
:10BC5000BC4205D100F0D7F8002328782B70F8BD3E
:10BC600000F008F8C04304F8010FF1E7F0130020DA
:10BC700040010020A52000F000B870B505460F4C2B
:10BC80000F4E0221304600F0CFFD78B129460C4816
:10BC900000F080FD094C0A4D0121284600F0C4FD4A
:10BCA00040B1074800F078FDC0B202E0013CE8D1A5
:10BCB000FF2070BD013CEFD1FAE700BFA286010072
:10BCC0000030014010B5044600F099F8012C0CBF7B
:10BCD00006200420FFF7D1FFBDE8104000F093B824
:10BCE00010B500F08CF80520FFF7C7FF074CFFF7F1
:10BCF000C1FFC30706D5013CF9D1054AE921901CD3
:10BD0000FCF71EFABDE8104000F07DB8A2860100E5
:10BD1000672E01084FF40072034BD860A3F58063CF
:10BD20005A611A61704700BF0018014030B5174CC6
:10BD3000174D6068174A431C12D0AB684FF0FF31B3
:10BD40004FF48065000215616160590900F4784084
:10BD500001F4FC610143C3F3C4000843556130BDE5
:10BD60004FF48061AB681161D800516100F4FC6050
:10BD700000BF00BF00BFAD6803F4784343EAD5239A
:10BD80006560184311615161E9E700BFF0130020BD
:10BD900000180140001401404FF0FF324FF4807151
:10BDA0002E200A4B5A600A4B0A4A5961D0604FF460
:10BDB00000705861186119614FF044315160116091
:10BDC0004FF480625A611A615A617047F013002083
:10BDD00000140140001801404FF48062044B1A61C6
:10BDE0004FF03332C3F80424C3F80024704700BF77
:10BDF0000014014008B5FFF799FF80B208BD00218B
:10BE00001520F4F77DB901211520F4F779B902F175
:10BE1000FF3CF0B584450CBF9446A2F1010C4FF4F1
:10BE200080772A224FF400751B4C1C4E6761013B42
:10BE3000F2600A126561C9B225612761F2601A12C7
:10BE4000DBB265612561F16065612561F260656164
:10BE50002561F3602B23656125616761F36003123F
:10BE60006561C0B225612761F3604FEA2C236561EB
:10BE70002561F06065612561F3605FFA8CF36561AF
:10BE80002561F3602C23656125616761F36065615D
:10BE900025612761F0BD00BF00140140001801407A
:10BEA00008B5014648B101210520F4F729F9BDE89C
:10BEB000084032210520F4F723B90520BDE80840E9
:10BEC000F4F71EB970B52A224FF480751A4B1B4C3B
:10BED0005D610026E2604FF40072C9B25A611A61D6
:10BEE0001D61E6605A611A61E160EF215A611A61D1
:10BEF000E6605A611A61E1602B215A611A615D6145
:10BF0000E160010A5A611A611D61E1600121C0B25C
:10BF10005A611A61E0605A611A61E1603F215A6119
:10BF20001A61E1602C215A611A615D61E1605A6118
:10BF30001A611D6170BD00BF00140140001801406E
:10BF4000014618B103491220F4F7DAB81220F4F7C9
:10BF5000D7B800BF0000FFFF10B5184C04202146E1
:10BF6000F4F7CEF821460620F4F7CAF814494FF04A
:10BF7000006003F095FF4FF47A72124BF0211B68BA
:10BF80000520B3FBF2F3104A013B53600F4B83F8DB
:10BF9000231000239360072321461360F4F7B0F8C1
:10BFA00032210520F4F7ACF821461520F4F7A8F863
:10BFB0002146BDE810401120F4F7A2B80000FFFFB1
:10BFC000008000008001002010E000E000ED00E0B3
:10BFD00010B51A490620F4F793F8C043184AC0F385
:10BFE0000131137EC0F381348B4200F00F001ED06C
:10BFF00041EA8303134493F91930002B14DC01D078
:10C000004FF40063117692F82910A1420AD044EA55
:10C010008101114491F9191000290ADD43F480735C
:10C0200082F82940184310BD4FF48063EAE70023EB
:10C03000E9E718BF43F40073F2E700BF0000FCFF1C
:10C04000400100207FB503ABADF804108DF80C0063
:10C0500001A910200293CDF80D20F4F751F80398B0
:10C0600007B05DF804FB7FB503ABADF804108DF8A5
:10C070000C0001A910200293ADF80D20F4F740F850
:10C080009DF80C009DF80D3043EA002007B05DF8E4
:10C0900004FB053816282DD8DFE800F00C2C2C2CDA
:10C0A0002C0E12162C1A2C1E222C2C2C2C2C2C2C48
:10C0B0002C2428001048704705210020F4F720B8F0
:10C0C00003210020F4F71CB801210020F4F718B870
:10C0D00000210846F4F714B808210020F4F710B83E
:10C0E0000648704706490420F4F70AB805490420B9
:10C0F000F4F706B8002070478A2E0108902E010838
:10C100000000FBFF0000FCFF034A136803F0380344
:10C1100018431060704700BF00200240044B1A68AB
:10C1200022F008021A601A6810431860704700BFB6
:10C1300000200240044B1A6822F010021A601A68AC
:10C1400010431860704700BF00200240034B044AB0
:10C150005A6002F188325A60704700BF00200240E6
:10C1600023016745FFF7F2BF024A136943F08003DA
:10C170001361704700200240FFF7F6BF014BD869FA
:10C180008008704700200240014B186A704700BFCA
:10C1900000200240024BD869C0F34000704700BF46
:10C1A00000200240024B1868C0F34010704700BFE7
:10C1B00000200240044B1A6911B110431861704706
:10C1C00022EA0000FAE700BF002002400128064BE7
:10C1D00003D1D86900F001007047DB68034214BF47
:10C1E00001200020704700BF00200240014BD860B2
:10C1F000704700BF00200240084BDA68D10709D41D
:10C20000DA68520708D4DB6813F0100F14BF03205C
:10C210000420704701207047022070470020024030
:10C22000084BDA68D10709D4DA68520708D4DB680A
:10C2300013F0100F14BF0320042070470120704733
:10C24000022070470020024010B50446FFF7E8FFC7
:10C25000012806D10CB9052010BDFFF7E1FF013C14
:10C26000F6E7002C08BF0520F6E738B505464FF481
:10C270003020FFF7E9FF042813D10A4C4FF4302097
:10C28000236943F0020323616561236943F040039E
:10C290002361FFF7D9FF236923F00203DB04DB0CE2
:10C2A000236138BD0020024010B54FF43020FFF765
:10C2B000CBFF042812D10A4C4FF43020236943F0FD
:10C2C00004032361236943F040032361FFF7BCFFAC
:10C2D000236923F00403DB04DB0C236110BD00BFE2
:10C2E00000200240FFF7E0BF38B5FFF753FF0028FA
:10C2F0004FF430200CBFA5250025FFF7A5FF04282B
:10C300002BD1164C164B4FF43020A36003F1883329
:10C31000A360236943F020032361236943F04003B2
:10C320002361FFF791FF04280FD123694FF40050D8
:10C3300023F02003DB04DB0C2361236943F01003AB
:10C340002361084B1D80FFF77FFF052805D0236977
:10C3500023F01003DB04DB0C236138BD0020024016
:10C360002301674500F8FF1F002373B506464FF40D
:10C3700000500D460193FFF767FF04281BD10F4CB7
:10C380004FF40050236943F001032361ABB23380C3
:10C39000FFF75AFF042808D102360196019B2D0CA5
:10C3A0001D804FF40050FFF74FFF236923F0010376
:10C3B000DB04DB0C236102B070BD00BF0020024033
:10C3C00070B505464FF400500E46FFF73DFF0428B8
:10C3D0000FD1084C4FF40050236943F0010323614F
:10C3E0002E80FFF731FF236923F00103DB04DB0C10
:10C3F000236170BD0020024070B506464FF4005026
:10C400000D46FFF721FF042817D10C4C0C4BADB2A1
:10C41000A36003F18833A36023694FF4005043F015
:10C42000100323613580FFF70FFF052805D023692E
:10C4300023F01003DB04DB0C236170BD00200240FD
:10C440002301674510B504464FF40050FFF7FCFE8A
:10C4500004283BD1E443224B224AE1B29A6002F124
:10C4600088329A601A69FF2942F010021A6123D1BA
:10C47000C4F30723FF2B07D01B4A4FF4005053810E
:10C48000FFF7E2FE04281FD1C4F30743FF2B07D0B8
:10C49000154A4FF400509381FFF7D6FE042813D1BC
:10C4A000240EFF2C13D104200D4A136923F010032E
:10C4B000DB04DB0C136109E00B4B4FF400501981D6
:10C4C000FFF7C2FE0428D3D00528EDD110BD064BDE
:10C4D000A4B2DC814FF40050FFF7B6FEF4E700BFD2
:10C4E000002002402301674500F8FF1F38B50546CC
:10C4F0004FF43020FFF7A8FE04282ED11D4C1E4B10
:10C500004FF43020A36003F18833A360236943F024
:10C5100020032361236943F040032361FFF794FE66
:10C5200004281DD1236923F02003DB04DB0C2361E5
:10C53000236943F010032361104B7DB100221A8060
:10C540004FF43020FFF780FE052806D0094A136912
:10C5500023F01003DB04DB0C136138BDA522EEE7EA
:10C560000528FAD0236923F02003DB04DB0C2361C8
:10C57000F3E700BF002002402301674500F8FF1FDA
:10C58000F8B5134C134B0746A36003F18833A3603F
:10C590004FF400500E461546FFF756FE042815D1FD
:10C5A000236947F0F80743F0100323613E430A4B29
:10C5B00035435D804FF40050FFF746FE052805D057
:10C5C000236923F01003DB04DB0C2361F8BD00BFFB
:10C5D000002002402301674500F8FF1FFFF734BE2B
:10C5E00008B5154B98420BD101214FF4805000F053
:10C5F0006FFABDE8084000214FF4805000F068BA9F
:10C600000E4B98420BD101214FF4804000F06CFAA0
:10C6100000214FF48040BDE8084000F065BA084BA7
:10C62000984208D101214FF4004000F05DFA00214A
:10C630004FF40040EFE708BD0030014000380040F3
:10C64000003C0040038810B503F441524C880B882D
:10C6500023438C882343CC8823430C8923434C8970
:10C6600023438C892343CC89234313430380838B47
:10C6700023F400631B041B0C83830B8A038210BD0D
:10C68000838BF0B523F47B6323F00F0383830223B2
:10C6900003848B68868B022B87B005460C46B6B2A6
:10C6A00039D08B8801A8002B14BF0227012700F086
:10C6B000ABF9E3880199B3F5007F18BF7B014FF018
:10C6C0000A0214BFB1FBF3F30B0A5343A0680A221A
:10C6D000B3FBF0F305339BB2B3FBF2F303F00102BB
:10C6E0001202C3F34F03991E89B2FE2924BF002210
:10C6F00002231343E28813439BB262882B8423886E
:10C700001343A28843F400631343A28913431E43D7
:10C71000AE8307B0F0BD0022E5E70023038043802D
:10C720008380C380038143818381C3810723038284
:10C73000704700230222C0E9003382608381704782
:10C74000038819B143F040030380704723F040038E
:10C750001B041B0CF8E7838B19B143F480638383BC
:10C76000704723F480631B041B0CF8E70B090121BD
:10C77000994089B2838812B119438180704723EAB6
:10C780000101FAE7838812B119438180704723EAD7
:10C790000101FAE781817047808970474FF6FF6396
:10C7A0009942038805BF23F480731B0443F480730C
:10C7B0001B0C03807047838819B143F00403838006
:10C7C000704723F004031B041B0CF8E7038823F4D1
:10C7D00000631B041B0C038003881943018070470E
:10C7E000038843F4805303807047038819B143F4EE
:10C7F00000530380704723F400531B041B0CF8E71D
:10C80000012914BF008B808A80B27047008A70476C
:10C810000388B1F5804F1BBF23F480431B0443F40E
:10C8200080431B0C038070470389194214BF012009
:10C8300000207047C94389B2018170470123828873
:10C8400010B5048901F00F0003FA00F0204092B205
:10C8500005D009098B401A4214BF0120002010BDE9
:10C8600001F00F0301219940C94389B2018170474A
:10C870000D4B1A6842F001021A6059680B4A0A40CF
:10C880005A601A6822F0847222F480321A601A68A0
:10C8900022F480221A605A6822F4FE025A604FF491
:10C8A0001F029A60704700BF001002400000FFF8AE
:10C8B0000C4BB0F5803F1A6822F480321A601A6877
:10C8C00022F480221A6003D0B0F5802F05D0704783
:10C8D0001A6842F480321A6070471A6842F4A02243
:10C8E000F9E700BF00100240034A136823F0F80381
:10C8F00043EAC0001060704700100240014B18600E
:10C90000704700BF00004242034A536823F47C137F
:10C91000194301435160704700100240014B1860F9
:10C92000704700BF60004242034A536823F003038C
:10C9300018435060704700BF00100240024B586817
:10C9400000F00C00704700BF00100240034A53681B
:10C9500023F0F00318435060704700BF00100240FE
:10C96000034A536823F4E06318435060704700BFE4
:10C9700000100240034A536823F4605343EAC000A6
:10C980005060704700100240044B1A7811B11043F8
:10C990001870704722EA0000FAE700BF0910024051
:10C9A000014B1860704700BFD8004242034A5368E9
:10C9B00023F4404318435060704700BF001002400A
:10C9C0000022064B01281A701A7002D0042802D0E7
:10C9D00070471870704705221A7070472010024087
:10C9E000014B1860704700BF80044242024A136A3C
:10C9F00018431062704700BF00100240014B1860DE
:10CA0000704700BF3C0442421B4A10B5536803F014
:10CA10000C03082B1FD0194B036053681849C3F34C
:10CA20000313CC5C0368E34043605468C4F30224FE
:10CA30000C5D23FA04F484605468C4F3C2240C5DD2
:10CA4000E340C3605268C2F3813211440A7CB3FBF5
:10CA5000F2F3036110BD53685168C3F38343CC0301
:10CA600003F1020302D407494B43D5E75168890318
:10CA7000F9D40249F8E700BF0010024000127A0022
:10CA80006A01002000093D00044B5A6911B11043AE
:10CA90005861704722EA0000FAE700BF0010024028
:10CAA000044B9A6911B110439861704722EA000063
:10CAB000FAE700BF00100240044BDA6911B11043DD
:10CAC000D861704722EA0000FAE700BF0010024078
:10CAD000044BDA6811B11043D860704722EA0000B5
:10CAE000FAE700BF00100240044B1A6911B110436D
:10CAF0001861704722EA0000FAE700BF0010024008
:10CB0000014B1860704700BF40044242014B18605F
:10CB1000704700BF4C004242014B1870704700BF85
:10CB2000071002404209012A074B07D11B6800F099
:10CB30001F0023FA00F000F001007047022A0CBF2A
:10CB40001B6A5B6AF3E700BF00100240002307B5D1
:10CB500001933120FFF7E6FF019B01330193019B15
:10CB6000B3F5A06F01D00028F3D03120FFF7DAFF32
:10CB7000003018BF012003B05DF804FB024A536A7D
:10CB800043F080735362704700100240034B9B6870
:10CB9000184214BF01200020704700BF001002405F
:10CBA000014B1870704700BF0A10024001F100519C
:10CBB000013201F540515210490002B9704730F876
:10CBC000023B013A21F8043BF7E7002310B501F1DD
:10CBD0000051013201F54051521049009A4200D1F2
:10CBE00010BD51F8234020F813400133F6E7000050
:10CBF000014B1860704700BF405C0040014B186853
:10CC000080B27047405C0040014B1860704700BF25
:10CC1000445C0040014B186880B27047445C00409F
:10CC2000014B186880B27047485C0040014B1860A7
:10CC3000704700BF4C5C0040014B186880B27047E1
:10CC40004C5C00404FF6F873014A03401360704794
:10CC5000505C0040014B186880B27047505C004047
:10CC6000800000F1804000F5B8400160704780000E
:10CC700000F1804000F5B840006880B27047800045
:10CC800000F1804000F5B840036823F4EC4323F042
:10CC90007003194389B201607047800000F1804041
:10CCA00000F5B840006800F4C0607047800000F1F3
:10CCB000804000F5B8400368CA0623F4E04323F03F
:10CCC00040039BB248BF83F010038A0648BF83F03D
:10CCD000200343F4004343F0800303607047800067
:10CCE00000F1804000F5B8400368CA0423F4804393
:10CCF00023F070039BB248BF83F480538A0448BF7B
:10CD000083F4005343F4004343F08003036070470F
:10CD1000800000F1804000F5B8400129036805D18A
:10CD200023F480531B041B0C036070470229FCD1C1
:10CD300023F01003F6E7800000F1804000F5B840D2
:10CD4000006800F030007047800000F1804000F57E
:10CD5000B840006800F440507047800000F1804007
:10CD600000F5B840036823F4E04323F040039BB28E
:10CD700083F0300343F4004343F0800303607047C3
:10CD8000800000F1804000F5B840036823F4804340
:10CD900023F070039BB283F4405343F4004343F009
:10CDA00080030360704740F60F63800000F180400D
:10CDB00000F5B8400268134043F4014343F0800398
:10CDC00003607047800000F1804000F5B8400368C0
:10CDD00023F4F8731B051B0D43F4004343F0800359
:10CDE00003607047FFF7EEBFFFF7DDBFFFF7DBBF64
:10CDF000FFF7E8BF800000F1804000F5B840006810
:10CE000000F03000A0F110035842584170478000F4
:10CE100000F1804000F5B840006800F44050A0F5F3
:10CE20008053584258417047800000F1804000F51F
:10CE3000B840036823F070031B051B0D03607047A7
:10CE4000800000F1804000F5B840036823F4E1431E
:10CE500023F070031B041B0C03607047800000F17B
:10CE6000804000F5B840036823F0F0031B051B0D5C
:10CE700043F4404343F0800303607047800000F1B7
:10CE8000804000F5B840036823F0F0031B051B0D3C
:10CE900043F4004343F0C00303607047800000F197
:10CEA000804000F5B84003685B0409D5036823F0AF
:10CEB000F0031B051B0D43F4404343F08003036064
:10CEC0007047800000F1804000F5B84003685B06C1
:10CED00009D5036823F0F0031B051B0D43F4004341
:10CEE00043F0C00303607047800000F1804000F50C
:10CEF000B840036841F4004123F0F0031B051B0D0B
:10CF000041F080010B4303607047800000F18040D6
:10CF100000F5B840006800F00F007047064B490864
:10CF20001B6849009BB203EBC00000F1005000F504
:10CF30004050400001607047505C0040054B49087C
:10CF40001B6849009BB203EBC000034B03445B002A
:10CF500019607047505C004004300020054B1B688E
:10CF60009BB203EBC00000F1005000F540504000C0
:10CF700000887047505C0040044B1B689BB203EB79
:10CF8000C000034B03445B0018887047505C0040AE
:10CF900004300020044B1B689BB203EBC000034B22
:10CFA00003445B0019607047505C00400230002071
:10CFB0003E290AD94B09C90604BF03F1FF339BB2CE
:10CFC0009B0243F40043036070474B08CA0748BF05
:10CFD00001339B02F7E70E4B0E4A1B683E299BB2BA
:10CFE00003EBC00002444FEA42020AD94B09C806CB
:10CFF00004BF03F1FF339BB29B0243F40043136071
:10D0000070474B08C90748BF01339B02F7E700BFD1
:10D01000505C004006300020054B1B689BB203EBC0
:10D02000C000044B03445B001868C0F3090070475C
:10D03000505C004002300020054B1B689BB203EBA4
:10D04000C000044B03445B001868C0F3090070473C
:10D05000505C00400630002010B50B4CC000236827
:10D0600049089BB2034403F1005303F540535B00AE
:10D0700049001960236852089BB21844034B5200C0
:10D0800003445B001A6010BD505C00400430002077
:10D09000FFF744BFFFF752BFFFF760BFFFF76CBF5A
:10D0A000012910B52BD1254CC0002168244B89B231
:10D0B00001440B443E2A4FEA430119D9530912F0A7
:10D0C0001F0F04BF03F1FF339BB29B0243F40043E5
:10D0D0000B6023681B499BB2184401443E2A4FEA67
:10D0E00041011FD85308D20748BF01339B0222E0F9
:10D0F000530812F0010F18BF01339B02E8E7022921
:10D100000FD10E4CC00021680D4B89B201440B4475
:10D110005B001A6023689BB218440A4B03445B000F
:10D120001A6010BD5309D00604BF03F1FF339BB250
:10D130009B0243F400430B60F3E700BF505C0040E8
:10D14000023000200630002001291BD1134B144966
:10D150001B683E2A9BB203EBC00001444FEA410129
:10D160000AD95309D00604BF03F1FF339BB29B02D7
:10D1700043F400430B6070475308D20748BF0133A4
:10D180009B02F7E7022908D1044B1B689BB203EB13
:10D19000C000034B03445B001A607047505C0040C2
:10D1A0000230002001291BD1134B14491B683E2A71
:10D1B0009BB203EBC00001444FEA41010AD9530975
:10D1C000D00604BF03F1FF339BB29B0243F400433C
:10D1D0000B6070475308D20748BF01339B02F7E743
:10D1E000022908D1044B1B689BB203EBC000034B20
:10D1F00003445B001A607047505C0040063000201A
:10D20000FFF70ABFFFF718BF0D49C0000B689BB2BC
:10D21000C2180C4B13445B001B6813F47C4F0DD1F8
:10D220000B689BB21844084B03445B001B68C3F3B4
:10D230000903002B14BF0220002070470120704713
:10D24000505C0040063000200230002001290FD140
:10D25000800000F1804000F5B840036823F0F0033F
:10D260001B051B0D43F4004343F0C00303607047EC
:10D270000229FCD1800000F1804000F5B84003682D
:10D2800023F0F0031B051B0D43F4404343F08003E0
:10D29000ECE741EA00207047C3B2000A40EA0320ED
:10D2A000704700BF10B5064C18B9012223681A82D6
:10D2B00010BD044B1B681B68984720680A30F7E7CD
:10D2C00004140020F813002010B5064C18B90122F0
:10D2D00023681A8210BD044B1B689B68984720681E
:10D2E0000C30F7E704140020F81300201E4B10B593
:10D2F0001C68002310B90223238210BD1B48038041
:10D300002178024611F07F0112D1617A8C0644BF68
:10D3100002230370037848064CBF43F0010323F057
:10D3200001031370124B1B681B6998470F48E4E711
:10D330000129E2D0022915D1617901F00F039B0088
:10D3400003F1804303F5B84309061B6805D503F0D4
:10D350003003102BE6D10123E3E703F44053B3F588
:10D36000805FF7E71846C8E7041400200A1400207D
:10D37000F81300202DE9F843234FDFF8A0803D6823
:10D380002C8AD4B92E7A042E17D120498B78012B00
:10D390000ED11F4B1A681F4B92B213445B001C60E6
:10D3A00030238C70A8F800303B681E72BDE8F8830B
:10D3B00010230726A8F80030F6E7AB8A9C4294BFFA
:10D3C000042602269C4228BF1C46AB69204698478B
:10D3D00081460020FFF7C2FD224601464846FFF77E
:10D3E000E5FB21460020FFF7D5FD2B8A4FF4405284
:10D3F0001B1B2B826B8A1C443023A8F80030064B81
:10D400006C821A80D0E700BF041400200A140020A8
:10D41000505C0040023000200E1400201014002048
:10D4200010B50A4B0A491B684978DA7891420AD349
:10D43000997841B99C8834B99A72064B1B685B682D
:10D440009847204610BD0220FCE700BF04140020CE
:10D45000E8130020F813002038B50F4A0F4D12686A
:10D460002B689269D978587990472B6804469A7A44
:10D470007AB170B91A7962B99B7853B9084B1B68B5
:10D48000DB6898472B685A79DA72DA781A73204683
:10D4900038BD0224FBE700BF001400200414002064
:10D4A000F813002038B52F4B1B68187810F07F0058
:10D4B00004D15A7A22F020025A7238BD02284ED185
:10D4C0005A88002AF9D11A79002AF6D15979264DBD
:10D4D00021F08000840004F1804404F5B8442268FF
:10D4E00049B22D780029B4BF02F0300202F4405254
:10D4F000854234D99AB39B7A8BB30029236811DA19
:10D5000003F03003102B07D1C4B22046FFF7D9FC3B
:10D5100030212046FFF7CAFB144B1B685B69984714
:10D520000020CAE703F44053B3F5805FF4D198B903
:10D530000F4B1B6893F82C10FFF74DFD236823F465
:10D54000804323F070039BB283F4405343F40043C1
:10D5500043F080032360DFE7FFF7A0FCEEE7022043
:10D56000ABE700BF04140020E8130020F8130020EC
:10D570000014002038B51D4B1D4D18682D784179D9
:10D5800021F08004A20002F1804202F5B842136843
:10D5900049B20029B4BF03F0300303F44053A5425D
:10D5A00021D94488FCB9F3B1837AE3B11368002927
:10D5B000B5BF23F4E04323F4804323F0400323F07A
:10D5C0007003B5BF9BB29BB283F0100383F480530A
:10D5D00043F4004343F080031360064B1B689B69D0
:10D5E0009847002038BD0220FCE700BF041400204B
:10D5F000E8130020F813002008B5064B1A68537A88
:10D6000043F020035372044B1B68DB6998470020EA
:10D6100008BD00BF04140020F8130020054B10B50E
:10D620001C68628A18B98B889B1A238210BD08680F
:10D630001044FBE70414002008B50C4B00201B68C5
:10D6400093F82C10FFF7C7FC094B1B68187A0828C1
:10D6500006D14FF48052074B1A801022064B1A80D5
:10D66000A0F109035842584108BD00BF0014002032
:10D67000041400200E14002010140020F7B5964C5E
:10D68000964E276832683B7A092B19D0944B92B298
:10D6900013445B001D886D0005F1804505F5C0450C
:10D6A0002B783B706B787B70A888FFF7F5FD78804E
:10D6B00028892768FFF7F0FDB880AA892368DA80F7
:10D6C000012223681A72DA885D78002A61D11A78FB
:10D6D00012F07F024AD1092D03D1FFF7A1FE40BB12
:10D6E00016E0052D20D193F90320002A07DA08233C
:10D6F0002268137203B0BDE8F040FFF79DBF9A782F
:10D70000002AF4D19A88002AF1D19B7A002BEED11D
:10D710003268744B92B2134400225B001A603022CC
:10D72000714B1A800623E3E7032D11D1DA78012A21
:10D7300008D06E4B28461B685B699847032825D1A3
:10D740000923D5E79B88002BF3D1FFF755FFC6E7E8
:10D75000012DEED1DA78012AEBD19A88002AE8D19E
:10D760005B7A9F06E5D5FFF79DFEB8E7012A04D155
:10D770000B2DDED1FFF770FEB1E7022AD9D1012DC2
:10D78000F1D0032DD5D1FFF7F5FEA8E70028AED1E3
:10D79000BEE7062D12D11A7855065AD19B78534A06
:10D7A000012B126802D1D369DBB952E0022B01D1FF
:10D7B000136AF9E7032B4CD1536AF5E7002D54D1D6
:10D7C0005988002945D15A6822F47F42B2F5003FBA
:10D7D0003FD11A7812F07F0216D19B88002B38D1E6
:10D7E000434B002522682846558293619847284676
:10D7F0004FF6FF7123681A8A8A4233D0022801D07B
:10D80000002A55D108222EE0012A0AD1374A587938
:10D81000126892699047E0B923689B7A002BDFD1A8
:10D8200017E0022A15D15A7902F00F018B00100679
:10D8300003F180432F4803F5B8431B6800784CBFC1
:10D8400003F0300303F44053884202D912F0700F02
:10D85000E4D0264B22681B6850781B699847032840
:10D86000C6D1236809221A7244E7082D04D11B7817
:10D870005B06EED1204BB4E70A2DEAD11A7802F00C
:10D880007F02012AE5D19A7A002AE2D0598800293C
:10D89000DFD15A6822F47F42B2F5803FD9D1134AD2
:10D8A00058791268926990470028D2D1134B98E7B3
:10D8B00093F90010002934DAD9880C4801910068E6
:10D8C000019D90F82C00AA4284B219D9019A1A82BB
:10D8D0009C82FFF74FFD0DE704140020505C0040D0
:10D8E000043000200230002010140020001400201A
:10D8F000EDD20008E8130020A5D20008C9D2000824
:10D900008A42E5D2944203D90021094A9170DFE7A7
:10D9100092FBF0F100FB1122002AD9D1044A012127
:10D92000F4E703221A724FF44052024B1A80E1E6E8
:10D930000A1400200E140020F8B52B4E3468237A08
:10D94000022B4FD0042B4DD0032B01D0052B43D1FC
:10D95000A369B3B1258AA5B1A28A954228BF15460D
:10D9600028469847238A07465B1B2382638A002048
:10D970002B446382FFF700FB2A4601463846FFF737
:10D9800024F9238A53B100214FF44052174B084623
:10D990001A80FFF7FFFA3022154B1A80218AA38ADA
:10D9A00032688B4208D803231372137A32681372D9
:10D9B000BDE8F840FFF740BE09B10523F4E70623B0
:10D9C00013720C4B18680C4B80B203445B00196057
:10D9D0003021074B1980E8E7072B03D1074B1B6861
:10D9E000DB6898470823E1E7041400200E140020A8
:10D9F00010140020505C0040023000200014002071
:10DA0000F0B5002240F60F7548F280060A4B1C78EC
:10DA1000A24204D3094B40F080001860F0BD02F12F
:10DA2000805303F5B8539B00196842EA0607294062
:10DA3000394319600132EBE7E81300204C5C0040E9
:10DA400010B5134C23681A7A022A01D0042A09D18E
:10DA5000FFF790FC23681B7A22681372BDE8104020
:10DA6000FFF7EABD062A10D15A78052A09D11A789B
:10DA7000520606D1D878FFF7C3FF064B1B681B6A16
:10DA80009847054B1B689B6898470823E4E700BF4D
:10DA900004140020F813002000140020704700BF79
:10DAA00000232DE9F341564F564EADF80630396844
:10DAB0000B044FD501F00F023270002A6ED14BF6E5
:10DAC000BF75DFF84881504CD8F80030C9069BB2CA
:10DAD0002380238803F030036380238803F44053BA
